{
  "transactions": [
    {
      "hash": "0xb793070ce12310433fc71add5f0575b0a9be5742fee3f2d1ffaf76fb5ce98a2c",
      "transactionType": "CALL",
      "contractName": null,
      "contractAddress": "0xc099ab708e20e8b25c63ca156d7cc94404c55416",
      "function": "setRateLimits((uint32,uint256,uint256)[])",
      "arguments": [
        "[(30101, 100000000000000000000000000, 3600), (30362, 100000000000000000000000000, 3600), (30184, 100000000000000000000000000, 3600), (30111, 100000000000000000000000000, 3600), (30110, 100000000000000000000000000, 3600), (30102, 100000000000000000000000000, 3600), (30339, 100000000000000000000000000, 3600)]"
      ],
      "transaction": {
        "from": "0x4c51ce7b2546e18449fbe16738a8d55bc195a4dd",
        "to": "0xc099ab708e20e8b25c63ca156d7cc94404c55416",
        "gas": "0xaee99",
        "value": "0x0",
        "input": "0x46f943e900000000000000000000000000000000000000000000000000000000000000200000000000000000000000000000000000000000000000000000000000000007000000000000000000000000000000000000000000000000000000000000759500000000000000000000000000000000000000000052b7d2dcc80cd2e40000000000000000000000000000000000000000000000000000000000000000000e10000000000000000000000000000000000000000000000000000000000000769a00000000000000000000000000000000000000000052b7d2dcc80cd2e40000000000000000000000000000000000000000000000000000000000000000000e1000000000000000000000000000000000000000000000000000000000000075e800000000000000000000000000000000000000000052b7d2dcc80cd2e40000000000000000000000000000000000000000000000000000000000000000000e10000000000000000000000000000000000000000000000000000000000000759f00000000000000000000000000000000000000000052b7d2dcc80cd2e40000000000000000000000000000000000000000000000000000000000000000000e10000000000000000000000000000000000000000000000000000000000000759e00000000000000000000000000000000000000000052b7d2dcc80cd2e40000000000000000000000000000000000000000000000000000000000000000000e10000000000000000000000000000000000000000000000000000000000000759600000000000000000000000000000000000000000052b7d2dcc80cd2e40000000000000000000000000000000000000000000000000000000000000000000e10000000000000000000000000000000000000000000000000000000000000768300000000000000000000000000000000000000000052b7d2dcc80cd2e40000000000000000000000000000000000000000000000000000000000000000000e10",
        "nonce": "0xce",
        "chainId": "0xa4b1"
      },
      "additionalContracts": [],
      "isFixedGasLimit": false
    },
    {
      "hash": "0x52b14d6490db070fa28b001065117c249784c946b3121c7b4697a169979f8d79",
      "transactionType": "CALL",
      "contractName": null,
      "contractAddress": "0xc099ab708e20e8b25c63ca156d7cc94404c55416",
      "function": "setPeer(uint32,bytes32)",
      "arguments": [
        "30362",
        "0x000000000000000000000000c099ab708e20e8b25c63ca156d7cc94404c55416"
      ],
      "transaction": {
        "from": "0x4c51ce7b2546e18449fbe16738a8d55bc195a4dd",
        "to": "0xc099ab708e20e8b25c63ca156d7cc94404c55416",
        "gas": "0x135a8",
        "value": "0x0",
        "input": "0x3400288b000000000000000000000000000000000000000000000000000000000000769a000000000000000000000000c099ab708e20e8b25c63ca156d7cc94404c55416",
        "nonce": "0xcf",
        "chainId": "0xa4b1"
      },
      "additionalContracts": [],
      "isFixedGasLimit": false
    },
    {
      "hash": "0x3e3afc141b4248a6a5bd16d3d3a69df37d263e33888e4d4e9a44ef43597285cc",
      "transactionType": "CALL",
      "contractName": null,
      "contractAddress": "0xc099ab708e20e8b25c63ca156d7cc94404c55416",
      "function": "setPeer(uint32,bytes32)",
      "arguments": [
        "30184",
        "0x000000000000000000000000c099ab708e20e8b25c63ca156d7cc94404c55416"
      ],
      "transaction": {
        "from": "0x4c51ce7b2546e18449fbe16738a8d55bc195a4dd",
        "to": "0xc099ab708e20e8b25c63ca156d7cc94404c55416",
        "gas": "0x135a8",
        "value": "0x0",
        "input": "0x3400288b00000000000000000000000000000000000000000000000000000000000075e8000000000000000000000000c099ab708e20e8b25c63ca156d7cc94404c55416",
        "nonce": "0xd0",
        "chainId": "0xa4b1"
      },
      "additionalContracts": [],
      "isFixedGasLimit": false
    },
    {
      "hash": "0x95376b600f8886b74efcb8a197a27a12f07d701c6499fffac6bbcf671fefd5fc",
      "transactionType": "CALL",
      "contractName": null,
      "contractAddress": "0xc099ab708e20e8b25c63ca156d7cc94404c55416",
      "function": "setPeer(uint32,bytes32)",
      "arguments": [
        "30111",
        "0x000000000000000000000000c099ab708e20e8b25c63ca156d7cc94404c55416"
      ],
      "transaction": {
        "from": "0x4c51ce7b2546e18449fbe16738a8d55bc195a4dd",
        "to": "0xc099ab708e20e8b25c63ca156d7cc94404c55416",
        "gas": "0x135a8",
        "value": "0x0",
        "input": "0x3400288b000000000000000000000000000000000000000000000000000000000000759f000000000000000000000000c099ab708e20e8b25c63ca156d7cc94404c55416",
        "nonce": "0xd1",
        "chainId": "0xa4b1"
      },
      "additionalContracts": [],
      "isFixedGasLimit": false
    },
    {
      "hash": "0x568fbd00e806982f4586db33d2a178bc14264dfa8a131de7f1ec55c22ddb57ce",
      "transactionType": "CALL",
      "contractName": null,
      "contractAddress": "0xc099ab708e20e8b25c63ca156d7cc94404c55416",
      "function": "setPeer(uint32,bytes32)",
      "arguments": [
        "30101",
        "0x000000000000000000000000c099ab708e20e8b25c63ca156d7cc94404c55416"
      ],
      "transaction": {
        "from": "0x4c51ce7b2546e18449fbe16738a8d55bc195a4dd",
        "to": "0xc099ab708e20e8b25c63ca156d7cc94404c55416",
        "gas": "0x135a8",
        "value": "0x0",
        "input": "0x3400288b0000000000000000000000000000000000000000000000000000000000007595000000000000000000000000c099ab708e20e8b25c63ca156d7cc94404c55416",
        "nonce": "0xd2",
        "chainId": "0xa4b1"
      },
      "additionalContracts": [],
      "isFixedGasLimit": false
    },
    {
      "hash": "0xf384add874a5ab4700bfb07b3bede44dc341fe8743226ee20dd83820535360b5",
      "transactionType": "CALL",
      "contractName": null,
      "contractAddress": "0xc099ab708e20e8b25c63ca156d7cc94404c55416",
      "function": "setPeer(uint32,bytes32)",
      "arguments": [
        "30102",
        "0x000000000000000000000000c099ab708e20e8b25c63ca156d7cc94404c55416"
      ],
      "transaction": {
        "from": "0x4c51ce7b2546e18449fbe16738a8d55bc195a4dd",
        "to": "0xc099ab708e20e8b25c63ca156d7cc94404c55416",
        "gas": "0x135a8",
        "value": "0x0",
        "input": "0x3400288b0000000000000000000000000000000000000000000000000000000000007596000000000000000000000000c099ab708e20e8b25c63ca156d7cc94404c55416",
        "nonce": "0xd3",
        "chainId": "0xa4b1"
      },
      "additionalContracts": [],
      "isFixedGasLimit": false
    },
    {
      "hash": "0xfeddc78b0a5c1644a4cedf08d7721a55123b6e3bcd4e8f9702b1d09f7452fe3a",
      "transactionType": "CALL",
      "contractName": null,
      "contractAddress": "0xc099ab708e20e8b25c63ca156d7cc94404c55416",
      "function": "setPeer(uint32,bytes32)",
      "arguments": [
        "30339",
        "0x000000000000000000000000c099ab708e20e8b25c63ca156d7cc94404c55416"
      ],
      "transaction": {
        "from": "0x4c51ce7b2546e18449fbe16738a8d55bc195a4dd",
        "to": "0xc099ab708e20e8b25c63ca156d7cc94404c55416",
        "gas": "0x135a8",
        "value": "0x0",
        "input": "0x3400288b0000000000000000000000000000000000000000000000000000000000007683000000000000000000000000c099ab708e20e8b25c63ca156d7cc94404c55416",
        "nonce": "0xd4",
        "chainId": "0xa4b1"
      },
      "additionalContracts": [],
      "isFixedGasLimit": false
    },
    {
      "hash": "0x6db6cf7f1156487153d4707443ab3d435ebadd7df781f84f60efcce5037712e4",
      "transactionType": "CALL",
      "contractName": null,
      "contractAddress": "0x1a44076050125825900e736c501f859c50fe728c",
      "function": "setReceiveLibrary(address,uint32,address,uint256)",
      "arguments": [
        "0xc099Ab708e20E8b25C63cA156D7cc94404c55416",
        "30362",
        "0x7B9E184e07a6EE1aC23eAe0fe8D6Be2f663f05e6",
        "0"
      ],
      "transaction": {
        "from": "0x4c51ce7b2546e18449fbe16738a8d55bc195a4dd",
        "to": "0x1a44076050125825900e736c501f859c50fe728c",
        "gas": "0x17cb7",
        "value": "0x0",
        "input": "0x6a14d715000000000000000000000000c099ab708e20e8b25c63ca156d7cc94404c55416000000000000000000000000000000000000000000000000000000000000769a0000000000000000000000007b9e184e07a6ee1ac23eae0fe8d6be2f663f05e60000000000000000000000000000000000000000000000000000000000000000",
        "nonce": "0xd5",
        "chainId": "0xa4b1"
      },
      "additionalContracts": [],
      "isFixedGasLimit": false
    },
    {
      "hash": "0xb64d440fa7dea6b7ec64d36b77c8ebb521ed70d60e1d61cd9b2825593e0a2fdd",
      "transactionType": "CALL",
      "contractName": null,
      "contractAddress": "0x1a44076050125825900e736c501f859c50fe728c",
      "function": "setReceiveLibrary(address,uint32,address,uint256)",
      "arguments": [
        "0xc099Ab708e20E8b25C63cA156D7cc94404c55416",
        "30184",
        "0x7B9E184e07a6EE1aC23eAe0fe8D6Be2f663f05e6",
        "0"
      ],
      "transaction": {
        "from": "0x4c51ce7b2546e18449fbe16738a8d55bc195a4dd",
        "to": "0x1a44076050125825900e736c501f859c50fe728c",
        "gas": "0x17cb7",
        "value": "0x0",
        "input": "0x6a14d715000000000000000000000000c099ab708e20e8b25c63ca156d7cc94404c5541600000000000000000000000000000000000000000000000000000000000075e80000000000000000000000007b9e184e07a6ee1ac23eae0fe8d6be2f663f05e60000000000000000000000000000000000000000000000000000000000000000",
        "nonce": "0xd6",
        "chainId": "0xa4b1"
      },
      "additionalContracts": [],
      "isFixedGasLimit": false
    },
    {
      "hash": "0xe2470d166a6a209e217b4abd5ca4f9d21ad310291715a506bdb1a1c8d9a104a2",
      "transactionType": "CALL",
      "contractName": null,
      "contractAddress": "0x1a44076050125825900e736c501f859c50fe728c",
      "function": "setReceiveLibrary(address,uint32,address,uint256)",
      "arguments": [
        "0xc099Ab708e20E8b25C63cA156D7cc94404c55416",
        "30111",
        "0x7B9E184e07a6EE1aC23eAe0fe8D6Be2f663f05e6",
        "0"
      ],
      "transaction": {
        "from": "0x4c51ce7b2546e18449fbe16738a8d55bc195a4dd",
        "to": "0x1a44076050125825900e736c501f859c50fe728c",
        "gas": "0x17cb7",
        "value": "0x0",
        "input": "0x6a14d715000000000000000000000000c099ab708e20e8b25c63ca156d7cc94404c55416000000000000000000000000000000000000000000000000000000000000759f0000000000000000000000007b9e184e07a6ee1ac23eae0fe8d6be2f663f05e60000000000000000000000000000000000000000000000000000000000000000",
        "nonce": "0xd7",
        "chainId": "0xa4b1"
      },
      "additionalContracts": [],
      "isFixedGasLimit": false
    },
    {
      "hash": "0x09a0b9c9cded041bce34ae0687dd472a78f406821d34ee28c4ae0c194acc6c36",
      "transactionType": "CALL",
      "contractName": null,
      "contractAddress": "0x1a44076050125825900e736c501f859c50fe728c",
      "function": "setReceiveLibrary(address,uint32,address,uint256)",
      "arguments": [
        "0xc099Ab708e20E8b25C63cA156D7cc94404c55416",
        "30101",
        "0x7B9E184e07a6EE1aC23eAe0fe8D6Be2f663f05e6",
        "0"
      ],
      "transaction": {
        "from": "0x4c51ce7b2546e18449fbe16738a8d55bc195a4dd",
        "to": "0x1a44076050125825900e736c501f859c50fe728c",
        "gas": "0x17cb7",
        "value": "0x0",
        "input": "0x6a14d715000000000000000000000000c099ab708e20e8b25c63ca156d7cc94404c5541600000000000000000000000000000000000000000000000000000000000075950000000000000000000000007b9e184e07a6ee1ac23eae0fe8d6be2f663f05e60000000000000000000000000000000000000000000000000000000000000000",
        "nonce": "0xd8",
        "chainId": "0xa4b1"
      },
      "additionalContracts": [],
      "isFixedGasLimit": false
    },
    {
      "hash": "0x0aa02c53d5def9dddf3fe2ed060e26d9e4330750fb4757161fc5eb2883aa9c00",
      "transactionType": "CALL",
      "contractName": null,
      "contractAddress": "0x1a44076050125825900e736c501f859c50fe728c",
      "function": "setReceiveLibrary(address,uint32,address,uint256)",
      "arguments": [
        "0xc099Ab708e20E8b25C63cA156D7cc94404c55416",
        "30102",
        "0x7B9E184e07a6EE1aC23eAe0fe8D6Be2f663f05e6",
        "0"
      ],
      "transaction": {
        "from": "0x4c51ce7b2546e18449fbe16738a8d55bc195a4dd",
        "to": "0x1a44076050125825900e736c501f859c50fe728c",
        "gas": "0x17cb7",
        "value": "0x0",
        "input": "0x6a14d715000000000000000000000000c099ab708e20e8b25c63ca156d7cc94404c5541600000000000000000000000000000000000000000000000000000000000075960000000000000000000000007b9e184e07a6ee1ac23eae0fe8d6be2f663f05e60000000000000000000000000000000000000000000000000000000000000000",
        "nonce": "0xd9",
        "chainId": "0xa4b1"
      },
      "additionalContracts": [],
      "isFixedGasLimit": false
    },
    {
      "hash": "0x868f163a50bf4b99c2b1fda64f80a6833cbfb4182e90f0de6a56dac9f391f8ec",
      "transactionType": "CALL",
      "contractName": null,
      "contractAddress": "0x1a44076050125825900e736c501f859c50fe728c",
      "function": "setReceiveLibrary(address,uint32,address,uint256)",
      "arguments": [
        "0xc099Ab708e20E8b25C63cA156D7cc94404c55416",
        "30339",
        "0x7B9E184e07a6EE1aC23eAe0fe8D6Be2f663f05e6",
        "0"
      ],
      "transaction": {
        "from": "0x4c51ce7b2546e18449fbe16738a8d55bc195a4dd",
        "to": "0x1a44076050125825900e736c501f859c50fe728c",
        "gas": "0x17cb7",
        "value": "0x0",
        "input": "0x6a14d715000000000000000000000000c099ab708e20e8b25c63ca156d7cc94404c5541600000000000000000000000000000000000000000000000000000000000076830000000000000000000000007b9e184e07a6ee1ac23eae0fe8d6be2f663f05e60000000000000000000000000000000000000000000000000000000000000000",
        "nonce": "0xda",
        "chainId": "0xa4b1"
      },
      "additionalContracts": [],
      "isFixedGasLimit": false
    },
    {
      "hash": "0xa80d5a0a399da73c86b9b253684ebac63c6aeba144ec4f3fb7f5d900288becbc",
      "transactionType": "CALL",
      "contractName": null,
      "contractAddress": "0xc099ab708e20e8b25c63ca156d7cc94404c55416",
      "function": "setEnforcedOptions((uint32,uint16,bytes)[])",
      "arguments": [
        "[(30362, 1, 0x00030100110100000000000000000000000000029810), (30362, 2, 0x0003010011010000000000000000000000000002981001001303000000000000000000000000000000029810)]"
      ],
      "transaction": {
        "from": "0x4c51ce7b2546e18449fbe16738a8d55bc195a4dd",
        "to": "0xc099ab708e20e8b25c63ca156d7cc94404c55416",
        "gas": "0x2d90e",
        "value": "0x0",
        "input": "0xb98bd07000000000000000000000000000000000000000000000000000000000000000200000000000000000000000000000000000000000000000000000000000000002000000000000000000000000000000000000000000000000000000000000004000000000000000000000000000000000000000000000000000000000000000e0000000000000000000000000000000000000000000000000000000000000769a0000000000000000000000000000000000000000000000000000000000000001000000000000000000000000000000000000000000000000000000000000006000000000000000000000000000000000000000000000000000000000000000160003010011010000000000000000000000000002981000000000000000000000000000000000000000000000000000000000000000000000000000000000769a00000000000000000000000000000000000000000000000000000000000000020000000000000000000000000000000000000000000000000000000000000060000000000000000000000000000000000000000000000000000000000000002c00030100110100000000000000000000000000029810010013030000000000000000000000000000000298100000000000000000000000000000000000000000",
        "nonce": "0xdb",
        "chainId": "0xa4b1"
      },
      "additionalContracts": [],
      "isFixedGasLimit": false
    },
    {
      "hash": "0xdb74df43eb1b95e30e3d774372af0650eacac730d214cfa255fc4353874097c1",
      "transactionType": "CALL",
      "contractName": null,
      "contractAddress": "0xc099ab708e20e8b25c63ca156d7cc94404c55416",
      "function": "setEnforcedOptions((uint32,uint16,bytes)[])",
      "arguments": [
        "[(30184, 1, 0x00030100110100000000000000000000000000029810), (30184, 2, 0x0003010011010000000000000000000000000002981001001303000000000000000000000000000000029810)]"
      ],
      "transaction": {
        "from": "0x4c51ce7b2546e18449fbe16738a8d55bc195a4dd",
        "to": "0xc099ab708e20e8b25c63ca156d7cc94404c55416",
        "gas": "0x2d93b",
        "value": "0x0",
        "input": "0xb98bd07000000000000000000000000000000000000000000000000000000000000000200000000000000000000000000000000000000000000000000000000000000002000000000000000000000000000000000000000000000000000000000000004000000000000000000000000000000000000000000000000000000000000000e000000000000000000000000000000000000000000000000000000000000075e8000000000000000000000000000000000000000000000000000000000000000100000000000000000000000000000000000000000000000000000000000000600000000000000000000000000000000000000000000000000000000000000016000301001101000000000000000000000000000298100000000000000000000000000000000000000000000000000000000000000000000000000000000075e800000000000000000000000000000000000000000000000000000000000000020000000000000000000000000000000000000000000000000000000000000060000000000000000000000000000000000000000000000000000000000000002c00030100110100000000000000000000000000029810010013030000000000000000000000000000000298100000000000000000000000000000000000000000",
        "nonce": "0xdc",
        "chainId": "0xa4b1"
      },
      "additionalContracts": [],
      "isFixedGasLimit": false
    },
    {
      "hash": "0x92be908800d3f983fd79788994da6c41943140de06fb0b4ed3ee1ea9b6a190bd",
      "transactionType": "CALL",
      "contractName": null,
      "contractAddress": "0xc099ab708e20e8b25c63ca156d7cc94404c55416",
      "function": "setEnforcedOptions((uint32,uint16,bytes)[])",
      "arguments": [
        "[(30111, 1, 0x00030100110100000000000000000000000000029810), (30111, 2, 0x0003010011010000000000000000000000000002981001001303000000000000000000000000000000029810)]"
      ],
      "transaction": {
        "from": "0x4c51ce7b2546e18449fbe16738a8d55bc195a4dd",
        "to": "0xc099ab708e20e8b25c63ca156d7cc94404c55416",
        "gas": "0x2d8e0",
        "value": "0x0",
        "input": "0xb98bd07000000000000000000000000000000000000000000000000000000000000000200000000000000000000000000000000000000000000000000000000000000002000000000000000000000000000000000000000000000000000000000000004000000000000000000000000000000000000000000000000000000000000000e0000000000000000000000000000000000000000000000000000000000000759f0000000000000000000000000000000000000000000000000000000000000001000000000000000000000000000000000000000000000000000000000000006000000000000000000000000000000000000000000000000000000000000000160003010011010000000000000000000000000002981000000000000000000000000000000000000000000000000000000000000000000000000000000000759f00000000000000000000000000000000000000000000000000000000000000020000000000000000000000000000000000000000000000000000000000000060000000000000000000000000000000000000000000000000000000000000002c00030100110100000000000000000000000000029810010013030000000000000000000000000000000298100000000000000000000000000000000000000000",
        "nonce": "0xdd",
        "chainId": "0xa4b1"
      },
      "additionalContracts": [],
      "isFixedGasLimit": false
    },
    {
      "hash": "0x0d90ae0cf33f4079739ee4e9f725a80abad2cacfaf9d95ea503dcfb10f0fb8aa",
      "transactionType": "CALL",
      "contractName": null,
      "contractAddress": "0xc099ab708e20e8b25c63ca156d7cc94404c55416",
      "function": "setEnforcedOptions((uint32,uint16,bytes)[])",
      "arguments": [
        "[(30101, 1, 0x00030100110100000000000000000000000000029810), (30101, 2, 0x0003010011010000000000000000000000000002981001001303000000000000000000000000000000029810)]"
      ],
      "transaction": {
        "from": "0x4c51ce7b2546e18449fbe16738a8d55bc195a4dd",
        "to": "0xc099ab708e20e8b25c63ca156d7cc94404c55416",
        "gas": "0x2d8e0",
        "value": "0x0",
        "input": "0xb98bd07000000000000000000000000000000000000000000000000000000000000000200000000000000000000000000000000000000000000000000000000000000002000000000000000000000000000000000000000000000000000000000000004000000000000000000000000000000000000000000000000000000000000000e000000000000000000000000000000000000000000000000000000000000075950000000000000000000000000000000000000000000000000000000000000001000000000000000000000000000000000000000000000000000000000000006000000000000000000000000000000000000000000000000000000000000000160003010011010000000000000000000000000002981000000000000000000000000000000000000000000000000000000000000000000000000000000000759500000000000000000000000000000000000000000000000000000000000000020000000000000000000000000000000000000000000000000000000000000060000000000000000000000000000000000000000000000000000000000000002c00030100110100000000000000000000000000029810010013030000000000000000000000000000000298100000000000000000000000000000000000000000",
        "nonce": "0xde",
        "chainId": "0xa4b1"
      },
      "additionalContracts": [],
      "isFixedGasLimit": false
    },
    {
      "hash": "0x38967ca6dbbfb052911af5a7299e2ea01b09cb1fa66dcce3b5a11f9fac98bca7",
      "transactionType": "CALL",
      "contractName": null,
      "contractAddress": "0xc099ab708e20e8b25c63ca156d7cc94404c55416",
      "function": "setEnforcedOptions((uint32,uint16,bytes)[])",
      "arguments": [
        "[(30102, 1, 0x00030100110100000000000000000000000000029810), (30102, 2, 0x0003010011010000000000000000000000000002981001001303000000000000000000000000000000029810)]"
      ],
      "transaction": {
        "from": "0x4c51ce7b2546e18449fbe16738a8d55bc195a4dd",
        "to": "0xc099ab708e20e8b25c63ca156d7cc94404c55416",
        "gas": "0x2d8e0",
        "value": "0x0",
        "input": "0xb98bd07000000000000000000000000000000000000000000000000000000000000000200000000000000000000000000000000000000000000000000000000000000002000000000000000000000000000000000000000000000000000000000000004000000000000000000000000000000000000000000000000000000000000000e000000000000000000000000000000000000000000000000000000000000075960000000000000000000000000000000000000000000000000000000000000001000000000000000000000000000000000000000000000000000000000000006000000000000000000000000000000000000000000000000000000000000000160003010011010000000000000000000000000002981000000000000000000000000000000000000000000000000000000000000000000000000000000000759600000000000000000000000000000000000000000000000000000000000000020000000000000000000000000000000000000000000000000000000000000060000000000000000000000000000000000000000000000000000000000000002c00030100110100000000000000000000000000029810010013030000000000000000000000000000000298100000000000000000000000000000000000000000",
        "nonce": "0xdf",
        "chainId": "0xa4b1"
      },
      "additionalContracts": [],
      "isFixedGasLimit": false
    },
    {
      "hash": "0x4635cc200a00bcd7fb1afce0726ec0dea1a5609bdcc0fee2d48628c9d5890bfc",
      "transactionType": "CALL",
      "contractName": null,
      "contractAddress": "0xc099ab708e20e8b25c63ca156d7cc94404c55416",
      "function": "setEnforcedOptions((uint32,uint16,bytes)[])",
      "arguments": [
        "[(30339, 1, 0x00030100110100000000000000000000000000029810), (30339, 2, 0x0003010011010000000000000000000000000002981001001303000000000000000000000000000000029810)]"
      ],
      "transaction": {
        "from": "0x4c51ce7b2546e18449fbe16738a8d55bc195a4dd",
        "to": "0xc099ab708e20e8b25c63ca156d7cc94404c55416",
        "gas": "0x2d90e",
        "value": "0x0",
        "input": "0xb98bd07000000000000000000000000000000000000000000000000000000000000000200000000000000000000000000000000000000000000000000000000000000002000000000000000000000000000000000000000000000000000000000000004000000000000000000000000000000000000000000000000000000000000000e000000000000000000000000000000000000000000000000000000000000076830000000000000000000000000000000000000000000000000000000000000001000000000000000000000000000000000000000000000000000000000000006000000000000000000000000000000000000000000000000000000000000000160003010011010000000000000000000000000002981000000000000000000000000000000000000000000000000000000000000000000000000000000000768300000000000000000000000000000000000000000000000000000000000000020000000000000000000000000000000000000000000000000000000000000060000000000000000000000000000000000000000000000000000000000000002c00030100110100000000000000000000000000029810010013030000000000000000000000000000000298100000000000000000000000000000000000000000",
        "nonce": "0xe0",
        "chainId": "0xa4b1"
      },
      "additionalContracts": [],
      "isFixedGasLimit": false
    },
    {
      "hash": "0xdc979f85178ae0910f5998e9448b8d4734b8d2eceaaf1ba045b6c2d0f4109ac9",
      "transactionType": "CALL",
      "contractName": null,
      "contractAddress": "0x1a44076050125825900e736c501f859c50fe728c",
      "function": "setConfig(address,address,(uint32,uint32,bytes)[])",
      "arguments": [
        "0xc099Ab708e20E8b25C63cA156D7cc94404c55416",
        "0x975bcD720be66659e3EB3C0e4F1866a3020E493A",
        "[(30362, 2, 0x0000000000000000000000000000000000000000000000000000000000000020000000000000000000000000000000000000000000000000000000000000002000000000000000000000000000000000000000000000000000000000000000020000000000000000000000000000000000000000000000000000000000000000000000000000000000000000000000000000000000000000000000000000000000000000000000000000000000000000000000000000000000000000000000c0000000000000000000000000000000000000000000000000000000000000012000000000000000000000000000000000000000000000000000000000000000020000000000000000000000002f55c492897526677c5b68fb199ea31e2c126416000000000000000000000000a7b5189bca84cd304d8553977c7c614329750d990000000000000000000000000000000000000000000000000000000000000000)]"
      ],
      "transaction": {
        "from": "0x4c51ce7b2546e18449fbe16738a8d55bc195a4dd",
        "to": "0x1a44076050125825900e736c501f859c50fe728c",
        "gas": "0x3171b",
        "value": "0x0",
        "input": "0x6dbd9f90000000000000000000000000c099ab708e20e8b25c63ca156d7cc94404c55416000000000000000000000000975bcd720be66659e3eb3c0e4f1866a3020e493a000000000000000000000000000000000000000000000000000000000000006000000000000000000000000000000000000000000000000000000000000000010000000000000000000000000000000000000000000000000000000000000020000000000000000000000000000000000000000000000000000000000000769a0000000000000000000000000000000000000000000000000000000000000002000000000000000000000000000000000000000000000000000000000000006000000000000000000000000000000000000000000000000000000000000001600000000000000000000000000000000000000000000000000000000000000020000000000000000000000000000000000000000000000000000000000000002000000000000000000000000000000000000000000000000000000000000000020000000000000000000000000000000000000000000000000000000000000000000000000000000000000000000000000000000000000000000000000000000000000000000000000000000000000000000000000000000000000000000000c0000000000000000000000000000000000000000000000000000000000000012000000000000000000000000000000000000000000000000000000000000000020000000000000000000000002f55c492897526677c5b68fb199ea31e2c126416000000000000000000000000a7b5189bca84cd304d8553977c7c614329750d990000000000000000000000000000000000000000000000000000000000000000",
        "nonce": "0xe1",
        "chainId": "0xa4b1"
      },
      "additionalContracts": [],
      "isFixedGasLimit": false
    },
    {
      "hash": "0x806726947b1fc822c820659646acc07a5d59ea13e59f73170eb6885f0f28643d",
      "transactionType": "CALL",
      "contractName": null,
      "contractAddress": "0x1a44076050125825900e736c501f859c50fe728c",
      "function": "setConfig(address,address,(uint32,uint32,bytes)[])",
      "arguments": [
        "0xc099Ab708e20E8b25C63cA156D7cc94404c55416",
        "0x7B9E184e07a6EE1aC23eAe0fe8D6Be2f663f05e6",
        "[(30362, 2, 0x0000000000000000000000000000000000000000000000000000000000000020000000000000000000000000000000000000000000000000000000000000002000000000000000000000000000000000000000000000000000000000000000020000000000000000000000000000000000000000000000000000000000000000000000000000000000000000000000000000000000000000000000000000000000000000000000000000000000000000000000000000000000000000000000c0000000000000000000000000000000000000000000000000000000000000012000000000000000000000000000000000000000000000000000000000000000020000000000000000000000002f55c492897526677c5b68fb199ea31e2c126416000000000000000000000000a7b5189bca84cd304d8553977c7c614329750d990000000000000000000000000000000000000000000000000000000000000000)]"
      ],
      "transaction": {
        "from": "0x4c51ce7b2546e18449fbe16738a8d55bc195a4dd",
        "to": "0x1a44076050125825900e736c501f859c50fe728c",
        "gas": "0x3168a",
        "value": "0x0",
        "input": "0x6dbd9f90000000000000000000000000c099ab708e20e8b25c63ca156d7cc94404c554160000000000000000000000007b9e184e07a6ee1ac23eae0fe8d6be2f663f05e6000000000000000000000000000000000000000000000000000000000000006000000000000000000000000000000000000000000000000000000000000000010000000000000000000000000000000000000000000000000000000000000020000000000000000000000000000000000000000000000000000000000000769a0000000000000000000000000000000000000000000000000000000000000002000000000000000000000000000000000000000000000000000000000000006000000000000000000000000000000000000000000000000000000000000001600000000000000000000000000000000000000000000000000000000000000020000000000000000000000000000000000000000000000000000000000000002000000000000000000000000000000000000000000000000000000000000000020000000000000000000000000000000000000000000000000000000000000000000000000000000000000000000000000000000000000000000000000000000000000000000000000000000000000000000000000000000000000000000000c0000000000000000000000000000000000000000000000000000000000000012000000000000000000000000000000000000000000000000000000000000000020000000000000000000000002f55c492897526677c5b68fb199ea31e2c126416000000000000000000000000a7b5189bca84cd304d8553977c7c614329750d990000000000000000000000000000000000000000000000000000000000000000",
        "nonce": "0xe2",
        "chainId": "0xa4b1"
      },
      "additionalContracts": [],
      "isFixedGasLimit": false
    },
    {
      "hash": "0xf3acb2eeddc88e62fbd1b83d9645cf61438f35b5bd305ae961ad4579f6842f01",
      "transactionType": "CALL",
      "contractName": null,
      "contractAddress": "0x1a44076050125825900e736c501f859c50fe728c",
      "function": "setConfig(address,address,(uint32,uint32,bytes)[])",
      "arguments": [
        "0xc099Ab708e20E8b25C63cA156D7cc94404c55416",
        "0x975bcD720be66659e3EB3C0e4F1866a3020E493A",
        "[(30184, 2, 0x0000000000000000000000000000000000000000000000000000000000000020000000000000000000000000000000000000000000000000000000000000002000000000000000000000000000000000000000000000000000000000000000020000000000000000000000000000000000000000000000000000000000000000000000000000000000000000000000000000000000000000000000000000000000000000000000000000000000000000000000000000000000000000000000c0000000000000000000000000000000000000000000000000000000000000012000000000000000000000000000000000000000000000000000000000000000020000000000000000000000002f55c492897526677c5b68fb199ea31e2c126416000000000000000000000000a7b5189bca84cd304d8553977c7c614329750d990000000000000000000000000000000000000000000000000000000000000000)]"
      ],
      "transaction": {
        "from": "0x4c51ce7b2546e18449fbe16738a8d55bc195a4dd",
        "to": "0x1a44076050125825900e736c501f859c50fe728c",
        "gas": "0x316c0",
        "value": "0x0",
        "input": "0x6dbd9f90000000000000000000000000c099ab708e20e8b25c63ca156d7cc94404c55416000000000000000000000000975bcd720be66659e3eb3c0e4f1866a3020e493a00000000000000000000000000000000000000000000000000000000000000600000000000000000000000000000000000000000000000000000000000000001000000000000000000000000000000000000000000000000000000000000002000000000000000000000000000000000000000000000000000000000000075e80000000000000000000000000000000000000000000000000000000000000002000000000000000000000000000000000000000000000000000000000000006000000000000000000000000000000000000000000000000000000000000001600000000000000000000000000000000000000000000000000000000000000020000000000000000000000000000000000000000000000000000000000000002000000000000000000000000000000000000000000000000000000000000000020000000000000000000000000000000000000000000000000000000000000000000000000000000000000000000000000000000000000000000000000000000000000000000000000000000000000000000000000000000000000000000000c0000000000000000000000000000000000000000000000000000000000000012000000000000000000000000000000000000000000000000000000000000000020000000000000000000000002f55c492897526677c5b68fb199ea31e2c126416000000000000000000000000a7b5189bca84cd304d8553977c7c614329750d990000000000000000000000000000000000000000000000000000000000000000",
        "nonce": "0xe3",
        "chainId": "0xa4b1"
      },
      "additionalContracts": [],
      "isFixedGasLimit": false
    },
    {
      "hash": "0x070b94c306d16f4d0acae6736497f2eb2bdfd40c60dd8a377c22bb8d716b73de",
      "transactionType": "CALL",
      "contractName": null,
      "contractAddress": "0x1a44076050125825900e736c501f859c50fe728c",
      "function": "setConfig(address,address,(uint32,uint32,bytes)[])",
      "arguments": [
        "0xc099Ab708e20E8b25C63cA156D7cc94404c55416",
        "0x7B9E184e07a6EE1aC23eAe0fe8D6Be2f663f05e6",
        "[(30184, 2, 0x0000000000000000000000000000000000000000000000000000000000000020000000000000000000000000000000000000000000000000000000000000002000000000000000000000000000000000000000000000000000000000000000020000000000000000000000000000000000000000000000000000000000000000000000000000000000000000000000000000000000000000000000000000000000000000000000000000000000000000000000000000000000000000000000c0000000000000000000000000000000000000000000000000000000000000012000000000000000000000000000000000000000000000000000000000000000020000000000000000000000002f55c492897526677c5b68fb199ea31e2c126416000000000000000000000000a7b5189bca84cd304d8553977c7c614329750d990000000000000000000000000000000000000000000000000000000000000000)]"
      ],
      "transaction": {
        "from": "0x4c51ce7b2546e18449fbe16738a8d55bc195a4dd",
        "to": "0x1a44076050125825900e736c501f859c50fe728c",
        "gas": "0x315fe",
        "value": "0x0",
        "input": "0x6dbd9f90000000000000000000000000c099ab708e20e8b25c63ca156d7cc94404c554160000000000000000000000007b9e184e07a6ee1ac23eae0fe8d6be2f663f05e600000000000000000000000000000000000000000000000000000000000000600000000000000000000000000000000000000000000000000000000000000001000000000000000000000000000000000000000000000000000000000000002000000000000000000000000000000000000000000000000000000000000075e80000000000000000000000000000000000000000000000000000000000000002000000000000000000000000000000000000000000000000000000000000006000000000000000000000000000000000000000000000000000000000000001600000000000000000000000000000000000000000000000000000000000000020000000000000000000000000000000000000000000000000000000000000002000000000000000000000000000000000000000000000000000000000000000020000000000000000000000000000000000000000000000000000000000000000000000000000000000000000000000000000000000000000000000000000000000000000000000000000000000000000000000000000000000000000000000c0000000000000000000000000000000000000000000000000000000000000012000000000000000000000000000000000000000000000000000000000000000020000000000000000000000002f55c492897526677c5b68fb199ea31e2c126416000000000000000000000000a7b5189bca84cd304d8553977c7c614329750d990000000000000000000000000000000000000000000000000000000000000000",
        "nonce": "0xe4",
        "chainId": "0xa4b1"
      },
      "additionalContracts": [],
      "isFixedGasLimit": false
    },
    {
      "hash": "0xfcb024f4ab5af4e2dfbf086abbdff361f853d606ec0d1a0c33b6a942c3ecd196",
      "transactionType": "CALL",
      "contractName": null,
      "contractAddress": "0x1a44076050125825900e736c501f859c50fe728c",
      "function": "setConfig(address,address,(uint32,uint32,bytes)[])",
      "arguments": [
        "0xc099Ab708e20E8b25C63cA156D7cc94404c55416",
        "0x975bcD720be66659e3EB3C0e4F1866a3020E493A",
        "[(30111, 2, 0x0000000000000000000000000000000000000000000000000000000000000020000000000000000000000000000000000000000000000000000000000000002000000000000000000000000000000000000000000000000000000000000000020000000000000000000000000000000000000000000000000000000000000000000000000000000000000000000000000000000000000000000000000000000000000000000000000000000000000000000000000000000000000000000000c0000000000000000000000000000000000000000000000000000000000000012000000000000000000000000000000000000000000000000000000000000000020000000000000000000000002f55c492897526677c5b68fb199ea31e2c126416000000000000000000000000a7b5189bca84cd304d8553977c7c614329750d990000000000000000000000000000000000000000000000000000000000000000)]"
      ],
      "transaction": {
        "from": "0x4c51ce7b2546e18449fbe16738a8d55bc195a4dd",
        "to": "0x1a44076050125825900e736c501f859c50fe728c",
        "gas": "0x316c0",
        "value": "0x0",
        "input": "0x6dbd9f90000000000000000000000000c099ab708e20e8b25c63ca156d7cc94404c55416000000000000000000000000975bcd720be66659e3eb3c0e4f1866a3020e493a000000000000000000000000000000000000000000000000000000000000006000000000000000000000000000000000000000000000000000000000000000010000000000000000000000000000000000000000000000000000000000000020000000000000000000000000000000000000000000000000000000000000759f0000000000000000000000000000000000000000000000000000000000000002000000000000000000000000000000000000000000000000000000000000006000000000000000000000000000000000000000000000000000000000000001600000000000000000000000000000000000000000000000000000000000000020000000000000000000000000000000000000000000000000000000000000002000000000000000000000000000000000000000000000000000000000000000020000000000000000000000000000000000000000000000000000000000000000000000000000000000000000000000000000000000000000000000000000000000000000000000000000000000000000000000000000000000000000000000c0000000000000000000000000000000000000000000000000000000000000012000000000000000000000000000000000000000000000000000000000000000020000000000000000000000002f55c492897526677c5b68fb199ea31e2c126416000000000000000000000000a7b5189bca84cd304d8553977c7c614329750d990000000000000000000000000000000000000000000000000000000000000000",
        "nonce": "0xe5",
        "chainId": "0xa4b1"
      },
      "additionalContracts": [],
      "isFixedGasLimit": false
    },
    {
      "hash": "0x1956c8ea02fee65ad10f020e89113783cbe6d8d21e1de3baf8a82c7237096c96",
      "transactionType": "CALL",
      "contractName": null,
      "contractAddress": "0x1a44076050125825900e736c501f859c50fe728c",
      "function": "setConfig(address,address,(uint32,uint32,bytes)[])",
      "arguments": [
        "0xc099Ab708e20E8b25C63cA156D7cc94404c55416",
        "0x7B9E184e07a6EE1aC23eAe0fe8D6Be2f663f05e6",
        "[(30111, 2, 0x0000000000000000000000000000000000000000000000000000000000000020000000000000000000000000000000000000000000000000000000000000002000000000000000000000000000000000000000000000000000000000000000020000000000000000000000000000000000000000000000000000000000000000000000000000000000000000000000000000000000000000000000000000000000000000000000000000000000000000000000000000000000000000000000c0000000000000000000000000000000000000000000000000000000000000012000000000000000000000000000000000000000000000000000000000000000020000000000000000000000002f55c492897526677c5b68fb199ea31e2c126416000000000000000000000000a7b5189bca84cd304d8553977c7c614329750d990000000000000000000000000000000000000000000000000000000000000000)]"
      ],
      "transaction": {
        "from": "0x4c51ce7b2546e18449fbe16738a8d55bc195a4dd",
        "to": "0x1a44076050125825900e736c501f859c50fe728c",
        "gas": "0x315fe",
        "value": "0x0",
        "input": "0x6dbd9f90000000000000000000000000c099ab708e20e8b25c63ca156d7cc94404c554160000000000000000000000007b9e184e07a6ee1ac23eae0fe8d6be2f663f05e6000000000000000000000000000000000000000000000000000000000000006000000000000000000000000000000000000000000000000000000000000000010000000000000000000000000000000000000000000000000000000000000020000000000000000000000000000000000000000000000000000000000000759f0000000000000000000000000000000000000000000000000000000000000002000000000000000000000000000000000000000000000000000000000000006000000000000000000000000000000000000000000000000000000000000001600000000000000000000000000000000000000000000000000000000000000020000000000000000000000000000000000000000000000000000000000000002000000000000000000000000000000000000000000000000000000000000000020000000000000000000000000000000000000000000000000000000000000000000000000000000000000000000000000000000000000000000000000000000000000000000000000000000000000000000000000000000000000000000000c0000000000000000000000000000000000000000000000000000000000000012000000000000000000000000000000000000000000000000000000000000000020000000000000000000000002f55c492897526677c5b68fb199ea31e2c126416000000000000000000000000a7b5189bca84cd304d8553977c7c614329750d990000000000000000000000000000000000000000000000000000000000000000",
        "nonce": "0xe6",
        "chainId": "0xa4b1"
      },
      "additionalContracts": [],
      "isFixedGasLimit": false
    },
    {
      "hash": "0x51750588d527451b6307747b9af71632d4dd35a7bad40a80d9b0e5b1a36ce5c2",
      "transactionType": "CALL",
      "contractName": null,
      "contractAddress": "0x1a44076050125825900e736c501f859c50fe728c",
      "function": "setConfig(address,address,(uint32,uint32,bytes)[])",
      "arguments": [
        "0xc099Ab708e20E8b25C63cA156D7cc94404c55416",
        "0x975bcD720be66659e3EB3C0e4F1866a3020E493A",
        "[(30101, 2, 0x0000000000000000000000000000000000000000000000000000000000000020000000000000000000000000000000000000000000000000000000000000002000000000000000000000000000000000000000000000000000000000000000020000000000000000000000000000000000000000000000000000000000000000000000000000000000000000000000000000000000000000000000000000000000000000000000000000000000000000000000000000000000000000000000c0000000000000000000000000000000000000000000000000000000000000012000000000000000000000000000000000000000000000000000000000000000020000000000000000000000002f55c492897526677c5b68fb199ea31e2c126416000000000000000000000000a7b5189bca84cd304d8553977c7c614329750d990000000000000000000000000000000000000000000000000000000000000000)]"
      ],
      "transaction": {
        "from": "0x4c51ce7b2546e18449fbe16738a8d55bc195a4dd",
        "to": "0x1a44076050125825900e736c501f859c50fe728c",
        "gas": "0x316ed",
        "value": "0x0",
        "input": "0x6dbd9f90000000000000000000000000c099ab708e20e8b25c63ca156d7cc94404c55416000000000000000000000000975bcd720be66659e3eb3c0e4f1866a3020e493a00000000000000000000000000000000000000000000000000000000000000600000000000000000000000000000000000000000000000000000000000000001000000000000000000000000000000000000000000000000000000000000002000000000000000000000000000000000000000000000000000000000000075950000000000000000000000000000000000000000000000000000000000000002000000000000000000000000000000000000000000000000000000000000006000000000000000000000000000000000000000000000000000000000000001600000000000000000000000000000000000000000000000000000000000000020000000000000000000000000000000000000000000000000000000000000002000000000000000000000000000000000000000000000000000000000000000020000000000000000000000000000000000000000000000000000000000000000000000000000000000000000000000000000000000000000000000000000000000000000000000000000000000000000000000000000000000000000000000c0000000000000000000000000000000000000000000000000000000000000012000000000000000000000000000000000000000000000000000000000000000020000000000000000000000002f55c492897526677c5b68fb199ea31e2c126416000000000000000000000000a7b5189bca84cd304d8553977c7c614329750d990000000000000000000000000000000000000000000000000000000000000000",
        "nonce": "0xe7",
        "chainId": "0xa4b1"
      },
      "additionalContracts": [],
      "isFixedGasLimit": false
    },
    {
      "hash": "0xadd7933ba3dc833f22250045e7f5d3747b971fc2a1343e3de8c7aa0b02f6e49a",
      "transactionType": "CALL",
      "contractName": null,
      "contractAddress": "0x1a44076050125825900e736c501f859c50fe728c",
      "function": "setConfig(address,address,(uint32,uint32,bytes)[])",
      "arguments": [
        "0xc099Ab708e20E8b25C63cA156D7cc94404c55416",
        "0x7B9E184e07a6EE1aC23eAe0fe8D6Be2f663f05e6",
        "[(30101, 2, 0x0000000000000000000000000000000000000000000000000000000000000020000000000000000000000000000000000000000000000000000000000000002000000000000000000000000000000000000000000000000000000000000000020000000000000000000000000000000000000000000000000000000000000000000000000000000000000000000000000000000000000000000000000000000000000000000000000000000000000000000000000000000000000000000000c0000000000000000000000000000000000000000000000000000000000000012000000000000000000000000000000000000000000000000000000000000000020000000000000000000000002f55c492897526677c5b68fb199ea31e2c126416000000000000000000000000a7b5189bca84cd304d8553977c7c614329750d990000000000000000000000000000000000000000000000000000000000000000)]"
      ],
      "transaction": {
        "from": "0x4c51ce7b2546e18449fbe16738a8d55bc195a4dd",
        "to": "0x1a44076050125825900e736c501f859c50fe728c",
        "gas": "0x3162e",
        "value": "0x0",
        "input": "0x6dbd9f90000000000000000000000000c099ab708e20e8b25c63ca156d7cc94404c554160000000000000000000000007b9e184e07a6ee1ac23eae0fe8d6be2f663f05e600000000000000000000000000000000000000000000000000000000000000600000000000000000000000000000000000000000000000000000000000000001000000000000000000000000000000000000000000000000000000000000002000000000000000000000000000000000000000000000000000000000000075950000000000000000000000000000000000000000000000000000000000000002000000000000000000000000000000000000000000000000000000000000006000000000000000000000000000000000000000000000000000000000000001600000000000000000000000000000000000000000000000000000000000000020000000000000000000000000000000000000000000000000000000000000002000000000000000000000000000000000000000000000000000000000000000020000000000000000000000000000000000000000000000000000000000000000000000000000000000000000000000000000000000000000000000000000000000000000000000000000000000000000000000000000000000000000000000c0000000000000000000000000000000000000000000000000000000000000012000000000000000000000000000000000000000000000000000000000000000020000000000000000000000002f55c492897526677c5b68fb199ea31e2c126416000000000000000000000000a7b5189bca84cd304d8553977c7c614329750d990000000000000000000000000000000000000000000000000000000000000000",
        "nonce": "0xe8",
        "chainId": "0xa4b1"
      },
      "additionalContracts": [],
      "isFixedGasLimit": false
    },
    {
      "hash": "0x88e0081c0fe8b1a8be1c90d36ae587121be798bb9ee97eef308a8baffc612f7a",
      "transactionType": "CALL",
      "contractName": null,
      "contractAddress": "0x1a44076050125825900e736c501f859c50fe728c",
      "function": "setConfig(address,address,(uint32,uint32,bytes)[])",
      "arguments": [
        "0xc099Ab708e20E8b25C63cA156D7cc94404c55416",
        "0x975bcD720be66659e3EB3C0e4F1866a3020E493A",
        "[(30102, 2, 0x0000000000000000000000000000000000000000000000000000000000000020000000000000000000000000000000000000000000000000000000000000002000000000000000000000000000000000000000000000000000000000000000020000000000000000000000000000000000000000000000000000000000000000000000000000000000000000000000000000000000000000000000000000000000000000000000000000000000000000000000000000000000000000000000c0000000000000000000000000000000000000000000000000000000000000012000000000000000000000000000000000000000000000000000000000000000020000000000000000000000002f55c492897526677c5b68fb199ea31e2c126416000000000000000000000000a7b5189bca84cd304d8553977c7c614329750d990000000000000000000000000000000000000000000000000000000000000000)]"
      ],
      "transaction": {
        "from": "0x4c51ce7b2546e18449fbe16738a8d55bc195a4dd",
        "to": "0x1a44076050125825900e736c501f859c50fe728c",
        "gas": "0x316ed",
        "value": "0x0",
        "input": "0x6dbd9f90000000000000000000000000c099ab708e20e8b25c63ca156d7cc94404c55416000000000000000000000000975bcd720be66659e3eb3c0e4f1866a3020e493a00000000000000000000000000000000000000000000000000000000000000600000000000000000000000000000000000000000000000000000000000000001000000000000000000000000000000000000000000000000000000000000002000000000000000000000000000000000000000000000000000000000000075960000000000000000000000000000000000000000000000000000000000000002000000000000000000000000000000000000000000000000000000000000006000000000000000000000000000000000000000000000000000000000000001600000000000000000000000000000000000000000000000000000000000000020000000000000000000000000000000000000000000000000000000000000002000000000000000000000000000000000000000000000000000000000000000020000000000000000000000000000000000000000000000000000000000000000000000000000000000000000000000000000000000000000000000000000000000000000000000000000000000000000000000000000000000000000000000c0000000000000000000000000000000000000000000000000000000000000012000000000000000000000000000000000000000000000000000000000000000020000000000000000000000002f55c492897526677c5b68fb199ea31e2c126416000000000000000000000000a7b5189bca84cd304d8553977c7c614329750d990000000000000000000000000000000000000000000000000000000000000000",
        "nonce": "0xe9",
        "chainId": "0xa4b1"
      },
      "additionalContracts": [],
      "isFixedGasLimit": false
    },
    {
      "hash": "0x23dc568d0d24a47e81c73a5fd5e50732da1e99ba090173b67694ec9c9c9bb4ae",
      "transactionType": "CALL",
      "contractName": null,
      "contractAddress": "0x1a44076050125825900e736c501f859c50fe728c",
      "function": "setConfig(address,address,(uint32,uint32,bytes)[])",
      "arguments": [
        "0xc099Ab708e20E8b25C63cA156D7cc94404c55416",
        "0x7B9E184e07a6EE1aC23eAe0fe8D6Be2f663f05e6",
        "[(30102, 2, 0x0000000000000000000000000000000000000000000000000000000000000020000000000000000000000000000000000000000000000000000000000000002000000000000000000000000000000000000000000000000000000000000000020000000000000000000000000000000000000000000000000000000000000000000000000000000000000000000000000000000000000000000000000000000000000000000000000000000000000000000000000000000000000000000000c0000000000000000000000000000000000000000000000000000000000000012000000000000000000000000000000000000000000000000000000000000000020000000000000000000000002f55c492897526677c5b68fb199ea31e2c126416000000000000000000000000a7b5189bca84cd304d8553977c7c614329750d990000000000000000000000000000000000000000000000000000000000000000)]"
      ],
      "transaction": {
        "from": "0x4c51ce7b2546e18449fbe16738a8d55bc195a4dd",
        "to": "0x1a44076050125825900e736c501f859c50fe728c",
        "gas": "0x3162e",
        "value": "0x0",
        "input": "0x6dbd9f90000000000000000000000000c099ab708e20e8b25c63ca156d7cc94404c554160000000000000000000000007b9e184e07a6ee1ac23eae0fe8d6be2f663f05e600000000000000000000000000000000000000000000000000000000000000600000000000000000000000000000000000000000000000000000000000000001000000000000000000000000000000000000000000000000000000000000002000000000000000000000000000000000000000000000000000000000000075960000000000000000000000000000000000000000000000000000000000000002000000000000000000000000000000000000000000000000000000000000006000000000000000000000000000000000000000000000000000000000000001600000000000000000000000000000000000000000000000000000000000000020000000000000000000000000000000000000000000000000000000000000002000000000000000000000000000000000000000000000000000000000000000020000000000000000000000000000000000000000000000000000000000000000000000000000000000000000000000000000000000000000000000000000000000000000000000000000000000000000000000000000000000000000000000c0000000000000000000000000000000000000000000000000000000000000012000000000000000000000000000000000000000000000000000000000000000020000000000000000000000002f55c492897526677c5b68fb199ea31e2c126416000000000000000000000000a7b5189bca84cd304d8553977c7c614329750d990000000000000000000000000000000000000000000000000000000000000000",
        "nonce": "0xea",
        "chainId": "0xa4b1"
      },
      "additionalContracts": [],
      "isFixedGasLimit": false
    },
    {
      "hash": "0x3d6c90d041001224bb93c78222d2c406add9d865d92f1adc6d739c4e0d978d55",
      "transactionType": "CALL",
      "contractName": null,
      "contractAddress": "0x1a44076050125825900e736c501f859c50fe728c",
      "function": "setConfig(address,address,(uint32,uint32,bytes)[])",
      "arguments": [
        "0xc099Ab708e20E8b25C63cA156D7cc94404c55416",
        "0x975bcD720be66659e3EB3C0e4F1866a3020E493A",
        "[(30339, 2, 0x0000000000000000000000000000000000000000000000000000000000000020000000000000000000000000000000000000000000000000000000000000002000000000000000000000000000000000000000000000000000000000000000020000000000000000000000000000000000000000000000000000000000000000000000000000000000000000000000000000000000000000000000000000000000000000000000000000000000000000000000000000000000000000000000c0000000000000000000000000000000000000000000000000000000000000012000000000000000000000000000000000000000000000000000000000000000020000000000000000000000002f55c492897526677c5b68fb199ea31e2c126416000000000000000000000000a7b5189bca84cd304d8553977c7c614329750d990000000000000000000000000000000000000000000000000000000000000000)]"
      ],
      "transaction": {
        "from": "0x4c51ce7b2546e18449fbe16738a8d55bc195a4dd",
        "to": "0x1a44076050125825900e736c501f859c50fe728c",
        "gas": "0x3171b",
        "value": "0x0",
        "input": "0x6dbd9f90000000000000000000000000c099ab708e20e8b25c63ca156d7cc94404c55416000000000000000000000000975bcd720be66659e3eb3c0e4f1866a3020e493a00000000000000000000000000000000000000000000000000000000000000600000000000000000000000000000000000000000000000000000000000000001000000000000000000000000000000000000000000000000000000000000002000000000000000000000000000000000000000000000000000000000000076830000000000000000000000000000000000000000000000000000000000000002000000000000000000000000000000000000000000000000000000000000006000000000000000000000000000000000000000000000000000000000000001600000000000000000000000000000000000000000000000000000000000000020000000000000000000000000000000000000000000000000000000000000002000000000000000000000000000000000000000000000000000000000000000020000000000000000000000000000000000000000000000000000000000000000000000000000000000000000000000000000000000000000000000000000000000000000000000000000000000000000000000000000000000000000000000c0000000000000000000000000000000000000000000000000000000000000012000000000000000000000000000000000000000000000000000000000000000020000000000000000000000002f55c492897526677c5b68fb199ea31e2c126416000000000000000000000000a7b5189bca84cd304d8553977c7c614329750d990000000000000000000000000000000000000000000000000000000000000000",
        "nonce": "0xeb",
        "chainId": "0xa4b1"
      },
      "additionalContracts": [],
      "isFixedGasLimit": false
    },
    {
      "hash": "0xaee19fc911bacc4644fc1c361068323b498259123477fe54dbbbc193a023971a",
      "transactionType": "CALL",
      "contractName": null,
      "contractAddress": "0x1a44076050125825900e736c501f859c50fe728c",
      "function": "setConfig(address,address,(uint32,uint32,bytes)[])",
      "arguments": [
        "0xc099Ab708e20E8b25C63cA156D7cc94404c55416",
        "0x7B9E184e07a6EE1aC23eAe0fe8D6Be2f663f05e6",
        "[(30339, 2, 0x0000000000000000000000000000000000000000000000000000000000000020000000000000000000000000000000000000000000000000000000000000002000000000000000000000000000000000000000000000000000000000000000020000000000000000000000000000000000000000000000000000000000000000000000000000000000000000000000000000000000000000000000000000000000000000000000000000000000000000000000000000000000000000000000c0000000000000000000000000000000000000000000000000000000000000012000000000000000000000000000000000000000000000000000000000000000020000000000000000000000002f55c492897526677c5b68fb199ea31e2c126416000000000000000000000000a7b5189bca84cd304d8553977c7c614329750d990000000000000000000000000000000000000000000000000000000000000000)]"
      ],
      "transaction": {
        "from": "0x4c51ce7b2546e18449fbe16738a8d55bc195a4dd",
        "to": "0x1a44076050125825900e736c501f859c50fe728c",
        "gas": "0x3168a",
        "value": "0x0",
        "input": "0x6dbd9f90000000000000000000000000c099ab708e20e8b25c63ca156d7cc94404c554160000000000000000000000007b9e184e07a6ee1ac23eae0fe8d6be2f663f05e600000000000000000000000000000000000000000000000000000000000000600000000000000000000000000000000000000000000000000000000000000001000000000000000000000000000000000000000000000000000000000000002000000000000000000000000000000000000000000000000000000000000076830000000000000000000000000000000000000000000000000000000000000002000000000000000000000000000000000000000000000000000000000000006000000000000000000000000000000000000000000000000000000000000001600000000000000000000000000000000000000000000000000000000000000020000000000000000000000000000000000000000000000000000000000000002000000000000000000000000000000000000000000000000000000000000000020000000000000000000000000000000000000000000000000000000000000000000000000000000000000000000000000000000000000000000000000000000000000000000000000000000000000000000000000000000000000000000000c0000000000000000000000000000000000000000000000000000000000000012000000000000000000000000000000000000000000000000000000000000000020000000000000000000000002f55c492897526677c5b68fb199ea31e2c126416000000000000000000000000a7b5189bca84cd304d8553977c7c614329750d990000000000000000000000000000000000000000000000000000000000000000",
        "nonce": "0xec",
        "chainId": "0xa4b1"
      },
      "additionalContracts": [],
      "isFixedGasLimit": false
    },
    {
      "hash": "0x7600458bc212fb493d67aee1efce5fb2f2125a0caa1977fe9c4ed270c57915fa",
      "transactionType": "CALL",
      "contractName": null,
      "contractAddress": "0xc099ab708e20e8b25c63ca156d7cc94404c55416",
      "function": "setDelegate(address)",
      "arguments": [
        "0xCb343bF07E72548349f506593336b6CB698Ad6dA"
      ],
      "transaction": {
        "from": "0x4c51ce7b2546e18449fbe16738a8d55bc195a4dd",
        "to": "0xc099ab708e20e8b25c63ca156d7cc94404c55416",
        "gas": "0xe696",
        "value": "0x0",
        "input": "0xca5eb5e1000000000000000000000000cb343bf07e72548349f506593336b6cb698ad6da",
        "nonce": "0xed",
        "chainId": "0xa4b1"
      },
      "additionalContracts": [],
      "isFixedGasLimit": false
    }
  ],
  "receipts": [
    {
      "status": "0x1",
      "cumulativeGasUsed": "0x10d74b",
      "logs": [
        {
          "address": "0xc099ab708e20e8b25c63ca156d7cc94404c55416",
          "topics": [
            "0xe888347665897e637801f36c5129f510657276178c89022bc5fa0246dbc19de1"
          ],
          "data": "0x00000000000000000000000000000000000000000000000000000000000000200000000000000000000000000000000000000000000000000000000000000007000000000000000000000000000000000000000000000000000000000000759500000000000000000000000000000000000000000052b7d2dcc80cd2e40000000000000000000000000000000000000000000000000000000000000000000e10000000000000000000000000000000000000000000000000000000000000769a00000000000000000000000000000000000000000052b7d2dcc80cd2e40000000000000000000000000000000000000000000000000000000000000000000e1000000000000000000000000000000000000000000000000000000000000075e800000000000000000000000000000000000000000052b7d2dcc80cd2e40000000000000000000000000000000000000000000000000000000000000000000e10000000000000000000000000000000000000000000000000000000000000759f00000000000000000000000000000000000000000052b7d2dcc80cd2e40000000000000000000000000000000000000000000000000000000000000000000e10000000000000000000000000000000000000000000000000000000000000759e00000000000000000000000000000000000000000052b7d2dcc80cd2e40000000000000000000000000000000000000000000000000000000000000000000e10000000000000000000000000000000000000000000000000000000000000759600000000000000000000000000000000000000000052b7d2dcc80cd2e40000000000000000000000000000000000000000000000000000000000000000000e10000000000000000000000000000000000000000000000000000000000000768300000000000000000000000000000000000000000052b7d2dcc80cd2e40000000000000000000000000000000000000000000000000000000000000000000e10",
          "blockHash": "0xe7b916c549e5c66e854cf869e0ce0487bfaabe27c6acce13afdd9c2d0b1c7639",
          "blockNumber": "0x1429a50a",
          "transactionHash": "0xb793070ce12310433fc71add5f0575b0a9be5742fee3f2d1ffaf76fb5ce98a2c",
          "transactionIndex": "0x6",
          "logIndex": "0x9",
          "removed": false
        }
      ],
      "logsBloom": "0x00000000000000000000000000000000000000000000000000000000000000000000000000000000000000000000000000000000000000000000000000000000000000000000000000000000000000000000000000000000000000000000000000000000000000000000000000000000000000000000000000000000000000000000000000000000000000000000000000000000000020000000010000000004000000000000000000000800000000000000000000000000000000000000000000000000000000000000000000000000000000000000000000000000000000000000000000000000000000000000000000000000000000040000000000000000",
      "type": "0x2",
      "transactionHash": "0xb793070ce12310433fc71add5f0575b0a9be5742fee3f2d1ffaf76fb5ce98a2c",
      "transactionIndex": "0x6",
      "blockHash": "0xe7b916c549e5c66e854cf869e0ce0487bfaabe27c6acce13afdd9c2d0b1c7639",
      "blockNumber": "0x1429a50a",
      "gasUsed": "0x8352e",
      "effectiveGasPrice": "0x989680",
      "from": "0x4c51ce7b2546e18449fbe16738a8d55bc195a4dd",
      "to": "0xc099ab708e20e8b25c63ca156d7cc94404c55416",
      "contractAddress": null,
      "gasUsedForL1": "0x208b",
      "l1BlockNumber": "0x157921b",
      "timeboosted": false
    },
    {
      "status": "0x1",
      "cumulativeGasUsed": "0xabe08",
      "logs": [
        {
          "address": "0xc099ab708e20e8b25c63ca156d7cc94404c55416",
          "topics": [
            "0x238399d427b947898edb290f5ff0f9109849b1c3ba196a42e35f00c50a54b98b"
          ],
          "data": "0x000000000000000000000000000000000000000000000000000000000000769a000000000000000000000000c099ab708e20e8b25c63ca156d7cc94404c55416",
          "blockHash": "0x54e6c24c8c95ec98caf46daf7c5418209cd3766fa42fc5403dafdc1d35dfeb45",
          "blockNumber": "0x1429a50e",
          "transactionHash": "0x52b14d6490db070fa28b001065117c249784c946b3121c7b4697a169979f8d79",
          "transactionIndex": "0x3",
          "logIndex": "0xb",
          "removed": false
        }
      ],
      "logsBloom": "0x00000000000000000000000000000000000000000000000000000000000000000000000000000000000000000000000000000000000000000800000000000000000000000000000000000000000000000000000000000000000000000000000000000000000000000000000000000000000000000000000000000000000000000000000000000000000000000000000000000000000000000000010000000000000000000000000000000800000000000000000000000000000002000000000000000000000000000000000000000000000000000000000000040000000000000000000000000000000000000000000000000000000000040000000000000000",
      "type": "0x2",
      "transactionHash": "0x52b14d6490db070fa28b001065117c249784c946b3121c7b4697a169979f8d79",
      "transactionIndex": "0x3",
      "blockHash": "0x54e6c24c8c95ec98caf46daf7c5418209cd3766fa42fc5403dafdc1d35dfeb45",
      "blockNumber": "0x1429a50e",
      "gasUsed": "0xe482",
      "effectiveGasPrice": "0x989680",
      "from": "0x4c51ce7b2546e18449fbe16738a8d55bc195a4dd",
      "to": "0xc099ab708e20e8b25c63ca156d7cc94404c55416",
      "contractAddress": null,
      "gasUsedForL1": "0x1685",
      "l1BlockNumber": "0x157921b",
      "timeboosted": false
    },
    {
      "status": "0x1",
      "cumulativeGasUsed": "0x1d406",
      "logs": [
        {
          "address": "0xc099ab708e20e8b25c63ca156d7cc94404c55416",
          "topics": [
            "0x238399d427b947898edb290f5ff0f9109849b1c3ba196a42e35f00c50a54b98b"
          ],
          "data": "0x00000000000000000000000000000000000000000000000000000000000075e8000000000000000000000000c099ab708e20e8b25c63ca156d7cc94404c55416",
          "blockHash": "0x4da2f76c2bce4bde0b8ce4cba69591527e2473933fe94e9e6ada43d3234cc6e4",
          "blockNumber": "0x1429a512",
          "transactionHash": "0x3e3afc141b4248a6a5bd16d3d3a69df37d263e33888e4d4e9a44ef43597285cc",
          "transactionIndex": "0x2",
          "logIndex": "0x2",
          "removed": false
        }
      ],
      "logsBloom": "0x00000000000000000000000000000000000000000000000000000000000000000000000000000000000000000000000000000000000000000800000000000000000000000000000000000000000000000000000000000000000000000000000000000000000000000000000000000000000000000000000000000000000000000000000000000000000000000000000000000000000000000000010000000000000000000000000000000800000000000000000000000000000002000000000000000000000000000000000000000000000000000000000000040000000000000000000000000000000000000000000000000000000000040000000000000000",
      "type": "0x2",
      "transactionHash": "0x3e3afc141b4248a6a5bd16d3d3a69df37d263e33888e4d4e9a44ef43597285cc",
      "transactionIndex": "0x2",
      "blockHash": "0x4da2f76c2bce4bde0b8ce4cba69591527e2473933fe94e9e6ada43d3234cc6e4",
      "blockNumber": "0x1429a512",
      "gasUsed": "0xe482",
      "effectiveGasPrice": "0x989680",
      "from": "0x4c51ce7b2546e18449fbe16738a8d55bc195a4dd",
      "to": "0xc099ab708e20e8b25c63ca156d7cc94404c55416",
      "contractAddress": null,
      "gasUsedForL1": "0x1685",
      "l1BlockNumber": "0x157921c",
      "timeboosted": false
    },
    {
      "status": "0x1",
      "cumulativeGasUsed": "0x1a757",
      "logs": [
        {
          "address": "0xc099ab708e20e8b25c63ca156d7cc94404c55416",
          "topics": [
            "0x238399d427b947898edb290f5ff0f9109849b1c3ba196a42e35f00c50a54b98b"
          ],
          "data": "0x000000000000000000000000000000000000000000000000000000000000759f000000000000000000000000c099ab708e20e8b25c63ca156d7cc94404c55416",
          "blockHash": "0x7695723647dd30166ce1f89ec3573930ede9955b5f62c0968a7fb03ee4177796",
          "blockNumber": "0x1429a516",
          "transactionHash": "0x95376b600f8886b74efcb8a197a27a12f07d701c6499fffac6bbcf671fefd5fc",
          "transactionIndex": "0x2",
          "logIndex": "0x1",
          "removed": false
        }
      ],
      "logsBloom": "0x00000000000000000000000000000000000000000000000000000000000000000000000000000000000000000000000000000000000000000800000000000000000000000000000000000000000000000000000000000000000000000000000000000000000000000000000000000000000000000000000000000000000000000000000000000000000000000000000000000000000000000000010000000000000000000000000000000800000000000000000000000000000002000000000000000000000000000000000000000000000000000000000000040000000000000000000000000000000000000000000000000000000000040000000000000000",
      "type": "0x2",
      "transactionHash": "0x95376b600f8886b74efcb8a197a27a12f07d701c6499fffac6bbcf671fefd5fc",
      "transactionIndex": "0x2",
      "blockHash": "0x7695723647dd30166ce1f89ec3573930ede9955b5f62c0968a7fb03ee4177796",
      "blockNumber": "0x1429a516",
      "gasUsed": "0xe482",
      "effectiveGasPrice": "0x989680",
      "from": "0x4c51ce7b2546e18449fbe16738a8d55bc195a4dd",
      "to": "0xc099ab708e20e8b25c63ca156d7cc94404c55416",
      "contractAddress": null,
      "gasUsedForL1": "0x1685",
      "l1BlockNumber": "0x157921c",
      "timeboosted": false
    },
    {
      "status": "0x1",
      "cumulativeGasUsed": "0x6112a",
      "logs": [
        {
          "address": "0xc099ab708e20e8b25c63ca156d7cc94404c55416",
          "topics": [
            "0x238399d427b947898edb290f5ff0f9109849b1c3ba196a42e35f00c50a54b98b"
          ],
          "data": "0x0000000000000000000000000000000000000000000000000000000000007595000000000000000000000000c099ab708e20e8b25c63ca156d7cc94404c55416",
          "blockHash": "0x558ce6b343adfea53d867dc89c096fde51da5446a3ce89c6fad10824c321d904",
          "blockNumber": "0x1429a51a",
          "transactionHash": "0x568fbd00e806982f4586db33d2a178bc14264dfa8a131de7f1ec55c22ddb57ce",
          "transactionIndex": "0x5",
          "logIndex": "0x9",
          "removed": false
        }
      ],
      "logsBloom": "0x00000000000000000000000000000000000000000000000000000000000000000000000000000000000000000000000000000000000000000800000000000000000000000000000000000000000000000000000000000000000000000000000000000000000000000000000000000000000000000000000000000000000000000000000000000000000000000000000000000000000000000000010000000000000000000000000000000800000000000000000000000000000002000000000000000000000000000000000000000000000000000000000000040000000000000000000000000000000000000000000000000000000000040000000000000000",
      "type": "0x2",
      "transactionHash": "0x568fbd00e806982f4586db33d2a178bc14264dfa8a131de7f1ec55c22ddb57ce",
      "transactionIndex": "0x5",
      "blockHash": "0x558ce6b343adfea53d867dc89c096fde51da5446a3ce89c6fad10824c321d904",
      "blockNumber": "0x1429a51a",
      "gasUsed": "0xe482",
      "effectiveGasPrice": "0x989680",
      "from": "0x4c51ce7b2546e18449fbe16738a8d55bc195a4dd",
      "to": "0xc099ab708e20e8b25c63ca156d7cc94404c55416",
      "contractAddress": null,
      "gasUsedForL1": "0x1685",
      "l1BlockNumber": "0x157921c",
      "timeboosted": false
    },
    {
      "status": "0x1",
      "cumulativeGasUsed": "0xe482",
      "logs": [
        {
          "address": "0xc099ab708e20e8b25c63ca156d7cc94404c55416",
          "topics": [
            "0x238399d427b947898edb290f5ff0f9109849b1c3ba196a42e35f00c50a54b98b"
          ],
          "data": "0x0000000000000000000000000000000000000000000000000000000000007596000000000000000000000000c099ab708e20e8b25c63ca156d7cc94404c55416",
          "blockHash": "0x93c859b95265513638a2e38933a0246c981f6fb4a2ddde005bbfe29624bda006",
          "blockNumber": "0x1429a51e",
          "transactionHash": "0xf384add874a5ab4700bfb07b3bede44dc341fe8743226ee20dd83820535360b5",
          "transactionIndex": "0x1",
          "logIndex": "0x0",
          "removed": false
        }
      ],
      "logsBloom": "0x00000000000000000000000000000000000000000000000000000000000000000000000000000000000000000000000000000000000000000800000000000000000000000000000000000000000000000000000000000000000000000000000000000000000000000000000000000000000000000000000000000000000000000000000000000000000000000000000000000000000000000000010000000000000000000000000000000800000000000000000000000000000002000000000000000000000000000000000000000000000000000000000000040000000000000000000000000000000000000000000000000000000000040000000000000000",
      "type": "0x2",
      "transactionHash": "0xf384add874a5ab4700bfb07b3bede44dc341fe8743226ee20dd83820535360b5",
      "transactionIndex": "0x1",
      "blockHash": "0x93c859b95265513638a2e38933a0246c981f6fb4a2ddde005bbfe29624bda006",
      "blockNumber": "0x1429a51e",
      "gasUsed": "0xe482",
      "effectiveGasPrice": "0x989680",
      "from": "0x4c51ce7b2546e18449fbe16738a8d55bc195a4dd",
      "to": "0xc099ab708e20e8b25c63ca156d7cc94404c55416",
      "contractAddress": null,
      "gasUsedForL1": "0x1685",
      "l1BlockNumber": "0x157921c",
      "timeboosted": false
    },
    {
      "status": "0x1",
      "cumulativeGasUsed": "0x3778c",
      "logs": [
        {
          "address": "0xc099ab708e20e8b25c63ca156d7cc94404c55416",
          "topics": [
            "0x238399d427b947898edb290f5ff0f9109849b1c3ba196a42e35f00c50a54b98b"
          ],
          "data": "0x0000000000000000000000000000000000000000000000000000000000007683000000000000000000000000c099ab708e20e8b25c63ca156d7cc94404c55416",
          "blockHash": "0xc72f97ca339727532a5b5bcfeeae713dc170388b46666c935049f45f5d49e900",
          "blockNumber": "0x1429a521",
          "transactionHash": "0xfeddc78b0a5c1644a4cedf08d7721a55123b6e3bcd4e8f9702b1d09f7452fe3a",
          "transactionIndex": "0x4",
          "logIndex": "0x3",
          "removed": false
        }
      ],
      "logsBloom": "0x00000000000000000000000000000000000000000000000000000000000000000000000000000000000000000000000000000000000000000800000000000000000000000000000000000000000000000000000000000000000000000000000000000000000000000000000000000000000000000000000000000000000000000000000000000000000000000000000000000000000000000000010000000000000000000000000000000800000000000000000000000000000002000000000000000000000000000000000000000000000000000000000000040000000000000000000000000000000000000000000000000000000000040000000000000000",
      "type": "0x2",
      "transactionHash": "0xfeddc78b0a5c1644a4cedf08d7721a55123b6e3bcd4e8f9702b1d09f7452fe3a",
      "transactionIndex": "0x4",
      "blockHash": "0xc72f97ca339727532a5b5bcfeeae713dc170388b46666c935049f45f5d49e900",
      "blockNumber": "0x1429a521",
      "gasUsed": "0xe482",
      "effectiveGasPrice": "0x989680",
      "from": "0x4c51ce7b2546e18449fbe16738a8d55bc195a4dd",
      "to": "0xc099ab708e20e8b25c63ca156d7cc94404c55416",
      "contractAddress": null,
      "gasUsedForL1": "0x1685",
      "l1BlockNumber": "0x157921c",
      "timeboosted": false
    },
    {
      "status": "0x1",
      "cumulativeGasUsed": "0x11a11",
      "logs": [
        {
          "address": "0x1a44076050125825900e736c501f859c50fe728c",
          "topics": [
            "0xcd6f92f5ac6185a5acfa02c92090746cec64d777269cbcd0ed031e396657a1c2"
          ],
          "data": "0x000000000000000000000000c099ab708e20e8b25c63ca156d7cc94404c55416000000000000000000000000000000000000000000000000000000000000769a0000000000000000000000007b9e184e07a6ee1ac23eae0fe8d6be2f663f05e6",
          "blockHash": "0x0d9536b402d63ddb5d9426e85999efb9b825f24d1adfe0608c59ec47eb9c4d52",
          "blockNumber": "0x1429a525",
          "transactionHash": "0x6db6cf7f1156487153d4707443ab3d435ebadd7df781f84f60efcce5037712e4",
          "transactionIndex": "0x1",
          "logIndex": "0x0",
          "removed": false
        },
        {
          "address": "0x1a44076050125825900e736c501f859c50fe728c",
          "topics": [
            "0x4e0a5bbfa0c11a64effb1ada324b5437a17272e1aed9320398715ef71bb20928"
          ],
          "data": "0x000000000000000000000000c099ab708e20e8b25c63ca156d7cc94404c55416000000000000000000000000000000000000000000000000000000000000769a00000000000000000000000000000000000000000000000000000000000000000000000000000000000000000000000000000000000000000000000000000000",
          "blockHash": "0x0d9536b402d63ddb5d9426e85999efb9b825f24d1adfe0608c59ec47eb9c4d52",
          "blockNumber": "0x1429a525",
          "transactionHash": "0x6db6cf7f1156487153d4707443ab3d435ebadd7df781f84f60efcce5037712e4",
          "transactionIndex": "0x1",
          "logIndex": "0x1",
          "removed": false
        }
      ],
      "logsBloom": "0x00000000000000000000020800000000000000000000000000000000001000020400000000000000000000000000000000000000000000000000000000000000000000000000000000000000000000000000000000800000000000000000000000000000000000000000000000000000000000000010000000000000000000100000000000000000000000000000000000000000000000000000000000000000000000000000000000000000000000000000000000000000000000000000000000000000000000000000000000000000000000000000000000000000000000000000000000000000000000000000000000000000010000000000000000000000",
      "type": "0x2",
      "transactionHash": "0x6db6cf7f1156487153d4707443ab3d435ebadd7df781f84f60efcce5037712e4",
      "transactionIndex": "0x1",
      "blockHash": "0x0d9536b402d63ddb5d9426e85999efb9b825f24d1adfe0608c59ec47eb9c4d52",
      "blockNumber": "0x1429a525",
      "gasUsed": "0x11a11",
      "effectiveGasPrice": "0x989680",
      "from": "0x4c51ce7b2546e18449fbe16738a8d55bc195a4dd",
      "to": "0x1a44076050125825900e736c501f859c50fe728c",
      "contractAddress": null,
      "gasUsedForL1": "0x1e70",
      "l1BlockNumber": "0x157921c",
      "timeboosted": false
    },
    {
      "status": "0x1",
      "cumulativeGasUsed": "0xd24ae",
      "logs": [
        {
          "address": "0x1a44076050125825900e736c501f859c50fe728c",
          "topics": [
            "0xcd6f92f5ac6185a5acfa02c92090746cec64d777269cbcd0ed031e396657a1c2"
          ],
          "data": "0x000000000000000000000000c099ab708e20e8b25c63ca156d7cc94404c5541600000000000000000000000000000000000000000000000000000000000075e80000000000000000000000007b9e184e07a6ee1ac23eae0fe8d6be2f663f05e6",
          "blockHash": "0xf42a90419b80040c06fd1b956e672673962350f2c0d694ad4f0d306a33395aa9",
          "blockNumber": "0x1429a529",
          "transactionHash": "0xb64d440fa7dea6b7ec64d36b77c8ebb521ed70d60e1d61cd9b2825593e0a2fdd",
          "transactionIndex": "0x6",
          "logIndex": "0x13",
          "removed": false
        },
        {
          "address": "0x1a44076050125825900e736c501f859c50fe728c",
          "topics": [
            "0x4e0a5bbfa0c11a64effb1ada324b5437a17272e1aed9320398715ef71bb20928"
          ],
          "data": "0x000000000000000000000000c099ab708e20e8b25c63ca156d7cc94404c5541600000000000000000000000000000000000000000000000000000000000075e800000000000000000000000000000000000000000000000000000000000000000000000000000000000000000000000000000000000000000000000000000000",
          "blockHash": "0xf42a90419b80040c06fd1b956e672673962350f2c0d694ad4f0d306a33395aa9",
          "blockNumber": "0x1429a529",
          "transactionHash": "0xb64d440fa7dea6b7ec64d36b77c8ebb521ed70d60e1d61cd9b2825593e0a2fdd",
          "transactionIndex": "0x6",
          "logIndex": "0x14",
          "removed": false
        }
      ],
      "logsBloom": "0x00000000000000000000020800000000000000000000000000000000001000020400000000000000000000000000000000000000000000000000000000000000000000000000000000000000000000000000000000800000000000000000000000000000000000000000000000000000000000000010000000000000000000100000000000000000000000000000000000000000000000000000000000000000000000000000000000000000000000000000000000000000000000000000000000000000000000000000000000000000000000000000000000000000000000000000000000000000000000000000000000000000010000000000000000000000",
      "type": "0x2",
      "transactionHash": "0xb64d440fa7dea6b7ec64d36b77c8ebb521ed70d60e1d61cd9b2825593e0a2fdd",
      "transactionIndex": "0x6",
      "blockHash": "0xf42a90419b80040c06fd1b956e672673962350f2c0d694ad4f0d306a33395aa9",
      "blockNumber": "0x1429a529",
      "gasUsed": "0x11a11",
      "effectiveGasPrice": "0x989680",
      "from": "0x4c51ce7b2546e18449fbe16738a8d55bc195a4dd",
      "to": "0x1a44076050125825900e736c501f859c50fe728c",
      "contractAddress": null,
      "gasUsedForL1": "0x1e70",
      "l1BlockNumber": "0x157921c",
      "timeboosted": false
    },
    {
      "status": "0x1",
      "cumulativeGasUsed": "0x11a11",
      "logs": [
        {
          "address": "0x1a44076050125825900e736c501f859c50fe728c",
          "topics": [
            "0xcd6f92f5ac6185a5acfa02c92090746cec64d777269cbcd0ed031e396657a1c2"
          ],
          "data": "0x000000000000000000000000c099ab708e20e8b25c63ca156d7cc94404c55416000000000000000000000000000000000000000000000000000000000000759f0000000000000000000000007b9e184e07a6ee1ac23eae0fe8d6be2f663f05e6",
          "blockHash": "0x892f04f4ddcb601e1e177957a52f6f8bcb49642ab57cd8fe0a328d04bb48894c",
          "blockNumber": "0x1429a52d",
          "transactionHash": "0xe2470d166a6a209e217b4abd5ca4f9d21ad310291715a506bdb1a1c8d9a104a2",
          "transactionIndex": "0x1",
          "logIndex": "0x0",
          "removed": false
        },
        {
          "address": "0x1a44076050125825900e736c501f859c50fe728c",
          "topics": [
            "0x4e0a5bbfa0c11a64effb1ada324b5437a17272e1aed9320398715ef71bb20928"
          ],
          "data": "0x000000000000000000000000c099ab708e20e8b25c63ca156d7cc94404c55416000000000000000000000000000000000000000000000000000000000000759f00000000000000000000000000000000000000000000000000000000000000000000000000000000000000000000000000000000000000000000000000000000",
          "blockHash": "0x892f04f4ddcb601e1e177957a52f6f8bcb49642ab57cd8fe0a328d04bb48894c",
          "blockNumber": "0x1429a52d",
          "transactionHash": "0xe2470d166a6a209e217b4abd5ca4f9d21ad310291715a506bdb1a1c8d9a104a2",
          "transactionIndex": "0x1",
          "logIndex": "0x1",
          "removed": false
        }
      ],
      "logsBloom": "0x00000000000000000000020800000000000000000000000000000000001000020400000000000000000000000000000000000000000000000000000000000000000000000000000000000000000000000000000000800000000000000000000000000000000000000000000000000000000000000010000000000000000000100000000000000000000000000000000000000000000000000000000000000000000000000000000000000000000000000000000000000000000000000000000000000000000000000000000000000000000000000000000000000000000000000000000000000000000000000000000000000000010000000000000000000000",
      "type": "0x2",
      "transactionHash": "0xe2470d166a6a209e217b4abd5ca4f9d21ad310291715a506bdb1a1c8d9a104a2",
      "transactionIndex": "0x1",
      "blockHash": "0x892f04f4ddcb601e1e177957a52f6f8bcb49642ab57cd8fe0a328d04bb48894c",
      "blockNumber": "0x1429a52d",
      "gasUsed": "0x11a11",
      "effectiveGasPrice": "0x989680",
      "from": "0x4c51ce7b2546e18449fbe16738a8d55bc195a4dd",
      "to": "0x1a44076050125825900e736c501f859c50fe728c",
      "contractAddress": null,
      "gasUsedForL1": "0x1e70",
      "l1BlockNumber": "0x157921c",
      "timeboosted": false
    },
    {
      "status": "0x1",
      "cumulativeGasUsed": "0x33be3",
      "logs": [
        {
          "address": "0x1a44076050125825900e736c501f859c50fe728c",
          "topics": [
            "0xcd6f92f5ac6185a5acfa02c92090746cec64d777269cbcd0ed031e396657a1c2"
          ],
          "data": "0x000000000000000000000000c099ab708e20e8b25c63ca156d7cc94404c5541600000000000000000000000000000000000000000000000000000000000075950000000000000000000000007b9e184e07a6ee1ac23eae0fe8d6be2f663f05e6",
          "blockHash": "0x3efffc897e91368e9c009aa9a437142c36dfe37511858897d394e2e81499f1b6",
          "blockNumber": "0x1429a531",
          "transactionHash": "0x09a0b9c9cded041bce34ae0687dd472a78f406821d34ee28c4ae0c194acc6c36",
          "transactionIndex": "0x4",
          "logIndex": "0x3",
          "removed": false
        },
        {
          "address": "0x1a44076050125825900e736c501f859c50fe728c",
          "topics": [
            "0x4e0a5bbfa0c11a64effb1ada324b5437a17272e1aed9320398715ef71bb20928"
          ],
          "data": "0x000000000000000000000000c099ab708e20e8b25c63ca156d7cc94404c55416000000000000000000000000000000000000000000000000000000000000759500000000000000000000000000000000000000000000000000000000000000000000000000000000000000000000000000000000000000000000000000000000",
          "blockHash": "0x3efffc897e91368e9c009aa9a437142c36dfe37511858897d394e2e81499f1b6",
          "blockNumber": "0x1429a531",
          "transactionHash": "0x09a0b9c9cded041bce34ae0687dd472a78f406821d34ee28c4ae0c194acc6c36",
          "transactionIndex": "0x4",
          "logIndex": "0x4",
          "removed": false
        }
      ],
      "logsBloom": "0x00000000000000000000020800000000000000000000000000000000001000020400000000000000000000000000000000000000000000000000000000000000000000000000000000000000000000000000000000800000000000000000000000000000000000000000000000000000000000000010000000000000000000100000000000000000000000000000000000000000000000000000000000000000000000000000000000000000000000000000000000000000000000000000000000000000000000000000000000000000000000000000000000000000000000000000000000000000000000000000000000000000010000000000000000000000",
      "type": "0x2",
      "transactionHash": "0x09a0b9c9cded041bce34ae0687dd472a78f406821d34ee28c4ae0c194acc6c36",
      "transactionIndex": "0x4",
      "blockHash": "0x3efffc897e91368e9c009aa9a437142c36dfe37511858897d394e2e81499f1b6",
      "blockNumber": "0x1429a531",
      "gasUsed": "0x11a11",
      "effectiveGasPrice": "0x989680",
      "from": "0x4c51ce7b2546e18449fbe16738a8d55bc195a4dd",
      "to": "0x1a44076050125825900e736c501f859c50fe728c",
      "contractAddress": null,
      "gasUsedForL1": "0x1e70",
      "l1BlockNumber": "0x157921c",
      "timeboosted": false
    },
    {
      "status": "0x1",
      "cumulativeGasUsed": "0x15de86",
      "logs": [
        {
          "address": "0x1a44076050125825900e736c501f859c50fe728c",
          "topics": [
            "0xcd6f92f5ac6185a5acfa02c92090746cec64d777269cbcd0ed031e396657a1c2"
          ],
          "data": "0x000000000000000000000000c099ab708e20e8b25c63ca156d7cc94404c5541600000000000000000000000000000000000000000000000000000000000075960000000000000000000000007b9e184e07a6ee1ac23eae0fe8d6be2f663f05e6",
          "blockHash": "0x31ef9716aaaf6aa6cabe7768693e216a0e0942149c206dceb8ac4a98c9323ed6",
          "blockNumber": "0x1429a534",
          "transactionHash": "0x0aa02c53d5def9dddf3fe2ed060e26d9e4330750fb4757161fc5eb2883aa9c00",
          "transactionIndex": "0x8",
          "logIndex": "0x18",
          "removed": false
        },
        {
          "address": "0x1a44076050125825900e736c501f859c50fe728c",
          "topics": [
            "0x4e0a5bbfa0c11a64effb1ada324b5437a17272e1aed9320398715ef71bb20928"
          ],
          "data": "0x000000000000000000000000c099ab708e20e8b25c63ca156d7cc94404c55416000000000000000000000000000000000000000000000000000000000000759600000000000000000000000000000000000000000000000000000000000000000000000000000000000000000000000000000000000000000000000000000000",
          "blockHash": "0x31ef9716aaaf6aa6cabe7768693e216a0e0942149c206dceb8ac4a98c9323ed6",
          "blockNumber": "0x1429a534",
          "transactionHash": "0x0aa02c53d5def9dddf3fe2ed060e26d9e4330750fb4757161fc5eb2883aa9c00",
          "transactionIndex": "0x8",
          "logIndex": "0x19",
          "removed": false
        }
      ],
      "logsBloom": "0x00000000000000000000020800000000000000000000000000000000001000020400000000000000000000000000000000000000000000000000000000000000000000000000000000000000000000000000000000800000000000000000000000000000000000000000000000000000000000000010000000000000000000100000000000000000000000000000000000000000000000000000000000000000000000000000000000000000000000000000000000000000000000000000000000000000000000000000000000000000000000000000000000000000000000000000000000000000000000000000000000000000010000000000000000000000",
      "type": "0x2",
      "transactionHash": "0x0aa02c53d5def9dddf3fe2ed060e26d9e4330750fb4757161fc5eb2883aa9c00",
      "transactionIndex": "0x8",
      "blockHash": "0x31ef9716aaaf6aa6cabe7768693e216a0e0942149c206dceb8ac4a98c9323ed6",
      "blockNumber": "0x1429a534",
      "gasUsed": "0x11a11",
      "effectiveGasPrice": "0x989680",
      "from": "0x4c51ce7b2546e18449fbe16738a8d55bc195a4dd",
      "to": "0x1a44076050125825900e736c501f859c50fe728c",
      "contractAddress": null,
      "gasUsedForL1": "0x1e70",
      "l1BlockNumber": "0x157921c",
      "timeboosted": false
    },
    {
      "status": "0x1",
      "cumulativeGasUsed": "0x25195",
      "logs": [
        {
          "address": "0x1a44076050125825900e736c501f859c50fe728c",
          "topics": [
            "0xcd6f92f5ac6185a5acfa02c92090746cec64d777269cbcd0ed031e396657a1c2"
          ],
          "data": "0x000000000000000000000000c099ab708e20e8b25c63ca156d7cc94404c5541600000000000000000000000000000000000000000000000000000000000076830000000000000000000000007b9e184e07a6ee1ac23eae0fe8d6be2f663f05e6",
          "blockHash": "0x8c1faade1c5df9b1b8c2a9be973276315d88ebb13730df1d327f0230383c7647",
          "blockNumber": "0x1429a538",
          "transactionHash": "0x868f163a50bf4b99c2b1fda64f80a6833cbfb4182e90f0de6a56dac9f391f8ec",
          "transactionIndex": "0x3",
          "logIndex": "0x2",
          "removed": false
        },
        {
          "address": "0x1a44076050125825900e736c501f859c50fe728c",
          "topics": [
            "0x4e0a5bbfa0c11a64effb1ada324b5437a17272e1aed9320398715ef71bb20928"
          ],
          "data": "0x000000000000000000000000c099ab708e20e8b25c63ca156d7cc94404c55416000000000000000000000000000000000000000000000000000000000000768300000000000000000000000000000000000000000000000000000000000000000000000000000000000000000000000000000000000000000000000000000000",
          "blockHash": "0x8c1faade1c5df9b1b8c2a9be973276315d88ebb13730df1d327f0230383c7647",
          "blockNumber": "0x1429a538",
          "transactionHash": "0x868f163a50bf4b99c2b1fda64f80a6833cbfb4182e90f0de6a56dac9f391f8ec",
          "transactionIndex": "0x3",
          "logIndex": "0x3",
          "removed": false
        }
      ],
      "logsBloom": "0x00000000000000000000020800000000000000000000000000000000001000020400000000000000000000000000000000000000000000000000000000000000000000000000000000000000000000000000000000800000000000000000000000000000000000000000000000000000000000000010000000000000000000100000000000000000000000000000000000000000000000000000000000000000000000000000000000000000000000000000000000000000000000000000000000000000000000000000000000000000000000000000000000000000000000000000000000000000000000000000000000000000010000000000000000000000",
      "type": "0x2",
      "transactionHash": "0x868f163a50bf4b99c2b1fda64f80a6833cbfb4182e90f0de6a56dac9f391f8ec",
      "transactionIndex": "0x3",
      "blockHash": "0x8c1faade1c5df9b1b8c2a9be973276315d88ebb13730df1d327f0230383c7647",
      "blockNumber": "0x1429a538",
      "gasUsed": "0x11a11",
      "effectiveGasPrice": "0x989680",
      "from": "0x4c51ce7b2546e18449fbe16738a8d55bc195a4dd",
      "to": "0x1a44076050125825900e736c501f859c50fe728c",
      "contractAddress": null,
      "gasUsedForL1": "0x1e70",
      "l1BlockNumber": "0x157921c",
      "timeboosted": false
    },
    {
      "status": "0x1",
      "cumulativeGasUsed": "0x58c73",
      "logs": [
        {
          "address": "0xc099ab708e20e8b25c63ca156d7cc94404c55416",
          "topics": [
            "0xbe4864a8e820971c0247f5992e2da559595f7bf076a21cb5928d443d2a13b674"
          ],
          "data": "0x00000000000000000000000000000000000000000000000000000000000000200000000000000000000000000000000000000000000000000000000000000002000000000000000000000000000000000000000000000000000000000000004000000000000000000000000000000000000000000000000000000000000000e0000000000000000000000000000000000000000000000000000000000000769a0000000000000000000000000000000000000000000000000000000000000001000000000000000000000000000000000000000000000000000000000000006000000000000000000000000000000000000000000000000000000000000000160003010011010000000000000000000000000002981000000000000000000000000000000000000000000000000000000000000000000000000000000000769a00000000000000000000000000000000000000000000000000000000000000020000000000000000000000000000000000000000000000000000000000000060000000000000000000000000000000000000000000000000000000000000002c00030100110100000000000000000000000000029810010013030000000000000000000000000000000298100000000000000000000000000000000000000000",
          "blockHash": "0x14c033dc70286e0dcbf630bcf1bbd22698e7934b608a4a4cbd7135349de618d7",
          "blockNumber": "0x1429a53c",
          "transactionHash": "0xa80d5a0a399da73c86b9b253684ebac63c6aeba144ec4f3fb7f5d900288becbc",
          "transactionIndex": "0x5",
          "logIndex": "0x5",
          "removed": false
        }
      ],
      "logsBloom": "0x00000000000000000000000000000000000000000000000000000000000000000000000000000000000000000000000000000000000000000000400000000000000000000000000000000000000000000000000000000000000000000000000000000000000000000000000000000000000000000000000000000000000000000000000000000000000000000000000000000000000000000000010000080000000000000000000000000800000000000000000000000000000000000000000000000000000000000000000002000000000000000000000000000000000000000000000000000000000000000000000000000000000000040000000000000000",
      "type": "0x2",
      "transactionHash": "0xa80d5a0a399da73c86b9b253684ebac63c6aeba144ec4f3fb7f5d900288becbc",
      "transactionIndex": "0x5",
      "blockHash": "0x14c033dc70286e0dcbf630bcf1bbd22698e7934b608a4a4cbd7135349de618d7",
      "blockNumber": "0x1429a53c",
      "gasUsed": "0x21f89",
      "effectiveGasPrice": "0x989680",
      "from": "0x4c51ce7b2546e18449fbe16738a8d55bc195a4dd",
      "to": "0xc099ab708e20e8b25c63ca156d7cc94404c55416",
      "contractAddress": null,
      "gasUsedForL1": "0x2246",
      "l1BlockNumber": "0x157921c",
      "timeboosted": false
    },
    {
      "status": "0x1",
      "cumulativeGasUsed": "0x21eeb",
      "logs": [
        {
          "address": "0xc099ab708e20e8b25c63ca156d7cc94404c55416",
          "topics": [
            "0xbe4864a8e820971c0247f5992e2da559595f7bf076a21cb5928d443d2a13b674"
          ],
          "data": "0x00000000000000000000000000000000000000000000000000000000000000200000000000000000000000000000000000000000000000000000000000000002000000000000000000000000000000000000000000000000000000000000004000000000000000000000000000000000000000000000000000000000000000e000000000000000000000000000000000000000000000000000000000000075e8000000000000000000000000000000000000000000000000000000000000000100000000000000000000000000000000000000000000000000000000000000600000000000000000000000000000000000000000000000000000000000000016000301001101000000000000000000000000000298100000000000000000000000000000000000000000000000000000000000000000000000000000000075e800000000000000000000000000000000000000000000000000000000000000020000000000000000000000000000000000000000000000000000000000000060000000000000000000000000000000000000000000000000000000000000002c00030100110100000000000000000000000000029810010013030000000000000000000000000000000298100000000000000000000000000000000000000000",
          "blockHash": "0x55d05f9d12011a29c44cf92d65bdb06ebde70d683073b5d8b243755b17b7af1d",
          "blockNumber": "0x1429a53f",
          "transactionHash": "0xdb74df43eb1b95e30e3d774372af0650eacac730d214cfa255fc4353874097c1",
          "transactionIndex": "0x1",
          "logIndex": "0x0",
          "removed": false
        }
      ],
      "logsBloom": "0x00000000000000000000000000000000000000000000000000000000000000000000000000000000000000000000000000000000000000000000400000000000000000000000000000000000000000000000000000000000000000000000000000000000000000000000000000000000000000000000000000000000000000000000000000000000000000000000000000000000000000000000010000080000000000000000000000000800000000000000000000000000000000000000000000000000000000000000000002000000000000000000000000000000000000000000000000000000000000000000000000000000000000040000000000000000",
      "type": "0x2",
      "transactionHash": "0xdb74df43eb1b95e30e3d774372af0650eacac730d214cfa255fc4353874097c1",
      "transactionIndex": "0x1",
      "blockHash": "0x55d05f9d12011a29c44cf92d65bdb06ebde70d683073b5d8b243755b17b7af1d",
      "blockNumber": "0x1429a53f",
      "gasUsed": "0x21eeb",
      "effectiveGasPrice": "0x989680",
      "from": "0x4c51ce7b2546e18449fbe16738a8d55bc195a4dd",
      "to": "0xc099ab708e20e8b25c63ca156d7cc94404c55416",
      "contractAddress": null,
      "gasUsedForL1": "0x21a8",
      "l1BlockNumber": "0x157921c",
      "timeboosted": false
    },
    {
      "status": "0x1",
      "cumulativeGasUsed": "0x6b52b",
      "logs": [
        {
          "address": "0xc099ab708e20e8b25c63ca156d7cc94404c55416",
          "topics": [
            "0xbe4864a8e820971c0247f5992e2da559595f7bf076a21cb5928d443d2a13b674"
          ],
          "data": "0x00000000000000000000000000000000000000000000000000000000000000200000000000000000000000000000000000000000000000000000000000000002000000000000000000000000000000000000000000000000000000000000004000000000000000000000000000000000000000000000000000000000000000e0000000000000000000000000000000000000000000000000000000000000759f0000000000000000000000000000000000000000000000000000000000000001000000000000000000000000000000000000000000000000000000000000006000000000000000000000000000000000000000000000000000000000000000160003010011010000000000000000000000000002981000000000000000000000000000000000000000000000000000000000000000000000000000000000759f00000000000000000000000000000000000000000000000000000000000000020000000000000000000000000000000000000000000000000000000000000060000000000000000000000000000000000000000000000000000000000000002c00030100110100000000000000000000000000029810010013030000000000000000000000000000000298100000000000000000000000000000000000000000",
          "blockHash": "0xec6dc679bba7caab52aabc1354512e82054369fdedf98e7e1b200254421d29fc",
          "blockNumber": "0x1429a543",
          "transactionHash": "0x92be908800d3f983fd79788994da6c41943140de06fb0b4ed3ee1ea9b6a190bd",
          "transactionIndex": "0x3",
          "logIndex": "0x8",
          "removed": false
        }
      ],
      "logsBloom": "0x00000000000000000000000000000000000000000000000000000000000000000000000000000000000000000000000000000000000000000000400000000000000000000000000000000000000000000000000000000000000000000000000000000000000000000000000000000000000000000000000000000000000000000000000000000000000000000000000000000000000000000000010000080000000000000000000000000800000000000000000000000000000000000000000000000000000000000000000002000000000000000000000000000000000000000000000000000000000000000000000000000000000000040000000000000000",
      "type": "0x2",
      "transactionHash": "0x92be908800d3f983fd79788994da6c41943140de06fb0b4ed3ee1ea9b6a190bd",
      "transactionIndex": "0x3",
      "blockHash": "0xec6dc679bba7caab52aabc1354512e82054369fdedf98e7e1b200254421d29fc",
      "blockNumber": "0x1429a543",
      "gasUsed": "0x21eeb",
      "effectiveGasPrice": "0x989680",
      "from": "0x4c51ce7b2546e18449fbe16738a8d55bc195a4dd",
      "to": "0xc099ab708e20e8b25c63ca156d7cc94404c55416",
      "contractAddress": null,
      "gasUsedForL1": "0x21a8",
      "l1BlockNumber": "0x157921c",
      "timeboosted": false
    },
    {
      "status": "0x1",
      "cumulativeGasUsed": "0x21f2a",
      "logs": [
        {
          "address": "0xc099ab708e20e8b25c63ca156d7cc94404c55416",
          "topics": [
            "0xbe4864a8e820971c0247f5992e2da559595f7bf076a21cb5928d443d2a13b674"
          ],
          "data": "0x00000000000000000000000000000000000000000000000000000000000000200000000000000000000000000000000000000000000000000000000000000002000000000000000000000000000000000000000000000000000000000000004000000000000000000000000000000000000000000000000000000000000000e000000000000000000000000000000000000000000000000000000000000075950000000000000000000000000000000000000000000000000000000000000001000000000000000000000000000000000000000000000000000000000000006000000000000000000000000000000000000000000000000000000000000000160003010011010000000000000000000000000002981000000000000000000000000000000000000000000000000000000000000000000000000000000000759500000000000000000000000000000000000000000000000000000000000000020000000000000000000000000000000000000000000000000000000000000060000000000000000000000000000000000000000000000000000000000000002c00030100110100000000000000000000000000029810010013030000000000000000000000000000000298100000000000000000000000000000000000000000",
          "blockHash": "0xa328d6a748c5b2f3844b4b803d0cdf3fb53228b7ac65f1afc235131a0755b6fa",
          "blockNumber": "0x1429a547",
          "transactionHash": "0x0d90ae0cf33f4079739ee4e9f725a80abad2cacfaf9d95ea503dcfb10f0fb8aa",
          "transactionIndex": "0x1",
          "logIndex": "0x0",
          "removed": false
        }
      ],
      "logsBloom": "0x00000000000000000000000000000000000000000000000000000000000000000000000000000000000000000000000000000000000000000000400000000000000000000000000000000000000000000000000000000000000000000000000000000000000000000000000000000000000000000000000000000000000000000000000000000000000000000000000000000000000000000000010000080000000000000000000000000800000000000000000000000000000000000000000000000000000000000000000002000000000000000000000000000000000000000000000000000000000000000000000000000000000000040000000000000000",
      "type": "0x2",
      "transactionHash": "0x0d90ae0cf33f4079739ee4e9f725a80abad2cacfaf9d95ea503dcfb10f0fb8aa",
      "transactionIndex": "0x1",
      "blockHash": "0xa328d6a748c5b2f3844b4b803d0cdf3fb53228b7ac65f1afc235131a0755b6fa",
      "blockNumber": "0x1429a547",
      "gasUsed": "0x21f2a",
      "effectiveGasPrice": "0x989680",
      "from": "0x4c51ce7b2546e18449fbe16738a8d55bc195a4dd",
      "to": "0xc099ab708e20e8b25c63ca156d7cc94404c55416",
      "contractAddress": null,
      "gasUsedForL1": "0x21e7",
      "l1BlockNumber": "0x157921c",
      "timeboosted": false
    },
    {
      "status": "0x1",
      "cumulativeGasUsed": "0x43d3e6",
      "logs": [
        {
          "address": "0xc099ab708e20e8b25c63ca156d7cc94404c55416",
          "topics": [
            "0xbe4864a8e820971c0247f5992e2da559595f7bf076a21cb5928d443d2a13b674"
          ],
          "data": "0x00000000000000000000000000000000000000000000000000000000000000200000000000000000000000000000000000000000000000000000000000000002000000000000000000000000000000000000000000000000000000000000004000000000000000000000000000000000000000000000000000000000000000e000000000000000000000000000000000000000000000000000000000000075960000000000000000000000000000000000000000000000000000000000000001000000000000000000000000000000000000000000000000000000000000006000000000000000000000000000000000000000000000000000000000000000160003010011010000000000000000000000000002981000000000000000000000000000000000000000000000000000000000000000000000000000000000759600000000000000000000000000000000000000000000000000000000000000020000000000000000000000000000000000000000000000000000000000000060000000000000000000000000000000000000000000000000000000000000002c00030100110100000000000000000000000000029810010013030000000000000000000000000000000298100000000000000000000000000000000000000000",
          "blockHash": "0x8442719f1c424ff80aee8cf92dc9d43ba515db0f94c122ca1eb0d0829ab78b0d",
          "blockNumber": "0x1429a54b",
          "transactionHash": "0x38967ca6dbbfb052911af5a7299e2ea01b09cb1fa66dcce3b5a11f9fac98bca7",
          "transactionIndex": "0x6",
          "logIndex": "0xf",
          "removed": false
        }
      ],
      "logsBloom": "0x00000000000000000000000000000000000000000000000000000000000000000000000000000000000000000000000000000000000000000000400000000000000000000000000000000000000000000000000000000000000000000000000000000000000000000000000000000000000000000000000000000000000000000000000000000000000000000000000000000000000000000000010000080000000000000000000000000800000000000000000000000000000000000000000000000000000000000000000002000000000000000000000000000000000000000000000000000000000000000000000000000000000000040000000000000000",
      "type": "0x2",
      "transactionHash": "0x38967ca6dbbfb052911af5a7299e2ea01b09cb1fa66dcce3b5a11f9fac98bca7",
      "transactionIndex": "0x6",
      "blockHash": "0x8442719f1c424ff80aee8cf92dc9d43ba515db0f94c122ca1eb0d0829ab78b0d",
      "blockNumber": "0x1429a54b",
      "gasUsed": "0x21fa9",
      "effectiveGasPrice": "0x989680",
      "from": "0x4c51ce7b2546e18449fbe16738a8d55bc195a4dd",
      "to": "0xc099ab708e20e8b25c63ca156d7cc94404c55416",
      "contractAddress": null,
      "gasUsedForL1": "0x2266",
      "l1BlockNumber": "0x157921c",
      "timeboosted": false
    },
    {
      "status": "0x1",
      "cumulativeGasUsed": "0x88254",
      "logs": [
        {
          "address": "0xc099ab708e20e8b25c63ca156d7cc94404c55416",
          "topics": [
            "0xbe4864a8e820971c0247f5992e2da559595f7bf076a21cb5928d443d2a13b674"
          ],
          "data": "0x00000000000000000000000000000000000000000000000000000000000000200000000000000000000000000000000000000000000000000000000000000002000000000000000000000000000000000000000000000000000000000000004000000000000000000000000000000000000000000000000000000000000000e000000000000000000000000000000000000000000000000000000000000076830000000000000000000000000000000000000000000000000000000000000001000000000000000000000000000000000000000000000000000000000000006000000000000000000000000000000000000000000000000000000000000000160003010011010000000000000000000000000002981000000000000000000000000000000000000000000000000000000000000000000000000000000000768300000000000000000000000000000000000000000000000000000000000000020000000000000000000000000000000000000000000000000000000000000060000000000000000000000000000000000000000000000000000000000000002c00030100110100000000000000000000000000029810010013030000000000000000000000000000000298100000000000000000000000000000000000000000",
          "blockHash": "0xda804fd69e0b0784fbe0d7511d93e92a896306a27bdb8c89a605d3fba7358844",
          "blockNumber": "0x1429a54f",
          "transactionHash": "0x4635cc200a00bcd7fb1afce0726ec0dea1a5609bdcc0fee2d48628c9d5890bfc",
          "transactionIndex": "0x5",
          "logIndex": "0x7",
          "removed": false
        }
      ],
      "logsBloom": "0x00000000000000000000000000000000000000000000000000000000000000000000000000000000000000000000000000000000000000000000400000000000000000000000000000000000000000000000000000000000000000000000000000000000000000000000000000000000000000000000000000000000000000000000000000000000000000000000000000000000000000000000010000080000000000000000000000000800000000000000000000000000000000000000000000000000000000000000000002000000000000000000000000000000000000000000000000000000000000000000000000000000000000040000000000000000",
      "type": "0x2",
      "transactionHash": "0x4635cc200a00bcd7fb1afce0726ec0dea1a5609bdcc0fee2d48628c9d5890bfc",
      "transactionIndex": "0x5",
      "blockHash": "0xda804fd69e0b0784fbe0d7511d93e92a896306a27bdb8c89a605d3fba7358844",
      "blockNumber": "0x1429a54f",
      "gasUsed": "0x21eeb",
      "effectiveGasPrice": "0x989680",
      "from": "0x4c51ce7b2546e18449fbe16738a8d55bc195a4dd",
      "to": "0xc099ab708e20e8b25c63ca156d7cc94404c55416",
      "contractAddress": null,
      "gasUsedForL1": "0x21a8",
      "l1BlockNumber": "0x157921d",
      "timeboosted": false
    },
    {
      "status": "0x1",
      "cumulativeGasUsed": "0x86d28",
      "logs": [
        {
          "address": "0x975bcd720be66659e3eb3c0e4f1866a3020e493a",
          "topics": [
            "0x82118522aa536ac0e96cc5c689407ae42b89d592aa133890a01f1509842f5081"
          ],
          "data": "0x000000000000000000000000c099ab708e20e8b25c63ca156d7cc94404c55416000000000000000000000000000000000000000000000000000000000000769a0000000000000000000000000000000000000000000000000000000000000060000000000000000000000000000000000000000000000000000000000000002000000000000000000000000000000000000000000000000000000000000000020000000000000000000000000000000000000000000000000000000000000000000000000000000000000000000000000000000000000000000000000000000000000000000000000000000000000000000000000000000000000000000000c0000000000000000000000000000000000000000000000000000000000000012000000000000000000000000000000000000000000000000000000000000000020000000000000000000000002f55c492897526677c5b68fb199ea31e2c126416000000000000000000000000a7b5189bca84cd304d8553977c7c614329750d990000000000000000000000000000000000000000000000000000000000000000",
          "blockHash": "0x70b84f993e9ea9238a200a439c201815d79966e620158b12ce3f0fb7566ba162",
          "blockNumber": "0x1429a557",
          "transactionHash": "0xdc979f85178ae0910f5998e9448b8d4734b8d2eceaaf1ba045b6c2d0f4109ac9",
          "transactionIndex": "0x3",
          "logIndex": "0xb",
          "removed": false
        }
      ],
      "logsBloom": "0x00000000000000000000000000000000000000000000000000000000000000000000000000000000000000000000000000000000000400000000000000000000000000000000000000000000000000000000000000000000002000000000000000000000000800000000000000000000000000000000000000000000000000000000000000000000000000000000000000000000000000000000000000000000000000000000000000000002000000000000000000000000000000000000008000000000000000000000000000000000000000000000000000000000000000000000000000000000000000000000000000000000000000000000000000000010",
      "type": "0x2",
      "transactionHash": "0xdc979f85178ae0910f5998e9448b8d4734b8d2eceaaf1ba045b6c2d0f4109ac9",
      "transactionIndex": "0x3",
      "blockHash": "0x70b84f993e9ea9238a200a439c201815d79966e620158b12ce3f0fb7566ba162",
      "blockNumber": "0x1429a557",
      "gasUsed": "0x24d77",
      "effectiveGasPrice": "0x989680",
      "from": "0x4c51ce7b2546e18449fbe16738a8d55bc195a4dd",
      "to": "0x1a44076050125825900e736c501f859c50fe728c",
      "contractAddress": null,
      "gasUsedForL1": "0x2de8",
      "l1BlockNumber": "0x157921d",
      "timeboosted": false
    },
    {
      "status": "0x1",
      "cumulativeGasUsed": "0x452e0",
      "logs": [
        {
          "address": "0x7b9e184e07a6ee1ac23eae0fe8d6be2f663f05e6",
          "topics": [
            "0x82118522aa536ac0e96cc5c689407ae42b89d592aa133890a01f1509842f5081"
          ],
          "data": "0x000000000000000000000000c099ab708e20e8b25c63ca156d7cc94404c55416000000000000000000000000000000000000000000000000000000000000769a0000000000000000000000000000000000000000000000000000000000000060000000000000000000000000000000000000000000000000000000000000002000000000000000000000000000000000000000000000000000000000000000020000000000000000000000000000000000000000000000000000000000000000000000000000000000000000000000000000000000000000000000000000000000000000000000000000000000000000000000000000000000000000000000c0000000000000000000000000000000000000000000000000000000000000012000000000000000000000000000000000000000000000000000000000000000020000000000000000000000002f55c492897526677c5b68fb199ea31e2c126416000000000000000000000000a7b5189bca84cd304d8553977c7c614329750d990000000000000000000000000000000000000000000000000000000000000000",
          "blockHash": "0xcd43349a194587dc4d82a15a6aa7ca3c82db8bb2469e4b1f58357885b60f51f7",
          "blockNumber": "0x1429a55b",
          "transactionHash": "0x806726947b1fc822c820659646acc07a5d59ea13e59f73170eb6885f0f28643d",
          "transactionIndex": "0x4",
          "logIndex": "0x2",
          "removed": false
        }
      ],
      "logsBloom": "0x00000000000020000000000000000000000000000000000000000000000000000000000000000000000000000000000000000000000000000000000000000000000000000000000000000000000000020000000000000000002000000000000000000000000000000000000000000000000000000000008000000000000000000000000000000000000000000000000000000000000000000000000000000000000000000000000000000002000000000000000000000000000000000000000000000000000000000000000000000000000000000000000000000000000000000000000000000000000000000000000000000000000000000000000000000010",
      "type": "0x2",
      "transactionHash": "0x806726947b1fc822c820659646acc07a5d59ea13e59f73170eb6885f0f28643d",
      "transactionIndex": "0x4",
      "blockHash": "0xcd43349a194587dc4d82a15a6aa7ca3c82db8bb2469e4b1f58357885b60f51f7",
      "blockNumber": "0x1429a55b",
      "gasUsed": "0x24c9b",
      "effectiveGasPrice": "0x989680",
      "from": "0x4c51ce7b2546e18449fbe16738a8d55bc195a4dd",
      "to": "0x1a44076050125825900e736c501f859c50fe728c",
      "contractAddress": null,
      "gasUsedForL1": "0x2e08",
      "l1BlockNumber": "0x157921d",
      "timeboosted": false
    },
    {
      "status": "0x1",
      "cumulativeGasUsed": "0x24d38",
      "logs": [
        {
          "address": "0x975bcd720be66659e3eb3c0e4f1866a3020e493a",
          "topics": [
            "0x82118522aa536ac0e96cc5c689407ae42b89d592aa133890a01f1509842f5081"
          ],
          "data": "0x000000000000000000000000c099ab708e20e8b25c63ca156d7cc94404c5541600000000000000000000000000000000000000000000000000000000000075e80000000000000000000000000000000000000000000000000000000000000060000000000000000000000000000000000000000000000000000000000000002000000000000000000000000000000000000000000000000000000000000000020000000000000000000000000000000000000000000000000000000000000000000000000000000000000000000000000000000000000000000000000000000000000000000000000000000000000000000000000000000000000000000000c0000000000000000000000000000000000000000000000000000000000000012000000000000000000000000000000000000000000000000000000000000000020000000000000000000000002f55c492897526677c5b68fb199ea31e2c126416000000000000000000000000a7b5189bca84cd304d8553977c7c614329750d990000000000000000000000000000000000000000000000000000000000000000",
          "blockHash": "0x6d55799d1c9ea65a4a9d1fd572585a4dbb62227abad0b4b247812d3edd0cca93",
          "blockNumber": "0x1429a55f",
          "transactionHash": "0xf3acb2eeddc88e62fbd1b83d9645cf61438f35b5bd305ae961ad4579f6842f01",
          "transactionIndex": "0x1",
          "logIndex": "0x0",
          "removed": false
        }
      ],
      "logsBloom": "0x00000000000000000000000000000000000000000000000000000000000000000000000000000000000000000000000000000000000400000000000000000000000000000000000000000000000000000000000000000000002000000000000000000000000800000000000000000000000000000000000000000000000000000000000000000000000000000000000000000000000000000000000000000000000000000000000000000002000000000000000000000000000000000000008000000000000000000000000000000000000000000000000000000000000000000000000000000000000000000000000000000000000000000000000000000010",
      "type": "0x2",
      "transactionHash": "0xf3acb2eeddc88e62fbd1b83d9645cf61438f35b5bd305ae961ad4579f6842f01",
      "transactionIndex": "0x1",
      "blockHash": "0x6d55799d1c9ea65a4a9d1fd572585a4dbb62227abad0b4b247812d3edd0cca93",
      "blockNumber": "0x1429a55f",
      "gasUsed": "0x24d38",
      "effectiveGasPrice": "0x989680",
      "from": "0x4c51ce7b2546e18449fbe16738a8d55bc195a4dd",
      "to": "0x1a44076050125825900e736c501f859c50fe728c",
      "contractAddress": null,
      "gasUsedForL1": "0x2da9",
      "l1BlockNumber": "0x157921d",
      "timeboosted": false
    },
    {
      "status": "0x1",
      "cumulativeGasUsed": "0xb595f",
      "logs": [
        {
          "address": "0x7b9e184e07a6ee1ac23eae0fe8d6be2f663f05e6",
          "topics": [
            "0x82118522aa536ac0e96cc5c689407ae42b89d592aa133890a01f1509842f5081"
          ],
          "data": "0x000000000000000000000000c099ab708e20e8b25c63ca156d7cc94404c5541600000000000000000000000000000000000000000000000000000000000075e80000000000000000000000000000000000000000000000000000000000000060000000000000000000000000000000000000000000000000000000000000002000000000000000000000000000000000000000000000000000000000000000020000000000000000000000000000000000000000000000000000000000000000000000000000000000000000000000000000000000000000000000000000000000000000000000000000000000000000000000000000000000000000000000c0000000000000000000000000000000000000000000000000000000000000012000000000000000000000000000000000000000000000000000000000000000020000000000000000000000002f55c492897526677c5b68fb199ea31e2c126416000000000000000000000000a7b5189bca84cd304d8553977c7c614329750d990000000000000000000000000000000000000000000000000000000000000000",
          "blockHash": "0x30fd6b86e9a0a33ba34b633df638ada46598fb4f135aadd177d3d605d9c5d543",
          "blockNumber": "0x1429a563",
          "transactionHash": "0x070b94c306d16f4d0acae6736497f2eb2bdfd40c60dd8a377c22bb8d716b73de",
          "transactionIndex": "0x6",
          "logIndex": "0x1e",
          "removed": false
        }
      ],
      "logsBloom": "0x00000000000020000000000000000000000000000000000000000000000000000000000000000000000000000000000000000000000000000000000000000000000000000000000000000000000000020000000000000000002000000000000000000000000000000000000000000000000000000000008000000000000000000000000000000000000000000000000000000000000000000000000000000000000000000000000000000002000000000000000000000000000000000000000000000000000000000000000000000000000000000000000000000000000000000000000000000000000000000000000000000000000000000000000000000010",
      "type": "0x2",
      "transactionHash": "0x070b94c306d16f4d0acae6736497f2eb2bdfd40c60dd8a377c22bb8d716b73de",
      "transactionIndex": "0x6",
      "blockHash": "0x30fd6b86e9a0a33ba34b633df638ada46598fb4f135aadd177d3d605d9c5d543",
      "blockNumber": "0x1429a563",
      "gasUsed": "0x24c5b",
      "effectiveGasPrice": "0x989680",
      "from": "0x4c51ce7b2546e18449fbe16738a8d55bc195a4dd",
      "to": "0x1a44076050125825900e736c501f859c50fe728c",
      "contractAddress": null,
      "gasUsedForL1": "0x2dc8",
      "l1BlockNumber": "0x157921d",
      "timeboosted": false
    },
    {
      "status": "0x1",
      "cumulativeGasUsed": "0x2ae58",
      "logs": [
        {
          "address": "0x975bcd720be66659e3eb3c0e4f1866a3020e493a",
          "topics": [
            "0x82118522aa536ac0e96cc5c689407ae42b89d592aa133890a01f1509842f5081"
          ],
          "data": "0x000000000000000000000000c099ab708e20e8b25c63ca156d7cc94404c55416000000000000000000000000000000000000000000000000000000000000759f0000000000000000000000000000000000000000000000000000000000000060000000000000000000000000000000000000000000000000000000000000002000000000000000000000000000000000000000000000000000000000000000020000000000000000000000000000000000000000000000000000000000000000000000000000000000000000000000000000000000000000000000000000000000000000000000000000000000000000000000000000000000000000000000c0000000000000000000000000000000000000000000000000000000000000012000000000000000000000000000000000000000000000000000000000000000020000000000000000000000002f55c492897526677c5b68fb199ea31e2c126416000000000000000000000000a7b5189bca84cd304d8553977c7c614329750d990000000000000000000000000000000000000000000000000000000000000000",
          "blockHash": "0xc15ec32cbcc960a06259d4b38dfbcaa610beed84bdf53e38c7ac41edec378454",
          "blockNumber": "0x1429a567",
          "transactionHash": "0xfcb024f4ab5af4e2dfbf086abbdff361f853d606ec0d1a0c33b6a942c3ecd196",
          "transactionIndex": "0x2",
          "logIndex": "0x0",
          "removed": false
        }
      ],
      "logsBloom": "0x00000000000000000000000000000000000000000000000000000000000000000000000000000000000000000000000000000000000400000000000000000000000000000000000000000000000000000000000000000000002000000000000000000000000800000000000000000000000000000000000000000000000000000000000000000000000000000000000000000000000000000000000000000000000000000000000000000002000000000000000000000000000000000000008000000000000000000000000000000000000000000000000000000000000000000000000000000000000000000000000000000000000000000000000000000010",
      "type": "0x2",
      "transactionHash": "0xfcb024f4ab5af4e2dfbf086abbdff361f853d606ec0d1a0c33b6a942c3ecd196",
      "transactionIndex": "0x2",
      "blockHash": "0xc15ec32cbcc960a06259d4b38dfbcaa610beed84bdf53e38c7ac41edec378454",
      "blockNumber": "0x1429a567",
      "gasUsed": "0x24cd9",
      "effectiveGasPrice": "0x989680",
      "from": "0x4c51ce7b2546e18449fbe16738a8d55bc195a4dd",
      "to": "0x1a44076050125825900e736c501f859c50fe728c",
      "contractAddress": null,
      "gasUsedForL1": "0x2d4a",
      "l1BlockNumber": "0x157921d",
      "timeboosted": false
    },
    {
      "status": "0x1",
      "cumulativeGasUsed": "0x395cf",
      "logs": [
        {
          "address": "0x7b9e184e07a6ee1ac23eae0fe8d6be2f663f05e6",
          "topics": [
            "0x82118522aa536ac0e96cc5c689407ae42b89d592aa133890a01f1509842f5081"
          ],
          "data": "0x000000000000000000000000c099ab708e20e8b25c63ca156d7cc94404c55416000000000000000000000000000000000000000000000000000000000000759f0000000000000000000000000000000000000000000000000000000000000060000000000000000000000000000000000000000000000000000000000000002000000000000000000000000000000000000000000000000000000000000000020000000000000000000000000000000000000000000000000000000000000000000000000000000000000000000000000000000000000000000000000000000000000000000000000000000000000000000000000000000000000000000000c0000000000000000000000000000000000000000000000000000000000000012000000000000000000000000000000000000000000000000000000000000000020000000000000000000000002f55c492897526677c5b68fb199ea31e2c126416000000000000000000000000a7b5189bca84cd304d8553977c7c614329750d990000000000000000000000000000000000000000000000000000000000000000",
          "blockHash": "0x8a5f3744baafc90e043586eb37df25c4383d7bee5e84f39e7f0be14b50c979d1",
          "blockNumber": "0x1429a56b",
          "transactionHash": "0x1956c8ea02fee65ad10f020e89113783cbe6d8d21e1de3baf8a82c7237096c96",
          "transactionIndex": "0x3",
          "logIndex": "0x1",
          "removed": false
        }
      ],
      "logsBloom": "0x00000000000020000000000000000000000000000000000000000000000000000000000000000000000000000000000000000000000000000000000000000000000000000000000000000000000000020000000000000000002000000000000000000000000000000000000000000000000000000000008000000000000000000000000000000000000000000000000000000000000000000000000000000000000000000000000000000002000000000000000000000000000000000000000000000000000000000000000000000000000000000000000000000000000000000000000000000000000000000000000000000000000000000000000000000010",
      "type": "0x2",
      "transactionHash": "0x1956c8ea02fee65ad10f020e89113783cbe6d8d21e1de3baf8a82c7237096c96",
      "transactionIndex": "0x3",
      "blockHash": "0x8a5f3744baafc90e043586eb37df25c4383d7bee5e84f39e7f0be14b50c979d1",
      "blockNumber": "0x1429a56b",
      "gasUsed": "0x24c9b",
      "effectiveGasPrice": "0x989680",
      "from": "0x4c51ce7b2546e18449fbe16738a8d55bc195a4dd",
      "to": "0x1a44076050125825900e736c501f859c50fe728c",
      "contractAddress": null,
      "gasUsedForL1": "0x2e08",
      "l1BlockNumber": "0x157921d",
      "timeboosted": false
    },
    {
      "status": "0x1",
      "cumulativeGasUsed": "0x2cf157",
      "logs": [
        {
          "address": "0x975bcd720be66659e3eb3c0e4f1866a3020e493a",
          "topics": [
            "0x82118522aa536ac0e96cc5c689407ae42b89d592aa133890a01f1509842f5081"
          ],
          "data": "0x000000000000000000000000c099ab708e20e8b25c63ca156d7cc94404c5541600000000000000000000000000000000000000000000000000000000000075950000000000000000000000000000000000000000000000000000000000000060000000000000000000000000000000000000000000000000000000000000002000000000000000000000000000000000000000000000000000000000000000020000000000000000000000000000000000000000000000000000000000000000000000000000000000000000000000000000000000000000000000000000000000000000000000000000000000000000000000000000000000000000000000c0000000000000000000000000000000000000000000000000000000000000012000000000000000000000000000000000000000000000000000000000000000020000000000000000000000002f55c492897526677c5b68fb199ea31e2c126416000000000000000000000000a7b5189bca84cd304d8553977c7c614329750d990000000000000000000000000000000000000000000000000000000000000000",
          "blockHash": "0x44f6fa67e1b3b8882baafedb3f05b19918c8127e2943485f08d1013ea989a0cd",
          "blockNumber": "0x1429a570",
          "transactionHash": "0x51750588d527451b6307747b9af71632d4dd35a7bad40a80d9b0e5b1a36ce5c2",
          "transactionIndex": "0x18",
          "logIndex": "0x30",
          "removed": false
        }
      ],
      "logsBloom": "0x00000000000000000000000000000000000000000000000000000000000000000000000000000000000000000000000000000000000400000000000000000000000000000000000000000000000000000000000000000000002000000000000000000000000800000000000000000000000000000000000000000000000000000000000000000000000000000000000000000000000000000000000000000000000000000000000000000002000000000000000000000000000000000000008000000000000000000000000000000000000000000000000000000000000000000000000000000000000000000000000000000000000000000000000000000010",
      "type": "0x2",
      "transactionHash": "0x51750588d527451b6307747b9af71632d4dd35a7bad40a80d9b0e5b1a36ce5c2",
      "transactionIndex": "0x18",
      "blockHash": "0x44f6fa67e1b3b8882baafedb3f05b19918c8127e2943485f08d1013ea989a0cd",
      "blockNumber": "0x1429a570",
      "gasUsed": "0x24dd6",
      "effectiveGasPrice": "0x989680",
      "from": "0x4c51ce7b2546e18449fbe16738a8d55bc195a4dd",
      "to": "0x1a44076050125825900e736c501f859c50fe728c",
      "contractAddress": null,
      "gasUsedForL1": "0x2e47",
      "l1BlockNumber": "0x157921d",
      "timeboosted": false
    },
    {
      "status": "0x1",
      "cumulativeGasUsed": "0xfe118",
      "logs": [
        {
          "address": "0x7b9e184e07a6ee1ac23eae0fe8d6be2f663f05e6",
          "topics": [
            "0x82118522aa536ac0e96cc5c689407ae42b89d592aa133890a01f1509842f5081"
          ],
          "data": "0x000000000000000000000000c099ab708e20e8b25c63ca156d7cc94404c5541600000000000000000000000000000000000000000000000000000000000075950000000000000000000000000000000000000000000000000000000000000060000000000000000000000000000000000000000000000000000000000000002000000000000000000000000000000000000000000000000000000000000000020000000000000000000000000000000000000000000000000000000000000000000000000000000000000000000000000000000000000000000000000000000000000000000000000000000000000000000000000000000000000000000000c0000000000000000000000000000000000000000000000000000000000000012000000000000000000000000000000000000000000000000000000000000000020000000000000000000000002f55c492897526677c5b68fb199ea31e2c126416000000000000000000000000a7b5189bca84cd304d8553977c7c614329750d990000000000000000000000000000000000000000000000000000000000000000",
          "blockHash": "0xf68fcd855f8684acd7e34e4bf3cf21ab9c2945833d5ae41afd93eda63b4a50e7",
          "blockNumber": "0x1429a57b",
          "transactionHash": "0xadd7933ba3dc833f22250045e7f5d3747b971fc2a1343e3de8c7aa0b02f6e49a",
          "transactionIndex": "0x6",
          "logIndex": "0xb",
          "removed": false
        }
      ],
      "logsBloom": "0x00000000000020000000000000000000000000000000000000000000000000000000000000000000000000000000000000000000000000000000000000000000000000000000000000000000000000020000000000000000002000000000000000000000000000000000000000000000000000000000008000000000000000000000000000000000000000000000000000000000000000000000000000000000000000000000000000000002000000000000000000000000000000000000000000000000000000000000000000000000000000000000000000000000000000000000000000000000000000000000000000000000000000000000000000000010",
      "type": "0x2",
      "transactionHash": "0xadd7933ba3dc833f22250045e7f5d3747b971fc2a1343e3de8c7aa0b02f6e49a",
      "transactionIndex": "0x6",
      "blockHash": "0xf68fcd855f8684acd7e34e4bf3cf21ab9c2945833d5ae41afd93eda63b4a50e7",
      "blockNumber": "0x1429a57b",
      "gasUsed": "0x24d19",
      "effectiveGasPrice": "0x989680",
      "from": "0x4c51ce7b2546e18449fbe16738a8d55bc195a4dd",
      "to": "0x1a44076050125825900e736c501f859c50fe728c",
      "contractAddress": null,
      "gasUsedForL1": "0x2e86",
      "l1BlockNumber": "0x157921d",
      "timeboosted": false
    },
    {
      "status": "0x1",
      "cumulativeGasUsed": "0x12d0f5",
      "logs": [
        {
          "address": "0x975bcd720be66659e3eb3c0e4f1866a3020e493a",
          "topics": [
            "0x82118522aa536ac0e96cc5c689407ae42b89d592aa133890a01f1509842f5081"
          ],
          "data": "0x000000000000000000000000c099ab708e20e8b25c63ca156d7cc94404c5541600000000000000000000000000000000000000000000000000000000000075960000000000000000000000000000000000000000000000000000000000000060000000000000000000000000000000000000000000000000000000000000002000000000000000000000000000000000000000000000000000000000000000020000000000000000000000000000000000000000000000000000000000000000000000000000000000000000000000000000000000000000000000000000000000000000000000000000000000000000000000000000000000000000000000c0000000000000000000000000000000000000000000000000000000000000012000000000000000000000000000000000000000000000000000000000000000020000000000000000000000002f55c492897526677c5b68fb199ea31e2c126416000000000000000000000000a7b5189bca84cd304d8553977c7c614329750d990000000000000000000000000000000000000000000000000000000000000000",
          "blockHash": "0x3f992051cf3b4b41699ed18508a8f75720ac29b4d09de0d258b1bea00405abd0",
          "blockNumber": "0x1429a57f",
          "transactionHash": "0x88e0081c0fe8b1a8be1c90d36ae587121be798bb9ee97eef308a8baffc612f7a",
          "transactionIndex": "0x4",
          "logIndex": "0x12",
          "removed": false
        }
      ],
      "logsBloom": "0x00000000000000000000000000000000000000000000000000000000000000000000000000000000000000000000000000000000000400000000000000000000000000000000000000000000000000000000000000000000002000000000000000000000000800000000000000000000000000000000000000000000000000000000000000000000000000000000000000000000000000000000000000000000000000000000000000000002000000000000000000000000000000000000008000000000000000000000000000000000000000000000000000000000000000000000000000000000000000000000000000000000000000000000000000000010",
      "type": "0x2",
      "transactionHash": "0x88e0081c0fe8b1a8be1c90d36ae587121be798bb9ee97eef308a8baffc612f7a",
      "transactionIndex": "0x4",
      "blockHash": "0x3f992051cf3b4b41699ed18508a8f75720ac29b4d09de0d258b1bea00405abd0",
      "blockNumber": "0x1429a57f",
      "gasUsed": "0x24d97",
      "effectiveGasPrice": "0x989680",
      "from": "0x4c51ce7b2546e18449fbe16738a8d55bc195a4dd",
      "to": "0x1a44076050125825900e736c501f859c50fe728c",
      "contractAddress": null,
      "gasUsedForL1": "0x2e08",
      "l1BlockNumber": "0x157921d",
      "timeboosted": false
    },
    {
      "status": "0x1",
      "cumulativeGasUsed": "0x36398",
      "logs": [
        {
          "address": "0x7b9e184e07a6ee1ac23eae0fe8d6be2f663f05e6",
          "topics": [
            "0x82118522aa536ac0e96cc5c689407ae42b89d592aa133890a01f1509842f5081"
          ],
          "data": "0x000000000000000000000000c099ab708e20e8b25c63ca156d7cc94404c5541600000000000000000000000000000000000000000000000000000000000075960000000000000000000000000000000000000000000000000000000000000060000000000000000000000000000000000000000000000000000000000000002000000000000000000000000000000000000000000000000000000000000000020000000000000000000000000000000000000000000000000000000000000000000000000000000000000000000000000000000000000000000000000000000000000000000000000000000000000000000000000000000000000000000000c0000000000000000000000000000000000000000000000000000000000000012000000000000000000000000000000000000000000000000000000000000000020000000000000000000000002f55c492897526677c5b68fb199ea31e2c126416000000000000000000000000a7b5189bca84cd304d8553977c7c614329750d990000000000000000000000000000000000000000000000000000000000000000",
          "blockHash": "0x3b280a562e115896da9ba1ee2a9acec334471ac3f302b9aabaac816dc0965a83",
          "blockNumber": "0x1429a583",
          "transactionHash": "0x23dc568d0d24a47e81c73a5fd5e50732da1e99ba090173b67694ec9c9c9bb4ae",
          "transactionIndex": "0x3",
          "logIndex": "0x0",
          "removed": false
        }
      ],
      "logsBloom": "0x00000000000020000000000000000000000000000000000000000000000000000000000000000000000000000000000000000000000000000000000000000000000000000000000000000000000000020000000000000000002000000000000000000000000000000000000000000000000000000000008000000000000000000000000000000000000000000000000000000000000000000000000000000000000000000000000000000002000000000000000000000000000000000000000000000000000000000000000000000000000000000000000000000000000000000000000000000000000000000000000000000000000000000000000000000010",
      "type": "0x2",
      "transactionHash": "0x23dc568d0d24a47e81c73a5fd5e50732da1e99ba090173b67694ec9c9c9bb4ae",
      "transactionIndex": "0x3",
      "blockHash": "0x3b280a562e115896da9ba1ee2a9acec334471ac3f302b9aabaac816dc0965a83",
      "blockNumber": "0x1429a583",
      "gasUsed": "0x24c7b",
      "effectiveGasPrice": "0x989680",
      "from": "0x4c51ce7b2546e18449fbe16738a8d55bc195a4dd",
      "to": "0x1a44076050125825900e736c501f859c50fe728c",
      "contractAddress": null,
      "gasUsedForL1": "0x2de8",
      "l1BlockNumber": "0x157921d",
      "timeboosted": false
    },
    {
      "status": "0x1",
      "cumulativeGasUsed": "0x62bf6",
      "logs": [
        {
          "address": "0x975bcd720be66659e3eb3c0e4f1866a3020e493a",
          "topics": [
            "0x82118522aa536ac0e96cc5c689407ae42b89d592aa133890a01f1509842f5081"
          ],
          "data": "0x000000000000000000000000c099ab708e20e8b25c63ca156d7cc94404c5541600000000000000000000000000000000000000000000000000000000000076830000000000000000000000000000000000000000000000000000000000000060000000000000000000000000000000000000000000000000000000000000002000000000000000000000000000000000000000000000000000000000000000020000000000000000000000000000000000000000000000000000000000000000000000000000000000000000000000000000000000000000000000000000000000000000000000000000000000000000000000000000000000000000000000c0000000000000000000000000000000000000000000000000000000000000012000000000000000000000000000000000000000000000000000000000000000020000000000000000000000002f55c492897526677c5b68fb199ea31e2c126416000000000000000000000000a7b5189bca84cd304d8553977c7c614329750d990000000000000000000000000000000000000000000000000000000000000000",
          "blockHash": "0xf4ea5b809b1fadedbf63ada14506d5b6e87c785baf0744aa1959e813e90ecb33",
          "blockNumber": "0x1429a588",
          "transactionHash": "0x3d6c90d041001224bb93c78222d2c406add9d865d92f1adc6d739c4e0d978d55",
          "transactionIndex": "0x3",
          "logIndex": "0x7",
          "removed": false
        }
      ],
      "logsBloom": "0x00000000000000000000000000000000000000000000000000000000000000000000000000000000000000000000000000000000000400000000000000000000000000000000000000000000000000000000000000000000002000000000000000000000000800000000000000000000000000000000000000000000000000000000000000000000000000000000000000000000000000000000000000000000000000000000000000000002000000000000000000000000000000000000008000000000000000000000000000000000000000000000000000000000000000000000000000000000000000000000000000000000000000000000000000000010",
      "type": "0x2",
      "transactionHash": "0x3d6c90d041001224bb93c78222d2c406add9d865d92f1adc6d739c4e0d978d55",
      "transactionIndex": "0x3",
      "blockHash": "0xf4ea5b809b1fadedbf63ada14506d5b6e87c785baf0744aa1959e813e90ecb33",
      "blockNumber": "0x1429a588",
      "gasUsed": "0x24db6",
      "effectiveGasPrice": "0x989680",
      "from": "0x4c51ce7b2546e18449fbe16738a8d55bc195a4dd",
      "to": "0x1a44076050125825900e736c501f859c50fe728c",
      "contractAddress": null,
      "gasUsedForL1": "0x2e27",
      "l1BlockNumber": "0x157921d",
      "timeboosted": false
    },
    {
      "status": "0x1",
      "cumulativeGasUsed": "0x48384",
      "logs": [
        {
          "address": "0x7b9e184e07a6ee1ac23eae0fe8d6be2f663f05e6",
          "topics": [
            "0x82118522aa536ac0e96cc5c689407ae42b89d592aa133890a01f1509842f5081"
          ],
          "data": "0x000000000000000000000000c099ab708e20e8b25c63ca156d7cc94404c5541600000000000000000000000000000000000000000000000000000000000076830000000000000000000000000000000000000000000000000000000000000060000000000000000000000000000000000000000000000000000000000000002000000000000000000000000000000000000000000000000000000000000000020000000000000000000000000000000000000000000000000000000000000000000000000000000000000000000000000000000000000000000000000000000000000000000000000000000000000000000000000000000000000000000000c0000000000000000000000000000000000000000000000000000000000000012000000000000000000000000000000000000000000000000000000000000000020000000000000000000000002f55c492897526677c5b68fb199ea31e2c126416000000000000000000000000a7b5189bca84cd304d8553977c7c614329750d990000000000000000000000000000000000000000000000000000000000000000",
          "blockHash": "0xefc35856d51d267968e510fff31b0640734be583f278406ed0be5fe15a85c117",
          "blockNumber": "0x1429a58c",
          "transactionHash": "0xaee19fc911bacc4644fc1c361068323b498259123477fe54dbbbc193a023971a",
          "transactionIndex": "0x2",
          "logIndex": "0x4",
          "removed": false
        }
      ],
      "logsBloom": "0x00000000000020000000000000000000000000000000000000000000000000000000000000000000000000000000000000000000000000000000000000000000000000000000000000000000000000020000000000000000002000000000000000000000000000000000000000000000000000000000008000000000000000000000000000000000000000000000000000000000000000000000000000000000000000000000000000000002000000000000000000000000000000000000000000000000000000000000000000000000000000000000000000000000000000000000000000000000000000000000000000000000000000000000000000000010",
      "type": "0x2",
      "transactionHash": "0xaee19fc911bacc4644fc1c361068323b498259123477fe54dbbbc193a023971a",
      "transactionIndex": "0x2",
      "blockHash": "0xefc35856d51d267968e510fff31b0640734be583f278406ed0be5fe15a85c117",
      "blockNumber": "0x1429a58c",
      "gasUsed": "0x24c3c",
      "effectiveGasPrice": "0x989680",
      "from": "0x4c51ce7b2546e18449fbe16738a8d55bc195a4dd",
      "to": "0x1a44076050125825900e736c501f859c50fe728c",
      "contractAddress": null,
      "gasUsedForL1": "0x2da9",
      "l1BlockNumber": "0x157921e",
      "timeboosted": false
    },
    {
      "status": "0x1",
      "cumulativeGasUsed": "0xa9bd",
      "logs": [
        {
          "address": "0x1a44076050125825900e736c501f859c50fe728c",
          "topics": [
            "0x6ee10e9ed4d6ce9742703a498707862f4b00f1396a87195eb93267b3d7983981"
          ],
          "data": "0x000000000000000000000000c099ab708e20e8b25c63ca156d7cc94404c55416000000000000000000000000cb343bf07e72548349f506593336b6cb698ad6da",
          "blockHash": "0xe285ef38c213903ab38c231376b97d1f571a824ec175eb91c68a63733fc4f1aa",
          "blockNumber": "0x1429a595",
          "transactionHash": "0x7600458bc212fb493d67aee1efce5fb2f2125a0caa1977fe9c4ed270c57915fa",
          "transactionIndex": "0x1",
          "logIndex": "0x0",
          "removed": false
        }
      ],
      "logsBloom": "0x00000000000000000000000000000000000000000000000000800000001000000000000000000000000000000000000000000002000000000000000000000000000000000000000000000000000000000000000000000000000000000000000000000000000000000000000000000000000000000010000000000000000000000000000000000000000000000000000000000000000000000000000000000000000000000000000000000000000000000000000000000000000000000000000400000000000000000000000000000000000000000000000000000000000000000000000000000000000000000000000000000000010000000000000000000000",
      "type": "0x2",
      "transactionHash": "0x7600458bc212fb493d67aee1efce5fb2f2125a0caa1977fe9c4ed270c57915fa",
      "transactionIndex": "0x1",
      "blockHash": "0xe285ef38c213903ab38c231376b97d1f571a824ec175eb91c68a63733fc4f1aa",
      "blockNumber": "0x1429a595",
      "gasUsed": "0xa9bd",
      "effectiveGasPrice": "0x989680",
      "from": "0x4c51ce7b2546e18449fbe16738a8d55bc195a4dd",
      "to": "0xc099ab708e20e8b25c63ca156d7cc94404c55416",
      "contractAddress": null,
      "gasUsedForL1": "0x1250",
      "l1BlockNumber": "0x157921e",
      "timeboosted": false
    }
  ],
  "libraries": [],
  "pending": [],
  "returns": {},
  "timestamp": 1747648516,
  "chain": 42161,
  "commit": "26a0814"
}