{
  "transactions": [
    {
      "hash": "0x0d4e5793a3ee9bbe3cc208a06feb035eea6a0664a743e7518a563e359f09a397",
      "transactionType": "CALL",
      "contractName": null,
      "contractAddress": "0xc099ab708e20e8b25c63ca156d7cc94404c55416",
      "function": "setRateLimits((uint32,uint256,uint256)[])",
      "arguments": [
        "[(30101, 100000000000000000000000000, 3600), (30362, 100000000000000000000000000, 3600), (30184, 100000000000000000000000000, 3600), (30111, 100000000000000000000000000, 3600), (30110, 100000000000000000000000000, 3600), (30102, 100000000000000000000000000, 3600), (30339, 100000000000000000000000000, 3600)]"
      ],
      "transaction": {
        "from": "0x4c51ce7b2546e18449fbe16738a8d55bc195a4dd",
        "to": "0xc099ab708e20e8b25c63ca156d7cc94404c55416",
        "gas": "0xbd161",
        "value": "0x0",
        "input": "0x46f943e900000000000000000000000000000000000000000000000000000000000000200000000000000000000000000000000000000000000000000000000000000007000000000000000000000000000000000000000000000000000000000000759500000000000000000000000000000000000000000052b7d2dcc80cd2e40000000000000000000000000000000000000000000000000000000000000000000e10000000000000000000000000000000000000000000000000000000000000769a00000000000000000000000000000000000000000052b7d2dcc80cd2e40000000000000000000000000000000000000000000000000000000000000000000e1000000000000000000000000000000000000000000000000000000000000075e800000000000000000000000000000000000000000052b7d2dcc80cd2e40000000000000000000000000000000000000000000000000000000000000000000e10000000000000000000000000000000000000000000000000000000000000759f00000000000000000000000000000000000000000052b7d2dcc80cd2e40000000000000000000000000000000000000000000000000000000000000000000e10000000000000000000000000000000000000000000000000000000000000759e00000000000000000000000000000000000000000052b7d2dcc80cd2e40000000000000000000000000000000000000000000000000000000000000000000e10000000000000000000000000000000000000000000000000000000000000759600000000000000000000000000000000000000000052b7d2dcc80cd2e40000000000000000000000000000000000000000000000000000000000000000000e10000000000000000000000000000000000000000000000000000000000000768300000000000000000000000000000000000000000052b7d2dcc80cd2e40000000000000000000000000000000000000000000000000000000000000000000e10",
        "nonce": "0xce",
        "chainId": "0x2105"
      },
      "additionalContracts": [],
      "isFixedGasLimit": false
    },
    {
      "hash": "0xad75fea326e815701ba30d830b86b0f9f44060334cf913226602f26b259bab7a",
      "transactionType": "CALL",
      "contractName": null,
      "contractAddress": "0xc099ab708e20e8b25c63ca156d7cc94404c55416",
      "function": "setPeer(uint32,bytes32)",
      "arguments": [
        "30362",
        "0x000000000000000000000000c099ab708e20e8b25c63ca156d7cc94404c55416"
      ],
      "transaction": {
        "from": "0x4c51ce7b2546e18449fbe16738a8d55bc195a4dd",
        "to": "0xc099ab708e20e8b25c63ca156d7cc94404c55416",
        "gas": "0x11c84",
        "value": "0x0",
        "input": "0x3400288b000000000000000000000000000000000000000000000000000000000000769a000000000000000000000000c099ab708e20e8b25c63ca156d7cc94404c55416",
        "nonce": "0xcf",
        "chainId": "0x2105"
      },
      "additionalContracts": [],
      "isFixedGasLimit": false
    },
    {
      "hash": "0x18d66c6c21877c522f86bf437ddf71f87622fe3d421dea31e44af0e4dec6e67a",
      "transactionType": "CALL",
      "contractName": null,
      "contractAddress": "0xc099ab708e20e8b25c63ca156d7cc94404c55416",
      "function": "setPeer(uint32,bytes32)",
      "arguments": [
        "30101",
        "0x000000000000000000000000c099ab708e20e8b25c63ca156d7cc94404c55416"
      ],
      "transaction": {
        "from": "0x4c51ce7b2546e18449fbe16738a8d55bc195a4dd",
        "to": "0xc099ab708e20e8b25c63ca156d7cc94404c55416",
        "gas": "0x11c84",
        "value": "0x0",
        "input": "0x3400288b0000000000000000000000000000000000000000000000000000000000007595000000000000000000000000c099ab708e20e8b25c63ca156d7cc94404c55416",
        "nonce": "0xd0",
        "chainId": "0x2105"
      },
      "additionalContracts": [],
      "isFixedGasLimit": false
    },
    {
      "hash": "0x657c244f4be6bfaa1351083a7b38f1db3aa3046ae5fb49b75a5a05a3b8339af6",
      "transactionType": "CALL",
      "contractName": null,
      "contractAddress": "0xc099ab708e20e8b25c63ca156d7cc94404c55416",
      "function": "setPeer(uint32,bytes32)",
      "arguments": [
        "30111",
        "0x000000000000000000000000c099ab708e20e8b25c63ca156d7cc94404c55416"
      ],
      "transaction": {
        "from": "0x4c51ce7b2546e18449fbe16738a8d55bc195a4dd",
        "to": "0xc099ab708e20e8b25c63ca156d7cc94404c55416",
        "gas": "0x11c84",
        "value": "0x0",
        "input": "0x3400288b000000000000000000000000000000000000000000000000000000000000759f000000000000000000000000c099ab708e20e8b25c63ca156d7cc94404c55416",
        "nonce": "0xd1",
        "chainId": "0x2105"
      },
      "additionalContracts": [],
      "isFixedGasLimit": false
    },
    {
      "hash": "0x2dfd79f3828b9ee759f0da4cfa6ec316a659678225ba81caf752a9bcd5334b21",
      "transactionType": "CALL",
      "contractName": null,
      "contractAddress": "0xc099ab708e20e8b25c63ca156d7cc94404c55416",
      "function": "setPeer(uint32,bytes32)",
      "arguments": [
        "30110",
        "0x000000000000000000000000c099ab708e20e8b25c63ca156d7cc94404c55416"
      ],
      "transaction": {
        "from": "0x4c51ce7b2546e18449fbe16738a8d55bc195a4dd",
        "to": "0xc099ab708e20e8b25c63ca156d7cc94404c55416",
        "gas": "0x11c84",
        "value": "0x0",
        "input": "0x3400288b000000000000000000000000000000000000000000000000000000000000759e000000000000000000000000c099ab708e20e8b25c63ca156d7cc94404c55416",
        "nonce": "0xd2",
        "chainId": "0x2105"
      },
      "additionalContracts": [],
      "isFixedGasLimit": false
    },
    {
      "hash": "0xf167a1ab1c03b9d5e246cf37ffb5b01f0229c2916500d4f8832bcae19d422254",
      "transactionType": "CALL",
      "contractName": null,
      "contractAddress": "0xc099ab708e20e8b25c63ca156d7cc94404c55416",
      "function": "setPeer(uint32,bytes32)",
      "arguments": [
        "30102",
        "0x000000000000000000000000c099ab708e20e8b25c63ca156d7cc94404c55416"
      ],
      "transaction": {
        "from": "0x4c51ce7b2546e18449fbe16738a8d55bc195a4dd",
        "to": "0xc099ab708e20e8b25c63ca156d7cc94404c55416",
        "gas": "0x11c84",
        "value": "0x0",
        "input": "0x3400288b0000000000000000000000000000000000000000000000000000000000007596000000000000000000000000c099ab708e20e8b25c63ca156d7cc94404c55416",
        "nonce": "0xd3",
        "chainId": "0x2105"
      },
      "additionalContracts": [],
      "isFixedGasLimit": false
    },
    {
      "hash": "0x7342f25ad7be5b408ff5635b2789c28f67f171e0067c8ea3be1f4cbcf3ae921f",
      "transactionType": "CALL",
      "contractName": null,
      "contractAddress": "0xc099ab708e20e8b25c63ca156d7cc94404c55416",
      "function": "setPeer(uint32,bytes32)",
      "arguments": [
        "30339",
        "0x000000000000000000000000c099ab708e20e8b25c63ca156d7cc94404c55416"
      ],
      "transaction": {
        "from": "0x4c51ce7b2546e18449fbe16738a8d55bc195a4dd",
        "to": "0xc099ab708e20e8b25c63ca156d7cc94404c55416",
        "gas": "0x11c84",
        "value": "0x0",
        "input": "0x3400288b0000000000000000000000000000000000000000000000000000000000007683000000000000000000000000c099ab708e20e8b25c63ca156d7cc94404c55416",
        "nonce": "0xd4",
        "chainId": "0x2105"
      },
      "additionalContracts": [],
      "isFixedGasLimit": false
    },
    {
      "hash": "0xda01a87f0dae182e06545c564eb2c5834262e630a8da1f5ac37852262cadbe5b",
      "transactionType": "CALL",
      "contractName": null,
      "contractAddress": "0x1a44076050125825900e736c501f859c50fe728c",
      "function": "setReceiveLibrary(address,uint32,address,uint256)",
      "arguments": [
        "0xc099Ab708e20E8b25C63cA156D7cc94404c55416",
        "30362",
        "0xc70AB6f32772f59fBfc23889Caf4Ba3376C84bAf",
        "0"
      ],
      "transaction": {
        "from": "0x4c51ce7b2546e18449fbe16738a8d55bc195a4dd",
        "to": "0x1a44076050125825900e736c501f859c50fe728c",
        "gas": "0x17001",
        "value": "0x0",
        "input": "0x6a14d715000000000000000000000000c099ab708e20e8b25c63ca156d7cc94404c55416000000000000000000000000000000000000000000000000000000000000769a000000000000000000000000c70ab6f32772f59fbfc23889caf4ba3376c84baf0000000000000000000000000000000000000000000000000000000000000000",
        "nonce": "0xd5",
        "chainId": "0x2105"
      },
      "additionalContracts": [],
      "isFixedGasLimit": false
    },
    {
      "hash": "0x1755018cfdc28bee49ebcbdceeb7e8e0050c8cdf6d5e2aa7c7f1e4fe165c9e78",
      "transactionType": "CALL",
      "contractName": null,
      "contractAddress": "0x1a44076050125825900e736c501f859c50fe728c",
      "function": "setReceiveLibrary(address,uint32,address,uint256)",
      "arguments": [
        "0xc099Ab708e20E8b25C63cA156D7cc94404c55416",
        "30101",
        "0xc70AB6f32772f59fBfc23889Caf4Ba3376C84bAf",
        "0"
      ],
      "transaction": {
        "from": "0x4c51ce7b2546e18449fbe16738a8d55bc195a4dd",
        "to": "0x1a44076050125825900e736c501f859c50fe728c",
        "gas": "0x17001",
        "value": "0x0",
        "input": "0x6a14d715000000000000000000000000c099ab708e20e8b25c63ca156d7cc94404c554160000000000000000000000000000000000000000000000000000000000007595000000000000000000000000c70ab6f32772f59fbfc23889caf4ba3376c84baf0000000000000000000000000000000000000000000000000000000000000000",
        "nonce": "0xd6",
        "chainId": "0x2105"
      },
      "additionalContracts": [],
      "isFixedGasLimit": false
    },
    {
      "hash": "0x92d2d2e641f7e313090b9ae2e48b43ac75d27bf412c18218f7a4bb9ec223aebd",
      "transactionType": "CALL",
      "contractName": null,
      "contractAddress": "0x1a44076050125825900e736c501f859c50fe728c",
      "function": "setReceiveLibrary(address,uint32,address,uint256)",
      "arguments": [
        "0xc099Ab708e20E8b25C63cA156D7cc94404c55416",
        "30111",
        "0xc70AB6f32772f59fBfc23889Caf4Ba3376C84bAf",
        "0"
      ],
      "transaction": {
        "from": "0x4c51ce7b2546e18449fbe16738a8d55bc195a4dd",
        "to": "0x1a44076050125825900e736c501f859c50fe728c",
        "gas": "0x17001",
        "value": "0x0",
        "input": "0x6a14d715000000000000000000000000c099ab708e20e8b25c63ca156d7cc94404c55416000000000000000000000000000000000000000000000000000000000000759f000000000000000000000000c70ab6f32772f59fbfc23889caf4ba3376c84baf0000000000000000000000000000000000000000000000000000000000000000",
        "nonce": "0xd7",
        "chainId": "0x2105"
      },
      "additionalContracts": [],
      "isFixedGasLimit": false
    },
    {
      "hash": "0x9e7ff5dd551842dc76356a06f1d7210e20c7ca6a809ddbff9073a4517f1281c4",
      "transactionType": "CALL",
      "contractName": null,
      "contractAddress": "0x1a44076050125825900e736c501f859c50fe728c",
      "function": "setReceiveLibrary(address,uint32,address,uint256)",
      "arguments": [
        "0xc099Ab708e20E8b25C63cA156D7cc94404c55416",
        "30110",
        "0xc70AB6f32772f59fBfc23889Caf4Ba3376C84bAf",
        "0"
      ],
      "transaction": {
        "from": "0x4c51ce7b2546e18449fbe16738a8d55bc195a4dd",
        "to": "0x1a44076050125825900e736c501f859c50fe728c",
        "gas": "0x17001",
        "value": "0x0",
        "input": "0x6a14d715000000000000000000000000c099ab708e20e8b25c63ca156d7cc94404c55416000000000000000000000000000000000000000000000000000000000000759e000000000000000000000000c70ab6f32772f59fbfc23889caf4ba3376c84baf0000000000000000000000000000000000000000000000000000000000000000",
        "nonce": "0xd8",
        "chainId": "0x2105"
      },
      "additionalContracts": [],
      "isFixedGasLimit": false
    },
    {
      "hash": "0xa33ac4f2f90db0b654a38e4155eac97f36463092e20119f964fb121c83af8f6d",
      "transactionType": "CALL",
      "contractName": null,
      "contractAddress": "0x1a44076050125825900e736c501f859c50fe728c",
      "function": "setReceiveLibrary(address,uint32,address,uint256)",
      "arguments": [
        "0xc099Ab708e20E8b25C63cA156D7cc94404c55416",
        "30102",
        "0xc70AB6f32772f59fBfc23889Caf4Ba3376C84bAf",
        "0"
      ],
      "transaction": {
        "from": "0x4c51ce7b2546e18449fbe16738a8d55bc195a4dd",
        "to": "0x1a44076050125825900e736c501f859c50fe728c",
        "gas": "0x17001",
        "value": "0x0",
        "input": "0x6a14d715000000000000000000000000c099ab708e20e8b25c63ca156d7cc94404c554160000000000000000000000000000000000000000000000000000000000007596000000000000000000000000c70ab6f32772f59fbfc23889caf4ba3376c84baf0000000000000000000000000000000000000000000000000000000000000000",
        "nonce": "0xd9",
        "chainId": "0x2105"
      },
      "additionalContracts": [],
      "isFixedGasLimit": false
    },
    {
      "hash": "0xc6485d81a100dea44e62c439ccdf89d131130249d6d6fc21498dcd591451dace",
      "transactionType": "CALL",
      "contractName": null,
      "contractAddress": "0x1a44076050125825900e736c501f859c50fe728c",
      "function": "setReceiveLibrary(address,uint32,address,uint256)",
      "arguments": [
        "0xc099Ab708e20E8b25C63cA156D7cc94404c55416",
        "30339",
        "0xc70AB6f32772f59fBfc23889Caf4Ba3376C84bAf",
        "0"
      ],
      "transaction": {
        "from": "0x4c51ce7b2546e18449fbe16738a8d55bc195a4dd",
        "to": "0x1a44076050125825900e736c501f859c50fe728c",
        "gas": "0x17001",
        "value": "0x0",
        "input": "0x6a14d715000000000000000000000000c099ab708e20e8b25c63ca156d7cc94404c554160000000000000000000000000000000000000000000000000000000000007683000000000000000000000000c70ab6f32772f59fbfc23889caf4ba3376c84baf0000000000000000000000000000000000000000000000000000000000000000",
        "nonce": "0xda",
        "chainId": "0x2105"
      },
      "additionalContracts": [],
      "isFixedGasLimit": false
    },
    {
      "hash": "0xb51b3cf03e552b1297416123ebff03b01d1460fca973a0d6329075222e93bf03",
      "transactionType": "CALL",
      "contractName": null,
      "contractAddress": "0xc099ab708e20e8b25c63ca156d7cc94404c55416",
      "function": "setEnforcedOptions((uint32,uint16,bytes)[])",
      "arguments": [
        "[(30362, 1, 0x00030100110100000000000000000000000000029810), (30362, 2, 0x0003010011010000000000000000000000000002981001001303000000000000000000000000000000029810)]"
      ],
      "transaction": {
        "from": "0x4c51ce7b2546e18449fbe16738a8d55bc195a4dd",
        "to": "0xc099ab708e20e8b25c63ca156d7cc94404c55416",
        "gas": "0x2e8cb",
        "value": "0x0",
        "input": "0xb98bd07000000000000000000000000000000000000000000000000000000000000000200000000000000000000000000000000000000000000000000000000000000002000000000000000000000000000000000000000000000000000000000000004000000000000000000000000000000000000000000000000000000000000000e0000000000000000000000000000000000000000000000000000000000000769a0000000000000000000000000000000000000000000000000000000000000001000000000000000000000000000000000000000000000000000000000000006000000000000000000000000000000000000000000000000000000000000000160003010011010000000000000000000000000002981000000000000000000000000000000000000000000000000000000000000000000000000000000000769a00000000000000000000000000000000000000000000000000000000000000020000000000000000000000000000000000000000000000000000000000000060000000000000000000000000000000000000000000000000000000000000002c00030100110100000000000000000000000000029810010013030000000000000000000000000000000298100000000000000000000000000000000000000000",
        "nonce": "0xdb",
        "chainId": "0x2105"
      },
      "additionalContracts": [],
      "isFixedGasLimit": false
    },
    {
      "hash": "0x3ac71917819dc6f8fe3ed8622d50a9699bed3a77e470cce58851124265c336b1",
      "transactionType": "CALL",
      "contractName": null,
      "contractAddress": "0xc099ab708e20e8b25c63ca156d7cc94404c55416",
      "function": "setEnforcedOptions((uint32,uint16,bytes)[])",
      "arguments": [
        "[(30101, 1, 0x00030100110100000000000000000000000000029810), (30101, 2, 0x0003010011010000000000000000000000000002981001001303000000000000000000000000000000029810)]"
      ],
      "transaction": {
        "from": "0x4c51ce7b2546e18449fbe16738a8d55bc195a4dd",
        "to": "0xc099ab708e20e8b25c63ca156d7cc94404c55416",
        "gas": "0x2e8cb",
        "value": "0x0",
        "input": "0xb98bd07000000000000000000000000000000000000000000000000000000000000000200000000000000000000000000000000000000000000000000000000000000002000000000000000000000000000000000000000000000000000000000000004000000000000000000000000000000000000000000000000000000000000000e000000000000000000000000000000000000000000000000000000000000075950000000000000000000000000000000000000000000000000000000000000001000000000000000000000000000000000000000000000000000000000000006000000000000000000000000000000000000000000000000000000000000000160003010011010000000000000000000000000002981000000000000000000000000000000000000000000000000000000000000000000000000000000000759500000000000000000000000000000000000000000000000000000000000000020000000000000000000000000000000000000000000000000000000000000060000000000000000000000000000000000000000000000000000000000000002c00030100110100000000000000000000000000029810010013030000000000000000000000000000000298100000000000000000000000000000000000000000",
        "nonce": "0xdc",
        "chainId": "0x2105"
      },
      "additionalContracts": [],
      "isFixedGasLimit": false
    },
    {
      "hash": "0xf9ebe2c5505cc6e4979ef280f95883de9f9683baa799d43d752ffef44cc785e5",
      "transactionType": "CALL",
      "contractName": null,
      "contractAddress": "0xc099ab708e20e8b25c63ca156d7cc94404c55416",
      "function": "setEnforcedOptions((uint32,uint16,bytes)[])",
      "arguments": [
        "[(30111, 1, 0x00030100110100000000000000000000000000029810), (30111, 2, 0x0003010011010000000000000000000000000002981001001303000000000000000000000000000000029810)]"
      ],
      "transaction": {
        "from": "0x4c51ce7b2546e18449fbe16738a8d55bc195a4dd",
        "to": "0xc099ab708e20e8b25c63ca156d7cc94404c55416",
        "gas": "0x2e8cb",
        "value": "0x0",
        "input": "0xb98bd07000000000000000000000000000000000000000000000000000000000000000200000000000000000000000000000000000000000000000000000000000000002000000000000000000000000000000000000000000000000000000000000004000000000000000000000000000000000000000000000000000000000000000e0000000000000000000000000000000000000000000000000000000000000759f0000000000000000000000000000000000000000000000000000000000000001000000000000000000000000000000000000000000000000000000000000006000000000000000000000000000000000000000000000000000000000000000160003010011010000000000000000000000000002981000000000000000000000000000000000000000000000000000000000000000000000000000000000759f00000000000000000000000000000000000000000000000000000000000000020000000000000000000000000000000000000000000000000000000000000060000000000000000000000000000000000000000000000000000000000000002c00030100110100000000000000000000000000029810010013030000000000000000000000000000000298100000000000000000000000000000000000000000",
        "nonce": "0xdd",
        "chainId": "0x2105"
      },
      "additionalContracts": [],
      "isFixedGasLimit": false
    },
    {
      "hash": "0xa21f09d663a49ad78db215dfb96fd2a947321e1286588940125f299f0cfed057",
      "transactionType": "CALL",
      "contractName": null,
      "contractAddress": "0xc099ab708e20e8b25c63ca156d7cc94404c55416",
      "function": "setEnforcedOptions((uint32,uint16,bytes)[])",
      "arguments": [
        "[(30110, 1, 0x00030100110100000000000000000000000000029810), (30110, 2, 0x0003010011010000000000000000000000000002981001001303000000000000000000000000000000029810)]"
      ],
      "transaction": {
        "from": "0x4c51ce7b2546e18449fbe16738a8d55bc195a4dd",
        "to": "0xc099ab708e20e8b25c63ca156d7cc94404c55416",
        "gas": "0x2e8cb",
        "value": "0x0",
        "input": "0xb98bd07000000000000000000000000000000000000000000000000000000000000000200000000000000000000000000000000000000000000000000000000000000002000000000000000000000000000000000000000000000000000000000000004000000000000000000000000000000000000000000000000000000000000000e0000000000000000000000000000000000000000000000000000000000000759e0000000000000000000000000000000000000000000000000000000000000001000000000000000000000000000000000000000000000000000000000000006000000000000000000000000000000000000000000000000000000000000000160003010011010000000000000000000000000002981000000000000000000000000000000000000000000000000000000000000000000000000000000000759e00000000000000000000000000000000000000000000000000000000000000020000000000000000000000000000000000000000000000000000000000000060000000000000000000000000000000000000000000000000000000000000002c00030100110100000000000000000000000000029810010013030000000000000000000000000000000298100000000000000000000000000000000000000000",
        "nonce": "0xde",
        "chainId": "0x2105"
      },
      "additionalContracts": [],
      "isFixedGasLimit": false
    },
    {
      "hash": "0x1ce770966eefc0a1d900e0d762e31add21cff77cf1d8c588a37b3f0865412d14",
      "transactionType": "CALL",
      "contractName": null,
      "contractAddress": "0xc099ab708e20e8b25c63ca156d7cc94404c55416",
      "function": "setEnforcedOptions((uint32,uint16,bytes)[])",
      "arguments": [
        "[(30102, 1, 0x00030100110100000000000000000000000000029810), (30102, 2, 0x0003010011010000000000000000000000000002981001001303000000000000000000000000000000029810)]"
      ],
      "transaction": {
        "from": "0x4c51ce7b2546e18449fbe16738a8d55bc195a4dd",
        "to": "0xc099ab708e20e8b25c63ca156d7cc94404c55416",
        "gas": "0x2e8cb",
        "value": "0x0",
        "input": "0xb98bd07000000000000000000000000000000000000000000000000000000000000000200000000000000000000000000000000000000000000000000000000000000002000000000000000000000000000000000000000000000000000000000000004000000000000000000000000000000000000000000000000000000000000000e000000000000000000000000000000000000000000000000000000000000075960000000000000000000000000000000000000000000000000000000000000001000000000000000000000000000000000000000000000000000000000000006000000000000000000000000000000000000000000000000000000000000000160003010011010000000000000000000000000002981000000000000000000000000000000000000000000000000000000000000000000000000000000000759600000000000000000000000000000000000000000000000000000000000000020000000000000000000000000000000000000000000000000000000000000060000000000000000000000000000000000000000000000000000000000000002c00030100110100000000000000000000000000029810010013030000000000000000000000000000000298100000000000000000000000000000000000000000",
        "nonce": "0xdf",
        "chainId": "0x2105"
      },
      "additionalContracts": [],
      "isFixedGasLimit": false
    },
    {
      "hash": "0x6bfe731bd55a69b8645467f9982a07a87bbf6562c9636a95984e62d7bef4ec89",
      "transactionType": "CALL",
      "contractName": null,
      "contractAddress": "0xc099ab708e20e8b25c63ca156d7cc94404c55416",
      "function": "setEnforcedOptions((uint32,uint16,bytes)[])",
      "arguments": [
        "[(30339, 1, 0x00030100110100000000000000000000000000029810), (30339, 2, 0x0003010011010000000000000000000000000002981001001303000000000000000000000000000000029810)]"
      ],
      "transaction": {
        "from": "0x4c51ce7b2546e18449fbe16738a8d55bc195a4dd",
        "to": "0xc099ab708e20e8b25c63ca156d7cc94404c55416",
        "gas": "0x2e8cb",
        "value": "0x0",
        "input": "0xb98bd07000000000000000000000000000000000000000000000000000000000000000200000000000000000000000000000000000000000000000000000000000000002000000000000000000000000000000000000000000000000000000000000004000000000000000000000000000000000000000000000000000000000000000e000000000000000000000000000000000000000000000000000000000000076830000000000000000000000000000000000000000000000000000000000000001000000000000000000000000000000000000000000000000000000000000006000000000000000000000000000000000000000000000000000000000000000160003010011010000000000000000000000000002981000000000000000000000000000000000000000000000000000000000000000000000000000000000768300000000000000000000000000000000000000000000000000000000000000020000000000000000000000000000000000000000000000000000000000000060000000000000000000000000000000000000000000000000000000000000002c00030100110100000000000000000000000000029810010013030000000000000000000000000000000298100000000000000000000000000000000000000000",
        "nonce": "0xe0",
        "chainId": "0x2105"
      },
      "additionalContracts": [],
      "isFixedGasLimit": false
    },
    {
      "hash": "0xc9e4cdd0874a1a61a73072f09e6dac86f07880ff0f9c457e578480187890ebcf",
      "transactionType": "CALL",
      "contractName": null,
      "contractAddress": "0x1a44076050125825900e736c501f859c50fe728c",
      "function": "setConfig(address,address,(uint32,uint32,bytes)[])",
      "arguments": [
        "0xc099Ab708e20E8b25C63cA156D7cc94404c55416",
        "0xB5320B0B3a13cC860893E2Bd79FCd7e13484Dda2",
        "[(30362, 2, 0x0000000000000000000000000000000000000000000000000000000000000020000000000000000000000000000000000000000000000000000000000000002000000000000000000000000000000000000000000000000000000000000000020000000000000000000000000000000000000000000000000000000000000000000000000000000000000000000000000000000000000000000000000000000000000000000000000000000000000000000000000000000000000000000000c0000000000000000000000000000000000000000000000000000000000000012000000000000000000000000000000000000000000000000000000000000000020000000000000000000000009e059a54699a285714207b43b055483e78faac25000000000000000000000000cd37ca043f8479064e10635020c65ffc005d36f60000000000000000000000000000000000000000000000000000000000000000)]"
      ],
      "transaction": {
        "from": "0x4c51ce7b2546e18449fbe16738a8d55bc195a4dd",
        "to": "0x1a44076050125825900e736c501f859c50fe728c",
        "gas": "0x31ae2",
        "value": "0x0",
        "input": "0x6dbd9f90000000000000000000000000c099ab708e20e8b25c63ca156d7cc94404c55416000000000000000000000000b5320b0b3a13cc860893e2bd79fcd7e13484dda2000000000000000000000000000000000000000000000000000000000000006000000000000000000000000000000000000000000000000000000000000000010000000000000000000000000000000000000000000000000000000000000020000000000000000000000000000000000000000000000000000000000000769a0000000000000000000000000000000000000000000000000000000000000002000000000000000000000000000000000000000000000000000000000000006000000000000000000000000000000000000000000000000000000000000001600000000000000000000000000000000000000000000000000000000000000020000000000000000000000000000000000000000000000000000000000000002000000000000000000000000000000000000000000000000000000000000000020000000000000000000000000000000000000000000000000000000000000000000000000000000000000000000000000000000000000000000000000000000000000000000000000000000000000000000000000000000000000000000000c0000000000000000000000000000000000000000000000000000000000000012000000000000000000000000000000000000000000000000000000000000000020000000000000000000000009e059a54699a285714207b43b055483e78faac25000000000000000000000000cd37ca043f8479064e10635020c65ffc005d36f60000000000000000000000000000000000000000000000000000000000000000",
        "nonce": "0xe1",
        "chainId": "0x2105"
      },
      "additionalContracts": [],
      "isFixedGasLimit": false
    },
    {
      "hash": "0xd4047a106f61f560b1714254164987fd6f4d63c1d211dd06b96c7b5c5da59a0d",
      "transactionType": "CALL",
      "contractName": null,
      "contractAddress": "0x1a44076050125825900e736c501f859c50fe728c",
      "function": "setConfig(address,address,(uint32,uint32,bytes)[])",
      "arguments": [
        "0xc099Ab708e20E8b25C63cA156D7cc94404c55416",
        "0xc70AB6f32772f59fBfc23889Caf4Ba3376C84bAf",
        "[(30362, 2, 0x0000000000000000000000000000000000000000000000000000000000000020000000000000000000000000000000000000000000000000000000000000002000000000000000000000000000000000000000000000000000000000000000020000000000000000000000000000000000000000000000000000000000000000000000000000000000000000000000000000000000000000000000000000000000000000000000000000000000000000000000000000000000000000000000c0000000000000000000000000000000000000000000000000000000000000012000000000000000000000000000000000000000000000000000000000000000020000000000000000000000009e059a54699a285714207b43b055483e78faac25000000000000000000000000cd37ca043f8479064e10635020c65ffc005d36f60000000000000000000000000000000000000000000000000000000000000000)]"
      ],
      "transaction": {
        "from": "0x4c51ce7b2546e18449fbe16738a8d55bc195a4dd",
        "to": "0x1a44076050125825900e736c501f859c50fe728c",
        "gas": "0x2ed5d",
        "value": "0x0",
        "input": "0x6dbd9f90000000000000000000000000c099ab708e20e8b25c63ca156d7cc94404c55416000000000000000000000000c70ab6f32772f59fbfc23889caf4ba3376c84baf000000000000000000000000000000000000000000000000000000000000006000000000000000000000000000000000000000000000000000000000000000010000000000000000000000000000000000000000000000000000000000000020000000000000000000000000000000000000000000000000000000000000769a0000000000000000000000000000000000000000000000000000000000000002000000000000000000000000000000000000000000000000000000000000006000000000000000000000000000000000000000000000000000000000000001600000000000000000000000000000000000000000000000000000000000000020000000000000000000000000000000000000000000000000000000000000002000000000000000000000000000000000000000000000000000000000000000020000000000000000000000000000000000000000000000000000000000000000000000000000000000000000000000000000000000000000000000000000000000000000000000000000000000000000000000000000000000000000000000c0000000000000000000000000000000000000000000000000000000000000012000000000000000000000000000000000000000000000000000000000000000020000000000000000000000009e059a54699a285714207b43b055483e78faac25000000000000000000000000cd37ca043f8479064e10635020c65ffc005d36f60000000000000000000000000000000000000000000000000000000000000000",
        "nonce": "0xe2",
        "chainId": "0x2105"
      },
      "additionalContracts": [],
      "isFixedGasLimit": false
    },
    {
      "hash": "0xd84ae1500d0bac0100340e033b975a6e69323e575424fe58bfa8c0107a624044",
      "transactionType": "CALL",
      "contractName": null,
      "contractAddress": "0x1a44076050125825900e736c501f859c50fe728c",
      "function": "setConfig(address,address,(uint32,uint32,bytes)[])",
      "arguments": [
        "0xc099Ab708e20E8b25C63cA156D7cc94404c55416",
        "0xB5320B0B3a13cC860893E2Bd79FCd7e13484Dda2",
        "[(30101, 2, 0x0000000000000000000000000000000000000000000000000000000000000020000000000000000000000000000000000000000000000000000000000000002000000000000000000000000000000000000000000000000000000000000000020000000000000000000000000000000000000000000000000000000000000000000000000000000000000000000000000000000000000000000000000000000000000000000000000000000000000000000000000000000000000000000000c0000000000000000000000000000000000000000000000000000000000000012000000000000000000000000000000000000000000000000000000000000000020000000000000000000000009e059a54699a285714207b43b055483e78faac25000000000000000000000000cd37ca043f8479064e10635020c65ffc005d36f60000000000000000000000000000000000000000000000000000000000000000)]"
      ],
      "transaction": {
        "from": "0x4c51ce7b2546e18449fbe16738a8d55bc195a4dd",
        "to": "0x1a44076050125825900e736c501f859c50fe728c",
        "gas": "0x31ae2",
        "value": "0x0",
        "input": "0x6dbd9f90000000000000000000000000c099ab708e20e8b25c63ca156d7cc94404c55416000000000000000000000000b5320b0b3a13cc860893e2bd79fcd7e13484dda200000000000000000000000000000000000000000000000000000000000000600000000000000000000000000000000000000000000000000000000000000001000000000000000000000000000000000000000000000000000000000000002000000000000000000000000000000000000000000000000000000000000075950000000000000000000000000000000000000000000000000000000000000002000000000000000000000000000000000000000000000000000000000000006000000000000000000000000000000000000000000000000000000000000001600000000000000000000000000000000000000000000000000000000000000020000000000000000000000000000000000000000000000000000000000000002000000000000000000000000000000000000000000000000000000000000000020000000000000000000000000000000000000000000000000000000000000000000000000000000000000000000000000000000000000000000000000000000000000000000000000000000000000000000000000000000000000000000000c0000000000000000000000000000000000000000000000000000000000000012000000000000000000000000000000000000000000000000000000000000000020000000000000000000000009e059a54699a285714207b43b055483e78faac25000000000000000000000000cd37ca043f8479064e10635020c65ffc005d36f60000000000000000000000000000000000000000000000000000000000000000",
        "nonce": "0xe3",
        "chainId": "0x2105"
      },
      "additionalContracts": [],
      "isFixedGasLimit": false
    },
    {
      "hash": "0xa7697c015b485620d281aec5ceee9001247a4f5a8c7a8b9835de6f21408593f3",
      "transactionType": "CALL",
      "contractName": null,
      "contractAddress": "0x1a44076050125825900e736c501f859c50fe728c",
      "function": "setConfig(address,address,(uint32,uint32,bytes)[])",
      "arguments": [
        "0xc099Ab708e20E8b25C63cA156D7cc94404c55416",
        "0xc70AB6f32772f59fBfc23889Caf4Ba3376C84bAf",
        "[(30101, 2, 0x0000000000000000000000000000000000000000000000000000000000000020000000000000000000000000000000000000000000000000000000000000002000000000000000000000000000000000000000000000000000000000000000020000000000000000000000000000000000000000000000000000000000000000000000000000000000000000000000000000000000000000000000000000000000000000000000000000000000000000000000000000000000000000000000c0000000000000000000000000000000000000000000000000000000000000012000000000000000000000000000000000000000000000000000000000000000020000000000000000000000009e059a54699a285714207b43b055483e78faac25000000000000000000000000cd37ca043f8479064e10635020c65ffc005d36f60000000000000000000000000000000000000000000000000000000000000000)]"
      ],
      "transaction": {
        "from": "0x4c51ce7b2546e18449fbe16738a8d55bc195a4dd",
        "to": "0x1a44076050125825900e736c501f859c50fe728c",
        "gas": "0x2ed5d",
        "value": "0x0",
        "input": "0x6dbd9f90000000000000000000000000c099ab708e20e8b25c63ca156d7cc94404c55416000000000000000000000000c70ab6f32772f59fbfc23889caf4ba3376c84baf00000000000000000000000000000000000000000000000000000000000000600000000000000000000000000000000000000000000000000000000000000001000000000000000000000000000000000000000000000000000000000000002000000000000000000000000000000000000000000000000000000000000075950000000000000000000000000000000000000000000000000000000000000002000000000000000000000000000000000000000000000000000000000000006000000000000000000000000000000000000000000000000000000000000001600000000000000000000000000000000000000000000000000000000000000020000000000000000000000000000000000000000000000000000000000000002000000000000000000000000000000000000000000000000000000000000000020000000000000000000000000000000000000000000000000000000000000000000000000000000000000000000000000000000000000000000000000000000000000000000000000000000000000000000000000000000000000000000000c0000000000000000000000000000000000000000000000000000000000000012000000000000000000000000000000000000000000000000000000000000000020000000000000000000000009e059a54699a285714207b43b055483e78faac25000000000000000000000000cd37ca043f8479064e10635020c65ffc005d36f60000000000000000000000000000000000000000000000000000000000000000",
        "nonce": "0xe4",
        "chainId": "0x2105"
      },
      "additionalContracts": [],
      "isFixedGasLimit": false
    },
    {
      "hash": "0xd010fa86ad956a09acc0c70bed9d4bf000390cc48ddf3470128beab2f9016c7f",
      "transactionType": "CALL",
      "contractName": null,
      "contractAddress": "0x1a44076050125825900e736c501f859c50fe728c",
      "function": "setConfig(address,address,(uint32,uint32,bytes)[])",
      "arguments": [
        "0xc099Ab708e20E8b25C63cA156D7cc94404c55416",
        "0xB5320B0B3a13cC860893E2Bd79FCd7e13484Dda2",
        "[(30111, 2, 0x0000000000000000000000000000000000000000000000000000000000000020000000000000000000000000000000000000000000000000000000000000002000000000000000000000000000000000000000000000000000000000000000020000000000000000000000000000000000000000000000000000000000000000000000000000000000000000000000000000000000000000000000000000000000000000000000000000000000000000000000000000000000000000000000c0000000000000000000000000000000000000000000000000000000000000012000000000000000000000000000000000000000000000000000000000000000020000000000000000000000009e059a54699a285714207b43b055483e78faac25000000000000000000000000cd37ca043f8479064e10635020c65ffc005d36f60000000000000000000000000000000000000000000000000000000000000000)]"
      ],
      "transaction": {
        "from": "0x4c51ce7b2546e18449fbe16738a8d55bc195a4dd",
        "to": "0x1a44076050125825900e736c501f859c50fe728c",
        "gas": "0x31ae2",
        "value": "0x0",
        "input": "0x6dbd9f90000000000000000000000000c099ab708e20e8b25c63ca156d7cc94404c55416000000000000000000000000b5320b0b3a13cc860893e2bd79fcd7e13484dda2000000000000000000000000000000000000000000000000000000000000006000000000000000000000000000000000000000000000000000000000000000010000000000000000000000000000000000000000000000000000000000000020000000000000000000000000000000000000000000000000000000000000759f0000000000000000000000000000000000000000000000000000000000000002000000000000000000000000000000000000000000000000000000000000006000000000000000000000000000000000000000000000000000000000000001600000000000000000000000000000000000000000000000000000000000000020000000000000000000000000000000000000000000000000000000000000002000000000000000000000000000000000000000000000000000000000000000020000000000000000000000000000000000000000000000000000000000000000000000000000000000000000000000000000000000000000000000000000000000000000000000000000000000000000000000000000000000000000000000c0000000000000000000000000000000000000000000000000000000000000012000000000000000000000000000000000000000000000000000000000000000020000000000000000000000009e059a54699a285714207b43b055483e78faac25000000000000000000000000cd37ca043f8479064e10635020c65ffc005d36f60000000000000000000000000000000000000000000000000000000000000000",
        "nonce": "0xe5",
        "chainId": "0x2105"
      },
      "additionalContracts": [],
      "isFixedGasLimit": false
    },
    {
      "hash": "0x4accf731666ed60fde432a2826ce9e99201fc8724438a201b91c4e02452850be",
      "transactionType": "CALL",
      "contractName": null,
      "contractAddress": "0x1a44076050125825900e736c501f859c50fe728c",
      "function": "setConfig(address,address,(uint32,uint32,bytes)[])",
      "arguments": [
        "0xc099Ab708e20E8b25C63cA156D7cc94404c55416",
        "0xc70AB6f32772f59fBfc23889Caf4Ba3376C84bAf",
        "[(30111, 2, 0x0000000000000000000000000000000000000000000000000000000000000020000000000000000000000000000000000000000000000000000000000000002000000000000000000000000000000000000000000000000000000000000000020000000000000000000000000000000000000000000000000000000000000000000000000000000000000000000000000000000000000000000000000000000000000000000000000000000000000000000000000000000000000000000000c0000000000000000000000000000000000000000000000000000000000000012000000000000000000000000000000000000000000000000000000000000000020000000000000000000000009e059a54699a285714207b43b055483e78faac25000000000000000000000000cd37ca043f8479064e10635020c65ffc005d36f60000000000000000000000000000000000000000000000000000000000000000)]"
      ],
      "transaction": {
        "from": "0x4c51ce7b2546e18449fbe16738a8d55bc195a4dd",
        "to": "0x1a44076050125825900e736c501f859c50fe728c",
        "gas": "0x2ed5d",
        "value": "0x0",
        "input": "0x6dbd9f90000000000000000000000000c099ab708e20e8b25c63ca156d7cc94404c55416000000000000000000000000c70ab6f32772f59fbfc23889caf4ba3376c84baf000000000000000000000000000000000000000000000000000000000000006000000000000000000000000000000000000000000000000000000000000000010000000000000000000000000000000000000000000000000000000000000020000000000000000000000000000000000000000000000000000000000000759f0000000000000000000000000000000000000000000000000000000000000002000000000000000000000000000000000000000000000000000000000000006000000000000000000000000000000000000000000000000000000000000001600000000000000000000000000000000000000000000000000000000000000020000000000000000000000000000000000000000000000000000000000000002000000000000000000000000000000000000000000000000000000000000000020000000000000000000000000000000000000000000000000000000000000000000000000000000000000000000000000000000000000000000000000000000000000000000000000000000000000000000000000000000000000000000000c0000000000000000000000000000000000000000000000000000000000000012000000000000000000000000000000000000000000000000000000000000000020000000000000000000000009e059a54699a285714207b43b055483e78faac25000000000000000000000000cd37ca043f8479064e10635020c65ffc005d36f60000000000000000000000000000000000000000000000000000000000000000",
        "nonce": "0xe6",
        "chainId": "0x2105"
      },
      "additionalContracts": [],
      "isFixedGasLimit": false
    },
    {
      "hash": "0x9ecd0bed3de4870584cc537d12b14f63697fa42efc45963bde603390708c4616",
      "transactionType": "CALL",
      "contractName": null,
      "contractAddress": "0x1a44076050125825900e736c501f859c50fe728c",
      "function": "setConfig(address,address,(uint32,uint32,bytes)[])",
      "arguments": [
        "0xc099Ab708e20E8b25C63cA156D7cc94404c55416",
        "0xB5320B0B3a13cC860893E2Bd79FCd7e13484Dda2",
        "[(30110, 2, 0x0000000000000000000000000000000000000000000000000000000000000020000000000000000000000000000000000000000000000000000000000000002000000000000000000000000000000000000000000000000000000000000000020000000000000000000000000000000000000000000000000000000000000000000000000000000000000000000000000000000000000000000000000000000000000000000000000000000000000000000000000000000000000000000000c0000000000000000000000000000000000000000000000000000000000000012000000000000000000000000000000000000000000000000000000000000000020000000000000000000000009e059a54699a285714207b43b055483e78faac25000000000000000000000000cd37ca043f8479064e10635020c65ffc005d36f60000000000000000000000000000000000000000000000000000000000000000)]"
      ],
      "transaction": {
        "from": "0x4c51ce7b2546e18449fbe16738a8d55bc195a4dd",
        "to": "0x1a44076050125825900e736c501f859c50fe728c",
        "gas": "0x31ae2",
        "value": "0x0",
        "input": "0x6dbd9f90000000000000000000000000c099ab708e20e8b25c63ca156d7cc94404c55416000000000000000000000000b5320b0b3a13cc860893e2bd79fcd7e13484dda2000000000000000000000000000000000000000000000000000000000000006000000000000000000000000000000000000000000000000000000000000000010000000000000000000000000000000000000000000000000000000000000020000000000000000000000000000000000000000000000000000000000000759e0000000000000000000000000000000000000000000000000000000000000002000000000000000000000000000000000000000000000000000000000000006000000000000000000000000000000000000000000000000000000000000001600000000000000000000000000000000000000000000000000000000000000020000000000000000000000000000000000000000000000000000000000000002000000000000000000000000000000000000000000000000000000000000000020000000000000000000000000000000000000000000000000000000000000000000000000000000000000000000000000000000000000000000000000000000000000000000000000000000000000000000000000000000000000000000000c0000000000000000000000000000000000000000000000000000000000000012000000000000000000000000000000000000000000000000000000000000000020000000000000000000000009e059a54699a285714207b43b055483e78faac25000000000000000000000000cd37ca043f8479064e10635020c65ffc005d36f60000000000000000000000000000000000000000000000000000000000000000",
        "nonce": "0xe7",
        "chainId": "0x2105"
      },
      "additionalContracts": [],
      "isFixedGasLimit": false
    },
    {
      "hash": "0x89a47c70f00db40567b258e8ee4dce8eb154427f95a41758e6f178983f9c7c67",
      "transactionType": "CALL",
      "contractName": null,
      "contractAddress": "0x1a44076050125825900e736c501f859c50fe728c",
      "function": "setConfig(address,address,(uint32,uint32,bytes)[])",
      "arguments": [
        "0xc099Ab708e20E8b25C63cA156D7cc94404c55416",
        "0xc70AB6f32772f59fBfc23889Caf4Ba3376C84bAf",
        "[(30110, 2, 0x0000000000000000000000000000000000000000000000000000000000000020000000000000000000000000000000000000000000000000000000000000002000000000000000000000000000000000000000000000000000000000000000020000000000000000000000000000000000000000000000000000000000000000000000000000000000000000000000000000000000000000000000000000000000000000000000000000000000000000000000000000000000000000000000c0000000000000000000000000000000000000000000000000000000000000012000000000000000000000000000000000000000000000000000000000000000020000000000000000000000009e059a54699a285714207b43b055483e78faac25000000000000000000000000cd37ca043f8479064e10635020c65ffc005d36f60000000000000000000000000000000000000000000000000000000000000000)]"
      ],
      "transaction": {
        "from": "0x4c51ce7b2546e18449fbe16738a8d55bc195a4dd",
        "to": "0x1a44076050125825900e736c501f859c50fe728c",
        "gas": "0x2ed5d",
        "value": "0x0",
        "input": "0x6dbd9f90000000000000000000000000c099ab708e20e8b25c63ca156d7cc94404c55416000000000000000000000000c70ab6f32772f59fbfc23889caf4ba3376c84baf000000000000000000000000000000000000000000000000000000000000006000000000000000000000000000000000000000000000000000000000000000010000000000000000000000000000000000000000000000000000000000000020000000000000000000000000000000000000000000000000000000000000759e0000000000000000000000000000000000000000000000000000000000000002000000000000000000000000000000000000000000000000000000000000006000000000000000000000000000000000000000000000000000000000000001600000000000000000000000000000000000000000000000000000000000000020000000000000000000000000000000000000000000000000000000000000002000000000000000000000000000000000000000000000000000000000000000020000000000000000000000000000000000000000000000000000000000000000000000000000000000000000000000000000000000000000000000000000000000000000000000000000000000000000000000000000000000000000000000c0000000000000000000000000000000000000000000000000000000000000012000000000000000000000000000000000000000000000000000000000000000020000000000000000000000009e059a54699a285714207b43b055483e78faac25000000000000000000000000cd37ca043f8479064e10635020c65ffc005d36f60000000000000000000000000000000000000000000000000000000000000000",
        "nonce": "0xe8",
        "chainId": "0x2105"
      },
      "additionalContracts": [],
      "isFixedGasLimit": false
    },
    {
      "hash": "0x1810474651a680245db518cdb9caf8862780b5dd7131e5c0672762cd0e8b277d",
      "transactionType": "CALL",
      "contractName": null,
      "contractAddress": "0x1a44076050125825900e736c501f859c50fe728c",
      "function": "setConfig(address,address,(uint32,uint32,bytes)[])",
      "arguments": [
        "0xc099Ab708e20E8b25C63cA156D7cc94404c55416",
        "0xB5320B0B3a13cC860893E2Bd79FCd7e13484Dda2",
        "[(30102, 2, 0x0000000000000000000000000000000000000000000000000000000000000020000000000000000000000000000000000000000000000000000000000000002000000000000000000000000000000000000000000000000000000000000000020000000000000000000000000000000000000000000000000000000000000000000000000000000000000000000000000000000000000000000000000000000000000000000000000000000000000000000000000000000000000000000000c0000000000000000000000000000000000000000000000000000000000000012000000000000000000000000000000000000000000000000000000000000000020000000000000000000000009e059a54699a285714207b43b055483e78faac25000000000000000000000000cd37ca043f8479064e10635020c65ffc005d36f60000000000000000000000000000000000000000000000000000000000000000)]"
      ],
      "transaction": {
        "from": "0x4c51ce7b2546e18449fbe16738a8d55bc195a4dd",
        "to": "0x1a44076050125825900e736c501f859c50fe728c",
        "gas": "0x31ae2",
        "value": "0x0",
        "input": "0x6dbd9f90000000000000000000000000c099ab708e20e8b25c63ca156d7cc94404c55416000000000000000000000000b5320b0b3a13cc860893e2bd79fcd7e13484dda200000000000000000000000000000000000000000000000000000000000000600000000000000000000000000000000000000000000000000000000000000001000000000000000000000000000000000000000000000000000000000000002000000000000000000000000000000000000000000000000000000000000075960000000000000000000000000000000000000000000000000000000000000002000000000000000000000000000000000000000000000000000000000000006000000000000000000000000000000000000000000000000000000000000001600000000000000000000000000000000000000000000000000000000000000020000000000000000000000000000000000000000000000000000000000000002000000000000000000000000000000000000000000000000000000000000000020000000000000000000000000000000000000000000000000000000000000000000000000000000000000000000000000000000000000000000000000000000000000000000000000000000000000000000000000000000000000000000000c0000000000000000000000000000000000000000000000000000000000000012000000000000000000000000000000000000000000000000000000000000000020000000000000000000000009e059a54699a285714207b43b055483e78faac25000000000000000000000000cd37ca043f8479064e10635020c65ffc005d36f60000000000000000000000000000000000000000000000000000000000000000",
        "nonce": "0xe9",
        "chainId": "0x2105"
      },
      "additionalContracts": [],
      "isFixedGasLimit": false
    },
    {
      "hash": "0xcac96d9a33d4074669472802efd8bc06bfa429ec505870a1a9265186489dda11",
      "transactionType": "CALL",
      "contractName": null,
      "contractAddress": "0x1a44076050125825900e736c501f859c50fe728c",
      "function": "setConfig(address,address,(uint32,uint32,bytes)[])",
      "arguments": [
        "0xc099Ab708e20E8b25C63cA156D7cc94404c55416",
        "0xc70AB6f32772f59fBfc23889Caf4Ba3376C84bAf",
        "[(30102, 2, 0x0000000000000000000000000000000000000000000000000000000000000020000000000000000000000000000000000000000000000000000000000000002000000000000000000000000000000000000000000000000000000000000000020000000000000000000000000000000000000000000000000000000000000000000000000000000000000000000000000000000000000000000000000000000000000000000000000000000000000000000000000000000000000000000000c0000000000000000000000000000000000000000000000000000000000000012000000000000000000000000000000000000000000000000000000000000000020000000000000000000000009e059a54699a285714207b43b055483e78faac25000000000000000000000000cd37ca043f8479064e10635020c65ffc005d36f60000000000000000000000000000000000000000000000000000000000000000)]"
      ],
      "transaction": {
        "from": "0x4c51ce7b2546e18449fbe16738a8d55bc195a4dd",
        "to": "0x1a44076050125825900e736c501f859c50fe728c",
        "gas": "0x2ed5d",
        "value": "0x0",
        "input": "0x6dbd9f90000000000000000000000000c099ab708e20e8b25c63ca156d7cc94404c55416000000000000000000000000c70ab6f32772f59fbfc23889caf4ba3376c84baf00000000000000000000000000000000000000000000000000000000000000600000000000000000000000000000000000000000000000000000000000000001000000000000000000000000000000000000000000000000000000000000002000000000000000000000000000000000000000000000000000000000000075960000000000000000000000000000000000000000000000000000000000000002000000000000000000000000000000000000000000000000000000000000006000000000000000000000000000000000000000000000000000000000000001600000000000000000000000000000000000000000000000000000000000000020000000000000000000000000000000000000000000000000000000000000002000000000000000000000000000000000000000000000000000000000000000020000000000000000000000000000000000000000000000000000000000000000000000000000000000000000000000000000000000000000000000000000000000000000000000000000000000000000000000000000000000000000000000c0000000000000000000000000000000000000000000000000000000000000012000000000000000000000000000000000000000000000000000000000000000020000000000000000000000009e059a54699a285714207b43b055483e78faac25000000000000000000000000cd37ca043f8479064e10635020c65ffc005d36f60000000000000000000000000000000000000000000000000000000000000000",
        "nonce": "0xea",
        "chainId": "0x2105"
      },
      "additionalContracts": [],
      "isFixedGasLimit": false
    },
    {
      "hash": "0xd52c917e9b391162d33027b62a4346c2af2d2d2d67f7badfad369b13ed8bbe98",
      "transactionType": "CALL",
      "contractName": null,
      "contractAddress": "0x1a44076050125825900e736c501f859c50fe728c",
      "function": "setConfig(address,address,(uint32,uint32,bytes)[])",
      "arguments": [
        "0xc099Ab708e20E8b25C63cA156D7cc94404c55416",
        "0xB5320B0B3a13cC860893E2Bd79FCd7e13484Dda2",
        "[(30339, 2, 0x0000000000000000000000000000000000000000000000000000000000000020000000000000000000000000000000000000000000000000000000000000002000000000000000000000000000000000000000000000000000000000000000020000000000000000000000000000000000000000000000000000000000000000000000000000000000000000000000000000000000000000000000000000000000000000000000000000000000000000000000000000000000000000000000c0000000000000000000000000000000000000000000000000000000000000012000000000000000000000000000000000000000000000000000000000000000020000000000000000000000009e059a54699a285714207b43b055483e78faac25000000000000000000000000cd37ca043f8479064e10635020c65ffc005d36f60000000000000000000000000000000000000000000000000000000000000000)]"
      ],
      "transaction": {
        "from": "0x4c51ce7b2546e18449fbe16738a8d55bc195a4dd",
        "to": "0x1a44076050125825900e736c501f859c50fe728c",
        "gas": "0x31ae2",
        "value": "0x0",
        "input": "0x6dbd9f90000000000000000000000000c099ab708e20e8b25c63ca156d7cc94404c55416000000000000000000000000b5320b0b3a13cc860893e2bd79fcd7e13484dda200000000000000000000000000000000000000000000000000000000000000600000000000000000000000000000000000000000000000000000000000000001000000000000000000000000000000000000000000000000000000000000002000000000000000000000000000000000000000000000000000000000000076830000000000000000000000000000000000000000000000000000000000000002000000000000000000000000000000000000000000000000000000000000006000000000000000000000000000000000000000000000000000000000000001600000000000000000000000000000000000000000000000000000000000000020000000000000000000000000000000000000000000000000000000000000002000000000000000000000000000000000000000000000000000000000000000020000000000000000000000000000000000000000000000000000000000000000000000000000000000000000000000000000000000000000000000000000000000000000000000000000000000000000000000000000000000000000000000c0000000000000000000000000000000000000000000000000000000000000012000000000000000000000000000000000000000000000000000000000000000020000000000000000000000009e059a54699a285714207b43b055483e78faac25000000000000000000000000cd37ca043f8479064e10635020c65ffc005d36f60000000000000000000000000000000000000000000000000000000000000000",
        "nonce": "0xeb",
        "chainId": "0x2105"
      },
      "additionalContracts": [],
      "isFixedGasLimit": false
    },
    {
      "hash": "0xd1fa6d2ea24e6b642ebb9fb6965844b7738338d9c255ffce52d1ee2871abef7b",
      "transactionType": "CALL",
      "contractName": null,
      "contractAddress": "0x1a44076050125825900e736c501f859c50fe728c",
      "function": "setConfig(address,address,(uint32,uint32,bytes)[])",
      "arguments": [
        "0xc099Ab708e20E8b25C63cA156D7cc94404c55416",
        "0xc70AB6f32772f59fBfc23889Caf4Ba3376C84bAf",
        "[(30339, 2, 0x0000000000000000000000000000000000000000000000000000000000000020000000000000000000000000000000000000000000000000000000000000002000000000000000000000000000000000000000000000000000000000000000020000000000000000000000000000000000000000000000000000000000000000000000000000000000000000000000000000000000000000000000000000000000000000000000000000000000000000000000000000000000000000000000c0000000000000000000000000000000000000000000000000000000000000012000000000000000000000000000000000000000000000000000000000000000020000000000000000000000009e059a54699a285714207b43b055483e78faac25000000000000000000000000cd37ca043f8479064e10635020c65ffc005d36f60000000000000000000000000000000000000000000000000000000000000000)]"
      ],
      "transaction": {
        "from": "0x4c51ce7b2546e18449fbe16738a8d55bc195a4dd",
        "to": "0x1a44076050125825900e736c501f859c50fe728c",
        "gas": "0x2ed5d",
        "value": "0x0",
        "input": "0x6dbd9f90000000000000000000000000c099ab708e20e8b25c63ca156d7cc94404c55416000000000000000000000000c70ab6f32772f59fbfc23889caf4ba3376c84baf00000000000000000000000000000000000000000000000000000000000000600000000000000000000000000000000000000000000000000000000000000001000000000000000000000000000000000000000000000000000000000000002000000000000000000000000000000000000000000000000000000000000076830000000000000000000000000000000000000000000000000000000000000002000000000000000000000000000000000000000000000000000000000000006000000000000000000000000000000000000000000000000000000000000001600000000000000000000000000000000000000000000000000000000000000020000000000000000000000000000000000000000000000000000000000000002000000000000000000000000000000000000000000000000000000000000000020000000000000000000000000000000000000000000000000000000000000000000000000000000000000000000000000000000000000000000000000000000000000000000000000000000000000000000000000000000000000000000000c0000000000000000000000000000000000000000000000000000000000000012000000000000000000000000000000000000000000000000000000000000000020000000000000000000000009e059a54699a285714207b43b055483e78faac25000000000000000000000000cd37ca043f8479064e10635020c65ffc005d36f60000000000000000000000000000000000000000000000000000000000000000",
        "nonce": "0xec",
        "chainId": "0x2105"
      },
      "additionalContracts": [],
      "isFixedGasLimit": false
    },
    {
      "hash": "0x32d0422cd54b55552f34ba1de641c305715b96a892abbebe81c191babdfe5049",
      "transactionType": "CALL",
      "contractName": null,
      "contractAddress": "0xc099ab708e20e8b25c63ca156d7cc94404c55416",
      "function": "setDelegate(address)",
      "arguments": [
        "0xCb343bF07E72548349f506593336b6CB698Ad6dA"
      ],
      "transaction": {
        "from": "0x4c51ce7b2546e18449fbe16738a8d55bc195a4dd",
        "to": "0xc099ab708e20e8b25c63ca156d7cc94404c55416",
        "gas": "0xd127",
        "value": "0x0",
        "input": "0xca5eb5e1000000000000000000000000cb343bf07e72548349f506593336b6cb698ad6da",
        "nonce": "0xed",
        "chainId": "0x2105"
      },
      "additionalContracts": [],
      "isFixedGasLimit": false
    }
  ],
  "receipts": [
    {
      "status": "0x1",
      "cumulativeGasUsed": "0x5a2fab2",
      "logs": [
        {
          "address": "0xc099ab708e20e8b25c63ca156d7cc94404c55416",
          "topics": [
            "0xe888347665897e637801f36c5129f510657276178c89022bc5fa0246dbc19de1"
          ],
          "data": "0x00000000000000000000000000000000000000000000000000000000000000200000000000000000000000000000000000000000000000000000000000000007000000000000000000000000000000000000000000000000000000000000759500000000000000000000000000000000000000000052b7d2dcc80cd2e40000000000000000000000000000000000000000000000000000000000000000000e10000000000000000000000000000000000000000000000000000000000000769a00000000000000000000000000000000000000000052b7d2dcc80cd2e40000000000000000000000000000000000000000000000000000000000000000000e1000000000000000000000000000000000000000000000000000000000000075e800000000000000000000000000000000000000000052b7d2dcc80cd2e40000000000000000000000000000000000000000000000000000000000000000000e10000000000000000000000000000000000000000000000000000000000000759f00000000000000000000000000000000000000000052b7d2dcc80cd2e40000000000000000000000000000000000000000000000000000000000000000000e10000000000000000000000000000000000000000000000000000000000000759e00000000000000000000000000000000000000000052b7d2dcc80cd2e40000000000000000000000000000000000000000000000000000000000000000000e10000000000000000000000000000000000000000000000000000000000000759600000000000000000000000000000000000000000052b7d2dcc80cd2e40000000000000000000000000000000000000000000000000000000000000000000e10000000000000000000000000000000000000000000000000000000000000768300000000000000000000000000000000000000000052b7d2dcc80cd2e40000000000000000000000000000000000000000000000000000000000000000000e10",
          "blockHash": "0x1e3da2c626da0d32eac45cba0591cc66d45f25930c60383f1d9cfad4b0eeba67",
          "blockNumber": "0x1d05105",
          "blockTimestamp": "0x682afeed",
          "transactionHash": "0x0d4e5793a3ee9bbe3cc208a06feb035eea6a0664a743e7518a563e359f09a397",
          "transactionIndex": "0x13e",
          "logIndex": "0x4fc",
          "removed": false
        }
      ],
      "logsBloom": "0x00000000000000000000000000000000000000000000000000000000000000000000000000000000000000000000000000000000000000000000000000000000000000000000000000000000000000000000000000000000000000000000000000000000000000000000000000000000000000000000000000000000000000000000000000000000000000000000000000000000000020000000010000000004000000000000000000000800000000000000000000000000000000000000000000000000000000000000000000000000000000000000000000000000000000000000000000000000000000000000000000000000000000040000000000000000",
      "type": "0x2",
      "transactionHash": "0x0d4e5793a3ee9bbe3cc208a06feb035eea6a0664a743e7518a563e359f09a397",
      "transactionIndex": "0x13e",
      "blockHash": "0x1e3da2c626da0d32eac45cba0591cc66d45f25930c60383f1d9cfad4b0eeba67",
      "blockNumber": "0x1d05105",
      "gasUsed": "0x814a3",
      "effectiveGasPrice": "0x135fd7",
      "from": "0x4c51ce7b2546e18449fbe16738a8d55bc195a4dd",
      "to": "0xc099ab708e20e8b25c63ca156d7cc94404c55416",
      "contractAddress": null,
      "l1BaseFeeScalar": "0x8dd",
      "l1BlobBaseFee": "0x1",
      "l1BlobBaseFeeScalar": "0x101c12",
      "l1Fee": "0xf316918b",
      "l1GasPrice": "0x2bf5b429",
      "l1GasUsed": "0x985"
    },
    {
      "status": "0x1",
      "cumulativeGasUsed": "0x5a3c8af",
      "logs": [
        {
          "address": "0xc099ab708e20e8b25c63ca156d7cc94404c55416",
          "topics": [
            "0x238399d427b947898edb290f5ff0f9109849b1c3ba196a42e35f00c50a54b98b"
          ],
          "data": "0x000000000000000000000000000000000000000000000000000000000000769a000000000000000000000000c099ab708e20e8b25c63ca156d7cc94404c55416",
          "blockHash": "0x1e3da2c626da0d32eac45cba0591cc66d45f25930c60383f1d9cfad4b0eeba67",
          "blockNumber": "0x1d05105",
          "blockTimestamp": "0x682afeed",
          "transactionHash": "0xad75fea326e815701ba30d830b86b0f9f44060334cf913226602f26b259bab7a",
          "transactionIndex": "0x13f",
          "logIndex": "0x4fd",
          "removed": false
        }
      ],
      "logsBloom": "0x00000000000000000000000000000000000000000000000000000000000000000000000000000000000000000000000000000000000000000800000000000000000000000000000000000000000000000000000000000000000000000000000000000000000000000000000000000000000000000000000000000000000000000000000000000000000000000000000000000000000000000000010000000000000000000000000000000800000000000000000000000000000002000000000000000000000000000000000000000000000000000000000000040000000000000000000000000000000000000000000000000000000000040000000000000000",
      "type": "0x2",
      "transactionHash": "0xad75fea326e815701ba30d830b86b0f9f44060334cf913226602f26b259bab7a",
      "transactionIndex": "0x13f",
      "blockHash": "0x1e3da2c626da0d32eac45cba0591cc66d45f25930c60383f1d9cfad4b0eeba67",
      "blockNumber": "0x1d05105",
      "gasUsed": "0xcdfd",
      "effectiveGasPrice": "0x135fd7",
      "from": "0x4c51ce7b2546e18449fbe16738a8d55bc195a4dd",
      "to": "0xc099ab708e20e8b25c63ca156d7cc94404c55416",
      "contractAddress": null,
      "l1BaseFeeScalar": "0x8dd",
      "l1BlobBaseFee": "0x1",
      "l1BlobBaseFeeScalar": "0x101c12",
      "l1Fee": "0x9f97729c",
      "l1GasPrice": "0x2bf5b429",
      "l1GasUsed": "0x640"
    },
    {
      "status": "0x1",
      "cumulativeGasUsed": "0x5a496ac",
      "logs": [
        {
          "address": "0xc099ab708e20e8b25c63ca156d7cc94404c55416",
          "topics": [
            "0x238399d427b947898edb290f5ff0f9109849b1c3ba196a42e35f00c50a54b98b"
          ],
          "data": "0x0000000000000000000000000000000000000000000000000000000000007595000000000000000000000000c099ab708e20e8b25c63ca156d7cc94404c55416",
          "blockHash": "0x1e3da2c626da0d32eac45cba0591cc66d45f25930c60383f1d9cfad4b0eeba67",
          "blockNumber": "0x1d05105",
          "blockTimestamp": "0x682afeed",
          "transactionHash": "0x18d66c6c21877c522f86bf437ddf71f87622fe3d421dea31e44af0e4dec6e67a",
          "transactionIndex": "0x140",
          "logIndex": "0x4fe",
          "removed": false
        }
      ],
      "logsBloom": "0x00000000000000000000000000000000000000000000000000000000000000000000000000000000000000000000000000000000000000000800000000000000000000000000000000000000000000000000000000000000000000000000000000000000000000000000000000000000000000000000000000000000000000000000000000000000000000000000000000000000000000000000010000000000000000000000000000000800000000000000000000000000000002000000000000000000000000000000000000000000000000000000000000040000000000000000000000000000000000000000000000000000000000040000000000000000",
      "type": "0x2",
      "transactionHash": "0x18d66c6c21877c522f86bf437ddf71f87622fe3d421dea31e44af0e4dec6e67a",
      "transactionIndex": "0x140",
      "blockHash": "0x1e3da2c626da0d32eac45cba0591cc66d45f25930c60383f1d9cfad4b0eeba67",
      "blockNumber": "0x1d05105",
      "gasUsed": "0xcdfd",
      "effectiveGasPrice": "0x135fd7",
      "from": "0x4c51ce7b2546e18449fbe16738a8d55bc195a4dd",
      "to": "0xc099ab708e20e8b25c63ca156d7cc94404c55416",
      "contractAddress": null,
      "l1BaseFeeScalar": "0x8dd",
      "l1BlobBaseFee": "0x1",
      "l1BlobBaseFeeScalar": "0x101c12",
      "l1Fee": "0x9f97729c",
      "l1GasPrice": "0x2bf5b429",
      "l1GasUsed": "0x640"
    },
    {
      "status": "0x1",
      "cumulativeGasUsed": "0x5a564a9",
      "logs": [
        {
          "address": "0xc099ab708e20e8b25c63ca156d7cc94404c55416",
          "topics": [
            "0x238399d427b947898edb290f5ff0f9109849b1c3ba196a42e35f00c50a54b98b"
          ],
          "data": "0x000000000000000000000000000000000000000000000000000000000000759f000000000000000000000000c099ab708e20e8b25c63ca156d7cc94404c55416",
          "blockHash": "0x1e3da2c626da0d32eac45cba0591cc66d45f25930c60383f1d9cfad4b0eeba67",
          "blockNumber": "0x1d05105",
          "blockTimestamp": "0x682afeed",
          "transactionHash": "0x657c244f4be6bfaa1351083a7b38f1db3aa3046ae5fb49b75a5a05a3b8339af6",
          "transactionIndex": "0x141",
          "logIndex": "0x4ff",
          "removed": false
        }
      ],
      "logsBloom": "0x00000000000000000000000000000000000000000000000000000000000000000000000000000000000000000000000000000000000000000800000000000000000000000000000000000000000000000000000000000000000000000000000000000000000000000000000000000000000000000000000000000000000000000000000000000000000000000000000000000000000000000000010000000000000000000000000000000800000000000000000000000000000002000000000000000000000000000000000000000000000000000000000000040000000000000000000000000000000000000000000000000000000000040000000000000000",
      "type": "0x2",
      "transactionHash": "0x657c244f4be6bfaa1351083a7b38f1db3aa3046ae5fb49b75a5a05a3b8339af6",
      "transactionIndex": "0x141",
      "blockHash": "0x1e3da2c626da0d32eac45cba0591cc66d45f25930c60383f1d9cfad4b0eeba67",
      "blockNumber": "0x1d05105",
      "gasUsed": "0xcdfd",
      "effectiveGasPrice": "0x135fd7",
      "from": "0x4c51ce7b2546e18449fbe16738a8d55bc195a4dd",
      "to": "0xc099ab708e20e8b25c63ca156d7cc94404c55416",
      "contractAddress": null,
      "l1BaseFeeScalar": "0x8dd",
      "l1BlobBaseFee": "0x1",
      "l1BlobBaseFeeScalar": "0x101c12",
      "l1Fee": "0x9f97729c",
      "l1GasPrice": "0x2bf5b429",
      "l1GasUsed": "0x640"
    },
    {
      "status": "0x1",
      "cumulativeGasUsed": "0x5a632a6",
      "logs": [
        {
          "address": "0xc099ab708e20e8b25c63ca156d7cc94404c55416",
          "topics": [
            "0x238399d427b947898edb290f5ff0f9109849b1c3ba196a42e35f00c50a54b98b"
          ],
          "data": "0x000000000000000000000000000000000000000000000000000000000000759e000000000000000000000000c099ab708e20e8b25c63ca156d7cc94404c55416",
          "blockHash": "0x1e3da2c626da0d32eac45cba0591cc66d45f25930c60383f1d9cfad4b0eeba67",
          "blockNumber": "0x1d05105",
          "blockTimestamp": "0x682afeed",
          "transactionHash": "0x2dfd79f3828b9ee759f0da4cfa6ec316a659678225ba81caf752a9bcd5334b21",
          "transactionIndex": "0x142",
          "logIndex": "0x500",
          "removed": false
        }
      ],
      "logsBloom": "0x00000000000000000000000000000000000000000000000000000000000000000000000000000000000000000000000000000000000000000800000000000000000000000000000000000000000000000000000000000000000000000000000000000000000000000000000000000000000000000000000000000000000000000000000000000000000000000000000000000000000000000000010000000000000000000000000000000800000000000000000000000000000002000000000000000000000000000000000000000000000000000000000000040000000000000000000000000000000000000000000000000000000000040000000000000000",
      "type": "0x2",
      "transactionHash": "0x2dfd79f3828b9ee759f0da4cfa6ec316a659678225ba81caf752a9bcd5334b21",
      "transactionIndex": "0x142",
      "blockHash": "0x1e3da2c626da0d32eac45cba0591cc66d45f25930c60383f1d9cfad4b0eeba67",
      "blockNumber": "0x1d05105",
      "gasUsed": "0xcdfd",
      "effectiveGasPrice": "0x135fd7",
      "from": "0x4c51ce7b2546e18449fbe16738a8d55bc195a4dd",
      "to": "0xc099ab708e20e8b25c63ca156d7cc94404c55416",
      "contractAddress": null,
      "l1BaseFeeScalar": "0x8dd",
      "l1BlobBaseFee": "0x1",
      "l1BlobBaseFeeScalar": "0x101c12",
      "l1Fee": "0x9f97729c",
      "l1GasPrice": "0x2bf5b429",
      "l1GasUsed": "0x640"
    },
    {
      "status": "0x1",
      "cumulativeGasUsed": "0x5a700a3",
      "logs": [
        {
          "address": "0xc099ab708e20e8b25c63ca156d7cc94404c55416",
          "topics": [
            "0x238399d427b947898edb290f5ff0f9109849b1c3ba196a42e35f00c50a54b98b"
          ],
          "data": "0x0000000000000000000000000000000000000000000000000000000000007596000000000000000000000000c099ab708e20e8b25c63ca156d7cc94404c55416",
          "blockHash": "0x1e3da2c626da0d32eac45cba0591cc66d45f25930c60383f1d9cfad4b0eeba67",
          "blockNumber": "0x1d05105",
          "blockTimestamp": "0x682afeed",
          "transactionHash": "0xf167a1ab1c03b9d5e246cf37ffb5b01f0229c2916500d4f8832bcae19d422254",
          "transactionIndex": "0x143",
          "logIndex": "0x501",
          "removed": false
        }
      ],
      "logsBloom": "0x00000000000000000000000000000000000000000000000000000000000000000000000000000000000000000000000000000000000000000800000000000000000000000000000000000000000000000000000000000000000000000000000000000000000000000000000000000000000000000000000000000000000000000000000000000000000000000000000000000000000000000000010000000000000000000000000000000800000000000000000000000000000002000000000000000000000000000000000000000000000000000000000000040000000000000000000000000000000000000000000000000000000000040000000000000000",
      "type": "0x2",
      "transactionHash": "0xf167a1ab1c03b9d5e246cf37ffb5b01f0229c2916500d4f8832bcae19d422254",
      "transactionIndex": "0x143",
      "blockHash": "0x1e3da2c626da0d32eac45cba0591cc66d45f25930c60383f1d9cfad4b0eeba67",
      "blockNumber": "0x1d05105",
      "gasUsed": "0xcdfd",
      "effectiveGasPrice": "0x135fd7",
      "from": "0x4c51ce7b2546e18449fbe16738a8d55bc195a4dd",
      "to": "0xc099ab708e20e8b25c63ca156d7cc94404c55416",
      "contractAddress": null,
      "l1BaseFeeScalar": "0x8dd",
      "l1BlobBaseFee": "0x1",
      "l1BlobBaseFeeScalar": "0x101c12",
      "l1Fee": "0x9f97729c",
      "l1GasPrice": "0x2bf5b429",
      "l1GasUsed": "0x640"
    },
    {
      "status": "0x1",
      "cumulativeGasUsed": "0x5a7cea0",
      "logs": [
        {
          "address": "0xc099ab708e20e8b25c63ca156d7cc94404c55416",
          "topics": [
            "0x238399d427b947898edb290f5ff0f9109849b1c3ba196a42e35f00c50a54b98b"
          ],
          "data": "0x0000000000000000000000000000000000000000000000000000000000007683000000000000000000000000c099ab708e20e8b25c63ca156d7cc94404c55416",
          "blockHash": "0x1e3da2c626da0d32eac45cba0591cc66d45f25930c60383f1d9cfad4b0eeba67",
          "blockNumber": "0x1d05105",
          "blockTimestamp": "0x682afeed",
          "transactionHash": "0x7342f25ad7be5b408ff5635b2789c28f67f171e0067c8ea3be1f4cbcf3ae921f",
          "transactionIndex": "0x144",
          "logIndex": "0x502",
          "removed": false
        }
      ],
      "logsBloom": "0x00000000000000000000000000000000000000000000000000000000000000000000000000000000000000000000000000000000000000000800000000000000000000000000000000000000000000000000000000000000000000000000000000000000000000000000000000000000000000000000000000000000000000000000000000000000000000000000000000000000000000000000010000000000000000000000000000000800000000000000000000000000000002000000000000000000000000000000000000000000000000000000000000040000000000000000000000000000000000000000000000000000000000040000000000000000",
      "type": "0x2",
      "transactionHash": "0x7342f25ad7be5b408ff5635b2789c28f67f171e0067c8ea3be1f4cbcf3ae921f",
      "transactionIndex": "0x144",
      "blockHash": "0x1e3da2c626da0d32eac45cba0591cc66d45f25930c60383f1d9cfad4b0eeba67",
      "blockNumber": "0x1d05105",
      "gasUsed": "0xcdfd",
      "effectiveGasPrice": "0x135fd7",
      "from": "0x4c51ce7b2546e18449fbe16738a8d55bc195a4dd",
      "to": "0xc099ab708e20e8b25c63ca156d7cc94404c55416",
      "contractAddress": null,
      "l1BaseFeeScalar": "0x8dd",
      "l1BlobBaseFee": "0x1",
      "l1BlobBaseFeeScalar": "0x101c12",
      "l1Fee": "0x9f97729c",
      "l1GasPrice": "0x2bf5b429",
      "l1GasUsed": "0x640"
    },
    {
      "status": "0x1",
      "cumulativeGasUsed": "0x5a8ca41",
      "logs": [
        {
          "address": "0x1a44076050125825900e736c501f859c50fe728c",
          "topics": [
            "0xcd6f92f5ac6185a5acfa02c92090746cec64d777269cbcd0ed031e396657a1c2"
          ],
          "data": "0x000000000000000000000000c099ab708e20e8b25c63ca156d7cc94404c55416000000000000000000000000000000000000000000000000000000000000769a000000000000000000000000c70ab6f32772f59fbfc23889caf4ba3376c84baf",
          "blockHash": "0x1e3da2c626da0d32eac45cba0591cc66d45f25930c60383f1d9cfad4b0eeba67",
          "blockNumber": "0x1d05105",
          "blockTimestamp": "0x682afeed",
          "transactionHash": "0xda01a87f0dae182e06545c564eb2c5834262e630a8da1f5ac37852262cadbe5b",
          "transactionIndex": "0x145",
          "logIndex": "0x503",
          "removed": false
        },
        {
          "address": "0x1a44076050125825900e736c501f859c50fe728c",
          "topics": [
            "0x4e0a5bbfa0c11a64effb1ada324b5437a17272e1aed9320398715ef71bb20928"
          ],
          "data": "0x000000000000000000000000c099ab708e20e8b25c63ca156d7cc94404c55416000000000000000000000000000000000000000000000000000000000000769a00000000000000000000000000000000000000000000000000000000000000000000000000000000000000000000000000000000000000000000000000000000",
          "blockHash": "0x1e3da2c626da0d32eac45cba0591cc66d45f25930c60383f1d9cfad4b0eeba67",
          "blockNumber": "0x1d05105",
          "blockTimestamp": "0x682afeed",
          "transactionHash": "0xda01a87f0dae182e06545c564eb2c5834262e630a8da1f5ac37852262cadbe5b",
          "transactionIndex": "0x145",
          "logIndex": "0x504",
          "removed": false
        }
      ],
      "logsBloom": "0x00000000000000000000020800000000000000000000000000000000001000020400000000000000000000000000000000000000000000000000000000000000000000000000000000000000000000000000000000800000000000000000000000000000000000000000000000000000000000000010000000000000000000100000000000000000000000000000000000000000000000000000000000000000000000000000000000000000000000000000000000000000000000000000000000000000000000000000000000000000000000000000000000000000000000000000000000000000000000000000000000000000010000000000000000000000",
      "type": "0x2",
      "transactionHash": "0xda01a87f0dae182e06545c564eb2c5834262e630a8da1f5ac37852262cadbe5b",
      "transactionIndex": "0x145",
      "blockHash": "0x1e3da2c626da0d32eac45cba0591cc66d45f25930c60383f1d9cfad4b0eeba67",
      "blockNumber": "0x1d05105",
      "gasUsed": "0xfba1",
      "effectiveGasPrice": "0x135fd7",
      "from": "0x4c51ce7b2546e18449fbe16738a8d55bc195a4dd",
      "to": "0x1a44076050125825900e736c501f859c50fe728c",
      "contractAddress": null,
      "l1BaseFeeScalar": "0x8dd",
      "l1BlobBaseFee": "0x1",
      "l1BlobBaseFeeScalar": "0x101c12",
      "l1Fee": "0xb3024a07",
      "l1GasPrice": "0x2bf5b429",
      "l1GasUsed": "0x702"
    },
    {
      "status": "0x1",
      "cumulativeGasUsed": "0x5a9c5e2",
      "logs": [
        {
          "address": "0x1a44076050125825900e736c501f859c50fe728c",
          "topics": [
            "0xcd6f92f5ac6185a5acfa02c92090746cec64d777269cbcd0ed031e396657a1c2"
          ],
          "data": "0x000000000000000000000000c099ab708e20e8b25c63ca156d7cc94404c554160000000000000000000000000000000000000000000000000000000000007595000000000000000000000000c70ab6f32772f59fbfc23889caf4ba3376c84baf",
          "blockHash": "0x1e3da2c626da0d32eac45cba0591cc66d45f25930c60383f1d9cfad4b0eeba67",
          "blockNumber": "0x1d05105",
          "blockTimestamp": "0x682afeed",
          "transactionHash": "0x1755018cfdc28bee49ebcbdceeb7e8e0050c8cdf6d5e2aa7c7f1e4fe165c9e78",
          "transactionIndex": "0x146",
          "logIndex": "0x505",
          "removed": false
        },
        {
          "address": "0x1a44076050125825900e736c501f859c50fe728c",
          "topics": [
            "0x4e0a5bbfa0c11a64effb1ada324b5437a17272e1aed9320398715ef71bb20928"
          ],
          "data": "0x000000000000000000000000c099ab708e20e8b25c63ca156d7cc94404c55416000000000000000000000000000000000000000000000000000000000000759500000000000000000000000000000000000000000000000000000000000000000000000000000000000000000000000000000000000000000000000000000000",
          "blockHash": "0x1e3da2c626da0d32eac45cba0591cc66d45f25930c60383f1d9cfad4b0eeba67",
          "blockNumber": "0x1d05105",
          "blockTimestamp": "0x682afeed",
          "transactionHash": "0x1755018cfdc28bee49ebcbdceeb7e8e0050c8cdf6d5e2aa7c7f1e4fe165c9e78",
          "transactionIndex": "0x146",
          "logIndex": "0x506",
          "removed": false
        }
      ],
      "logsBloom": "0x00000000000000000000020800000000000000000000000000000000001000020400000000000000000000000000000000000000000000000000000000000000000000000000000000000000000000000000000000800000000000000000000000000000000000000000000000000000000000000010000000000000000000100000000000000000000000000000000000000000000000000000000000000000000000000000000000000000000000000000000000000000000000000000000000000000000000000000000000000000000000000000000000000000000000000000000000000000000000000000000000000000010000000000000000000000",
      "type": "0x2",
      "transactionHash": "0x1755018cfdc28bee49ebcbdceeb7e8e0050c8cdf6d5e2aa7c7f1e4fe165c9e78",
      "transactionIndex": "0x146",
      "blockHash": "0x1e3da2c626da0d32eac45cba0591cc66d45f25930c60383f1d9cfad4b0eeba67",
      "blockNumber": "0x1d05105",
      "gasUsed": "0xfba1",
      "effectiveGasPrice": "0x135fd7",
      "from": "0x4c51ce7b2546e18449fbe16738a8d55bc195a4dd",
      "to": "0x1a44076050125825900e736c501f859c50fe728c",
      "contractAddress": null,
      "l1BaseFeeScalar": "0x8dd",
      "l1BlobBaseFee": "0x1",
      "l1BlobBaseFeeScalar": "0x101c12",
      "l1Fee": "0xb3024a07",
      "l1GasPrice": "0x2bf5b429",
      "l1GasUsed": "0x702"
    },
    {
      "status": "0x1",
      "cumulativeGasUsed": "0x5aac183",
      "logs": [
        {
          "address": "0x1a44076050125825900e736c501f859c50fe728c",
          "topics": [
            "0xcd6f92f5ac6185a5acfa02c92090746cec64d777269cbcd0ed031e396657a1c2"
          ],
          "data": "0x000000000000000000000000c099ab708e20e8b25c63ca156d7cc94404c55416000000000000000000000000000000000000000000000000000000000000759f000000000000000000000000c70ab6f32772f59fbfc23889caf4ba3376c84baf",
          "blockHash": "0x1e3da2c626da0d32eac45cba0591cc66d45f25930c60383f1d9cfad4b0eeba67",
          "blockNumber": "0x1d05105",
          "blockTimestamp": "0x682afeed",
          "transactionHash": "0x92d2d2e641f7e313090b9ae2e48b43ac75d27bf412c18218f7a4bb9ec223aebd",
          "transactionIndex": "0x147",
          "logIndex": "0x507",
          "removed": false
        },
        {
          "address": "0x1a44076050125825900e736c501f859c50fe728c",
          "topics": [
            "0x4e0a5bbfa0c11a64effb1ada324b5437a17272e1aed9320398715ef71bb20928"
          ],
          "data": "0x000000000000000000000000c099ab708e20e8b25c63ca156d7cc94404c55416000000000000000000000000000000000000000000000000000000000000759f00000000000000000000000000000000000000000000000000000000000000000000000000000000000000000000000000000000000000000000000000000000",
          "blockHash": "0x1e3da2c626da0d32eac45cba0591cc66d45f25930c60383f1d9cfad4b0eeba67",
          "blockNumber": "0x1d05105",
          "blockTimestamp": "0x682afeed",
          "transactionHash": "0x92d2d2e641f7e313090b9ae2e48b43ac75d27bf412c18218f7a4bb9ec223aebd",
          "transactionIndex": "0x147",
          "logIndex": "0x508",
          "removed": false
        }
      ],
      "logsBloom": "0x00000000000000000000020800000000000000000000000000000000001000020400000000000000000000000000000000000000000000000000000000000000000000000000000000000000000000000000000000800000000000000000000000000000000000000000000000000000000000000010000000000000000000100000000000000000000000000000000000000000000000000000000000000000000000000000000000000000000000000000000000000000000000000000000000000000000000000000000000000000000000000000000000000000000000000000000000000000000000000000000000000000010000000000000000000000",
      "type": "0x2",
      "transactionHash": "0x92d2d2e641f7e313090b9ae2e48b43ac75d27bf412c18218f7a4bb9ec223aebd",
      "transactionIndex": "0x147",
      "blockHash": "0x1e3da2c626da0d32eac45cba0591cc66d45f25930c60383f1d9cfad4b0eeba67",
      "blockNumber": "0x1d05105",
      "gasUsed": "0xfba1",
      "effectiveGasPrice": "0x135fd7",
      "from": "0x4c51ce7b2546e18449fbe16738a8d55bc195a4dd",
      "to": "0x1a44076050125825900e736c501f859c50fe728c",
      "contractAddress": null,
      "l1BaseFeeScalar": "0x8dd",
      "l1BlobBaseFee": "0x1",
      "l1BlobBaseFeeScalar": "0x101c12",
      "l1Fee": "0xb3024a07",
      "l1GasPrice": "0x2bf5b429",
      "l1GasUsed": "0x702"
    },
    {
      "status": "0x1",
      "cumulativeGasUsed": "0x5abbd24",
      "logs": [
        {
          "address": "0x1a44076050125825900e736c501f859c50fe728c",
          "topics": [
            "0xcd6f92f5ac6185a5acfa02c92090746cec64d777269cbcd0ed031e396657a1c2"
          ],
          "data": "0x000000000000000000000000c099ab708e20e8b25c63ca156d7cc94404c55416000000000000000000000000000000000000000000000000000000000000759e000000000000000000000000c70ab6f32772f59fbfc23889caf4ba3376c84baf",
          "blockHash": "0x1e3da2c626da0d32eac45cba0591cc66d45f25930c60383f1d9cfad4b0eeba67",
          "blockNumber": "0x1d05105",
          "blockTimestamp": "0x682afeed",
          "transactionHash": "0x9e7ff5dd551842dc76356a06f1d7210e20c7ca6a809ddbff9073a4517f1281c4",
          "transactionIndex": "0x148",
          "logIndex": "0x509",
          "removed": false
        },
        {
          "address": "0x1a44076050125825900e736c501f859c50fe728c",
          "topics": [
            "0x4e0a5bbfa0c11a64effb1ada324b5437a17272e1aed9320398715ef71bb20928"
          ],
          "data": "0x000000000000000000000000c099ab708e20e8b25c63ca156d7cc94404c55416000000000000000000000000000000000000000000000000000000000000759e00000000000000000000000000000000000000000000000000000000000000000000000000000000000000000000000000000000000000000000000000000000",
          "blockHash": "0x1e3da2c626da0d32eac45cba0591cc66d45f25930c60383f1d9cfad4b0eeba67",
          "blockNumber": "0x1d05105",
          "blockTimestamp": "0x682afeed",
          "transactionHash": "0x9e7ff5dd551842dc76356a06f1d7210e20c7ca6a809ddbff9073a4517f1281c4",
          "transactionIndex": "0x148",
          "logIndex": "0x50a",
          "removed": false
        }
      ],
      "logsBloom": "0x00000000000000000000020800000000000000000000000000000000001000020400000000000000000000000000000000000000000000000000000000000000000000000000000000000000000000000000000000800000000000000000000000000000000000000000000000000000000000000010000000000000000000100000000000000000000000000000000000000000000000000000000000000000000000000000000000000000000000000000000000000000000000000000000000000000000000000000000000000000000000000000000000000000000000000000000000000000000000000000000000000000010000000000000000000000",
      "type": "0x2",
      "transactionHash": "0x9e7ff5dd551842dc76356a06f1d7210e20c7ca6a809ddbff9073a4517f1281c4",
      "transactionIndex": "0x148",
      "blockHash": "0x1e3da2c626da0d32eac45cba0591cc66d45f25930c60383f1d9cfad4b0eeba67",
      "blockNumber": "0x1d05105",
      "gasUsed": "0xfba1",
      "effectiveGasPrice": "0x135fd7",
      "from": "0x4c51ce7b2546e18449fbe16738a8d55bc195a4dd",
      "to": "0x1a44076050125825900e736c501f859c50fe728c",
      "contractAddress": null,
      "l1BaseFeeScalar": "0x8dd",
      "l1BlobBaseFee": "0x1",
      "l1BlobBaseFeeScalar": "0x101c12",
      "l1Fee": "0xb3024a07",
      "l1GasPrice": "0x2bf5b429",
      "l1GasUsed": "0x702"
    },
    {
      "status": "0x1",
      "cumulativeGasUsed": "0x5acb8c5",
      "logs": [
        {
          "address": "0x1a44076050125825900e736c501f859c50fe728c",
          "topics": [
            "0xcd6f92f5ac6185a5acfa02c92090746cec64d777269cbcd0ed031e396657a1c2"
          ],
          "data": "0x000000000000000000000000c099ab708e20e8b25c63ca156d7cc94404c554160000000000000000000000000000000000000000000000000000000000007596000000000000000000000000c70ab6f32772f59fbfc23889caf4ba3376c84baf",
          "blockHash": "0x1e3da2c626da0d32eac45cba0591cc66d45f25930c60383f1d9cfad4b0eeba67",
          "blockNumber": "0x1d05105",
          "blockTimestamp": "0x682afeed",
          "transactionHash": "0xa33ac4f2f90db0b654a38e4155eac97f36463092e20119f964fb121c83af8f6d",
          "transactionIndex": "0x149",
          "logIndex": "0x50b",
          "removed": false
        },
        {
          "address": "0x1a44076050125825900e736c501f859c50fe728c",
          "topics": [
            "0x4e0a5bbfa0c11a64effb1ada324b5437a17272e1aed9320398715ef71bb20928"
          ],
          "data": "0x000000000000000000000000c099ab708e20e8b25c63ca156d7cc94404c55416000000000000000000000000000000000000000000000000000000000000759600000000000000000000000000000000000000000000000000000000000000000000000000000000000000000000000000000000000000000000000000000000",
          "blockHash": "0x1e3da2c626da0d32eac45cba0591cc66d45f25930c60383f1d9cfad4b0eeba67",
          "blockNumber": "0x1d05105",
          "blockTimestamp": "0x682afeed",
          "transactionHash": "0xa33ac4f2f90db0b654a38e4155eac97f36463092e20119f964fb121c83af8f6d",
          "transactionIndex": "0x149",
          "logIndex": "0x50c",
          "removed": false
        }
      ],
      "logsBloom": "0x00000000000000000000020800000000000000000000000000000000001000020400000000000000000000000000000000000000000000000000000000000000000000000000000000000000000000000000000000800000000000000000000000000000000000000000000000000000000000000010000000000000000000100000000000000000000000000000000000000000000000000000000000000000000000000000000000000000000000000000000000000000000000000000000000000000000000000000000000000000000000000000000000000000000000000000000000000000000000000000000000000000010000000000000000000000",
      "type": "0x2",
      "transactionHash": "0xa33ac4f2f90db0b654a38e4155eac97f36463092e20119f964fb121c83af8f6d",
      "transactionIndex": "0x149",
      "blockHash": "0x1e3da2c626da0d32eac45cba0591cc66d45f25930c60383f1d9cfad4b0eeba67",
      "blockNumber": "0x1d05105",
      "gasUsed": "0xfba1",
      "effectiveGasPrice": "0x135fd7",
      "from": "0x4c51ce7b2546e18449fbe16738a8d55bc195a4dd",
      "to": "0x1a44076050125825900e736c501f859c50fe728c",
      "contractAddress": null,
      "l1BaseFeeScalar": "0x8dd",
      "l1BlobBaseFee": "0x1",
      "l1BlobBaseFeeScalar": "0x101c12",
      "l1Fee": "0xb3024a07",
      "l1GasPrice": "0x2bf5b429",
      "l1GasUsed": "0x702"
    },
    {
      "status": "0x1",
      "cumulativeGasUsed": "0x5adb466",
      "logs": [
        {
          "address": "0x1a44076050125825900e736c501f859c50fe728c",
          "topics": [
            "0xcd6f92f5ac6185a5acfa02c92090746cec64d777269cbcd0ed031e396657a1c2"
          ],
          "data": "0x000000000000000000000000c099ab708e20e8b25c63ca156d7cc94404c554160000000000000000000000000000000000000000000000000000000000007683000000000000000000000000c70ab6f32772f59fbfc23889caf4ba3376c84baf",
          "blockHash": "0x1e3da2c626da0d32eac45cba0591cc66d45f25930c60383f1d9cfad4b0eeba67",
          "blockNumber": "0x1d05105",
          "blockTimestamp": "0x682afeed",
          "transactionHash": "0xc6485d81a100dea44e62c439ccdf89d131130249d6d6fc21498dcd591451dace",
          "transactionIndex": "0x14a",
          "logIndex": "0x50d",
          "removed": false
        },
        {
          "address": "0x1a44076050125825900e736c501f859c50fe728c",
          "topics": [
            "0x4e0a5bbfa0c11a64effb1ada324b5437a17272e1aed9320398715ef71bb20928"
          ],
          "data": "0x000000000000000000000000c099ab708e20e8b25c63ca156d7cc94404c55416000000000000000000000000000000000000000000000000000000000000768300000000000000000000000000000000000000000000000000000000000000000000000000000000000000000000000000000000000000000000000000000000",
          "blockHash": "0x1e3da2c626da0d32eac45cba0591cc66d45f25930c60383f1d9cfad4b0eeba67",
          "blockNumber": "0x1d05105",
          "blockTimestamp": "0x682afeed",
          "transactionHash": "0xc6485d81a100dea44e62c439ccdf89d131130249d6d6fc21498dcd591451dace",
          "transactionIndex": "0x14a",
          "logIndex": "0x50e",
          "removed": false
        }
      ],
      "logsBloom": "0x00000000000000000000020800000000000000000000000000000000001000020400000000000000000000000000000000000000000000000000000000000000000000000000000000000000000000000000000000800000000000000000000000000000000000000000000000000000000000000010000000000000000000100000000000000000000000000000000000000000000000000000000000000000000000000000000000000000000000000000000000000000000000000000000000000000000000000000000000000000000000000000000000000000000000000000000000000000000000000000000000000000010000000000000000000000",
      "type": "0x2",
      "transactionHash": "0xc6485d81a100dea44e62c439ccdf89d131130249d6d6fc21498dcd591451dace",
      "transactionIndex": "0x14a",
      "blockHash": "0x1e3da2c626da0d32eac45cba0591cc66d45f25930c60383f1d9cfad4b0eeba67",
      "blockNumber": "0x1d05105",
      "gasUsed": "0xfba1",
      "effectiveGasPrice": "0x135fd7",
      "from": "0x4c51ce7b2546e18449fbe16738a8d55bc195a4dd",
      "to": "0x1a44076050125825900e736c501f859c50fe728c",
      "contractAddress": null,
      "l1BaseFeeScalar": "0x8dd",
      "l1BlobBaseFee": "0x1",
      "l1BlobBaseFeeScalar": "0x101c12",
      "l1Fee": "0xb3024a07",
      "l1GasPrice": "0x2bf5b429",
      "l1GasUsed": "0x702"
    },
    {
      "status": "0x1",
      "cumulativeGasUsed": "0x5afb1a9",
      "logs": [
        {
          "address": "0xc099ab708e20e8b25c63ca156d7cc94404c55416",
          "topics": [
            "0xbe4864a8e820971c0247f5992e2da559595f7bf076a21cb5928d443d2a13b674"
          ],
          "data": "0x00000000000000000000000000000000000000000000000000000000000000200000000000000000000000000000000000000000000000000000000000000002000000000000000000000000000000000000000000000000000000000000004000000000000000000000000000000000000000000000000000000000000000e0000000000000000000000000000000000000000000000000000000000000769a0000000000000000000000000000000000000000000000000000000000000001000000000000000000000000000000000000000000000000000000000000006000000000000000000000000000000000000000000000000000000000000000160003010011010000000000000000000000000002981000000000000000000000000000000000000000000000000000000000000000000000000000000000769a00000000000000000000000000000000000000000000000000000000000000020000000000000000000000000000000000000000000000000000000000000060000000000000000000000000000000000000000000000000000000000000002c00030100110100000000000000000000000000029810010013030000000000000000000000000000000298100000000000000000000000000000000000000000",
          "blockHash": "0x1e3da2c626da0d32eac45cba0591cc66d45f25930c60383f1d9cfad4b0eeba67",
          "blockNumber": "0x1d05105",
          "blockTimestamp": "0x682afeed",
          "transactionHash": "0xb51b3cf03e552b1297416123ebff03b01d1460fca973a0d6329075222e93bf03",
          "transactionIndex": "0x14b",
          "logIndex": "0x50f",
          "removed": false
        }
      ],
      "logsBloom": "0x00000000000000000000000000000000000000000000000000000000000000000000000000000000000000000000000000000000000000000000400000000000000000000000000000000000000000000000000000000000000000000000000000000000000000000000000000000000000000000000000000000000000000000000000000000000000000000000000000000000000000000000010000080000000000000000000000000800000000000000000000000000000000000000000000000000000000000000000002000000000000000000000000000000000000000000000000000000000000000000000000000000000000040000000000000000",
      "type": "0x2",
      "transactionHash": "0xb51b3cf03e552b1297416123ebff03b01d1460fca973a0d6329075222e93bf03",
      "transactionIndex": "0x14b",
      "blockHash": "0x1e3da2c626da0d32eac45cba0591cc66d45f25930c60383f1d9cfad4b0eeba67",
      "blockNumber": "0x1d05105",
      "gasUsed": "0x1fd43",
      "effectiveGasPrice": "0x135fd7",
      "from": "0x4c51ce7b2546e18449fbe16738a8d55bc195a4dd",
      "to": "0xc099ab708e20e8b25c63ca156d7cc94404c55416",
      "contractAddress": null,
      "l1BaseFeeScalar": "0x8dd",
      "l1BlobBaseFee": "0x1",
      "l1BlobBaseFeeScalar": "0x101c12",
      "l1Fee": "0xe1bbbe2d",
      "l1GasPrice": "0x2bf5b429",
      "l1GasUsed": "0x8d7"
    },
    {
      "status": "0x1",
      "cumulativeGasUsed": "0x5b1aeec",
      "logs": [
        {
          "address": "0xc099ab708e20e8b25c63ca156d7cc94404c55416",
          "topics": [
            "0xbe4864a8e820971c0247f5992e2da559595f7bf076a21cb5928d443d2a13b674"
          ],
          "data": "0x00000000000000000000000000000000000000000000000000000000000000200000000000000000000000000000000000000000000000000000000000000002000000000000000000000000000000000000000000000000000000000000004000000000000000000000000000000000000000000000000000000000000000e000000000000000000000000000000000000000000000000000000000000075950000000000000000000000000000000000000000000000000000000000000001000000000000000000000000000000000000000000000000000000000000006000000000000000000000000000000000000000000000000000000000000000160003010011010000000000000000000000000002981000000000000000000000000000000000000000000000000000000000000000000000000000000000759500000000000000000000000000000000000000000000000000000000000000020000000000000000000000000000000000000000000000000000000000000060000000000000000000000000000000000000000000000000000000000000002c00030100110100000000000000000000000000029810010013030000000000000000000000000000000298100000000000000000000000000000000000000000",
          "blockHash": "0x1e3da2c626da0d32eac45cba0591cc66d45f25930c60383f1d9cfad4b0eeba67",
          "blockNumber": "0x1d05105",
          "blockTimestamp": "0x682afeed",
          "transactionHash": "0x3ac71917819dc6f8fe3ed8622d50a9699bed3a77e470cce58851124265c336b1",
          "transactionIndex": "0x14c",
          "logIndex": "0x510",
          "removed": false
        }
      ],
      "logsBloom": "0x00000000000000000000000000000000000000000000000000000000000000000000000000000000000000000000000000000000000000000000400000000000000000000000000000000000000000000000000000000000000000000000000000000000000000000000000000000000000000000000000000000000000000000000000000000000000000000000000000000000000000000000010000080000000000000000000000000800000000000000000000000000000000000000000000000000000000000000000002000000000000000000000000000000000000000000000000000000000000000000000000000000000000040000000000000000",
      "type": "0x2",
      "transactionHash": "0x3ac71917819dc6f8fe3ed8622d50a9699bed3a77e470cce58851124265c336b1",
      "transactionIndex": "0x14c",
      "blockHash": "0x1e3da2c626da0d32eac45cba0591cc66d45f25930c60383f1d9cfad4b0eeba67",
      "blockNumber": "0x1d05105",
      "gasUsed": "0x1fd43",
      "effectiveGasPrice": "0x135fd7",
      "from": "0x4c51ce7b2546e18449fbe16738a8d55bc195a4dd",
      "to": "0xc099ab708e20e8b25c63ca156d7cc94404c55416",
      "contractAddress": null,
      "l1BaseFeeScalar": "0x8dd",
      "l1BlobBaseFee": "0x1",
      "l1BlobBaseFeeScalar": "0x101c12",
      "l1Fee": "0xe1bbbe2d",
      "l1GasPrice": "0x2bf5b429",
      "l1GasUsed": "0x8d7"
    },
    {
      "status": "0x1",
      "cumulativeGasUsed": "0x5b3ac2f",
      "logs": [
        {
          "address": "0xc099ab708e20e8b25c63ca156d7cc94404c55416",
          "topics": [
            "0xbe4864a8e820971c0247f5992e2da559595f7bf076a21cb5928d443d2a13b674"
          ],
          "data": "0x00000000000000000000000000000000000000000000000000000000000000200000000000000000000000000000000000000000000000000000000000000002000000000000000000000000000000000000000000000000000000000000004000000000000000000000000000000000000000000000000000000000000000e0000000000000000000000000000000000000000000000000000000000000759f0000000000000000000000000000000000000000000000000000000000000001000000000000000000000000000000000000000000000000000000000000006000000000000000000000000000000000000000000000000000000000000000160003010011010000000000000000000000000002981000000000000000000000000000000000000000000000000000000000000000000000000000000000759f00000000000000000000000000000000000000000000000000000000000000020000000000000000000000000000000000000000000000000000000000000060000000000000000000000000000000000000000000000000000000000000002c00030100110100000000000000000000000000029810010013030000000000000000000000000000000298100000000000000000000000000000000000000000",
          "blockHash": "0x1e3da2c626da0d32eac45cba0591cc66d45f25930c60383f1d9cfad4b0eeba67",
          "blockNumber": "0x1d05105",
          "blockTimestamp": "0x682afeed",
          "transactionHash": "0xf9ebe2c5505cc6e4979ef280f95883de9f9683baa799d43d752ffef44cc785e5",
          "transactionIndex": "0x14d",
          "logIndex": "0x511",
          "removed": false
        }
      ],
      "logsBloom": "0x00000000000000000000000000000000000000000000000000000000000000000000000000000000000000000000000000000000000000000000400000000000000000000000000000000000000000000000000000000000000000000000000000000000000000000000000000000000000000000000000000000000000000000000000000000000000000000000000000000000000000000000010000080000000000000000000000000800000000000000000000000000000000000000000000000000000000000000000002000000000000000000000000000000000000000000000000000000000000000000000000000000000000040000000000000000",
      "type": "0x2",
      "transactionHash": "0xf9ebe2c5505cc6e4979ef280f95883de9f9683baa799d43d752ffef44cc785e5",
      "transactionIndex": "0x14d",
      "blockHash": "0x1e3da2c626da0d32eac45cba0591cc66d45f25930c60383f1d9cfad4b0eeba67",
      "blockNumber": "0x1d05105",
      "gasUsed": "0x1fd43",
      "effectiveGasPrice": "0x135fd7",
      "from": "0x4c51ce7b2546e18449fbe16738a8d55bc195a4dd",
      "to": "0xc099ab708e20e8b25c63ca156d7cc94404c55416",
      "contractAddress": null,
      "l1BaseFeeScalar": "0x8dd",
      "l1BlobBaseFee": "0x1",
      "l1BlobBaseFeeScalar": "0x101c12",
      "l1Fee": "0xe1bbbe2d",
      "l1GasPrice": "0x2bf5b429",
      "l1GasUsed": "0x8d7"
    },
    {
      "status": "0x1",
      "cumulativeGasUsed": "0x4cd00cc",
      "logs": [
        {
          "address": "0xc099ab708e20e8b25c63ca156d7cc94404c55416",
          "topics": [
            "0xbe4864a8e820971c0247f5992e2da559595f7bf076a21cb5928d443d2a13b674"
          ],
          "data": "0x00000000000000000000000000000000000000000000000000000000000000200000000000000000000000000000000000000000000000000000000000000002000000000000000000000000000000000000000000000000000000000000004000000000000000000000000000000000000000000000000000000000000000e0000000000000000000000000000000000000000000000000000000000000759e0000000000000000000000000000000000000000000000000000000000000001000000000000000000000000000000000000000000000000000000000000006000000000000000000000000000000000000000000000000000000000000000160003010011010000000000000000000000000002981000000000000000000000000000000000000000000000000000000000000000000000000000000000759e00000000000000000000000000000000000000000000000000000000000000020000000000000000000000000000000000000000000000000000000000000060000000000000000000000000000000000000000000000000000000000000002c00030100110100000000000000000000000000029810010013030000000000000000000000000000000298100000000000000000000000000000000000000000",
          "blockHash": "0xd99b7bd7fb3a3b277f5dd298d35ce95bac2a4258956c46ac934b80fc8051ff1a",
          "blockNumber": "0x1d05106",
          "blockTimestamp": "0x682afeef",
          "transactionHash": "0xa21f09d663a49ad78db215dfb96fd2a947321e1286588940125f299f0cfed057",
          "transactionIndex": "0x188",
          "logIndex": "0x398",
          "removed": false
        }
      ],
      "logsBloom": "0x00000000000000000000000000000000000000000000000000000000000000000000000000000000000000000000000000000000000000000000400000000000000000000000000000000000000000000000000000000000000000000000000000000000000000000000000000000000000000000000000000000000000000000000000000000000000000000000000000000000000000000000010000080000000000000000000000000800000000000000000000000000000000000000000000000000000000000000000002000000000000000000000000000000000000000000000000000000000000000000000000000000000000040000000000000000",
      "type": "0x2",
      "transactionHash": "0xa21f09d663a49ad78db215dfb96fd2a947321e1286588940125f299f0cfed057",
      "transactionIndex": "0x188",
      "blockHash": "0xd99b7bd7fb3a3b277f5dd298d35ce95bac2a4258956c46ac934b80fc8051ff1a",
      "blockNumber": "0x1d05106",
      "gasUsed": "0x1fd43",
      "effectiveGasPrice": "0x136c18",
      "from": "0x4c51ce7b2546e18449fbe16738a8d55bc195a4dd",
      "to": "0xc099ab708e20e8b25c63ca156d7cc94404c55416",
      "contractAddress": null,
      "l1BaseFeeScalar": "0x8dd",
      "l1BlobBaseFee": "0x1",
      "l1BlobBaseFeeScalar": "0x101c12",
      "l1Fee": "0xe1bbbe2d",
      "l1GasPrice": "0x2bf5b429",
      "l1GasUsed": "0x8d7"
    },
    {
      "status": "0x1",
      "cumulativeGasUsed": "0x4cefe0f",
      "logs": [
        {
          "address": "0xc099ab708e20e8b25c63ca156d7cc94404c55416",
          "topics": [
            "0xbe4864a8e820971c0247f5992e2da559595f7bf076a21cb5928d443d2a13b674"
          ],
          "data": "0x00000000000000000000000000000000000000000000000000000000000000200000000000000000000000000000000000000000000000000000000000000002000000000000000000000000000000000000000000000000000000000000004000000000000000000000000000000000000000000000000000000000000000e000000000000000000000000000000000000000000000000000000000000075960000000000000000000000000000000000000000000000000000000000000001000000000000000000000000000000000000000000000000000000000000006000000000000000000000000000000000000000000000000000000000000000160003010011010000000000000000000000000002981000000000000000000000000000000000000000000000000000000000000000000000000000000000759600000000000000000000000000000000000000000000000000000000000000020000000000000000000000000000000000000000000000000000000000000060000000000000000000000000000000000000000000000000000000000000002c00030100110100000000000000000000000000029810010013030000000000000000000000000000000298100000000000000000000000000000000000000000",
          "blockHash": "0xd99b7bd7fb3a3b277f5dd298d35ce95bac2a4258956c46ac934b80fc8051ff1a",
          "blockNumber": "0x1d05106",
          "blockTimestamp": "0x682afeef",
          "transactionHash": "0x1ce770966eefc0a1d900e0d762e31add21cff77cf1d8c588a37b3f0865412d14",
          "transactionIndex": "0x189",
          "logIndex": "0x399",
          "removed": false
        }
      ],
      "logsBloom": "0x00000000000000000000000000000000000000000000000000000000000000000000000000000000000000000000000000000000000000000000400000000000000000000000000000000000000000000000000000000000000000000000000000000000000000000000000000000000000000000000000000000000000000000000000000000000000000000000000000000000000000000000010000080000000000000000000000000800000000000000000000000000000000000000000000000000000000000000000002000000000000000000000000000000000000000000000000000000000000000000000000000000000000040000000000000000",
      "type": "0x2",
      "transactionHash": "0x1ce770966eefc0a1d900e0d762e31add21cff77cf1d8c588a37b3f0865412d14",
      "transactionIndex": "0x189",
      "blockHash": "0xd99b7bd7fb3a3b277f5dd298d35ce95bac2a4258956c46ac934b80fc8051ff1a",
      "blockNumber": "0x1d05106",
      "gasUsed": "0x1fd43",
      "effectiveGasPrice": "0x136c18",
      "from": "0x4c51ce7b2546e18449fbe16738a8d55bc195a4dd",
      "to": "0xc099ab708e20e8b25c63ca156d7cc94404c55416",
      "contractAddress": null,
      "l1BaseFeeScalar": "0x8dd",
      "l1BlobBaseFee": "0x1",
      "l1BlobBaseFeeScalar": "0x101c12",
      "l1Fee": "0xe1bbbe2d",
      "l1GasPrice": "0x2bf5b429",
      "l1GasUsed": "0x8d7"
    },
    {
      "status": "0x1",
      "cumulativeGasUsed": "0x4d0fb52",
      "logs": [
        {
          "address": "0xc099ab708e20e8b25c63ca156d7cc94404c55416",
          "topics": [
            "0xbe4864a8e820971c0247f5992e2da559595f7bf076a21cb5928d443d2a13b674"
          ],
          "data": "0x00000000000000000000000000000000000000000000000000000000000000200000000000000000000000000000000000000000000000000000000000000002000000000000000000000000000000000000000000000000000000000000004000000000000000000000000000000000000000000000000000000000000000e000000000000000000000000000000000000000000000000000000000000076830000000000000000000000000000000000000000000000000000000000000001000000000000000000000000000000000000000000000000000000000000006000000000000000000000000000000000000000000000000000000000000000160003010011010000000000000000000000000002981000000000000000000000000000000000000000000000000000000000000000000000000000000000768300000000000000000000000000000000000000000000000000000000000000020000000000000000000000000000000000000000000000000000000000000060000000000000000000000000000000000000000000000000000000000000002c00030100110100000000000000000000000000029810010013030000000000000000000000000000000298100000000000000000000000000000000000000000",
          "blockHash": "0xd99b7bd7fb3a3b277f5dd298d35ce95bac2a4258956c46ac934b80fc8051ff1a",
          "blockNumber": "0x1d05106",
          "blockTimestamp": "0x682afeef",
          "transactionHash": "0x6bfe731bd55a69b8645467f9982a07a87bbf6562c9636a95984e62d7bef4ec89",
          "transactionIndex": "0x18a",
          "logIndex": "0x39a",
          "removed": false
        }
      ],
      "logsBloom": "0x00000000000000000000000000000000000000000000000000000000000000000000000000000000000000000000000000000000000000000000400000000000000000000000000000000000000000000000000000000000000000000000000000000000000000000000000000000000000000000000000000000000000000000000000000000000000000000000000000000000000000000000010000080000000000000000000000000800000000000000000000000000000000000000000000000000000000000000000002000000000000000000000000000000000000000000000000000000000000000000000000000000000000040000000000000000",
      "type": "0x2",
      "transactionHash": "0x6bfe731bd55a69b8645467f9982a07a87bbf6562c9636a95984e62d7bef4ec89",
      "transactionIndex": "0x18a",
      "blockHash": "0xd99b7bd7fb3a3b277f5dd298d35ce95bac2a4258956c46ac934b80fc8051ff1a",
      "blockNumber": "0x1d05106",
      "gasUsed": "0x1fd43",
      "effectiveGasPrice": "0x136c18",
      "from": "0x4c51ce7b2546e18449fbe16738a8d55bc195a4dd",
      "to": "0xc099ab708e20e8b25c63ca156d7cc94404c55416",
      "contractAddress": null,
      "l1BaseFeeScalar": "0x8dd",
      "l1BlobBaseFee": "0x1",
      "l1BlobBaseFeeScalar": "0x101c12",
      "l1Fee": "0xe1bbbe2d",
      "l1GasPrice": "0x2bf5b429",
      "l1GasUsed": "0x8d7"
    },
    {
      "status": "0x1",
      "cumulativeGasUsed": "0x4d31ad5",
      "logs": [
        {
          "address": "0xb5320b0b3a13cc860893e2bd79fcd7e13484dda2",
          "topics": [
            "0x82118522aa536ac0e96cc5c689407ae42b89d592aa133890a01f1509842f5081"
          ],
          "data": "0x000000000000000000000000c099ab708e20e8b25c63ca156d7cc94404c55416000000000000000000000000000000000000000000000000000000000000769a0000000000000000000000000000000000000000000000000000000000000060000000000000000000000000000000000000000000000000000000000000002000000000000000000000000000000000000000000000000000000000000000020000000000000000000000000000000000000000000000000000000000000000000000000000000000000000000000000000000000000000000000000000000000000000000000000000000000000000000000000000000000000000000000c0000000000000000000000000000000000000000000000000000000000000012000000000000000000000000000000000000000000000000000000000000000020000000000000000000000009e059a54699a285714207b43b055483e78faac25000000000000000000000000cd37ca043f8479064e10635020c65ffc005d36f60000000000000000000000000000000000000000000000000000000000000000",
          "blockHash": "0xd99b7bd7fb3a3b277f5dd298d35ce95bac2a4258956c46ac934b80fc8051ff1a",
          "blockNumber": "0x1d05106",
          "blockTimestamp": "0x682afeef",
          "transactionHash": "0xc9e4cdd0874a1a61a73072f09e6dac86f07880ff0f9c457e578480187890ebcf",
          "transactionIndex": "0x18b",
          "logIndex": "0x39b",
          "removed": false
        }
      ],
      "logsBloom": "0x00000000000000000000000000000000000000000000000000000000000000000000000000000000000000000000000000000000000000000000000000000000000000000000000000000400000000000000000000000000002000000000000100000000000000000000000000000000000000000000000000000000000000000000000000000000000000000000000000000000000000000004000000000000000000000000000000000002000000000000000000000000000000000000000000000000000000000000000000000000000000000000000000000000000000000000000000000000000000000000000000000000000000000000000000000010",
      "type": "0x2",
      "transactionHash": "0xc9e4cdd0874a1a61a73072f09e6dac86f07880ff0f9c457e578480187890ebcf",
      "transactionIndex": "0x18b",
      "blockHash": "0xd99b7bd7fb3a3b277f5dd298d35ce95bac2a4258956c46ac934b80fc8051ff1a",
      "blockNumber": "0x1d05106",
      "gasUsed": "0x21f83",
      "effectiveGasPrice": "0x136c18",
      "from": "0x4c51ce7b2546e18449fbe16738a8d55bc195a4dd",
      "to": "0x1a44076050125825900e736c501f859c50fe728c",
      "contractAddress": null,
      "l1BaseFeeScalar": "0x8dd",
      "l1BlobBaseFee": "0x1",
      "l1BlobBaseFeeScalar": "0x101c12",
      "l1Fee": "0x14c88355f",
      "l1GasPrice": "0x2bf5b429",
      "l1GasUsed": "0xd05"
    },
    {
      "status": "0x1",
      "cumulativeGasUsed": "0x4d5395c",
      "logs": [
        {
          "address": "0xc70ab6f32772f59fbfc23889caf4ba3376c84baf",
          "topics": [
            "0x82118522aa536ac0e96cc5c689407ae42b89d592aa133890a01f1509842f5081"
          ],
          "data": "0x000000000000000000000000c099ab708e20e8b25c63ca156d7cc94404c55416000000000000000000000000000000000000000000000000000000000000769a0000000000000000000000000000000000000000000000000000000000000060000000000000000000000000000000000000000000000000000000000000002000000000000000000000000000000000000000000000000000000000000000020000000000000000000000000000000000000000000000000000000000000000000000000000000000000000000000000000000000000000000000000000000000000000000000000000000000000000000000000000000000000000000000c0000000000000000000000000000000000000000000000000000000000000012000000000000000000000000000000000000000000000000000000000000000020000000000000000000000009e059a54699a285714207b43b055483e78faac25000000000000000000000000cd37ca043f8479064e10635020c65ffc005d36f60000000000000000000000000000000000000000000000000000000000000000",
          "blockHash": "0xd99b7bd7fb3a3b277f5dd298d35ce95bac2a4258956c46ac934b80fc8051ff1a",
          "blockNumber": "0x1d05106",
          "blockTimestamp": "0x682afeef",
          "transactionHash": "0xd4047a106f61f560b1714254164987fd6f4d63c1d211dd06b96c7b5c5da59a0d",
          "transactionIndex": "0x18c",
          "logIndex": "0x39c",
          "removed": false
        }
      ],
      "logsBloom": "0x00000000000000000000000800000000000000000000000000000000000000000000000000000000000000000000000000000000000000000000000000000000000000000000000000000000000000000000000000000000002000080000000000000000000000000000000000000000000000000000000000000000000000000000000000000000000000000000000000000000000000000000000000000000000000000000000000000002000000000000000000000000000000000000000000000000000000000000000000000000000000000000000000000000000000000000000020000000000000000000000000000000000000000000000000000010",
      "type": "0x2",
      "transactionHash": "0xd4047a106f61f560b1714254164987fd6f4d63c1d211dd06b96c7b5c5da59a0d",
      "transactionIndex": "0x18c",
      "blockHash": "0xd99b7bd7fb3a3b277f5dd298d35ce95bac2a4258956c46ac934b80fc8051ff1a",
      "blockNumber": "0x1d05106",
      "gasUsed": "0x21e87",
      "effectiveGasPrice": "0x136c18",
      "from": "0x4c51ce7b2546e18449fbe16738a8d55bc195a4dd",
      "to": "0x1a44076050125825900e736c501f859c50fe728c",
      "contractAddress": null,
      "l1BaseFeeScalar": "0x8dd",
      "l1BlobBaseFee": "0x1",
      "l1BlobBaseFeeScalar": "0x101c12",
      "l1Fee": "0x14c88355f",
      "l1GasPrice": "0x2bf5b429",
      "l1GasUsed": "0xd05"
    },
    {
      "status": "0x1",
      "cumulativeGasUsed": "0x4d758df",
      "logs": [
        {
          "address": "0xb5320b0b3a13cc860893e2bd79fcd7e13484dda2",
          "topics": [
            "0x82118522aa536ac0e96cc5c689407ae42b89d592aa133890a01f1509842f5081"
          ],
          "data": "0x000000000000000000000000c099ab708e20e8b25c63ca156d7cc94404c5541600000000000000000000000000000000000000000000000000000000000075950000000000000000000000000000000000000000000000000000000000000060000000000000000000000000000000000000000000000000000000000000002000000000000000000000000000000000000000000000000000000000000000020000000000000000000000000000000000000000000000000000000000000000000000000000000000000000000000000000000000000000000000000000000000000000000000000000000000000000000000000000000000000000000000c0000000000000000000000000000000000000000000000000000000000000012000000000000000000000000000000000000000000000000000000000000000020000000000000000000000009e059a54699a285714207b43b055483e78faac25000000000000000000000000cd37ca043f8479064e10635020c65ffc005d36f60000000000000000000000000000000000000000000000000000000000000000",
          "blockHash": "0xd99b7bd7fb3a3b277f5dd298d35ce95bac2a4258956c46ac934b80fc8051ff1a",
          "blockNumber": "0x1d05106",
          "blockTimestamp": "0x682afeef",
          "transactionHash": "0xd84ae1500d0bac0100340e033b975a6e69323e575424fe58bfa8c0107a624044",
          "transactionIndex": "0x18d",
          "logIndex": "0x39d",
          "removed": false
        }
      ],
      "logsBloom": "0x00000000000000000000000000000000000000000000000000000000000000000000000000000000000000000000000000000000000000000000000000000000000000000000000000000400000000000000000000000000002000000000000100000000000000000000000000000000000000000000000000000000000000000000000000000000000000000000000000000000000000000004000000000000000000000000000000000002000000000000000000000000000000000000000000000000000000000000000000000000000000000000000000000000000000000000000000000000000000000000000000000000000000000000000000000010",
      "type": "0x2",
      "transactionHash": "0xd84ae1500d0bac0100340e033b975a6e69323e575424fe58bfa8c0107a624044",
      "transactionIndex": "0x18d",
      "blockHash": "0xd99b7bd7fb3a3b277f5dd298d35ce95bac2a4258956c46ac934b80fc8051ff1a",
      "blockNumber": "0x1d05106",
      "gasUsed": "0x21f83",
      "effectiveGasPrice": "0x136c18",
      "from": "0x4c51ce7b2546e18449fbe16738a8d55bc195a4dd",
      "to": "0x1a44076050125825900e736c501f859c50fe728c",
      "contractAddress": null,
      "l1BaseFeeScalar": "0x8dd",
      "l1BlobBaseFee": "0x1",
      "l1BlobBaseFeeScalar": "0x101c12",
      "l1Fee": "0x14c88355f",
      "l1GasPrice": "0x2bf5b429",
      "l1GasUsed": "0xd05"
    },
    {
      "status": "0x1",
      "cumulativeGasUsed": "0x4d97766",
      "logs": [
        {
          "address": "0xc70ab6f32772f59fbfc23889caf4ba3376c84baf",
          "topics": [
            "0x82118522aa536ac0e96cc5c689407ae42b89d592aa133890a01f1509842f5081"
          ],
          "data": "0x000000000000000000000000c099ab708e20e8b25c63ca156d7cc94404c5541600000000000000000000000000000000000000000000000000000000000075950000000000000000000000000000000000000000000000000000000000000060000000000000000000000000000000000000000000000000000000000000002000000000000000000000000000000000000000000000000000000000000000020000000000000000000000000000000000000000000000000000000000000000000000000000000000000000000000000000000000000000000000000000000000000000000000000000000000000000000000000000000000000000000000c0000000000000000000000000000000000000000000000000000000000000012000000000000000000000000000000000000000000000000000000000000000020000000000000000000000009e059a54699a285714207b43b055483e78faac25000000000000000000000000cd37ca043f8479064e10635020c65ffc005d36f60000000000000000000000000000000000000000000000000000000000000000",
          "blockHash": "0xd99b7bd7fb3a3b277f5dd298d35ce95bac2a4258956c46ac934b80fc8051ff1a",
          "blockNumber": "0x1d05106",
          "blockTimestamp": "0x682afeef",
          "transactionHash": "0xa7697c015b485620d281aec5ceee9001247a4f5a8c7a8b9835de6f21408593f3",
          "transactionIndex": "0x18e",
          "logIndex": "0x39e",
          "removed": false
        }
      ],
      "logsBloom": "0x00000000000000000000000800000000000000000000000000000000000000000000000000000000000000000000000000000000000000000000000000000000000000000000000000000000000000000000000000000000002000080000000000000000000000000000000000000000000000000000000000000000000000000000000000000000000000000000000000000000000000000000000000000000000000000000000000000002000000000000000000000000000000000000000000000000000000000000000000000000000000000000000000000000000000000000000020000000000000000000000000000000000000000000000000000010",
      "type": "0x2",
      "transactionHash": "0xa7697c015b485620d281aec5ceee9001247a4f5a8c7a8b9835de6f21408593f3",
      "transactionIndex": "0x18e",
      "blockHash": "0xd99b7bd7fb3a3b277f5dd298d35ce95bac2a4258956c46ac934b80fc8051ff1a",
      "blockNumber": "0x1d05106",
      "gasUsed": "0x21e87",
      "effectiveGasPrice": "0x136c18",
      "from": "0x4c51ce7b2546e18449fbe16738a8d55bc195a4dd",
      "to": "0x1a44076050125825900e736c501f859c50fe728c",
      "contractAddress": null,
      "l1BaseFeeScalar": "0x8dd",
      "l1BlobBaseFee": "0x1",
      "l1BlobBaseFeeScalar": "0x101c12",
      "l1Fee": "0x14c88355f",
      "l1GasPrice": "0x2bf5b429",
      "l1GasUsed": "0xd05"
    },
    {
      "status": "0x1",
      "cumulativeGasUsed": "0x4db96e9",
      "logs": [
        {
          "address": "0xb5320b0b3a13cc860893e2bd79fcd7e13484dda2",
          "topics": [
            "0x82118522aa536ac0e96cc5c689407ae42b89d592aa133890a01f1509842f5081"
          ],
          "data": "0x000000000000000000000000c099ab708e20e8b25c63ca156d7cc94404c55416000000000000000000000000000000000000000000000000000000000000759f0000000000000000000000000000000000000000000000000000000000000060000000000000000000000000000000000000000000000000000000000000002000000000000000000000000000000000000000000000000000000000000000020000000000000000000000000000000000000000000000000000000000000000000000000000000000000000000000000000000000000000000000000000000000000000000000000000000000000000000000000000000000000000000000c0000000000000000000000000000000000000000000000000000000000000012000000000000000000000000000000000000000000000000000000000000000020000000000000000000000009e059a54699a285714207b43b055483e78faac25000000000000000000000000cd37ca043f8479064e10635020c65ffc005d36f60000000000000000000000000000000000000000000000000000000000000000",
          "blockHash": "0xd99b7bd7fb3a3b277f5dd298d35ce95bac2a4258956c46ac934b80fc8051ff1a",
          "blockNumber": "0x1d05106",
          "blockTimestamp": "0x682afeef",
          "transactionHash": "0xd010fa86ad956a09acc0c70bed9d4bf000390cc48ddf3470128beab2f9016c7f",
          "transactionIndex": "0x18f",
          "logIndex": "0x39f",
          "removed": false
        }
      ],
      "logsBloom": "0x00000000000000000000000000000000000000000000000000000000000000000000000000000000000000000000000000000000000000000000000000000000000000000000000000000400000000000000000000000000002000000000000100000000000000000000000000000000000000000000000000000000000000000000000000000000000000000000000000000000000000000004000000000000000000000000000000000002000000000000000000000000000000000000000000000000000000000000000000000000000000000000000000000000000000000000000000000000000000000000000000000000000000000000000000000010",
      "type": "0x2",
      "transactionHash": "0xd010fa86ad956a09acc0c70bed9d4bf000390cc48ddf3470128beab2f9016c7f",
      "transactionIndex": "0x18f",
      "blockHash": "0xd99b7bd7fb3a3b277f5dd298d35ce95bac2a4258956c46ac934b80fc8051ff1a",
      "blockNumber": "0x1d05106",
      "gasUsed": "0x21f83",
      "effectiveGasPrice": "0x136c18",
      "from": "0x4c51ce7b2546e18449fbe16738a8d55bc195a4dd",
      "to": "0x1a44076050125825900e736c501f859c50fe728c",
      "contractAddress": null,
      "l1BaseFeeScalar": "0x8dd",
      "l1BlobBaseFee": "0x1",
      "l1BlobBaseFeeScalar": "0x101c12",
      "l1Fee": "0x14c88355f",
      "l1GasPrice": "0x2bf5b429",
      "l1GasUsed": "0xd05"
    },
    {
      "status": "0x1",
      "cumulativeGasUsed": "0x4ddb570",
      "logs": [
        {
          "address": "0xc70ab6f32772f59fbfc23889caf4ba3376c84baf",
          "topics": [
            "0x82118522aa536ac0e96cc5c689407ae42b89d592aa133890a01f1509842f5081"
          ],
          "data": "0x000000000000000000000000c099ab708e20e8b25c63ca156d7cc94404c55416000000000000000000000000000000000000000000000000000000000000759f0000000000000000000000000000000000000000000000000000000000000060000000000000000000000000000000000000000000000000000000000000002000000000000000000000000000000000000000000000000000000000000000020000000000000000000000000000000000000000000000000000000000000000000000000000000000000000000000000000000000000000000000000000000000000000000000000000000000000000000000000000000000000000000000c0000000000000000000000000000000000000000000000000000000000000012000000000000000000000000000000000000000000000000000000000000000020000000000000000000000009e059a54699a285714207b43b055483e78faac25000000000000000000000000cd37ca043f8479064e10635020c65ffc005d36f60000000000000000000000000000000000000000000000000000000000000000",
          "blockHash": "0xd99b7bd7fb3a3b277f5dd298d35ce95bac2a4258956c46ac934b80fc8051ff1a",
          "blockNumber": "0x1d05106",
          "blockTimestamp": "0x682afeef",
          "transactionHash": "0x4accf731666ed60fde432a2826ce9e99201fc8724438a201b91c4e02452850be",
          "transactionIndex": "0x190",
          "logIndex": "0x3a0",
          "removed": false
        }
      ],
      "logsBloom": "0x00000000000000000000000800000000000000000000000000000000000000000000000000000000000000000000000000000000000000000000000000000000000000000000000000000000000000000000000000000000002000080000000000000000000000000000000000000000000000000000000000000000000000000000000000000000000000000000000000000000000000000000000000000000000000000000000000000002000000000000000000000000000000000000000000000000000000000000000000000000000000000000000000000000000000000000000020000000000000000000000000000000000000000000000000000010",
      "type": "0x2",
      "transactionHash": "0x4accf731666ed60fde432a2826ce9e99201fc8724438a201b91c4e02452850be",
      "transactionIndex": "0x190",
      "blockHash": "0xd99b7bd7fb3a3b277f5dd298d35ce95bac2a4258956c46ac934b80fc8051ff1a",
      "blockNumber": "0x1d05106",
      "gasUsed": "0x21e87",
      "effectiveGasPrice": "0x136c18",
      "from": "0x4c51ce7b2546e18449fbe16738a8d55bc195a4dd",
      "to": "0x1a44076050125825900e736c501f859c50fe728c",
      "contractAddress": null,
      "l1BaseFeeScalar": "0x8dd",
      "l1BlobBaseFee": "0x1",
      "l1BlobBaseFeeScalar": "0x101c12",
      "l1Fee": "0x14c88355f",
      "l1GasPrice": "0x2bf5b429",
      "l1GasUsed": "0xd05"
    },
    {
      "status": "0x1",
      "cumulativeGasUsed": "0x4dfd4f3",
      "logs": [
        {
          "address": "0xb5320b0b3a13cc860893e2bd79fcd7e13484dda2",
          "topics": [
            "0x82118522aa536ac0e96cc5c689407ae42b89d592aa133890a01f1509842f5081"
          ],
          "data": "0x000000000000000000000000c099ab708e20e8b25c63ca156d7cc94404c55416000000000000000000000000000000000000000000000000000000000000759e0000000000000000000000000000000000000000000000000000000000000060000000000000000000000000000000000000000000000000000000000000002000000000000000000000000000000000000000000000000000000000000000020000000000000000000000000000000000000000000000000000000000000000000000000000000000000000000000000000000000000000000000000000000000000000000000000000000000000000000000000000000000000000000000c0000000000000000000000000000000000000000000000000000000000000012000000000000000000000000000000000000000000000000000000000000000020000000000000000000000009e059a54699a285714207b43b055483e78faac25000000000000000000000000cd37ca043f8479064e10635020c65ffc005d36f60000000000000000000000000000000000000000000000000000000000000000",
          "blockHash": "0xd99b7bd7fb3a3b277f5dd298d35ce95bac2a4258956c46ac934b80fc8051ff1a",
          "blockNumber": "0x1d05106",
          "blockTimestamp": "0x682afeef",
          "transactionHash": "0x9ecd0bed3de4870584cc537d12b14f63697fa42efc45963bde603390708c4616",
          "transactionIndex": "0x191",
          "logIndex": "0x3a1",
          "removed": false
        }
      ],
      "logsBloom": "0x00000000000000000000000000000000000000000000000000000000000000000000000000000000000000000000000000000000000000000000000000000000000000000000000000000400000000000000000000000000002000000000000100000000000000000000000000000000000000000000000000000000000000000000000000000000000000000000000000000000000000000004000000000000000000000000000000000002000000000000000000000000000000000000000000000000000000000000000000000000000000000000000000000000000000000000000000000000000000000000000000000000000000000000000000000010",
      "type": "0x2",
      "transactionHash": "0x9ecd0bed3de4870584cc537d12b14f63697fa42efc45963bde603390708c4616",
      "transactionIndex": "0x191",
      "blockHash": "0xd99b7bd7fb3a3b277f5dd298d35ce95bac2a4258956c46ac934b80fc8051ff1a",
      "blockNumber": "0x1d05106",
      "gasUsed": "0x21f83",
      "effectiveGasPrice": "0x136c18",
      "from": "0x4c51ce7b2546e18449fbe16738a8d55bc195a4dd",
      "to": "0x1a44076050125825900e736c501f859c50fe728c",
      "contractAddress": null,
      "l1BaseFeeScalar": "0x8dd",
      "l1BlobBaseFee": "0x1",
      "l1BlobBaseFeeScalar": "0x101c12",
      "l1Fee": "0x14c88355f",
      "l1GasPrice": "0x2bf5b429",
      "l1GasUsed": "0xd05"
    },
    {
      "status": "0x1",
      "cumulativeGasUsed": "0x4e1f37a",
      "logs": [
        {
          "address": "0xc70ab6f32772f59fbfc23889caf4ba3376c84baf",
          "topics": [
            "0x82118522aa536ac0e96cc5c689407ae42b89d592aa133890a01f1509842f5081"
          ],
          "data": "0x000000000000000000000000c099ab708e20e8b25c63ca156d7cc94404c55416000000000000000000000000000000000000000000000000000000000000759e0000000000000000000000000000000000000000000000000000000000000060000000000000000000000000000000000000000000000000000000000000002000000000000000000000000000000000000000000000000000000000000000020000000000000000000000000000000000000000000000000000000000000000000000000000000000000000000000000000000000000000000000000000000000000000000000000000000000000000000000000000000000000000000000c0000000000000000000000000000000000000000000000000000000000000012000000000000000000000000000000000000000000000000000000000000000020000000000000000000000009e059a54699a285714207b43b055483e78faac25000000000000000000000000cd37ca043f8479064e10635020c65ffc005d36f60000000000000000000000000000000000000000000000000000000000000000",
          "blockHash": "0xd99b7bd7fb3a3b277f5dd298d35ce95bac2a4258956c46ac934b80fc8051ff1a",
          "blockNumber": "0x1d05106",
          "blockTimestamp": "0x682afeef",
          "transactionHash": "0x89a47c70f00db40567b258e8ee4dce8eb154427f95a41758e6f178983f9c7c67",
          "transactionIndex": "0x192",
          "logIndex": "0x3a2",
          "removed": false
        }
      ],
      "logsBloom": "0x00000000000000000000000800000000000000000000000000000000000000000000000000000000000000000000000000000000000000000000000000000000000000000000000000000000000000000000000000000000002000080000000000000000000000000000000000000000000000000000000000000000000000000000000000000000000000000000000000000000000000000000000000000000000000000000000000000002000000000000000000000000000000000000000000000000000000000000000000000000000000000000000000000000000000000000000020000000000000000000000000000000000000000000000000000010",
      "type": "0x2",
      "transactionHash": "0x89a47c70f00db40567b258e8ee4dce8eb154427f95a41758e6f178983f9c7c67",
      "transactionIndex": "0x192",
      "blockHash": "0xd99b7bd7fb3a3b277f5dd298d35ce95bac2a4258956c46ac934b80fc8051ff1a",
      "blockNumber": "0x1d05106",
      "gasUsed": "0x21e87",
      "effectiveGasPrice": "0x136c18",
      "from": "0x4c51ce7b2546e18449fbe16738a8d55bc195a4dd",
      "to": "0x1a44076050125825900e736c501f859c50fe728c",
      "contractAddress": null,
      "l1BaseFeeScalar": "0x8dd",
      "l1BlobBaseFee": "0x1",
      "l1BlobBaseFeeScalar": "0x101c12",
      "l1Fee": "0x14c88355f",
      "l1GasPrice": "0x2bf5b429",
      "l1GasUsed": "0xd05"
    },
    {
      "status": "0x1",
      "cumulativeGasUsed": "0x4e412fd",
      "logs": [
        {
          "address": "0xb5320b0b3a13cc860893e2bd79fcd7e13484dda2",
          "topics": [
            "0x82118522aa536ac0e96cc5c689407ae42b89d592aa133890a01f1509842f5081"
          ],
          "data": "0x000000000000000000000000c099ab708e20e8b25c63ca156d7cc94404c5541600000000000000000000000000000000000000000000000000000000000075960000000000000000000000000000000000000000000000000000000000000060000000000000000000000000000000000000000000000000000000000000002000000000000000000000000000000000000000000000000000000000000000020000000000000000000000000000000000000000000000000000000000000000000000000000000000000000000000000000000000000000000000000000000000000000000000000000000000000000000000000000000000000000000000c0000000000000000000000000000000000000000000000000000000000000012000000000000000000000000000000000000000000000000000000000000000020000000000000000000000009e059a54699a285714207b43b055483e78faac25000000000000000000000000cd37ca043f8479064e10635020c65ffc005d36f60000000000000000000000000000000000000000000000000000000000000000",
          "blockHash": "0xd99b7bd7fb3a3b277f5dd298d35ce95bac2a4258956c46ac934b80fc8051ff1a",
          "blockNumber": "0x1d05106",
          "blockTimestamp": "0x682afeef",
          "transactionHash": "0x1810474651a680245db518cdb9caf8862780b5dd7131e5c0672762cd0e8b277d",
          "transactionIndex": "0x193",
          "logIndex": "0x3a3",
          "removed": false
        }
      ],
      "logsBloom": "0x00000000000000000000000000000000000000000000000000000000000000000000000000000000000000000000000000000000000000000000000000000000000000000000000000000400000000000000000000000000002000000000000100000000000000000000000000000000000000000000000000000000000000000000000000000000000000000000000000000000000000000004000000000000000000000000000000000002000000000000000000000000000000000000000000000000000000000000000000000000000000000000000000000000000000000000000000000000000000000000000000000000000000000000000000000010",
      "type": "0x2",
      "transactionHash": "0x1810474651a680245db518cdb9caf8862780b5dd7131e5c0672762cd0e8b277d",
      "transactionIndex": "0x193",
      "blockHash": "0xd99b7bd7fb3a3b277f5dd298d35ce95bac2a4258956c46ac934b80fc8051ff1a",
      "blockNumber": "0x1d05106",
      "gasUsed": "0x21f83",
      "effectiveGasPrice": "0x136c18",
      "from": "0x4c51ce7b2546e18449fbe16738a8d55bc195a4dd",
      "to": "0x1a44076050125825900e736c501f859c50fe728c",
      "contractAddress": null,
      "l1BaseFeeScalar": "0x8dd",
      "l1BlobBaseFee": "0x1",
      "l1BlobBaseFeeScalar": "0x101c12",
      "l1Fee": "0x14c88355f",
      "l1GasPrice": "0x2bf5b429",
      "l1GasUsed": "0xd05"
    },
    {
      "status": "0x1",
      "cumulativeGasUsed": "0x4e63184",
      "logs": [
        {
          "address": "0xc70ab6f32772f59fbfc23889caf4ba3376c84baf",
          "topics": [
            "0x82118522aa536ac0e96cc5c689407ae42b89d592aa133890a01f1509842f5081"
          ],
          "data": "0x000000000000000000000000c099ab708e20e8b25c63ca156d7cc94404c5541600000000000000000000000000000000000000000000000000000000000075960000000000000000000000000000000000000000000000000000000000000060000000000000000000000000000000000000000000000000000000000000002000000000000000000000000000000000000000000000000000000000000000020000000000000000000000000000000000000000000000000000000000000000000000000000000000000000000000000000000000000000000000000000000000000000000000000000000000000000000000000000000000000000000000c0000000000000000000000000000000000000000000000000000000000000012000000000000000000000000000000000000000000000000000000000000000020000000000000000000000009e059a54699a285714207b43b055483e78faac25000000000000000000000000cd37ca043f8479064e10635020c65ffc005d36f60000000000000000000000000000000000000000000000000000000000000000",
          "blockHash": "0xd99b7bd7fb3a3b277f5dd298d35ce95bac2a4258956c46ac934b80fc8051ff1a",
          "blockNumber": "0x1d05106",
          "blockTimestamp": "0x682afeef",
          "transactionHash": "0xcac96d9a33d4074669472802efd8bc06bfa429ec505870a1a9265186489dda11",
          "transactionIndex": "0x194",
          "logIndex": "0x3a4",
          "removed": false
        }
      ],
      "logsBloom": "0x00000000000000000000000800000000000000000000000000000000000000000000000000000000000000000000000000000000000000000000000000000000000000000000000000000000000000000000000000000000002000080000000000000000000000000000000000000000000000000000000000000000000000000000000000000000000000000000000000000000000000000000000000000000000000000000000000000002000000000000000000000000000000000000000000000000000000000000000000000000000000000000000000000000000000000000000020000000000000000000000000000000000000000000000000000010",
      "type": "0x2",
      "transactionHash": "0xcac96d9a33d4074669472802efd8bc06bfa429ec505870a1a9265186489dda11",
      "transactionIndex": "0x194",
      "blockHash": "0xd99b7bd7fb3a3b277f5dd298d35ce95bac2a4258956c46ac934b80fc8051ff1a",
      "blockNumber": "0x1d05106",
      "gasUsed": "0x21e87",
      "effectiveGasPrice": "0x136c18",
      "from": "0x4c51ce7b2546e18449fbe16738a8d55bc195a4dd",
      "to": "0x1a44076050125825900e736c501f859c50fe728c",
      "contractAddress": null,
      "l1BaseFeeScalar": "0x8dd",
      "l1BlobBaseFee": "0x1",
      "l1BlobBaseFeeScalar": "0x101c12",
      "l1Fee": "0x14c88355f",
      "l1GasPrice": "0x2bf5b429",
      "l1GasUsed": "0xd05"
    },
    {
      "status": "0x1",
      "cumulativeGasUsed": "0x4e85107",
      "logs": [
        {
          "address": "0xb5320b0b3a13cc860893e2bd79fcd7e13484dda2",
          "topics": [
            "0x82118522aa536ac0e96cc5c689407ae42b89d592aa133890a01f1509842f5081"
          ],
          "data": "0x000000000000000000000000c099ab708e20e8b25c63ca156d7cc94404c5541600000000000000000000000000000000000000000000000000000000000076830000000000000000000000000000000000000000000000000000000000000060000000000000000000000000000000000000000000000000000000000000002000000000000000000000000000000000000000000000000000000000000000020000000000000000000000000000000000000000000000000000000000000000000000000000000000000000000000000000000000000000000000000000000000000000000000000000000000000000000000000000000000000000000000c0000000000000000000000000000000000000000000000000000000000000012000000000000000000000000000000000000000000000000000000000000000020000000000000000000000009e059a54699a285714207b43b055483e78faac25000000000000000000000000cd37ca043f8479064e10635020c65ffc005d36f60000000000000000000000000000000000000000000000000000000000000000",
          "blockHash": "0xd99b7bd7fb3a3b277f5dd298d35ce95bac2a4258956c46ac934b80fc8051ff1a",
          "blockNumber": "0x1d05106",
          "blockTimestamp": "0x682afeef",
          "transactionHash": "0xd52c917e9b391162d33027b62a4346c2af2d2d2d67f7badfad369b13ed8bbe98",
          "transactionIndex": "0x195",
          "logIndex": "0x3a5",
          "removed": false
        }
      ],
      "logsBloom": "0x00000000000000000000000000000000000000000000000000000000000000000000000000000000000000000000000000000000000000000000000000000000000000000000000000000400000000000000000000000000002000000000000100000000000000000000000000000000000000000000000000000000000000000000000000000000000000000000000000000000000000000004000000000000000000000000000000000002000000000000000000000000000000000000000000000000000000000000000000000000000000000000000000000000000000000000000000000000000000000000000000000000000000000000000000000010",
      "type": "0x2",
      "transactionHash": "0xd52c917e9b391162d33027b62a4346c2af2d2d2d67f7badfad369b13ed8bbe98",
      "transactionIndex": "0x195",
      "blockHash": "0xd99b7bd7fb3a3b277f5dd298d35ce95bac2a4258956c46ac934b80fc8051ff1a",
      "blockNumber": "0x1d05106",
      "gasUsed": "0x21f83",
      "effectiveGasPrice": "0x136c18",
      "from": "0x4c51ce7b2546e18449fbe16738a8d55bc195a4dd",
      "to": "0x1a44076050125825900e736c501f859c50fe728c",
      "contractAddress": null,
      "l1BaseFeeScalar": "0x8dd",
      "l1BlobBaseFee": "0x1",
      "l1BlobBaseFeeScalar": "0x101c12",
      "l1Fee": "0x14c88355f",
      "l1GasPrice": "0x2bf5b429",
      "l1GasUsed": "0xd05"
    },
    {
      "status": "0x1",
      "cumulativeGasUsed": "0x4eb418b",
      "logs": [
        {
          "address": "0xc70ab6f32772f59fbfc23889caf4ba3376c84baf",
          "topics": [
            "0x82118522aa536ac0e96cc5c689407ae42b89d592aa133890a01f1509842f5081"
          ],
          "data": "0x000000000000000000000000c099ab708e20e8b25c63ca156d7cc94404c5541600000000000000000000000000000000000000000000000000000000000076830000000000000000000000000000000000000000000000000000000000000060000000000000000000000000000000000000000000000000000000000000002000000000000000000000000000000000000000000000000000000000000000020000000000000000000000000000000000000000000000000000000000000000000000000000000000000000000000000000000000000000000000000000000000000000000000000000000000000000000000000000000000000000000000c0000000000000000000000000000000000000000000000000000000000000012000000000000000000000000000000000000000000000000000000000000000020000000000000000000000009e059a54699a285714207b43b055483e78faac25000000000000000000000000cd37ca043f8479064e10635020c65ffc005d36f60000000000000000000000000000000000000000000000000000000000000000",
          "blockHash": "0xd99b7bd7fb3a3b277f5dd298d35ce95bac2a4258956c46ac934b80fc8051ff1a",
          "blockNumber": "0x1d05106",
          "blockTimestamp": "0x682afeef",
          "transactionHash": "0xd1fa6d2ea24e6b642ebb9fb6965844b7738338d9c255ffce52d1ee2871abef7b",
          "transactionIndex": "0x197",
          "logIndex": "0x3a7",
          "removed": false
        }
      ],
      "logsBloom": "0x00000000000000000000000800000000000000000000000000000000000000000000000000000000000000000000000000000000000000000000000000000000000000000000000000000000000000000000000000000000002000080000000000000000000000000000000000000000000000000000000000000000000000000000000000000000000000000000000000000000000000000000000000000000000000000000000000000002000000000000000000000000000000000000000000000000000000000000000000000000000000000000000000000000000000000000000020000000000000000000000000000000000000000000000000000010",
      "type": "0x2",
      "transactionHash": "0xd1fa6d2ea24e6b642ebb9fb6965844b7738338d9c255ffce52d1ee2871abef7b",
      "transactionIndex": "0x197",
      "blockHash": "0xd99b7bd7fb3a3b277f5dd298d35ce95bac2a4258956c46ac934b80fc8051ff1a",
      "blockNumber": "0x1d05106",
      "gasUsed": "0x21e87",
      "effectiveGasPrice": "0x136c18",
      "from": "0x4c51ce7b2546e18449fbe16738a8d55bc195a4dd",
      "to": "0x1a44076050125825900e736c501f859c50fe728c",
      "contractAddress": null,
      "l1BaseFeeScalar": "0x8dd",
      "l1BlobBaseFee": "0x1",
      "l1BlobBaseFeeScalar": "0x101c12",
      "l1Fee": "0x14c88355f",
      "l1GasPrice": "0x2bf5b429",
      "l1GasUsed": "0xd05"
    },
    {
      "status": "0x1",
      "cumulativeGasUsed": "0x4ebd8f8",
      "logs": [
        {
          "address": "0x1a44076050125825900e736c501f859c50fe728c",
          "topics": [
            "0x6ee10e9ed4d6ce9742703a498707862f4b00f1396a87195eb93267b3d7983981"
          ],
          "data": "0x000000000000000000000000c099ab708e20e8b25c63ca156d7cc94404c55416000000000000000000000000cb343bf07e72548349f506593336b6cb698ad6da",
          "blockHash": "0xd99b7bd7fb3a3b277f5dd298d35ce95bac2a4258956c46ac934b80fc8051ff1a",
          "blockNumber": "0x1d05106",
          "blockTimestamp": "0x682afeef",
          "transactionHash": "0x32d0422cd54b55552f34ba1de641c305715b96a892abbebe81c191babdfe5049",
          "transactionIndex": "0x198",
          "logIndex": "0x3a8",
          "removed": false
        }
      ],
      "logsBloom": "0x00000000000000000000000000000000000000000000000000800000001000000000000000000000000000000000000000000002000000000000000000000000000000000000000000000000000000000000000000000000000000000000000000000000000000000000000000000000000000000010000000000000000000000000000000000000000000000000000000000000000000000000000000000000000000000000000000000000000000000000000000000000000000000000000400000000000000000000000000000000000000000000000000000000000000000000000000000000000000000000000000000000010000000000000000000000",
      "type": "0x2",
      "transactionHash": "0x32d0422cd54b55552f34ba1de641c305715b96a892abbebe81c191babdfe5049",
      "transactionIndex": "0x198",
      "blockHash": "0xd99b7bd7fb3a3b277f5dd298d35ce95bac2a4258956c46ac934b80fc8051ff1a",
      "blockNumber": "0x1d05106",
      "gasUsed": "0x976d",
      "effectiveGasPrice": "0x136c18",
      "from": "0x4c51ce7b2546e18449fbe16738a8d55bc195a4dd",
      "to": "0xc099ab708e20e8b25c63ca156d7cc94404c55416",
      "contractAddress": null,
      "l1BaseFeeScalar": "0x8dd",
      "l1BlobBaseFee": "0x1",
      "l1BlobBaseFeeScalar": "0x101c12",
      "l1Fee": "0x9f97729c",
      "l1GasPrice": "0x2bf5b429",
      "l1GasUsed": "0x640"
    }
  ],
  "libraries": [],
  "pending": [],
  "returns": {},
  "timestamp": 1747648241,
  "chain": 8453,
  "commit": "26a0814"
}