{
  "transactions": [
    {
      "hash": "0x3b1c36b67c13f84f26cc96c0b652086841b64043c5480a8bf698922090833ee0",
      "transactionType": "CALL",
      "contractName": null,
      "contractAddress": "0xc099ab708e20e8b25c63ca156d7cc94404c55416",
      "function": "setRateLimits((uint32,uint256,uint256)[])",
      "arguments": [
        "[(30101, 100000000000000000000000000, 3600), (30362, 100000000000000000000000000, 3600), (30184, 100000000000000000000000000, 3600), (30111, 100000000000000000000000000, 3600), (30110, 100000000000000000000000000, 3600), (30102, 100000000000000000000000000, 3600), (30339, 100000000000000000000000000, 3600)]"
      ],
      "transaction": {
        "from": "0x4c51ce7b2546e18449fbe16738a8d55bc195a4dd",
        "to": "0xc099ab708e20e8b25c63ca156d7cc94404c55416",
        "gas": "0xbd161",
        "value": "0x0",
        "input": "0x46f943e900000000000000000000000000000000000000000000000000000000000000200000000000000000000000000000000000000000000000000000000000000007000000000000000000000000000000000000000000000000000000000000759500000000000000000000000000000000000000000052b7d2dcc80cd2e40000000000000000000000000000000000000000000000000000000000000000000e10000000000000000000000000000000000000000000000000000000000000769a00000000000000000000000000000000000000000052b7d2dcc80cd2e40000000000000000000000000000000000000000000000000000000000000000000e1000000000000000000000000000000000000000000000000000000000000075e800000000000000000000000000000000000000000052b7d2dcc80cd2e40000000000000000000000000000000000000000000000000000000000000000000e10000000000000000000000000000000000000000000000000000000000000759f00000000000000000000000000000000000000000052b7d2dcc80cd2e40000000000000000000000000000000000000000000000000000000000000000000e10000000000000000000000000000000000000000000000000000000000000759e00000000000000000000000000000000000000000052b7d2dcc80cd2e40000000000000000000000000000000000000000000000000000000000000000000e10000000000000000000000000000000000000000000000000000000000000759600000000000000000000000000000000000000000052b7d2dcc80cd2e40000000000000000000000000000000000000000000000000000000000000000000e10000000000000000000000000000000000000000000000000000000000000768300000000000000000000000000000000000000000052b7d2dcc80cd2e40000000000000000000000000000000000000000000000000000000000000000000e10",
        "nonce": "0x19b",
        "chainId": "0x38"
      },
      "additionalContracts": [],
      "isFixedGasLimit": false
    },
    {
      "hash": "0x8283ce3a12367fee48f99d875f1e9478c5c83fc0fe580b7bb7d6ede39828d3bc",
      "transactionType": "CALL",
      "contractName": null,
      "contractAddress": "0xc099ab708e20e8b25c63ca156d7cc94404c55416",
      "function": "setPeer(uint32,bytes32)",
      "arguments": [
        "30362",
        "0x000000000000000000000000c099ab708e20e8b25c63ca156d7cc94404c55416"
      ],
      "transaction": {
        "from": "0x4c51ce7b2546e18449fbe16738a8d55bc195a4dd",
        "to": "0xc099ab708e20e8b25c63ca156d7cc94404c55416",
        "gas": "0x11c84",
        "value": "0x0",
        "input": "0x3400288b000000000000000000000000000000000000000000000000000000000000769a000000000000000000000000c099ab708e20e8b25c63ca156d7cc94404c55416",
        "nonce": "0x19c",
        "chainId": "0x38"
      },
      "additionalContracts": [],
      "isFixedGasLimit": false
    },
    {
      "hash": "0x8cd1e608719d52adeb3753350d5d5afbca8c2eb922e6da6099b3d0c7d09dec2d",
      "transactionType": "CALL",
      "contractName": null,
      "contractAddress": "0xc099ab708e20e8b25c63ca156d7cc94404c55416",
      "function": "setPeer(uint32,bytes32)",
      "arguments": [
        "30184",
        "0x000000000000000000000000c099ab708e20e8b25c63ca156d7cc94404c55416"
      ],
      "transaction": {
        "from": "0x4c51ce7b2546e18449fbe16738a8d55bc195a4dd",
        "to": "0xc099ab708e20e8b25c63ca156d7cc94404c55416",
        "gas": "0x11c84",
        "value": "0x0",
        "input": "0x3400288b00000000000000000000000000000000000000000000000000000000000075e8000000000000000000000000c099ab708e20e8b25c63ca156d7cc94404c55416",
        "nonce": "0x19d",
        "chainId": "0x38"
      },
      "additionalContracts": [],
      "isFixedGasLimit": false
    },
    {
      "hash": "0xba3233b8fb4fff90fdadd3a9b62ac8b7d8b3f5579f9cc82c59a4c5fd786db94a",
      "transactionType": "CALL",
      "contractName": null,
      "contractAddress": "0xc099ab708e20e8b25c63ca156d7cc94404c55416",
      "function": "setPeer(uint32,bytes32)",
      "arguments": [
        "30111",
        "0x000000000000000000000000c099ab708e20e8b25c63ca156d7cc94404c55416"
      ],
      "transaction": {
        "from": "0x4c51ce7b2546e18449fbe16738a8d55bc195a4dd",
        "to": "0xc099ab708e20e8b25c63ca156d7cc94404c55416",
        "gas": "0x11c84",
        "value": "0x0",
        "input": "0x3400288b000000000000000000000000000000000000000000000000000000000000759f000000000000000000000000c099ab708e20e8b25c63ca156d7cc94404c55416",
        "nonce": "0x19e",
        "chainId": "0x38"
      },
      "additionalContracts": [],
      "isFixedGasLimit": false
    },
    {
      "hash": "0x39f8412e72a8c410a74f1e4f445920866e07df9dfb3d547b1835c8428f44d9eb",
      "transactionType": "CALL",
      "contractName": null,
      "contractAddress": "0xc099ab708e20e8b25c63ca156d7cc94404c55416",
      "function": "setPeer(uint32,bytes32)",
      "arguments": [
        "30110",
        "0x000000000000000000000000c099ab708e20e8b25c63ca156d7cc94404c55416"
      ],
      "transaction": {
        "from": "0x4c51ce7b2546e18449fbe16738a8d55bc195a4dd",
        "to": "0xc099ab708e20e8b25c63ca156d7cc94404c55416",
        "gas": "0x11c84",
        "value": "0x0",
        "input": "0x3400288b000000000000000000000000000000000000000000000000000000000000759e000000000000000000000000c099ab708e20e8b25c63ca156d7cc94404c55416",
        "nonce": "0x19f",
        "chainId": "0x38"
      },
      "additionalContracts": [],
      "isFixedGasLimit": false
    },
    {
      "hash": "0x664bda60911afa2b46de7bbbf4b0dd4051dca33ecacde6f19f5d60c1c38207b1",
      "transactionType": "CALL",
      "contractName": null,
      "contractAddress": "0xc099ab708e20e8b25c63ca156d7cc94404c55416",
      "function": "setPeer(uint32,bytes32)",
      "arguments": [
        "30101",
        "0x000000000000000000000000c099ab708e20e8b25c63ca156d7cc94404c55416"
      ],
      "transaction": {
        "from": "0x4c51ce7b2546e18449fbe16738a8d55bc195a4dd",
        "to": "0xc099ab708e20e8b25c63ca156d7cc94404c55416",
        "gas": "0x11c84",
        "value": "0x0",
        "input": "0x3400288b0000000000000000000000000000000000000000000000000000000000007595000000000000000000000000c099ab708e20e8b25c63ca156d7cc94404c55416",
        "nonce": "0x1a0",
        "chainId": "0x38"
      },
      "additionalContracts": [],
      "isFixedGasLimit": false
    },
    {
      "hash": "0xa46a1fe857a54ad3f81b407e7555a7ac85ee6d0b1d903cd75ed0af95c1e4809f",
      "transactionType": "CALL",
      "contractName": null,
      "contractAddress": "0xc099ab708e20e8b25c63ca156d7cc94404c55416",
      "function": "setPeer(uint32,bytes32)",
      "arguments": [
        "30339",
        "0x000000000000000000000000c099ab708e20e8b25c63ca156d7cc94404c55416"
      ],
      "transaction": {
        "from": "0x4c51ce7b2546e18449fbe16738a8d55bc195a4dd",
        "to": "0xc099ab708e20e8b25c63ca156d7cc94404c55416",
        "gas": "0x11c84",
        "value": "0x0",
        "input": "0x3400288b0000000000000000000000000000000000000000000000000000000000007683000000000000000000000000c099ab708e20e8b25c63ca156d7cc94404c55416",
        "nonce": "0x1a1",
        "chainId": "0x38"
      },
      "additionalContracts": [],
      "isFixedGasLimit": false
    },
    {
      "hash": "0xc2e7a1ad6dddfcf9b70f23f42cc8300792690099358661113b37acdec6a64703",
      "transactionType": "CALL",
      "contractName": null,
      "contractAddress": "0x1a44076050125825900e736c501f859c50fe728c",
      "function": "setReceiveLibrary(address,uint32,address,uint256)",
      "arguments": [
        "0xc099Ab708e20E8b25C63cA156D7cc94404c55416",
        "30362",
        "0xB217266c3A98C8B2709Ee26836C98cf12f6cCEC1",
        "0"
      ],
      "transaction": {
        "from": "0x4c51ce7b2546e18449fbe16738a8d55bc195a4dd",
        "to": "0x1a44076050125825900e736c501f859c50fe728c",
        "gas": "0x17001",
        "value": "0x0",
        "input": "0x6a14d715000000000000000000000000c099ab708e20e8b25c63ca156d7cc94404c55416000000000000000000000000000000000000000000000000000000000000769a000000000000000000000000b217266c3a98c8b2709ee26836c98cf12f6ccec10000000000000000000000000000000000000000000000000000000000000000",
        "nonce": "0x1a2",
        "chainId": "0x38"
      },
      "additionalContracts": [],
      "isFixedGasLimit": false
    },
    {
      "hash": "0xa7f2a63e958335ed912fcd11698d7ec65da5be02e4a200537ed8bb176f2a679f",
      "transactionType": "CALL",
      "contractName": null,
      "contractAddress": "0x1a44076050125825900e736c501f859c50fe728c",
      "function": "setReceiveLibrary(address,uint32,address,uint256)",
      "arguments": [
        "0xc099Ab708e20E8b25C63cA156D7cc94404c55416",
        "30184",
        "0xB217266c3A98C8B2709Ee26836C98cf12f6cCEC1",
        "0"
      ],
      "transaction": {
        "from": "0x4c51ce7b2546e18449fbe16738a8d55bc195a4dd",
        "to": "0x1a44076050125825900e736c501f859c50fe728c",
        "gas": "0x17001",
        "value": "0x0",
        "input": "0x6a14d715000000000000000000000000c099ab708e20e8b25c63ca156d7cc94404c5541600000000000000000000000000000000000000000000000000000000000075e8000000000000000000000000b217266c3a98c8b2709ee26836c98cf12f6ccec10000000000000000000000000000000000000000000000000000000000000000",
        "nonce": "0x1a3",
        "chainId": "0x38"
      },
      "additionalContracts": [],
      "isFixedGasLimit": false
    },
    {
      "hash": "0x3ce5bdc77f0c00ecfb28a4f2c91bf676988836871ac986c2dd49490942f36955",
      "transactionType": "CALL",
      "contractName": null,
      "contractAddress": "0x1a44076050125825900e736c501f859c50fe728c",
      "function": "setReceiveLibrary(address,uint32,address,uint256)",
      "arguments": [
        "0xc099Ab708e20E8b25C63cA156D7cc94404c55416",
        "30111",
        "0xB217266c3A98C8B2709Ee26836C98cf12f6cCEC1",
        "0"
      ],
      "transaction": {
        "from": "0x4c51ce7b2546e18449fbe16738a8d55bc195a4dd",
        "to": "0x1a44076050125825900e736c501f859c50fe728c",
        "gas": "0x17001",
        "value": "0x0",
        "input": "0x6a14d715000000000000000000000000c099ab708e20e8b25c63ca156d7cc94404c55416000000000000000000000000000000000000000000000000000000000000759f000000000000000000000000b217266c3a98c8b2709ee26836c98cf12f6ccec10000000000000000000000000000000000000000000000000000000000000000",
        "nonce": "0x1a4",
        "chainId": "0x38"
      },
      "additionalContracts": [],
      "isFixedGasLimit": false
    },
    {
      "hash": "0x5b3ef7a54af758abf62eb02e6af73f2ee1b414ac7c3e024b3f732487c7c6c9db",
      "transactionType": "CALL",
      "contractName": null,
      "contractAddress": "0x1a44076050125825900e736c501f859c50fe728c",
      "function": "setReceiveLibrary(address,uint32,address,uint256)",
      "arguments": [
        "0xc099Ab708e20E8b25C63cA156D7cc94404c55416",
        "30110",
        "0xB217266c3A98C8B2709Ee26836C98cf12f6cCEC1",
        "0"
      ],
      "transaction": {
        "from": "0x4c51ce7b2546e18449fbe16738a8d55bc195a4dd",
        "to": "0x1a44076050125825900e736c501f859c50fe728c",
        "gas": "0x17001",
        "value": "0x0",
        "input": "0x6a14d715000000000000000000000000c099ab708e20e8b25c63ca156d7cc94404c55416000000000000000000000000000000000000000000000000000000000000759e000000000000000000000000b217266c3a98c8b2709ee26836c98cf12f6ccec10000000000000000000000000000000000000000000000000000000000000000",
        "nonce": "0x1a5",
        "chainId": "0x38"
      },
      "additionalContracts": [],
      "isFixedGasLimit": false
    },
    {
      "hash": "0x025b93ee5642b33f351bd8d03fa8ef5fd963b9c9cde8f9ced2ff6f02a7c408c2",
      "transactionType": "CALL",
      "contractName": null,
      "contractAddress": "0x1a44076050125825900e736c501f859c50fe728c",
      "function": "setReceiveLibrary(address,uint32,address,uint256)",
      "arguments": [
        "0xc099Ab708e20E8b25C63cA156D7cc94404c55416",
        "30101",
        "0xB217266c3A98C8B2709Ee26836C98cf12f6cCEC1",
        "0"
      ],
      "transaction": {
        "from": "0x4c51ce7b2546e18449fbe16738a8d55bc195a4dd",
        "to": "0x1a44076050125825900e736c501f859c50fe728c",
        "gas": "0x17001",
        "value": "0x0",
        "input": "0x6a14d715000000000000000000000000c099ab708e20e8b25c63ca156d7cc94404c554160000000000000000000000000000000000000000000000000000000000007595000000000000000000000000b217266c3a98c8b2709ee26836c98cf12f6ccec10000000000000000000000000000000000000000000000000000000000000000",
        "nonce": "0x1a6",
        "chainId": "0x38"
      },
      "additionalContracts": [],
      "isFixedGasLimit": false
    },
    {
      "hash": "0xa61aea282e9cc2d252c83197a42143a729b53d9a9219369da53dc9820b805a59",
      "transactionType": "CALL",
      "contractName": null,
      "contractAddress": "0x1a44076050125825900e736c501f859c50fe728c",
      "function": "setReceiveLibrary(address,uint32,address,uint256)",
      "arguments": [
        "0xc099Ab708e20E8b25C63cA156D7cc94404c55416",
        "30339",
        "0xB217266c3A98C8B2709Ee26836C98cf12f6cCEC1",
        "0"
      ],
      "transaction": {
        "from": "0x4c51ce7b2546e18449fbe16738a8d55bc195a4dd",
        "to": "0x1a44076050125825900e736c501f859c50fe728c",
        "gas": "0x17001",
        "value": "0x0",
        "input": "0x6a14d715000000000000000000000000c099ab708e20e8b25c63ca156d7cc94404c554160000000000000000000000000000000000000000000000000000000000007683000000000000000000000000b217266c3a98c8b2709ee26836c98cf12f6ccec10000000000000000000000000000000000000000000000000000000000000000",
        "nonce": "0x1a7",
        "chainId": "0x38"
      },
      "additionalContracts": [],
      "isFixedGasLimit": false
    },
    {
      "hash": "0xbefc10dc6b4226ae207501f87df7f80832e98c5b5fc7f7533bb97e2d49ffc265",
      "transactionType": "CALL",
      "contractName": null,
      "contractAddress": "0xc099ab708e20e8b25c63ca156d7cc94404c55416",
      "function": "setEnforcedOptions((uint32,uint16,bytes)[])",
      "arguments": [
        "[(30362, 1, 0x00030100110100000000000000000000000000029810), (30362, 2, 0x0003010011010000000000000000000000000002981001001303000000000000000000000000000000029810)]"
      ],
      "transaction": {
        "from": "0x4c51ce7b2546e18449fbe16738a8d55bc195a4dd",
        "to": "0xc099ab708e20e8b25c63ca156d7cc94404c55416",
        "gas": "0x2e8cb",
        "value": "0x0",
        "input": "0xb98bd07000000000000000000000000000000000000000000000000000000000000000200000000000000000000000000000000000000000000000000000000000000002000000000000000000000000000000000000000000000000000000000000004000000000000000000000000000000000000000000000000000000000000000e0000000000000000000000000000000000000000000000000000000000000769a0000000000000000000000000000000000000000000000000000000000000001000000000000000000000000000000000000000000000000000000000000006000000000000000000000000000000000000000000000000000000000000000160003010011010000000000000000000000000002981000000000000000000000000000000000000000000000000000000000000000000000000000000000769a00000000000000000000000000000000000000000000000000000000000000020000000000000000000000000000000000000000000000000000000000000060000000000000000000000000000000000000000000000000000000000000002c00030100110100000000000000000000000000029810010013030000000000000000000000000000000298100000000000000000000000000000000000000000",
        "nonce": "0x1a8",
        "chainId": "0x38"
      },
      "additionalContracts": [],
      "isFixedGasLimit": false
    },
    {
      "hash": "0x8585f93249478be661a668dd8f9bf871a8440cb3f56a71c314f620cdc85fcfdf",
      "transactionType": "CALL",
      "contractName": null,
      "contractAddress": "0xc099ab708e20e8b25c63ca156d7cc94404c55416",
      "function": "setEnforcedOptions((uint32,uint16,bytes)[])",
      "arguments": [
        "[(30184, 1, 0x00030100110100000000000000000000000000029810), (30184, 2, 0x0003010011010000000000000000000000000002981001001303000000000000000000000000000000029810)]"
      ],
      "transaction": {
        "from": "0x4c51ce7b2546e18449fbe16738a8d55bc195a4dd",
        "to": "0xc099ab708e20e8b25c63ca156d7cc94404c55416",
        "gas": "0x2e8cb",
        "value": "0x0",
        "input": "0xb98bd07000000000000000000000000000000000000000000000000000000000000000200000000000000000000000000000000000000000000000000000000000000002000000000000000000000000000000000000000000000000000000000000004000000000000000000000000000000000000000000000000000000000000000e000000000000000000000000000000000000000000000000000000000000075e8000000000000000000000000000000000000000000000000000000000000000100000000000000000000000000000000000000000000000000000000000000600000000000000000000000000000000000000000000000000000000000000016000301001101000000000000000000000000000298100000000000000000000000000000000000000000000000000000000000000000000000000000000075e800000000000000000000000000000000000000000000000000000000000000020000000000000000000000000000000000000000000000000000000000000060000000000000000000000000000000000000000000000000000000000000002c00030100110100000000000000000000000000029810010013030000000000000000000000000000000298100000000000000000000000000000000000000000",
        "nonce": "0x1a9",
        "chainId": "0x38"
      },
      "additionalContracts": [],
      "isFixedGasLimit": false
    },
    {
      "hash": "0xd0cddb440fd8c6556b417f1c22849e560505df1841d8d5bea8ab4862bd54ad19",
      "transactionType": "CALL",
      "contractName": null,
      "contractAddress": "0xc099ab708e20e8b25c63ca156d7cc94404c55416",
      "function": "setEnforcedOptions((uint32,uint16,bytes)[])",
      "arguments": [
        "[(30111, 1, 0x00030100110100000000000000000000000000029810), (30111, 2, 0x0003010011010000000000000000000000000002981001001303000000000000000000000000000000029810)]"
      ],
      "transaction": {
        "from": "0x4c51ce7b2546e18449fbe16738a8d55bc195a4dd",
        "to": "0xc099ab708e20e8b25c63ca156d7cc94404c55416",
        "gas": "0x2e8cb",
        "value": "0x0",
        "input": "0xb98bd07000000000000000000000000000000000000000000000000000000000000000200000000000000000000000000000000000000000000000000000000000000002000000000000000000000000000000000000000000000000000000000000004000000000000000000000000000000000000000000000000000000000000000e0000000000000000000000000000000000000000000000000000000000000759f0000000000000000000000000000000000000000000000000000000000000001000000000000000000000000000000000000000000000000000000000000006000000000000000000000000000000000000000000000000000000000000000160003010011010000000000000000000000000002981000000000000000000000000000000000000000000000000000000000000000000000000000000000759f00000000000000000000000000000000000000000000000000000000000000020000000000000000000000000000000000000000000000000000000000000060000000000000000000000000000000000000000000000000000000000000002c00030100110100000000000000000000000000029810010013030000000000000000000000000000000298100000000000000000000000000000000000000000",
        "nonce": "0x1aa",
        "chainId": "0x38"
      },
      "additionalContracts": [],
      "isFixedGasLimit": false
    },
    {
      "hash": "0xa1d1ebd317229e087313a76a653fa031e4140c0277a76fab22d5765656353631",
      "transactionType": "CALL",
      "contractName": null,
      "contractAddress": "0xc099ab708e20e8b25c63ca156d7cc94404c55416",
      "function": "setEnforcedOptions((uint32,uint16,bytes)[])",
      "arguments": [
        "[(30110, 1, 0x00030100110100000000000000000000000000029810), (30110, 2, 0x0003010011010000000000000000000000000002981001001303000000000000000000000000000000029810)]"
      ],
      "transaction": {
        "from": "0x4c51ce7b2546e18449fbe16738a8d55bc195a4dd",
        "to": "0xc099ab708e20e8b25c63ca156d7cc94404c55416",
        "gas": "0x2e8cb",
        "value": "0x0",
        "input": "0xb98bd07000000000000000000000000000000000000000000000000000000000000000200000000000000000000000000000000000000000000000000000000000000002000000000000000000000000000000000000000000000000000000000000004000000000000000000000000000000000000000000000000000000000000000e0000000000000000000000000000000000000000000000000000000000000759e0000000000000000000000000000000000000000000000000000000000000001000000000000000000000000000000000000000000000000000000000000006000000000000000000000000000000000000000000000000000000000000000160003010011010000000000000000000000000002981000000000000000000000000000000000000000000000000000000000000000000000000000000000759e00000000000000000000000000000000000000000000000000000000000000020000000000000000000000000000000000000000000000000000000000000060000000000000000000000000000000000000000000000000000000000000002c00030100110100000000000000000000000000029810010013030000000000000000000000000000000298100000000000000000000000000000000000000000",
        "nonce": "0x1ab",
        "chainId": "0x38"
      },
      "additionalContracts": [],
      "isFixedGasLimit": false
    },
    {
      "hash": "0x575c4cb92bdef370a570eec2b666a8e94a5d063cc8e5aa12397512cf1415f2a0",
      "transactionType": "CALL",
      "contractName": null,
      "contractAddress": "0xc099ab708e20e8b25c63ca156d7cc94404c55416",
      "function": "setEnforcedOptions((uint32,uint16,bytes)[])",
      "arguments": [
        "[(30101, 1, 0x00030100110100000000000000000000000000029810), (30101, 2, 0x0003010011010000000000000000000000000002981001001303000000000000000000000000000000029810)]"
      ],
      "transaction": {
        "from": "0x4c51ce7b2546e18449fbe16738a8d55bc195a4dd",
        "to": "0xc099ab708e20e8b25c63ca156d7cc94404c55416",
        "gas": "0x2e8cb",
        "value": "0x0",
        "input": "0xb98bd07000000000000000000000000000000000000000000000000000000000000000200000000000000000000000000000000000000000000000000000000000000002000000000000000000000000000000000000000000000000000000000000004000000000000000000000000000000000000000000000000000000000000000e000000000000000000000000000000000000000000000000000000000000075950000000000000000000000000000000000000000000000000000000000000001000000000000000000000000000000000000000000000000000000000000006000000000000000000000000000000000000000000000000000000000000000160003010011010000000000000000000000000002981000000000000000000000000000000000000000000000000000000000000000000000000000000000759500000000000000000000000000000000000000000000000000000000000000020000000000000000000000000000000000000000000000000000000000000060000000000000000000000000000000000000000000000000000000000000002c00030100110100000000000000000000000000029810010013030000000000000000000000000000000298100000000000000000000000000000000000000000",
        "nonce": "0x1ac",
        "chainId": "0x38"
      },
      "additionalContracts": [],
      "isFixedGasLimit": false
    },
    {
      "hash": "0xf5861d5e78a6831fac776ada588cbd883c354c448a442116f1a565d45b1f6548",
      "transactionType": "CALL",
      "contractName": null,
      "contractAddress": "0xc099ab708e20e8b25c63ca156d7cc94404c55416",
      "function": "setEnforcedOptions((uint32,uint16,bytes)[])",
      "arguments": [
        "[(30339, 1, 0x00030100110100000000000000000000000000029810), (30339, 2, 0x0003010011010000000000000000000000000002981001001303000000000000000000000000000000029810)]"
      ],
      "transaction": {
        "from": "0x4c51ce7b2546e18449fbe16738a8d55bc195a4dd",
        "to": "0xc099ab708e20e8b25c63ca156d7cc94404c55416",
        "gas": "0x2e8cb",
        "value": "0x0",
        "input": "0xb98bd07000000000000000000000000000000000000000000000000000000000000000200000000000000000000000000000000000000000000000000000000000000002000000000000000000000000000000000000000000000000000000000000004000000000000000000000000000000000000000000000000000000000000000e000000000000000000000000000000000000000000000000000000000000076830000000000000000000000000000000000000000000000000000000000000001000000000000000000000000000000000000000000000000000000000000006000000000000000000000000000000000000000000000000000000000000000160003010011010000000000000000000000000002981000000000000000000000000000000000000000000000000000000000000000000000000000000000768300000000000000000000000000000000000000000000000000000000000000020000000000000000000000000000000000000000000000000000000000000060000000000000000000000000000000000000000000000000000000000000002c00030100110100000000000000000000000000029810010013030000000000000000000000000000000298100000000000000000000000000000000000000000",
        "nonce": "0x1ad",
        "chainId": "0x38"
      },
      "additionalContracts": [],
      "isFixedGasLimit": false
    },
    {
      "hash": "0x761797e1c3f1704e309fbe69d342ca786beba4cff4face42221e0fe88e77f24a",
      "transactionType": "CALL",
      "contractName": null,
      "contractAddress": "0x1a44076050125825900e736c501f859c50fe728c",
      "function": "setConfig(address,address,(uint32,uint32,bytes)[])",
      "arguments": [
        "0xc099Ab708e20E8b25C63cA156D7cc94404c55416",
        "0x9F8C645f2D0b2159767Bd6E0839DE4BE49e823DE",
        "[(30362, 2, 0x0000000000000000000000000000000000000000000000000000000000000020000000000000000000000000000000000000000000000000000000000000002000000000000000000000000000000000000000000000000000000000000000020000000000000000000000000000000000000000000000000000000000000000000000000000000000000000000000000000000000000000000000000000000000000000000000000000000000000000000000000000000000000000000000c00000000000000000000000000000000000000000000000000000000000000120000000000000000000000000000000000000000000000000000000000000000200000000000000000000000031f748a368a893bdb5abb67ec95f232507601a73000000000000000000000000fd6865c841c2d64565562fcc7e05e619a30615f00000000000000000000000000000000000000000000000000000000000000000)]"
      ],
      "transaction": {
        "from": "0x4c51ce7b2546e18449fbe16738a8d55bc195a4dd",
        "to": "0x1a44076050125825900e736c501f859c50fe728c",
        "gas": "0x2eec9",
        "value": "0x0",
        "input": "0x6dbd9f90000000000000000000000000c099ab708e20e8b25c63ca156d7cc94404c554160000000000000000000000009f8c645f2d0b2159767bd6e0839de4be49e823de000000000000000000000000000000000000000000000000000000000000006000000000000000000000000000000000000000000000000000000000000000010000000000000000000000000000000000000000000000000000000000000020000000000000000000000000000000000000000000000000000000000000769a0000000000000000000000000000000000000000000000000000000000000002000000000000000000000000000000000000000000000000000000000000006000000000000000000000000000000000000000000000000000000000000001600000000000000000000000000000000000000000000000000000000000000020000000000000000000000000000000000000000000000000000000000000002000000000000000000000000000000000000000000000000000000000000000020000000000000000000000000000000000000000000000000000000000000000000000000000000000000000000000000000000000000000000000000000000000000000000000000000000000000000000000000000000000000000000000c00000000000000000000000000000000000000000000000000000000000000120000000000000000000000000000000000000000000000000000000000000000200000000000000000000000031f748a368a893bdb5abb67ec95f232507601a73000000000000000000000000fd6865c841c2d64565562fcc7e05e619a30615f00000000000000000000000000000000000000000000000000000000000000000",
        "nonce": "0x1ae",
        "chainId": "0x38"
      },
      "additionalContracts": [],
      "isFixedGasLimit": false
    },
    {
      "hash": "0xc39f0c4ba58c162519513648dcaa3bf1f4a2352a73aedf71f191e2964e32294e",
      "transactionType": "CALL",
      "contractName": null,
      "contractAddress": "0x1a44076050125825900e736c501f859c50fe728c",
      "function": "setConfig(address,address,(uint32,uint32,bytes)[])",
      "arguments": [
        "0xc099Ab708e20E8b25C63cA156D7cc94404c55416",
        "0xB217266c3A98C8B2709Ee26836C98cf12f6cCEC1",
        "[(30362, 2, 0x0000000000000000000000000000000000000000000000000000000000000020000000000000000000000000000000000000000000000000000000000000002000000000000000000000000000000000000000000000000000000000000000020000000000000000000000000000000000000000000000000000000000000000000000000000000000000000000000000000000000000000000000000000000000000000000000000000000000000000000000000000000000000000000000c00000000000000000000000000000000000000000000000000000000000000120000000000000000000000000000000000000000000000000000000000000000200000000000000000000000031f748a368a893bdb5abb67ec95f232507601a73000000000000000000000000fd6865c841c2d64565562fcc7e05e619a30615f00000000000000000000000000000000000000000000000000000000000000000)]"
      ],
      "transaction": {
        "from": "0x4c51ce7b2546e18449fbe16738a8d55bc195a4dd",
        "to": "0x1a44076050125825900e736c501f859c50fe728c",
        "gas": "0x31983",
        "value": "0x0",
        "input": "0x6dbd9f90000000000000000000000000c099ab708e20e8b25c63ca156d7cc94404c55416000000000000000000000000b217266c3a98c8b2709ee26836c98cf12f6ccec1000000000000000000000000000000000000000000000000000000000000006000000000000000000000000000000000000000000000000000000000000000010000000000000000000000000000000000000000000000000000000000000020000000000000000000000000000000000000000000000000000000000000769a0000000000000000000000000000000000000000000000000000000000000002000000000000000000000000000000000000000000000000000000000000006000000000000000000000000000000000000000000000000000000000000001600000000000000000000000000000000000000000000000000000000000000020000000000000000000000000000000000000000000000000000000000000002000000000000000000000000000000000000000000000000000000000000000020000000000000000000000000000000000000000000000000000000000000000000000000000000000000000000000000000000000000000000000000000000000000000000000000000000000000000000000000000000000000000000000c00000000000000000000000000000000000000000000000000000000000000120000000000000000000000000000000000000000000000000000000000000000200000000000000000000000031f748a368a893bdb5abb67ec95f232507601a73000000000000000000000000fd6865c841c2d64565562fcc7e05e619a30615f00000000000000000000000000000000000000000000000000000000000000000",
        "nonce": "0x1af",
        "chainId": "0x38"
      },
      "additionalContracts": [],
      "isFixedGasLimit": false
    },
    {
      "hash": "0x4f53f71508a24ff75dca118372f92120784a5898f1a4c0a0bca5e1a71e8e7be5",
      "transactionType": "CALL",
      "contractName": null,
      "contractAddress": "0x1a44076050125825900e736c501f859c50fe728c",
      "function": "setConfig(address,address,(uint32,uint32,bytes)[])",
      "arguments": [
        "0xc099Ab708e20E8b25C63cA156D7cc94404c55416",
        "0x9F8C645f2D0b2159767Bd6E0839DE4BE49e823DE",
        "[(30184, 2, 0x0000000000000000000000000000000000000000000000000000000000000020000000000000000000000000000000000000000000000000000000000000002000000000000000000000000000000000000000000000000000000000000000020000000000000000000000000000000000000000000000000000000000000000000000000000000000000000000000000000000000000000000000000000000000000000000000000000000000000000000000000000000000000000000000c00000000000000000000000000000000000000000000000000000000000000120000000000000000000000000000000000000000000000000000000000000000200000000000000000000000031f748a368a893bdb5abb67ec95f232507601a73000000000000000000000000fd6865c841c2d64565562fcc7e05e619a30615f00000000000000000000000000000000000000000000000000000000000000000)]"
      ],
      "transaction": {
        "from": "0x4c51ce7b2546e18449fbe16738a8d55bc195a4dd",
        "to": "0x1a44076050125825900e736c501f859c50fe728c",
        "gas": "0x2eec9",
        "value": "0x0",
        "input": "0x6dbd9f90000000000000000000000000c099ab708e20e8b25c63ca156d7cc94404c554160000000000000000000000009f8c645f2d0b2159767bd6e0839de4be49e823de00000000000000000000000000000000000000000000000000000000000000600000000000000000000000000000000000000000000000000000000000000001000000000000000000000000000000000000000000000000000000000000002000000000000000000000000000000000000000000000000000000000000075e80000000000000000000000000000000000000000000000000000000000000002000000000000000000000000000000000000000000000000000000000000006000000000000000000000000000000000000000000000000000000000000001600000000000000000000000000000000000000000000000000000000000000020000000000000000000000000000000000000000000000000000000000000002000000000000000000000000000000000000000000000000000000000000000020000000000000000000000000000000000000000000000000000000000000000000000000000000000000000000000000000000000000000000000000000000000000000000000000000000000000000000000000000000000000000000000c00000000000000000000000000000000000000000000000000000000000000120000000000000000000000000000000000000000000000000000000000000000200000000000000000000000031f748a368a893bdb5abb67ec95f232507601a73000000000000000000000000fd6865c841c2d64565562fcc7e05e619a30615f00000000000000000000000000000000000000000000000000000000000000000",
        "nonce": "0x1b0",
        "chainId": "0x38"
      },
      "additionalContracts": [],
      "isFixedGasLimit": false
    },
    {
      "hash": "0x33ad3bebb523106d24f6e292a1af8b2ad92d8626c3fde2d673c6f74485297aa4",
      "transactionType": "CALL",
      "contractName": null,
      "contractAddress": "0x1a44076050125825900e736c501f859c50fe728c",
      "function": "setConfig(address,address,(uint32,uint32,bytes)[])",
      "arguments": [
        "0xc099Ab708e20E8b25C63cA156D7cc94404c55416",
        "0xB217266c3A98C8B2709Ee26836C98cf12f6cCEC1",
        "[(30184, 2, 0x0000000000000000000000000000000000000000000000000000000000000020000000000000000000000000000000000000000000000000000000000000002000000000000000000000000000000000000000000000000000000000000000020000000000000000000000000000000000000000000000000000000000000000000000000000000000000000000000000000000000000000000000000000000000000000000000000000000000000000000000000000000000000000000000c00000000000000000000000000000000000000000000000000000000000000120000000000000000000000000000000000000000000000000000000000000000200000000000000000000000031f748a368a893bdb5abb67ec95f232507601a73000000000000000000000000fd6865c841c2d64565562fcc7e05e619a30615f00000000000000000000000000000000000000000000000000000000000000000)]"
      ],
      "transaction": {
        "from": "0x4c51ce7b2546e18449fbe16738a8d55bc195a4dd",
        "to": "0x1a44076050125825900e736c501f859c50fe728c",
        "gas": "0x31983",
        "value": "0x0",
        "input": "0x6dbd9f90000000000000000000000000c099ab708e20e8b25c63ca156d7cc94404c55416000000000000000000000000b217266c3a98c8b2709ee26836c98cf12f6ccec100000000000000000000000000000000000000000000000000000000000000600000000000000000000000000000000000000000000000000000000000000001000000000000000000000000000000000000000000000000000000000000002000000000000000000000000000000000000000000000000000000000000075e80000000000000000000000000000000000000000000000000000000000000002000000000000000000000000000000000000000000000000000000000000006000000000000000000000000000000000000000000000000000000000000001600000000000000000000000000000000000000000000000000000000000000020000000000000000000000000000000000000000000000000000000000000002000000000000000000000000000000000000000000000000000000000000000020000000000000000000000000000000000000000000000000000000000000000000000000000000000000000000000000000000000000000000000000000000000000000000000000000000000000000000000000000000000000000000000c00000000000000000000000000000000000000000000000000000000000000120000000000000000000000000000000000000000000000000000000000000000200000000000000000000000031f748a368a893bdb5abb67ec95f232507601a73000000000000000000000000fd6865c841c2d64565562fcc7e05e619a30615f00000000000000000000000000000000000000000000000000000000000000000",
        "nonce": "0x1b1",
        "chainId": "0x38"
      },
      "additionalContracts": [],
      "isFixedGasLimit": false
    },
    {
      "hash": "0x7f80c9433d6d56fb6e0cc9cc64527c04f46fec233227d7beb42eecd3b1fa9e54",
      "transactionType": "CALL",
      "contractName": null,
      "contractAddress": "0x1a44076050125825900e736c501f859c50fe728c",
      "function": "setConfig(address,address,(uint32,uint32,bytes)[])",
      "arguments": [
        "0xc099Ab708e20E8b25C63cA156D7cc94404c55416",
        "0x9F8C645f2D0b2159767Bd6E0839DE4BE49e823DE",
        "[(30111, 2, 0x0000000000000000000000000000000000000000000000000000000000000020000000000000000000000000000000000000000000000000000000000000002000000000000000000000000000000000000000000000000000000000000000020000000000000000000000000000000000000000000000000000000000000000000000000000000000000000000000000000000000000000000000000000000000000000000000000000000000000000000000000000000000000000000000c00000000000000000000000000000000000000000000000000000000000000120000000000000000000000000000000000000000000000000000000000000000200000000000000000000000031f748a368a893bdb5abb67ec95f232507601a73000000000000000000000000fd6865c841c2d64565562fcc7e05e619a30615f00000000000000000000000000000000000000000000000000000000000000000)]"
      ],
      "transaction": {
        "from": "0x4c51ce7b2546e18449fbe16738a8d55bc195a4dd",
        "to": "0x1a44076050125825900e736c501f859c50fe728c",
        "gas": "0x2eec9",
        "value": "0x0",
        "input": "0x6dbd9f90000000000000000000000000c099ab708e20e8b25c63ca156d7cc94404c554160000000000000000000000009f8c645f2d0b2159767bd6e0839de4be49e823de000000000000000000000000000000000000000000000000000000000000006000000000000000000000000000000000000000000000000000000000000000010000000000000000000000000000000000000000000000000000000000000020000000000000000000000000000000000000000000000000000000000000759f0000000000000000000000000000000000000000000000000000000000000002000000000000000000000000000000000000000000000000000000000000006000000000000000000000000000000000000000000000000000000000000001600000000000000000000000000000000000000000000000000000000000000020000000000000000000000000000000000000000000000000000000000000002000000000000000000000000000000000000000000000000000000000000000020000000000000000000000000000000000000000000000000000000000000000000000000000000000000000000000000000000000000000000000000000000000000000000000000000000000000000000000000000000000000000000000c00000000000000000000000000000000000000000000000000000000000000120000000000000000000000000000000000000000000000000000000000000000200000000000000000000000031f748a368a893bdb5abb67ec95f232507601a73000000000000000000000000fd6865c841c2d64565562fcc7e05e619a30615f00000000000000000000000000000000000000000000000000000000000000000",
        "nonce": "0x1b2",
        "chainId": "0x38"
      },
      "additionalContracts": [],
      "isFixedGasLimit": false
    },
    {
      "hash": "0xcb2e5362cca3885f14d882d9eda61d70bd2bd459f6e5111fda450d928ddb9e4a",
      "transactionType": "CALL",
      "contractName": null,
      "contractAddress": "0x1a44076050125825900e736c501f859c50fe728c",
      "function": "setConfig(address,address,(uint32,uint32,bytes)[])",
      "arguments": [
        "0xc099Ab708e20E8b25C63cA156D7cc94404c55416",
        "0xB217266c3A98C8B2709Ee26836C98cf12f6cCEC1",
        "[(30111, 2, 0x0000000000000000000000000000000000000000000000000000000000000020000000000000000000000000000000000000000000000000000000000000002000000000000000000000000000000000000000000000000000000000000000020000000000000000000000000000000000000000000000000000000000000000000000000000000000000000000000000000000000000000000000000000000000000000000000000000000000000000000000000000000000000000000000c00000000000000000000000000000000000000000000000000000000000000120000000000000000000000000000000000000000000000000000000000000000200000000000000000000000031f748a368a893bdb5abb67ec95f232507601a73000000000000000000000000fd6865c841c2d64565562fcc7e05e619a30615f00000000000000000000000000000000000000000000000000000000000000000)]"
      ],
      "transaction": {
        "from": "0x4c51ce7b2546e18449fbe16738a8d55bc195a4dd",
        "to": "0x1a44076050125825900e736c501f859c50fe728c",
        "gas": "0x31983",
        "value": "0x0",
        "input": "0x6dbd9f90000000000000000000000000c099ab708e20e8b25c63ca156d7cc94404c55416000000000000000000000000b217266c3a98c8b2709ee26836c98cf12f6ccec1000000000000000000000000000000000000000000000000000000000000006000000000000000000000000000000000000000000000000000000000000000010000000000000000000000000000000000000000000000000000000000000020000000000000000000000000000000000000000000000000000000000000759f0000000000000000000000000000000000000000000000000000000000000002000000000000000000000000000000000000000000000000000000000000006000000000000000000000000000000000000000000000000000000000000001600000000000000000000000000000000000000000000000000000000000000020000000000000000000000000000000000000000000000000000000000000002000000000000000000000000000000000000000000000000000000000000000020000000000000000000000000000000000000000000000000000000000000000000000000000000000000000000000000000000000000000000000000000000000000000000000000000000000000000000000000000000000000000000000c00000000000000000000000000000000000000000000000000000000000000120000000000000000000000000000000000000000000000000000000000000000200000000000000000000000031f748a368a893bdb5abb67ec95f232507601a73000000000000000000000000fd6865c841c2d64565562fcc7e05e619a30615f00000000000000000000000000000000000000000000000000000000000000000",
        "nonce": "0x1b3",
        "chainId": "0x38"
      },
      "additionalContracts": [],
      "isFixedGasLimit": false
    },
    {
      "hash": "0x0d0fb588b71b086c3a8c5f326dad9997ae774e22794e7909f1ac2bfc8b066be7",
      "transactionType": "CALL",
      "contractName": null,
      "contractAddress": "0x1a44076050125825900e736c501f859c50fe728c",
      "function": "setConfig(address,address,(uint32,uint32,bytes)[])",
      "arguments": [
        "0xc099Ab708e20E8b25C63cA156D7cc94404c55416",
        "0x9F8C645f2D0b2159767Bd6E0839DE4BE49e823DE",
        "[(30110, 2, 0x0000000000000000000000000000000000000000000000000000000000000020000000000000000000000000000000000000000000000000000000000000002000000000000000000000000000000000000000000000000000000000000000020000000000000000000000000000000000000000000000000000000000000000000000000000000000000000000000000000000000000000000000000000000000000000000000000000000000000000000000000000000000000000000000c00000000000000000000000000000000000000000000000000000000000000120000000000000000000000000000000000000000000000000000000000000000200000000000000000000000031f748a368a893bdb5abb67ec95f232507601a73000000000000000000000000fd6865c841c2d64565562fcc7e05e619a30615f00000000000000000000000000000000000000000000000000000000000000000)]"
      ],
      "transaction": {
        "from": "0x4c51ce7b2546e18449fbe16738a8d55bc195a4dd",
        "to": "0x1a44076050125825900e736c501f859c50fe728c",
        "gas": "0x2eec9",
        "value": "0x0",
        "input": "0x6dbd9f90000000000000000000000000c099ab708e20e8b25c63ca156d7cc94404c554160000000000000000000000009f8c645f2d0b2159767bd6e0839de4be49e823de000000000000000000000000000000000000000000000000000000000000006000000000000000000000000000000000000000000000000000000000000000010000000000000000000000000000000000000000000000000000000000000020000000000000000000000000000000000000000000000000000000000000759e0000000000000000000000000000000000000000000000000000000000000002000000000000000000000000000000000000000000000000000000000000006000000000000000000000000000000000000000000000000000000000000001600000000000000000000000000000000000000000000000000000000000000020000000000000000000000000000000000000000000000000000000000000002000000000000000000000000000000000000000000000000000000000000000020000000000000000000000000000000000000000000000000000000000000000000000000000000000000000000000000000000000000000000000000000000000000000000000000000000000000000000000000000000000000000000000c00000000000000000000000000000000000000000000000000000000000000120000000000000000000000000000000000000000000000000000000000000000200000000000000000000000031f748a368a893bdb5abb67ec95f232507601a73000000000000000000000000fd6865c841c2d64565562fcc7e05e619a30615f00000000000000000000000000000000000000000000000000000000000000000",
        "nonce": "0x1b4",
        "chainId": "0x38"
      },
      "additionalContracts": [],
      "isFixedGasLimit": false
    },
    {
      "hash": "0xb7a633ca7ca71381810e02ee87ee999583c04076647c75a45cc80ab6f9029b13",
      "transactionType": "CALL",
      "contractName": null,
      "contractAddress": "0x1a44076050125825900e736c501f859c50fe728c",
      "function": "setConfig(address,address,(uint32,uint32,bytes)[])",
      "arguments": [
        "0xc099Ab708e20E8b25C63cA156D7cc94404c55416",
        "0xB217266c3A98C8B2709Ee26836C98cf12f6cCEC1",
        "[(30110, 2, 0x0000000000000000000000000000000000000000000000000000000000000020000000000000000000000000000000000000000000000000000000000000002000000000000000000000000000000000000000000000000000000000000000020000000000000000000000000000000000000000000000000000000000000000000000000000000000000000000000000000000000000000000000000000000000000000000000000000000000000000000000000000000000000000000000c00000000000000000000000000000000000000000000000000000000000000120000000000000000000000000000000000000000000000000000000000000000200000000000000000000000031f748a368a893bdb5abb67ec95f232507601a73000000000000000000000000fd6865c841c2d64565562fcc7e05e619a30615f00000000000000000000000000000000000000000000000000000000000000000)]"
      ],
      "transaction": {
        "from": "0x4c51ce7b2546e18449fbe16738a8d55bc195a4dd",
        "to": "0x1a44076050125825900e736c501f859c50fe728c",
        "gas": "0x31983",
        "value": "0x0",
        "input": "0x6dbd9f90000000000000000000000000c099ab708e20e8b25c63ca156d7cc94404c55416000000000000000000000000b217266c3a98c8b2709ee26836c98cf12f6ccec1000000000000000000000000000000000000000000000000000000000000006000000000000000000000000000000000000000000000000000000000000000010000000000000000000000000000000000000000000000000000000000000020000000000000000000000000000000000000000000000000000000000000759e0000000000000000000000000000000000000000000000000000000000000002000000000000000000000000000000000000000000000000000000000000006000000000000000000000000000000000000000000000000000000000000001600000000000000000000000000000000000000000000000000000000000000020000000000000000000000000000000000000000000000000000000000000002000000000000000000000000000000000000000000000000000000000000000020000000000000000000000000000000000000000000000000000000000000000000000000000000000000000000000000000000000000000000000000000000000000000000000000000000000000000000000000000000000000000000000c00000000000000000000000000000000000000000000000000000000000000120000000000000000000000000000000000000000000000000000000000000000200000000000000000000000031f748a368a893bdb5abb67ec95f232507601a73000000000000000000000000fd6865c841c2d64565562fcc7e05e619a30615f00000000000000000000000000000000000000000000000000000000000000000",
        "nonce": "0x1b5",
        "chainId": "0x38"
      },
      "additionalContracts": [],
      "isFixedGasLimit": false
    },
    {
      "hash": "0x4be9bc5ddc454fb5eb83ef2f8437c2ebb03ca51ba9ea965722efc67dd5b870d0",
      "transactionType": "CALL",
      "contractName": null,
      "contractAddress": "0x1a44076050125825900e736c501f859c50fe728c",
      "function": "setConfig(address,address,(uint32,uint32,bytes)[])",
      "arguments": [
        "0xc099Ab708e20E8b25C63cA156D7cc94404c55416",
        "0x9F8C645f2D0b2159767Bd6E0839DE4BE49e823DE",
        "[(30101, 2, 0x0000000000000000000000000000000000000000000000000000000000000020000000000000000000000000000000000000000000000000000000000000002000000000000000000000000000000000000000000000000000000000000000020000000000000000000000000000000000000000000000000000000000000000000000000000000000000000000000000000000000000000000000000000000000000000000000000000000000000000000000000000000000000000000000c00000000000000000000000000000000000000000000000000000000000000120000000000000000000000000000000000000000000000000000000000000000200000000000000000000000031f748a368a893bdb5abb67ec95f232507601a73000000000000000000000000fd6865c841c2d64565562fcc7e05e619a30615f00000000000000000000000000000000000000000000000000000000000000000)]"
      ],
      "transaction": {
        "from": "0x4c51ce7b2546e18449fbe16738a8d55bc195a4dd",
        "to": "0x1a44076050125825900e736c501f859c50fe728c",
        "gas": "0x2eec9",
        "value": "0x0",
        "input": "0x6dbd9f90000000000000000000000000c099ab708e20e8b25c63ca156d7cc94404c554160000000000000000000000009f8c645f2d0b2159767bd6e0839de4be49e823de00000000000000000000000000000000000000000000000000000000000000600000000000000000000000000000000000000000000000000000000000000001000000000000000000000000000000000000000000000000000000000000002000000000000000000000000000000000000000000000000000000000000075950000000000000000000000000000000000000000000000000000000000000002000000000000000000000000000000000000000000000000000000000000006000000000000000000000000000000000000000000000000000000000000001600000000000000000000000000000000000000000000000000000000000000020000000000000000000000000000000000000000000000000000000000000002000000000000000000000000000000000000000000000000000000000000000020000000000000000000000000000000000000000000000000000000000000000000000000000000000000000000000000000000000000000000000000000000000000000000000000000000000000000000000000000000000000000000000c00000000000000000000000000000000000000000000000000000000000000120000000000000000000000000000000000000000000000000000000000000000200000000000000000000000031f748a368a893bdb5abb67ec95f232507601a73000000000000000000000000fd6865c841c2d64565562fcc7e05e619a30615f00000000000000000000000000000000000000000000000000000000000000000",
        "nonce": "0x1b6",
        "chainId": "0x38"
      },
      "additionalContracts": [],
      "isFixedGasLimit": false
    },
    {
      "hash": "0xd4613cdef19f85614000207eca744d9eb1624e01ad6bf8fbce3793ed3b0f9e7c",
      "transactionType": "CALL",
      "contractName": null,
      "contractAddress": "0x1a44076050125825900e736c501f859c50fe728c",
      "function": "setConfig(address,address,(uint32,uint32,bytes)[])",
      "arguments": [
        "0xc099Ab708e20E8b25C63cA156D7cc94404c55416",
        "0xB217266c3A98C8B2709Ee26836C98cf12f6cCEC1",
        "[(30101, 2, 0x0000000000000000000000000000000000000000000000000000000000000020000000000000000000000000000000000000000000000000000000000000002000000000000000000000000000000000000000000000000000000000000000020000000000000000000000000000000000000000000000000000000000000000000000000000000000000000000000000000000000000000000000000000000000000000000000000000000000000000000000000000000000000000000000c00000000000000000000000000000000000000000000000000000000000000120000000000000000000000000000000000000000000000000000000000000000200000000000000000000000031f748a368a893bdb5abb67ec95f232507601a73000000000000000000000000fd6865c841c2d64565562fcc7e05e619a30615f00000000000000000000000000000000000000000000000000000000000000000)]"
      ],
      "transaction": {
        "from": "0x4c51ce7b2546e18449fbe16738a8d55bc195a4dd",
        "to": "0x1a44076050125825900e736c501f859c50fe728c",
        "gas": "0x31983",
        "value": "0x0",
        "input": "0x6dbd9f90000000000000000000000000c099ab708e20e8b25c63ca156d7cc94404c55416000000000000000000000000b217266c3a98c8b2709ee26836c98cf12f6ccec100000000000000000000000000000000000000000000000000000000000000600000000000000000000000000000000000000000000000000000000000000001000000000000000000000000000000000000000000000000000000000000002000000000000000000000000000000000000000000000000000000000000075950000000000000000000000000000000000000000000000000000000000000002000000000000000000000000000000000000000000000000000000000000006000000000000000000000000000000000000000000000000000000000000001600000000000000000000000000000000000000000000000000000000000000020000000000000000000000000000000000000000000000000000000000000002000000000000000000000000000000000000000000000000000000000000000020000000000000000000000000000000000000000000000000000000000000000000000000000000000000000000000000000000000000000000000000000000000000000000000000000000000000000000000000000000000000000000000c00000000000000000000000000000000000000000000000000000000000000120000000000000000000000000000000000000000000000000000000000000000200000000000000000000000031f748a368a893bdb5abb67ec95f232507601a73000000000000000000000000fd6865c841c2d64565562fcc7e05e619a30615f00000000000000000000000000000000000000000000000000000000000000000",
        "nonce": "0x1b7",
        "chainId": "0x38"
      },
      "additionalContracts": [],
      "isFixedGasLimit": false
    },
    {
      "hash": "0x21952517d364e24e5c7776aae1aae4d43bc06338c320ec856bbf19ef5e28fa5e",
      "transactionType": "CALL",
      "contractName": null,
      "contractAddress": "0x1a44076050125825900e736c501f859c50fe728c",
      "function": "setConfig(address,address,(uint32,uint32,bytes)[])",
      "arguments": [
        "0xc099Ab708e20E8b25C63cA156D7cc94404c55416",
        "0x9F8C645f2D0b2159767Bd6E0839DE4BE49e823DE",
        "[(30339, 2, 0x0000000000000000000000000000000000000000000000000000000000000020000000000000000000000000000000000000000000000000000000000000002000000000000000000000000000000000000000000000000000000000000000020000000000000000000000000000000000000000000000000000000000000000000000000000000000000000000000000000000000000000000000000000000000000000000000000000000000000000000000000000000000000000000000c00000000000000000000000000000000000000000000000000000000000000120000000000000000000000000000000000000000000000000000000000000000200000000000000000000000031f748a368a893bdb5abb67ec95f232507601a73000000000000000000000000fd6865c841c2d64565562fcc7e05e619a30615f00000000000000000000000000000000000000000000000000000000000000000)]"
      ],
      "transaction": {
        "from": "0x4c51ce7b2546e18449fbe16738a8d55bc195a4dd",
        "to": "0x1a44076050125825900e736c501f859c50fe728c",
        "gas": "0x2eec9",
        "value": "0x0",
        "input": "0x6dbd9f90000000000000000000000000c099ab708e20e8b25c63ca156d7cc94404c554160000000000000000000000009f8c645f2d0b2159767bd6e0839de4be49e823de00000000000000000000000000000000000000000000000000000000000000600000000000000000000000000000000000000000000000000000000000000001000000000000000000000000000000000000000000000000000000000000002000000000000000000000000000000000000000000000000000000000000076830000000000000000000000000000000000000000000000000000000000000002000000000000000000000000000000000000000000000000000000000000006000000000000000000000000000000000000000000000000000000000000001600000000000000000000000000000000000000000000000000000000000000020000000000000000000000000000000000000000000000000000000000000002000000000000000000000000000000000000000000000000000000000000000020000000000000000000000000000000000000000000000000000000000000000000000000000000000000000000000000000000000000000000000000000000000000000000000000000000000000000000000000000000000000000000000c00000000000000000000000000000000000000000000000000000000000000120000000000000000000000000000000000000000000000000000000000000000200000000000000000000000031f748a368a893bdb5abb67ec95f232507601a73000000000000000000000000fd6865c841c2d64565562fcc7e05e619a30615f00000000000000000000000000000000000000000000000000000000000000000",
        "nonce": "0x1b8",
        "chainId": "0x38"
      },
      "additionalContracts": [],
      "isFixedGasLimit": false
    },
    {
      "hash": "0x3eb54924f63472ef4c1651567e90410a0354a797c6e10443d45eca851222ec87",
      "transactionType": "CALL",
      "contractName": null,
      "contractAddress": "0x1a44076050125825900e736c501f859c50fe728c",
      "function": "setConfig(address,address,(uint32,uint32,bytes)[])",
      "arguments": [
        "0xc099Ab708e20E8b25C63cA156D7cc94404c55416",
        "0xB217266c3A98C8B2709Ee26836C98cf12f6cCEC1",
        "[(30339, 2, 0x0000000000000000000000000000000000000000000000000000000000000020000000000000000000000000000000000000000000000000000000000000002000000000000000000000000000000000000000000000000000000000000000020000000000000000000000000000000000000000000000000000000000000000000000000000000000000000000000000000000000000000000000000000000000000000000000000000000000000000000000000000000000000000000000c00000000000000000000000000000000000000000000000000000000000000120000000000000000000000000000000000000000000000000000000000000000200000000000000000000000031f748a368a893bdb5abb67ec95f232507601a73000000000000000000000000fd6865c841c2d64565562fcc7e05e619a30615f00000000000000000000000000000000000000000000000000000000000000000)]"
      ],
      "transaction": {
        "from": "0x4c51ce7b2546e18449fbe16738a8d55bc195a4dd",
        "to": "0x1a44076050125825900e736c501f859c50fe728c",
        "gas": "0x31983",
        "value": "0x0",
        "input": "0x6dbd9f90000000000000000000000000c099ab708e20e8b25c63ca156d7cc94404c55416000000000000000000000000b217266c3a98c8b2709ee26836c98cf12f6ccec100000000000000000000000000000000000000000000000000000000000000600000000000000000000000000000000000000000000000000000000000000001000000000000000000000000000000000000000000000000000000000000002000000000000000000000000000000000000000000000000000000000000076830000000000000000000000000000000000000000000000000000000000000002000000000000000000000000000000000000000000000000000000000000006000000000000000000000000000000000000000000000000000000000000001600000000000000000000000000000000000000000000000000000000000000020000000000000000000000000000000000000000000000000000000000000002000000000000000000000000000000000000000000000000000000000000000020000000000000000000000000000000000000000000000000000000000000000000000000000000000000000000000000000000000000000000000000000000000000000000000000000000000000000000000000000000000000000000000c00000000000000000000000000000000000000000000000000000000000000120000000000000000000000000000000000000000000000000000000000000000200000000000000000000000031f748a368a893bdb5abb67ec95f232507601a73000000000000000000000000fd6865c841c2d64565562fcc7e05e619a30615f00000000000000000000000000000000000000000000000000000000000000000",
        "nonce": "0x1b9",
        "chainId": "0x38"
      },
      "additionalContracts": [],
      "isFixedGasLimit": false
    },
    {
      "hash": "0xa688478c2664f2f43e38b4cc325c9f3a2ae38c28231ac2d41d2ae927ff225566",
      "transactionType": "CALL",
      "contractName": null,
      "contractAddress": "0xc099ab708e20e8b25c63ca156d7cc94404c55416",
      "function": "setDelegate(address)",
      "arguments": [
        "0x721688652DEa9Cabec70BD99411EAEAB9485d436"
      ],
      "transaction": {
        "from": "0x4c51ce7b2546e18449fbe16738a8d55bc195a4dd",
        "to": "0xc099ab708e20e8b25c63ca156d7cc94404c55416",
        "gas": "0xd127",
        "value": "0x0",
        "input": "0xca5eb5e1000000000000000000000000721688652dea9cabec70bd99411eaeab9485d436",
        "nonce": "0x1ba",
        "chainId": "0x38"
      },
      "additionalContracts": [],
      "isFixedGasLimit": false
    }
  ],
  "receipts": [
    {
      "status": "0x1",
      "cumulativeGasUsed": "0x1d7f71b",
      "logs": [
        {
          "address": "0xc099ab708e20e8b25c63ca156d7cc94404c55416",
          "topics": [
            "0xe888347665897e637801f36c5129f510657276178c89022bc5fa0246dbc19de1"
          ],
          "data": "0x00000000000000000000000000000000000000000000000000000000000000200000000000000000000000000000000000000000000000000000000000000007000000000000000000000000000000000000000000000000000000000000759500000000000000000000000000000000000000000052b7d2dcc80cd2e40000000000000000000000000000000000000000000000000000000000000000000e10000000000000000000000000000000000000000000000000000000000000769a00000000000000000000000000000000000000000052b7d2dcc80cd2e40000000000000000000000000000000000000000000000000000000000000000000e1000000000000000000000000000000000000000000000000000000000000075e800000000000000000000000000000000000000000052b7d2dcc80cd2e40000000000000000000000000000000000000000000000000000000000000000000e10000000000000000000000000000000000000000000000000000000000000759f00000000000000000000000000000000000000000052b7d2dcc80cd2e40000000000000000000000000000000000000000000000000000000000000000000e10000000000000000000000000000000000000000000000000000000000000759e00000000000000000000000000000000000000000052b7d2dcc80cd2e40000000000000000000000000000000000000000000000000000000000000000000e10000000000000000000000000000000000000000000000000000000000000759600000000000000000000000000000000000000000052b7d2dcc80cd2e40000000000000000000000000000000000000000000000000000000000000000000e10000000000000000000000000000000000000000000000000000000000000768300000000000000000000000000000000000000000052b7d2dcc80cd2e40000000000000000000000000000000000000000000000000000000000000000000e10",
          "blockHash": "0xcbf55cc54deab3f67a70902c37a6086706875c11b8a011a1ce0f2672539412f7",
          "blockNumber": "0x2f9f9bd",
          "transactionHash": "0x3b1c36b67c13f84f26cc96c0b652086841b64043c5480a8bf698922090833ee0",
          "transactionIndex": "0xb8",
          "logIndex": "0x4bb",
          "removed": false
        }
      ],
      "logsBloom": "0x00000000000000000000000000000000000000000000000000000000000000000000000000000000000000000000000000000000000000000000000000000000000000000000000000000000000000000000000000000000000000000000000000000000000000000000000000000000000000000000000000000000000000000000000000000000000000000000000000000000000020000000010000000004000000000000000000000800000000000000000000000000000000000000000000000000000000000000000000000000000000000000000000000000000000000000000000000000000000000000000000000000000000040000000000000000",
      "type": "0x0",
      "transactionHash": "0x3b1c36b67c13f84f26cc96c0b652086841b64043c5480a8bf698922090833ee0",
      "transactionIndex": "0xb8",
      "blockHash": "0xcbf55cc54deab3f67a70902c37a6086706875c11b8a011a1ce0f2672539412f7",
      "blockNumber": "0x2f9f9bd",
      "gasUsed": "0x814a3",
      "effectiveGasPrice": "0x5f5e100",
      "from": "0x4c51ce7b2546e18449fbe16738a8d55bc195a4dd",
      "to": "0xc099ab708e20e8b25c63ca156d7cc94404c55416",
      "contractAddress": null
    },
    {
      "status": "0x1",
      "cumulativeGasUsed": "0x1d93b84",
      "logs": [
        {
          "address": "0xc099ab708e20e8b25c63ca156d7cc94404c55416",
          "topics": [
            "0x238399d427b947898edb290f5ff0f9109849b1c3ba196a42e35f00c50a54b98b"
          ],
          "data": "0x000000000000000000000000000000000000000000000000000000000000769a000000000000000000000000c099ab708e20e8b25c63ca156d7cc94404c55416",
          "blockHash": "0xcbf55cc54deab3f67a70902c37a6086706875c11b8a011a1ce0f2672539412f7",
          "blockNumber": "0x2f9f9bd",
          "transactionHash": "0x8283ce3a12367fee48f99d875f1e9478c5c83fc0fe580b7bb7d6ede39828d3bc",
          "transactionIndex": "0xba",
          "logIndex": "0x4bd",
          "removed": false
        }
      ],
      "logsBloom": "0x00000000000000000000000000000000000000000000000000000000000000000000000000000000000000000000000000000000000000000800000000000000000000000000000000000000000000000000000000000000000000000000000000000000000000000000000000000000000000000000000000000000000000000000000000000000000000000000000000000000000000000000010000000000000000000000000000000800000000000000000000000000000002000000000000000000000000000000000000000000000000000000000000040000000000000000000000000000000000000000000000000000000000040000000000000000",
      "type": "0x0",
      "transactionHash": "0x8283ce3a12367fee48f99d875f1e9478c5c83fc0fe580b7bb7d6ede39828d3bc",
      "transactionIndex": "0xba",
      "blockHash": "0xcbf55cc54deab3f67a70902c37a6086706875c11b8a011a1ce0f2672539412f7",
      "blockNumber": "0x2f9f9bd",
      "gasUsed": "0xcdfd",
      "effectiveGasPrice": "0x5f5e100",
      "from": "0x4c51ce7b2546e18449fbe16738a8d55bc195a4dd",
      "to": "0xc099ab708e20e8b25c63ca156d7cc94404c55416",
      "contractAddress": null
    },
    {
      "status": "0x1",
      "cumulativeGasUsed": "0x1e05c8f",
      "logs": [
        {
          "address": "0xc099ab708e20e8b25c63ca156d7cc94404c55416",
          "topics": [
            "0x238399d427b947898edb290f5ff0f9109849b1c3ba196a42e35f00c50a54b98b"
          ],
          "data": "0x00000000000000000000000000000000000000000000000000000000000075e8000000000000000000000000c099ab708e20e8b25c63ca156d7cc94404c55416",
          "blockHash": "0xcbf55cc54deab3f67a70902c37a6086706875c11b8a011a1ce0f2672539412f7",
          "blockNumber": "0x2f9f9bd",
          "transactionHash": "0x8cd1e608719d52adeb3753350d5d5afbca8c2eb922e6da6099b3d0c7d09dec2d",
          "transactionIndex": "0xc1",
          "logIndex": "0x4c8",
          "removed": false
        }
      ],
      "logsBloom": "0x00000000000000000000000000000000000000000000000000000000000000000000000000000000000000000000000000000000000000000800000000000000000000000000000000000000000000000000000000000000000000000000000000000000000000000000000000000000000000000000000000000000000000000000000000000000000000000000000000000000000000000000010000000000000000000000000000000800000000000000000000000000000002000000000000000000000000000000000000000000000000000000000000040000000000000000000000000000000000000000000000000000000000040000000000000000",
      "type": "0x0",
      "transactionHash": "0x8cd1e608719d52adeb3753350d5d5afbca8c2eb922e6da6099b3d0c7d09dec2d",
      "transactionIndex": "0xc1",
      "blockHash": "0xcbf55cc54deab3f67a70902c37a6086706875c11b8a011a1ce0f2672539412f7",
      "blockNumber": "0x2f9f9bd",
      "gasUsed": "0xcdfd",
      "effectiveGasPrice": "0x5f5e100",
      "from": "0x4c51ce7b2546e18449fbe16738a8d55bc195a4dd",
      "to": "0xc099ab708e20e8b25c63ca156d7cc94404c55416",
      "contractAddress": null
    },
    {
      "status": "0x1",
      "cumulativeGasUsed": "0x1e12a8c",
      "logs": [
        {
          "address": "0xc099ab708e20e8b25c63ca156d7cc94404c55416",
          "topics": [
            "0x238399d427b947898edb290f5ff0f9109849b1c3ba196a42e35f00c50a54b98b"
          ],
          "data": "0x000000000000000000000000000000000000000000000000000000000000759f000000000000000000000000c099ab708e20e8b25c63ca156d7cc94404c55416",
          "blockHash": "0xcbf55cc54deab3f67a70902c37a6086706875c11b8a011a1ce0f2672539412f7",
          "blockNumber": "0x2f9f9bd",
          "transactionHash": "0xba3233b8fb4fff90fdadd3a9b62ac8b7d8b3f5579f9cc82c59a4c5fd786db94a",
          "transactionIndex": "0xc2",
          "logIndex": "0x4c9",
          "removed": false
        }
      ],
      "logsBloom": "0x00000000000000000000000000000000000000000000000000000000000000000000000000000000000000000000000000000000000000000800000000000000000000000000000000000000000000000000000000000000000000000000000000000000000000000000000000000000000000000000000000000000000000000000000000000000000000000000000000000000000000000000010000000000000000000000000000000800000000000000000000000000000002000000000000000000000000000000000000000000000000000000000000040000000000000000000000000000000000000000000000000000000000040000000000000000",
      "type": "0x0",
      "transactionHash": "0xba3233b8fb4fff90fdadd3a9b62ac8b7d8b3f5579f9cc82c59a4c5fd786db94a",
      "transactionIndex": "0xc2",
      "blockHash": "0xcbf55cc54deab3f67a70902c37a6086706875c11b8a011a1ce0f2672539412f7",
      "blockNumber": "0x2f9f9bd",
      "gasUsed": "0xcdfd",
      "effectiveGasPrice": "0x5f5e100",
      "from": "0x4c51ce7b2546e18449fbe16738a8d55bc195a4dd",
      "to": "0xc099ab708e20e8b25c63ca156d7cc94404c55416",
      "contractAddress": null
    },
    {
      "status": "0x1",
      "cumulativeGasUsed": "0x1e1f889",
      "logs": [
        {
          "address": "0xc099ab708e20e8b25c63ca156d7cc94404c55416",
          "topics": [
            "0x238399d427b947898edb290f5ff0f9109849b1c3ba196a42e35f00c50a54b98b"
          ],
          "data": "0x000000000000000000000000000000000000000000000000000000000000759e000000000000000000000000c099ab708e20e8b25c63ca156d7cc94404c55416",
          "blockHash": "0xcbf55cc54deab3f67a70902c37a6086706875c11b8a011a1ce0f2672539412f7",
          "blockNumber": "0x2f9f9bd",
          "transactionHash": "0x39f8412e72a8c410a74f1e4f445920866e07df9dfb3d547b1835c8428f44d9eb",
          "transactionIndex": "0xc3",
          "logIndex": "0x4ca",
          "removed": false
        }
      ],
      "logsBloom": "0x00000000000000000000000000000000000000000000000000000000000000000000000000000000000000000000000000000000000000000800000000000000000000000000000000000000000000000000000000000000000000000000000000000000000000000000000000000000000000000000000000000000000000000000000000000000000000000000000000000000000000000000010000000000000000000000000000000800000000000000000000000000000002000000000000000000000000000000000000000000000000000000000000040000000000000000000000000000000000000000000000000000000000040000000000000000",
      "type": "0x0",
      "transactionHash": "0x39f8412e72a8c410a74f1e4f445920866e07df9dfb3d547b1835c8428f44d9eb",
      "transactionIndex": "0xc3",
      "blockHash": "0xcbf55cc54deab3f67a70902c37a6086706875c11b8a011a1ce0f2672539412f7",
      "blockNumber": "0x2f9f9bd",
      "gasUsed": "0xcdfd",
      "effectiveGasPrice": "0x5f5e100",
      "from": "0x4c51ce7b2546e18449fbe16738a8d55bc195a4dd",
      "to": "0xc099ab708e20e8b25c63ca156d7cc94404c55416",
      "contractAddress": null
    },
    {
      "status": "0x1",
      "cumulativeGasUsed": "0x1e2c686",
      "logs": [
        {
          "address": "0xc099ab708e20e8b25c63ca156d7cc94404c55416",
          "topics": [
            "0x238399d427b947898edb290f5ff0f9109849b1c3ba196a42e35f00c50a54b98b"
          ],
          "data": "0x0000000000000000000000000000000000000000000000000000000000007595000000000000000000000000c099ab708e20e8b25c63ca156d7cc94404c55416",
          "blockHash": "0xcbf55cc54deab3f67a70902c37a6086706875c11b8a011a1ce0f2672539412f7",
          "blockNumber": "0x2f9f9bd",
          "transactionHash": "0x664bda60911afa2b46de7bbbf4b0dd4051dca33ecacde6f19f5d60c1c38207b1",
          "transactionIndex": "0xc4",
          "logIndex": "0x4cb",
          "removed": false
        }
      ],
      "logsBloom": "0x00000000000000000000000000000000000000000000000000000000000000000000000000000000000000000000000000000000000000000800000000000000000000000000000000000000000000000000000000000000000000000000000000000000000000000000000000000000000000000000000000000000000000000000000000000000000000000000000000000000000000000000010000000000000000000000000000000800000000000000000000000000000002000000000000000000000000000000000000000000000000000000000000040000000000000000000000000000000000000000000000000000000000040000000000000000",
      "type": "0x0",
      "transactionHash": "0x664bda60911afa2b46de7bbbf4b0dd4051dca33ecacde6f19f5d60c1c38207b1",
      "transactionIndex": "0xc4",
      "blockHash": "0xcbf55cc54deab3f67a70902c37a6086706875c11b8a011a1ce0f2672539412f7",
      "blockNumber": "0x2f9f9bd",
      "gasUsed": "0xcdfd",
      "effectiveGasPrice": "0x5f5e100",
      "from": "0x4c51ce7b2546e18449fbe16738a8d55bc195a4dd",
      "to": "0xc099ab708e20e8b25c63ca156d7cc94404c55416",
      "contractAddress": null
    },
    {
      "status": "0x1",
      "cumulativeGasUsed": "0x1f12728",
      "logs": [
        {
          "address": "0xc099ab708e20e8b25c63ca156d7cc94404c55416",
          "topics": [
            "0x238399d427b947898edb290f5ff0f9109849b1c3ba196a42e35f00c50a54b98b"
          ],
          "data": "0x0000000000000000000000000000000000000000000000000000000000007683000000000000000000000000c099ab708e20e8b25c63ca156d7cc94404c55416",
          "blockHash": "0xcbf55cc54deab3f67a70902c37a6086706875c11b8a011a1ce0f2672539412f7",
          "blockNumber": "0x2f9f9bd",
          "transactionHash": "0xa46a1fe857a54ad3f81b407e7555a7ac85ee6d0b1d903cd75ed0af95c1e4809f",
          "transactionIndex": "0xcc",
          "logIndex": "0x4e8",
          "removed": false
        }
      ],
      "logsBloom": "0x00000000000000000000000000000000000000000000000000000000000000000000000000000000000000000000000000000000000000000800000000000000000000000000000000000000000000000000000000000000000000000000000000000000000000000000000000000000000000000000000000000000000000000000000000000000000000000000000000000000000000000000010000000000000000000000000000000800000000000000000000000000000002000000000000000000000000000000000000000000000000000000000000040000000000000000000000000000000000000000000000000000000000040000000000000000",
      "type": "0x0",
      "transactionHash": "0xa46a1fe857a54ad3f81b407e7555a7ac85ee6d0b1d903cd75ed0af95c1e4809f",
      "transactionIndex": "0xcc",
      "blockHash": "0xcbf55cc54deab3f67a70902c37a6086706875c11b8a011a1ce0f2672539412f7",
      "blockNumber": "0x2f9f9bd",
      "gasUsed": "0xcdfd",
      "effectiveGasPrice": "0x5f5e100",
      "from": "0x4c51ce7b2546e18449fbe16738a8d55bc195a4dd",
      "to": "0xc099ab708e20e8b25c63ca156d7cc94404c55416",
      "contractAddress": null
    },
    {
      "status": "0x1",
      "cumulativeGasUsed": "0x1f222c9",
      "logs": [
        {
          "address": "0x1a44076050125825900e736c501f859c50fe728c",
          "topics": [
            "0xcd6f92f5ac6185a5acfa02c92090746cec64d777269cbcd0ed031e396657a1c2"
          ],
          "data": "0x000000000000000000000000c099ab708e20e8b25c63ca156d7cc94404c55416000000000000000000000000000000000000000000000000000000000000769a000000000000000000000000b217266c3a98c8b2709ee26836c98cf12f6ccec1",
          "blockHash": "0xcbf55cc54deab3f67a70902c37a6086706875c11b8a011a1ce0f2672539412f7",
          "blockNumber": "0x2f9f9bd",
          "transactionHash": "0xc2e7a1ad6dddfcf9b70f23f42cc8300792690099358661113b37acdec6a64703",
          "transactionIndex": "0xcd",
          "logIndex": "0x4e9",
          "removed": false
        },
        {
          "address": "0x1a44076050125825900e736c501f859c50fe728c",
          "topics": [
            "0x4e0a5bbfa0c11a64effb1ada324b5437a17272e1aed9320398715ef71bb20928"
          ],
          "data": "0x000000000000000000000000c099ab708e20e8b25c63ca156d7cc94404c55416000000000000000000000000000000000000000000000000000000000000769a00000000000000000000000000000000000000000000000000000000000000000000000000000000000000000000000000000000000000000000000000000000",
          "blockHash": "0xcbf55cc54deab3f67a70902c37a6086706875c11b8a011a1ce0f2672539412f7",
          "blockNumber": "0x2f9f9bd",
          "transactionHash": "0xc2e7a1ad6dddfcf9b70f23f42cc8300792690099358661113b37acdec6a64703",
          "transactionIndex": "0xcd",
          "logIndex": "0x4ea",
          "removed": false
        }
      ],
      "logsBloom": "0x00000000000000000000020800000000000000000000000000000000001000020400000000000000000000000000000000000000000000000000000000000000000000000000000000000000000000000000000000800000000000000000000000000000000000000000000000000000000000000010000000000000000000100000000000000000000000000000000000000000000000000000000000000000000000000000000000000000000000000000000000000000000000000000000000000000000000000000000000000000000000000000000000000000000000000000000000000000000000000000000000000000010000000000000000000000",
      "type": "0x0",
      "transactionHash": "0xc2e7a1ad6dddfcf9b70f23f42cc8300792690099358661113b37acdec6a64703",
      "transactionIndex": "0xcd",
      "blockHash": "0xcbf55cc54deab3f67a70902c37a6086706875c11b8a011a1ce0f2672539412f7",
      "blockNumber": "0x2f9f9bd",
      "gasUsed": "0xfba1",
      "effectiveGasPrice": "0x5f5e100",
      "from": "0x4c51ce7b2546e18449fbe16738a8d55bc195a4dd",
      "to": "0x1a44076050125825900e736c501f859c50fe728c",
      "contractAddress": null
    },
    {
      "status": "0x1",
      "cumulativeGasUsed": "0x1f77a6d",
      "logs": [
        {
          "address": "0x1a44076050125825900e736c501f859c50fe728c",
          "topics": [
            "0xcd6f92f5ac6185a5acfa02c92090746cec64d777269cbcd0ed031e396657a1c2"
          ],
          "data": "0x000000000000000000000000c099ab708e20e8b25c63ca156d7cc94404c5541600000000000000000000000000000000000000000000000000000000000075e8000000000000000000000000b217266c3a98c8b2709ee26836c98cf12f6ccec1",
          "blockHash": "0xcbf55cc54deab3f67a70902c37a6086706875c11b8a011a1ce0f2672539412f7",
          "blockNumber": "0x2f9f9bd",
          "transactionHash": "0xa7f2a63e958335ed912fcd11698d7ec65da5be02e4a200537ed8bb176f2a679f",
          "transactionIndex": "0xd1",
          "logIndex": "0x4f4",
          "removed": false
        },
        {
          "address": "0x1a44076050125825900e736c501f859c50fe728c",
          "topics": [
            "0x4e0a5bbfa0c11a64effb1ada324b5437a17272e1aed9320398715ef71bb20928"
          ],
          "data": "0x000000000000000000000000c099ab708e20e8b25c63ca156d7cc94404c5541600000000000000000000000000000000000000000000000000000000000075e800000000000000000000000000000000000000000000000000000000000000000000000000000000000000000000000000000000000000000000000000000000",
          "blockHash": "0xcbf55cc54deab3f67a70902c37a6086706875c11b8a011a1ce0f2672539412f7",
          "blockNumber": "0x2f9f9bd",
          "transactionHash": "0xa7f2a63e958335ed912fcd11698d7ec65da5be02e4a200537ed8bb176f2a679f",
          "transactionIndex": "0xd1",
          "logIndex": "0x4f5",
          "removed": false
        }
      ],
      "logsBloom": "0x00000000000000000000020800000000000000000000000000000000001000020400000000000000000000000000000000000000000000000000000000000000000000000000000000000000000000000000000000800000000000000000000000000000000000000000000000000000000000000010000000000000000000100000000000000000000000000000000000000000000000000000000000000000000000000000000000000000000000000000000000000000000000000000000000000000000000000000000000000000000000000000000000000000000000000000000000000000000000000000000000000000010000000000000000000000",
      "type": "0x0",
      "transactionHash": "0xa7f2a63e958335ed912fcd11698d7ec65da5be02e4a200537ed8bb176f2a679f",
      "transactionIndex": "0xd1",
      "blockHash": "0xcbf55cc54deab3f67a70902c37a6086706875c11b8a011a1ce0f2672539412f7",
      "blockNumber": "0x2f9f9bd",
      "gasUsed": "0xfba1",
      "effectiveGasPrice": "0x5f5e100",
      "from": "0x4c51ce7b2546e18449fbe16738a8d55bc195a4dd",
      "to": "0x1a44076050125825900e736c501f859c50fe728c",
      "contractAddress": null
    },
    {
      "status": "0x1",
      "cumulativeGasUsed": "0x1f8760e",
      "logs": [
        {
          "address": "0x1a44076050125825900e736c501f859c50fe728c",
          "topics": [
            "0xcd6f92f5ac6185a5acfa02c92090746cec64d777269cbcd0ed031e396657a1c2"
          ],
          "data": "0x000000000000000000000000c099ab708e20e8b25c63ca156d7cc94404c55416000000000000000000000000000000000000000000000000000000000000759f000000000000000000000000b217266c3a98c8b2709ee26836c98cf12f6ccec1",
          "blockHash": "0xcbf55cc54deab3f67a70902c37a6086706875c11b8a011a1ce0f2672539412f7",
          "blockNumber": "0x2f9f9bd",
          "transactionHash": "0x3ce5bdc77f0c00ecfb28a4f2c91bf676988836871ac986c2dd49490942f36955",
          "transactionIndex": "0xd2",
          "logIndex": "0x4f6",
          "removed": false
        },
        {
          "address": "0x1a44076050125825900e736c501f859c50fe728c",
          "topics": [
            "0x4e0a5bbfa0c11a64effb1ada324b5437a17272e1aed9320398715ef71bb20928"
          ],
          "data": "0x000000000000000000000000c099ab708e20e8b25c63ca156d7cc94404c55416000000000000000000000000000000000000000000000000000000000000759f00000000000000000000000000000000000000000000000000000000000000000000000000000000000000000000000000000000000000000000000000000000",
          "blockHash": "0xcbf55cc54deab3f67a70902c37a6086706875c11b8a011a1ce0f2672539412f7",
          "blockNumber": "0x2f9f9bd",
          "transactionHash": "0x3ce5bdc77f0c00ecfb28a4f2c91bf676988836871ac986c2dd49490942f36955",
          "transactionIndex": "0xd2",
          "logIndex": "0x4f7",
          "removed": false
        }
      ],
      "logsBloom": "0x00000000000000000000020800000000000000000000000000000000001000020400000000000000000000000000000000000000000000000000000000000000000000000000000000000000000000000000000000800000000000000000000000000000000000000000000000000000000000000010000000000000000000100000000000000000000000000000000000000000000000000000000000000000000000000000000000000000000000000000000000000000000000000000000000000000000000000000000000000000000000000000000000000000000000000000000000000000000000000000000000000000010000000000000000000000",
      "type": "0x0",
      "transactionHash": "0x3ce5bdc77f0c00ecfb28a4f2c91bf676988836871ac986c2dd49490942f36955",
      "transactionIndex": "0xd2",
      "blockHash": "0xcbf55cc54deab3f67a70902c37a6086706875c11b8a011a1ce0f2672539412f7",
      "blockNumber": "0x2f9f9bd",
      "gasUsed": "0xfba1",
      "effectiveGasPrice": "0x5f5e100",
      "from": "0x4c51ce7b2546e18449fbe16738a8d55bc195a4dd",
      "to": "0x1a44076050125825900e736c501f859c50fe728c",
      "contractAddress": null
    },
    {
      "status": "0x1",
      "cumulativeGasUsed": "0x1fa145a",
      "logs": [
        {
          "address": "0x1a44076050125825900e736c501f859c50fe728c",
          "topics": [
            "0xcd6f92f5ac6185a5acfa02c92090746cec64d777269cbcd0ed031e396657a1c2"
          ],
          "data": "0x000000000000000000000000c099ab708e20e8b25c63ca156d7cc94404c55416000000000000000000000000000000000000000000000000000000000000759e000000000000000000000000b217266c3a98c8b2709ee26836c98cf12f6ccec1",
          "blockHash": "0xcbf55cc54deab3f67a70902c37a6086706875c11b8a011a1ce0f2672539412f7",
          "blockNumber": "0x2f9f9bd",
          "transactionHash": "0x5b3ef7a54af758abf62eb02e6af73f2ee1b414ac7c3e024b3f732487c7c6c9db",
          "transactionIndex": "0xd4",
          "logIndex": "0x4f9",
          "removed": false
        },
        {
          "address": "0x1a44076050125825900e736c501f859c50fe728c",
          "topics": [
            "0x4e0a5bbfa0c11a64effb1ada324b5437a17272e1aed9320398715ef71bb20928"
          ],
          "data": "0x000000000000000000000000c099ab708e20e8b25c63ca156d7cc94404c55416000000000000000000000000000000000000000000000000000000000000759e00000000000000000000000000000000000000000000000000000000000000000000000000000000000000000000000000000000000000000000000000000000",
          "blockHash": "0xcbf55cc54deab3f67a70902c37a6086706875c11b8a011a1ce0f2672539412f7",
          "blockNumber": "0x2f9f9bd",
          "transactionHash": "0x5b3ef7a54af758abf62eb02e6af73f2ee1b414ac7c3e024b3f732487c7c6c9db",
          "transactionIndex": "0xd4",
          "logIndex": "0x4fa",
          "removed": false
        }
      ],
      "logsBloom": "0x00000000000000000000020800000000000000000000000000000000001000020400000000000000000000000000000000000000000000000000000000000000000000000000000000000000000000000000000000800000000000000000000000000000000000000000000000000000000000000010000000000000000000100000000000000000000000000000000000000000000000000000000000000000000000000000000000000000000000000000000000000000000000000000000000000000000000000000000000000000000000000000000000000000000000000000000000000000000000000000000000000000010000000000000000000000",
      "type": "0x0",
      "transactionHash": "0x5b3ef7a54af758abf62eb02e6af73f2ee1b414ac7c3e024b3f732487c7c6c9db",
      "transactionIndex": "0xd4",
      "blockHash": "0xcbf55cc54deab3f67a70902c37a6086706875c11b8a011a1ce0f2672539412f7",
      "blockNumber": "0x2f9f9bd",
      "gasUsed": "0xfba1",
      "effectiveGasPrice": "0x5f5e100",
      "from": "0x4c51ce7b2546e18449fbe16738a8d55bc195a4dd",
      "to": "0x1a44076050125825900e736c501f859c50fe728c",
      "contractAddress": null
    },
    {
      "status": "0x1",
      "cumulativeGasUsed": "0x1fb0ffb",
      "logs": [
        {
          "address": "0x1a44076050125825900e736c501f859c50fe728c",
          "topics": [
            "0xcd6f92f5ac6185a5acfa02c92090746cec64d777269cbcd0ed031e396657a1c2"
          ],
          "data": "0x000000000000000000000000c099ab708e20e8b25c63ca156d7cc94404c554160000000000000000000000000000000000000000000000000000000000007595000000000000000000000000b217266c3a98c8b2709ee26836c98cf12f6ccec1",
          "blockHash": "0xcbf55cc54deab3f67a70902c37a6086706875c11b8a011a1ce0f2672539412f7",
          "blockNumber": "0x2f9f9bd",
          "transactionHash": "0x025b93ee5642b33f351bd8d03fa8ef5fd963b9c9cde8f9ced2ff6f02a7c408c2",
          "transactionIndex": "0xd5",
          "logIndex": "0x4fb",
          "removed": false
        },
        {
          "address": "0x1a44076050125825900e736c501f859c50fe728c",
          "topics": [
            "0x4e0a5bbfa0c11a64effb1ada324b5437a17272e1aed9320398715ef71bb20928"
          ],
          "data": "0x000000000000000000000000c099ab708e20e8b25c63ca156d7cc94404c55416000000000000000000000000000000000000000000000000000000000000759500000000000000000000000000000000000000000000000000000000000000000000000000000000000000000000000000000000000000000000000000000000",
          "blockHash": "0xcbf55cc54deab3f67a70902c37a6086706875c11b8a011a1ce0f2672539412f7",
          "blockNumber": "0x2f9f9bd",
          "transactionHash": "0x025b93ee5642b33f351bd8d03fa8ef5fd963b9c9cde8f9ced2ff6f02a7c408c2",
          "transactionIndex": "0xd5",
          "logIndex": "0x4fc",
          "removed": false
        }
      ],
      "logsBloom": "0x00000000000000000000020800000000000000000000000000000000001000020400000000000000000000000000000000000000000000000000000000000000000000000000000000000000000000000000000000800000000000000000000000000000000000000000000000000000000000000010000000000000000000100000000000000000000000000000000000000000000000000000000000000000000000000000000000000000000000000000000000000000000000000000000000000000000000000000000000000000000000000000000000000000000000000000000000000000000000000000000000000000010000000000000000000000",
      "type": "0x0",
      "transactionHash": "0x025b93ee5642b33f351bd8d03fa8ef5fd963b9c9cde8f9ced2ff6f02a7c408c2",
      "transactionIndex": "0xd5",
      "blockHash": "0xcbf55cc54deab3f67a70902c37a6086706875c11b8a011a1ce0f2672539412f7",
      "blockNumber": "0x2f9f9bd",
      "gasUsed": "0xfba1",
      "effectiveGasPrice": "0x5f5e100",
      "from": "0x4c51ce7b2546e18449fbe16738a8d55bc195a4dd",
      "to": "0x1a44076050125825900e736c501f859c50fe728c",
      "contractAddress": null
    },
    {
      "status": "0x1",
      "cumulativeGasUsed": "0x1fc0b9c",
      "logs": [
        {
          "address": "0x1a44076050125825900e736c501f859c50fe728c",
          "topics": [
            "0xcd6f92f5ac6185a5acfa02c92090746cec64d777269cbcd0ed031e396657a1c2"
          ],
          "data": "0x000000000000000000000000c099ab708e20e8b25c63ca156d7cc94404c554160000000000000000000000000000000000000000000000000000000000007683000000000000000000000000b217266c3a98c8b2709ee26836c98cf12f6ccec1",
          "blockHash": "0xcbf55cc54deab3f67a70902c37a6086706875c11b8a011a1ce0f2672539412f7",
          "blockNumber": "0x2f9f9bd",
          "transactionHash": "0xa61aea282e9cc2d252c83197a42143a729b53d9a9219369da53dc9820b805a59",
          "transactionIndex": "0xd6",
          "logIndex": "0x4fd",
          "removed": false
        },
        {
          "address": "0x1a44076050125825900e736c501f859c50fe728c",
          "topics": [
            "0x4e0a5bbfa0c11a64effb1ada324b5437a17272e1aed9320398715ef71bb20928"
          ],
          "data": "0x000000000000000000000000c099ab708e20e8b25c63ca156d7cc94404c55416000000000000000000000000000000000000000000000000000000000000768300000000000000000000000000000000000000000000000000000000000000000000000000000000000000000000000000000000000000000000000000000000",
          "blockHash": "0xcbf55cc54deab3f67a70902c37a6086706875c11b8a011a1ce0f2672539412f7",
          "blockNumber": "0x2f9f9bd",
          "transactionHash": "0xa61aea282e9cc2d252c83197a42143a729b53d9a9219369da53dc9820b805a59",
          "transactionIndex": "0xd6",
          "logIndex": "0x4fe",
          "removed": false
        }
      ],
      "logsBloom": "0x00000000000000000000020800000000000000000000000000000000001000020400000000000000000000000000000000000000000000000000000000000000000000000000000000000000000000000000000000800000000000000000000000000000000000000000000000000000000000000010000000000000000000100000000000000000000000000000000000000000000000000000000000000000000000000000000000000000000000000000000000000000000000000000000000000000000000000000000000000000000000000000000000000000000000000000000000000000000000000000000000000000010000000000000000000000",
      "type": "0x0",
      "transactionHash": "0xa61aea282e9cc2d252c83197a42143a729b53d9a9219369da53dc9820b805a59",
      "transactionIndex": "0xd6",
      "blockHash": "0xcbf55cc54deab3f67a70902c37a6086706875c11b8a011a1ce0f2672539412f7",
      "blockNumber": "0x2f9f9bd",
      "gasUsed": "0xfba1",
      "effectiveGasPrice": "0x5f5e100",
      "from": "0x4c51ce7b2546e18449fbe16738a8d55bc195a4dd",
      "to": "0x1a44076050125825900e736c501f859c50fe728c",
      "contractAddress": null
    },
    {
      "status": "0x1",
      "cumulativeGasUsed": "0x25711b5",
      "logs": [
        {
          "address": "0xc099ab708e20e8b25c63ca156d7cc94404c55416",
          "topics": [
            "0xbe4864a8e820971c0247f5992e2da559595f7bf076a21cb5928d443d2a13b674"
          ],
          "data": "0x00000000000000000000000000000000000000000000000000000000000000200000000000000000000000000000000000000000000000000000000000000002000000000000000000000000000000000000000000000000000000000000004000000000000000000000000000000000000000000000000000000000000000e0000000000000000000000000000000000000000000000000000000000000769a0000000000000000000000000000000000000000000000000000000000000001000000000000000000000000000000000000000000000000000000000000006000000000000000000000000000000000000000000000000000000000000000160003010011010000000000000000000000000002981000000000000000000000000000000000000000000000000000000000000000000000000000000000769a00000000000000000000000000000000000000000000000000000000000000020000000000000000000000000000000000000000000000000000000000000060000000000000000000000000000000000000000000000000000000000000002c00030100110100000000000000000000000000029810010013030000000000000000000000000000000298100000000000000000000000000000000000000000",
          "blockHash": "0x163e6de2113caaada754335eb81c7929f92a688f5ec256fee07f83c726d55c1e",
          "blockNumber": "0x2f9f9be",
          "transactionHash": "0xbefc10dc6b4226ae207501f87df7f80832e98c5b5fc7f7533bb97e2d49ffc265",
          "transactionIndex": "0xc6",
          "logIndex": "0x645",
          "removed": false
        }
      ],
      "logsBloom": "0x00000000000000000000000000000000000000000000000000000000000000000000000000000000000000000000000000000000000000000000400000000000000000000000000000000000000000000000000000000000000000000000000000000000000000000000000000000000000000000000000000000000000000000000000000000000000000000000000000000000000000000000010000080000000000000000000000000800000000000000000000000000000000000000000000000000000000000000000002000000000000000000000000000000000000000000000000000000000000000000000000000000000000040000000000000000",
      "type": "0x0",
      "transactionHash": "0xbefc10dc6b4226ae207501f87df7f80832e98c5b5fc7f7533bb97e2d49ffc265",
      "transactionIndex": "0xc6",
      "blockHash": "0x163e6de2113caaada754335eb81c7929f92a688f5ec256fee07f83c726d55c1e",
      "blockNumber": "0x2f9f9be",
      "gasUsed": "0x1fd43",
      "effectiveGasPrice": "0x5f5e100",
      "from": "0x4c51ce7b2546e18449fbe16738a8d55bc195a4dd",
      "to": "0xc099ab708e20e8b25c63ca156d7cc94404c55416",
      "contractAddress": null
    },
    {
      "status": "0x1",
      "cumulativeGasUsed": "0x2590ef8",
      "logs": [
        {
          "address": "0xc099ab708e20e8b25c63ca156d7cc94404c55416",
          "topics": [
            "0xbe4864a8e820971c0247f5992e2da559595f7bf076a21cb5928d443d2a13b674"
          ],
          "data": "0x00000000000000000000000000000000000000000000000000000000000000200000000000000000000000000000000000000000000000000000000000000002000000000000000000000000000000000000000000000000000000000000004000000000000000000000000000000000000000000000000000000000000000e000000000000000000000000000000000000000000000000000000000000075e8000000000000000000000000000000000000000000000000000000000000000100000000000000000000000000000000000000000000000000000000000000600000000000000000000000000000000000000000000000000000000000000016000301001101000000000000000000000000000298100000000000000000000000000000000000000000000000000000000000000000000000000000000075e800000000000000000000000000000000000000000000000000000000000000020000000000000000000000000000000000000000000000000000000000000060000000000000000000000000000000000000000000000000000000000000002c00030100110100000000000000000000000000029810010013030000000000000000000000000000000298100000000000000000000000000000000000000000",
          "blockHash": "0x163e6de2113caaada754335eb81c7929f92a688f5ec256fee07f83c726d55c1e",
          "blockNumber": "0x2f9f9be",
          "transactionHash": "0x8585f93249478be661a668dd8f9bf871a8440cb3f56a71c314f620cdc85fcfdf",
          "transactionIndex": "0xc7",
          "logIndex": "0x646",
          "removed": false
        }
      ],
      "logsBloom": "0x00000000000000000000000000000000000000000000000000000000000000000000000000000000000000000000000000000000000000000000400000000000000000000000000000000000000000000000000000000000000000000000000000000000000000000000000000000000000000000000000000000000000000000000000000000000000000000000000000000000000000000000010000080000000000000000000000000800000000000000000000000000000000000000000000000000000000000000000002000000000000000000000000000000000000000000000000000000000000000000000000000000000000040000000000000000",
      "type": "0x0",
      "transactionHash": "0x8585f93249478be661a668dd8f9bf871a8440cb3f56a71c314f620cdc85fcfdf",
      "transactionIndex": "0xc7",
      "blockHash": "0x163e6de2113caaada754335eb81c7929f92a688f5ec256fee07f83c726d55c1e",
      "blockNumber": "0x2f9f9be",
      "gasUsed": "0x1fd43",
      "effectiveGasPrice": "0x5f5e100",
      "from": "0x4c51ce7b2546e18449fbe16738a8d55bc195a4dd",
      "to": "0xc099ab708e20e8b25c63ca156d7cc94404c55416",
      "contractAddress": null
    },
    {
      "status": "0x1",
      "cumulativeGasUsed": "0x25b0c3b",
      "logs": [
        {
          "address": "0xc099ab708e20e8b25c63ca156d7cc94404c55416",
          "topics": [
            "0xbe4864a8e820971c0247f5992e2da559595f7bf076a21cb5928d443d2a13b674"
          ],
          "data": "0x00000000000000000000000000000000000000000000000000000000000000200000000000000000000000000000000000000000000000000000000000000002000000000000000000000000000000000000000000000000000000000000004000000000000000000000000000000000000000000000000000000000000000e0000000000000000000000000000000000000000000000000000000000000759f0000000000000000000000000000000000000000000000000000000000000001000000000000000000000000000000000000000000000000000000000000006000000000000000000000000000000000000000000000000000000000000000160003010011010000000000000000000000000002981000000000000000000000000000000000000000000000000000000000000000000000000000000000759f00000000000000000000000000000000000000000000000000000000000000020000000000000000000000000000000000000000000000000000000000000060000000000000000000000000000000000000000000000000000000000000002c00030100110100000000000000000000000000029810010013030000000000000000000000000000000298100000000000000000000000000000000000000000",
          "blockHash": "0x163e6de2113caaada754335eb81c7929f92a688f5ec256fee07f83c726d55c1e",
          "blockNumber": "0x2f9f9be",
          "transactionHash": "0xd0cddb440fd8c6556b417f1c22849e560505df1841d8d5bea8ab4862bd54ad19",
          "transactionIndex": "0xc8",
          "logIndex": "0x647",
          "removed": false
        }
      ],
      "logsBloom": "0x00000000000000000000000000000000000000000000000000000000000000000000000000000000000000000000000000000000000000000000400000000000000000000000000000000000000000000000000000000000000000000000000000000000000000000000000000000000000000000000000000000000000000000000000000000000000000000000000000000000000000000000010000080000000000000000000000000800000000000000000000000000000000000000000000000000000000000000000002000000000000000000000000000000000000000000000000000000000000000000000000000000000000040000000000000000",
      "type": "0x0",
      "transactionHash": "0xd0cddb440fd8c6556b417f1c22849e560505df1841d8d5bea8ab4862bd54ad19",
      "transactionIndex": "0xc8",
      "blockHash": "0x163e6de2113caaada754335eb81c7929f92a688f5ec256fee07f83c726d55c1e",
      "blockNumber": "0x2f9f9be",
      "gasUsed": "0x1fd43",
      "effectiveGasPrice": "0x5f5e100",
      "from": "0x4c51ce7b2546e18449fbe16738a8d55bc195a4dd",
      "to": "0xc099ab708e20e8b25c63ca156d7cc94404c55416",
      "contractAddress": null
    },
    {
      "status": "0x1",
      "cumulativeGasUsed": "0x25d097e",
      "logs": [
        {
          "address": "0xc099ab708e20e8b25c63ca156d7cc94404c55416",
          "topics": [
            "0xbe4864a8e820971c0247f5992e2da559595f7bf076a21cb5928d443d2a13b674"
          ],
          "data": "0x00000000000000000000000000000000000000000000000000000000000000200000000000000000000000000000000000000000000000000000000000000002000000000000000000000000000000000000000000000000000000000000004000000000000000000000000000000000000000000000000000000000000000e0000000000000000000000000000000000000000000000000000000000000759e0000000000000000000000000000000000000000000000000000000000000001000000000000000000000000000000000000000000000000000000000000006000000000000000000000000000000000000000000000000000000000000000160003010011010000000000000000000000000002981000000000000000000000000000000000000000000000000000000000000000000000000000000000759e00000000000000000000000000000000000000000000000000000000000000020000000000000000000000000000000000000000000000000000000000000060000000000000000000000000000000000000000000000000000000000000002c00030100110100000000000000000000000000029810010013030000000000000000000000000000000298100000000000000000000000000000000000000000",
          "blockHash": "0x163e6de2113caaada754335eb81c7929f92a688f5ec256fee07f83c726d55c1e",
          "blockNumber": "0x2f9f9be",
          "transactionHash": "0xa1d1ebd317229e087313a76a653fa031e4140c0277a76fab22d5765656353631",
          "transactionIndex": "0xc9",
          "logIndex": "0x648",
          "removed": false
        }
      ],
      "logsBloom": "0x00000000000000000000000000000000000000000000000000000000000000000000000000000000000000000000000000000000000000000000400000000000000000000000000000000000000000000000000000000000000000000000000000000000000000000000000000000000000000000000000000000000000000000000000000000000000000000000000000000000000000000000010000080000000000000000000000000800000000000000000000000000000000000000000000000000000000000000000002000000000000000000000000000000000000000000000000000000000000000000000000000000000000040000000000000000",
      "type": "0x0",
      "transactionHash": "0xa1d1ebd317229e087313a76a653fa031e4140c0277a76fab22d5765656353631",
      "transactionIndex": "0xc9",
      "blockHash": "0x163e6de2113caaada754335eb81c7929f92a688f5ec256fee07f83c726d55c1e",
      "blockNumber": "0x2f9f9be",
      "gasUsed": "0x1fd43",
      "effectiveGasPrice": "0x5f5e100",
      "from": "0x4c51ce7b2546e18449fbe16738a8d55bc195a4dd",
      "to": "0xc099ab708e20e8b25c63ca156d7cc94404c55416",
      "contractAddress": null
    },
    {
      "status": "0x1",
      "cumulativeGasUsed": "0x25f06c1",
      "logs": [
        {
          "address": "0xc099ab708e20e8b25c63ca156d7cc94404c55416",
          "topics": [
            "0xbe4864a8e820971c0247f5992e2da559595f7bf076a21cb5928d443d2a13b674"
          ],
          "data": "0x00000000000000000000000000000000000000000000000000000000000000200000000000000000000000000000000000000000000000000000000000000002000000000000000000000000000000000000000000000000000000000000004000000000000000000000000000000000000000000000000000000000000000e000000000000000000000000000000000000000000000000000000000000075950000000000000000000000000000000000000000000000000000000000000001000000000000000000000000000000000000000000000000000000000000006000000000000000000000000000000000000000000000000000000000000000160003010011010000000000000000000000000002981000000000000000000000000000000000000000000000000000000000000000000000000000000000759500000000000000000000000000000000000000000000000000000000000000020000000000000000000000000000000000000000000000000000000000000060000000000000000000000000000000000000000000000000000000000000002c00030100110100000000000000000000000000029810010013030000000000000000000000000000000298100000000000000000000000000000000000000000",
          "blockHash": "0x163e6de2113caaada754335eb81c7929f92a688f5ec256fee07f83c726d55c1e",
          "blockNumber": "0x2f9f9be",
          "transactionHash": "0x575c4cb92bdef370a570eec2b666a8e94a5d063cc8e5aa12397512cf1415f2a0",
          "transactionIndex": "0xca",
          "logIndex": "0x649",
          "removed": false
        }
      ],
      "logsBloom": "0x00000000000000000000000000000000000000000000000000000000000000000000000000000000000000000000000000000000000000000000400000000000000000000000000000000000000000000000000000000000000000000000000000000000000000000000000000000000000000000000000000000000000000000000000000000000000000000000000000000000000000000000010000080000000000000000000000000800000000000000000000000000000000000000000000000000000000000000000002000000000000000000000000000000000000000000000000000000000000000000000000000000000000040000000000000000",
      "type": "0x0",
      "transactionHash": "0x575c4cb92bdef370a570eec2b666a8e94a5d063cc8e5aa12397512cf1415f2a0",
      "transactionIndex": "0xca",
      "blockHash": "0x163e6de2113caaada754335eb81c7929f92a688f5ec256fee07f83c726d55c1e",
      "blockNumber": "0x2f9f9be",
      "gasUsed": "0x1fd43",
      "effectiveGasPrice": "0x5f5e100",
      "from": "0x4c51ce7b2546e18449fbe16738a8d55bc195a4dd",
      "to": "0xc099ab708e20e8b25c63ca156d7cc94404c55416",
      "contractAddress": null
    },
    {
      "status": "0x1",
      "cumulativeGasUsed": "0x2610404",
      "logs": [
        {
          "address": "0xc099ab708e20e8b25c63ca156d7cc94404c55416",
          "topics": [
            "0xbe4864a8e820971c0247f5992e2da559595f7bf076a21cb5928d443d2a13b674"
          ],
          "data": "0x00000000000000000000000000000000000000000000000000000000000000200000000000000000000000000000000000000000000000000000000000000002000000000000000000000000000000000000000000000000000000000000004000000000000000000000000000000000000000000000000000000000000000e000000000000000000000000000000000000000000000000000000000000076830000000000000000000000000000000000000000000000000000000000000001000000000000000000000000000000000000000000000000000000000000006000000000000000000000000000000000000000000000000000000000000000160003010011010000000000000000000000000002981000000000000000000000000000000000000000000000000000000000000000000000000000000000768300000000000000000000000000000000000000000000000000000000000000020000000000000000000000000000000000000000000000000000000000000060000000000000000000000000000000000000000000000000000000000000002c00030100110100000000000000000000000000029810010013030000000000000000000000000000000298100000000000000000000000000000000000000000",
          "blockHash": "0x163e6de2113caaada754335eb81c7929f92a688f5ec256fee07f83c726d55c1e",
          "blockNumber": "0x2f9f9be",
          "transactionHash": "0xf5861d5e78a6831fac776ada588cbd883c354c448a442116f1a565d45b1f6548",
          "transactionIndex": "0xcb",
          "logIndex": "0x64a",
          "removed": false
        }
      ],
      "logsBloom": "0x00000000000000000000000000000000000000000000000000000000000000000000000000000000000000000000000000000000000000000000400000000000000000000000000000000000000000000000000000000000000000000000000000000000000000000000000000000000000000000000000000000000000000000000000000000000000000000000000000000000000000000000010000080000000000000000000000000800000000000000000000000000000000000000000000000000000000000000000002000000000000000000000000000000000000000000000000000000000000000000000000000000000000040000000000000000",
      "type": "0x0",
      "transactionHash": "0xf5861d5e78a6831fac776ada588cbd883c354c448a442116f1a565d45b1f6548",
      "transactionIndex": "0xcb",
      "blockHash": "0x163e6de2113caaada754335eb81c7929f92a688f5ec256fee07f83c726d55c1e",
      "blockNumber": "0x2f9f9be",
      "gasUsed": "0x1fd43",
      "effectiveGasPrice": "0x5f5e100",
      "from": "0x4c51ce7b2546e18449fbe16738a8d55bc195a4dd",
      "to": "0xc099ab708e20e8b25c63ca156d7cc94404c55416",
      "contractAddress": null
    },
    {
      "status": "0x1",
      "cumulativeGasUsed": "0x2632393",
      "logs": [
        {
          "address": "0x9f8c645f2d0b2159767bd6e0839de4be49e823de",
          "topics": [
            "0x82118522aa536ac0e96cc5c689407ae42b89d592aa133890a01f1509842f5081"
          ],
          "data": "0x000000000000000000000000c099ab708e20e8b25c63ca156d7cc94404c55416000000000000000000000000000000000000000000000000000000000000769a0000000000000000000000000000000000000000000000000000000000000060000000000000000000000000000000000000000000000000000000000000002000000000000000000000000000000000000000000000000000000000000000020000000000000000000000000000000000000000000000000000000000000000000000000000000000000000000000000000000000000000000000000000000000000000000000000000000000000000000000000000000000000000000000c00000000000000000000000000000000000000000000000000000000000000120000000000000000000000000000000000000000000000000000000000000000200000000000000000000000031f748a368a893bdb5abb67ec95f232507601a73000000000000000000000000fd6865c841c2d64565562fcc7e05e619a30615f00000000000000000000000000000000000000000000000000000000000000000",
          "blockHash": "0x163e6de2113caaada754335eb81c7929f92a688f5ec256fee07f83c726d55c1e",
          "blockNumber": "0x2f9f9be",
          "transactionHash": "0x761797e1c3f1704e309fbe69d342ca786beba4cff4face42221e0fe88e77f24a",
          "transactionIndex": "0xcc",
          "logIndex": "0x64b",
          "removed": false
        }
      ],
      "logsBloom": "0x00000000000000000000000000000040000000000000000000000000000000000000000000000000000000000000000000000000000000000000000000000000000000000000000000000000000000000000000000000000002000000000000000000000000000000000000000000000000000000000000000000000000001000000000000000000000000000000000000000000000000000000000000000000000000000000000000000002000000000000000000000000000004000000000000000000000000000000000000000000000000000000000000000000000000000000000000000000000000000000000000000000000000000000000000000010",
      "type": "0x0",
      "transactionHash": "0x761797e1c3f1704e309fbe69d342ca786beba4cff4face42221e0fe88e77f24a",
      "transactionIndex": "0xcc",
      "blockHash": "0x163e6de2113caaada754335eb81c7929f92a688f5ec256fee07f83c726d55c1e",
      "blockNumber": "0x2f9f9be",
      "gasUsed": "0x21f8f",
      "effectiveGasPrice": "0x5f5e100",
      "from": "0x4c51ce7b2546e18449fbe16738a8d55bc195a4dd",
      "to": "0x1a44076050125825900e736c501f859c50fe728c",
      "contractAddress": null
    },
    {
      "status": "0x1",
      "cumulativeGasUsed": "0x2654226",
      "logs": [
        {
          "address": "0xb217266c3a98c8b2709ee26836c98cf12f6ccec1",
          "topics": [
            "0x82118522aa536ac0e96cc5c689407ae42b89d592aa133890a01f1509842f5081"
          ],
          "data": "0x000000000000000000000000c099ab708e20e8b25c63ca156d7cc94404c55416000000000000000000000000000000000000000000000000000000000000769a0000000000000000000000000000000000000000000000000000000000000060000000000000000000000000000000000000000000000000000000000000002000000000000000000000000000000000000000000000000000000000000000020000000000000000000000000000000000000000000000000000000000000000000000000000000000000000000000000000000000000000000000000000000000000000000000000000000000000000000000000000000000000000000000c00000000000000000000000000000000000000000000000000000000000000120000000000000000000000000000000000000000000000000000000000000000200000000000000000000000031f748a368a893bdb5abb67ec95f232507601a73000000000000000000000000fd6865c841c2d64565562fcc7e05e619a30615f00000000000000000000000000000000000000000000000000000000000000000",
          "blockHash": "0x163e6de2113caaada754335eb81c7929f92a688f5ec256fee07f83c726d55c1e",
          "blockNumber": "0x2f9f9be",
          "transactionHash": "0xc39f0c4ba58c162519513648dcaa3bf1f4a2352a73aedf71f191e2964e32294e",
          "transactionIndex": "0xcd",
          "logIndex": "0x64c",
          "removed": false
        }
      ],
      "logsBloom": "0x00002000000000000000000000000000000000000000000000000000000000000000000000000000000000000000000000000000000000000000000000000000400000000000000000000000000000000000000000000000002000000000000000000000000000000000000000000000000000000000000000000000000000000000000000000000000000000000000000000000000000000000000000000000000000000000000000000002000000000000000000000000000000000000000000000000000000000000000000000000000000000000000000000800000000000000000000000000000000000000000000000000000000000000000000000010",
      "type": "0x0",
      "transactionHash": "0xc39f0c4ba58c162519513648dcaa3bf1f4a2352a73aedf71f191e2964e32294e",
      "transactionIndex": "0xcd",
      "blockHash": "0x163e6de2113caaada754335eb81c7929f92a688f5ec256fee07f83c726d55c1e",
      "blockNumber": "0x2f9f9be",
      "gasUsed": "0x21e93",
      "effectiveGasPrice": "0x5f5e100",
      "from": "0x4c51ce7b2546e18449fbe16738a8d55bc195a4dd",
      "to": "0x1a44076050125825900e736c501f859c50fe728c",
      "contractAddress": null
    },
    {
      "status": "0x1",
      "cumulativeGasUsed": "0x26761b5",
      "logs": [
        {
          "address": "0x9f8c645f2d0b2159767bd6e0839de4be49e823de",
          "topics": [
            "0x82118522aa536ac0e96cc5c689407ae42b89d592aa133890a01f1509842f5081"
          ],
          "data": "0x000000000000000000000000c099ab708e20e8b25c63ca156d7cc94404c5541600000000000000000000000000000000000000000000000000000000000075e80000000000000000000000000000000000000000000000000000000000000060000000000000000000000000000000000000000000000000000000000000002000000000000000000000000000000000000000000000000000000000000000020000000000000000000000000000000000000000000000000000000000000000000000000000000000000000000000000000000000000000000000000000000000000000000000000000000000000000000000000000000000000000000000c00000000000000000000000000000000000000000000000000000000000000120000000000000000000000000000000000000000000000000000000000000000200000000000000000000000031f748a368a893bdb5abb67ec95f232507601a73000000000000000000000000fd6865c841c2d64565562fcc7e05e619a30615f00000000000000000000000000000000000000000000000000000000000000000",
          "blockHash": "0x163e6de2113caaada754335eb81c7929f92a688f5ec256fee07f83c726d55c1e",
          "blockNumber": "0x2f9f9be",
          "transactionHash": "0x4f53f71508a24ff75dca118372f92120784a5898f1a4c0a0bca5e1a71e8e7be5",
          "transactionIndex": "0xce",
          "logIndex": "0x64d",
          "removed": false
        }
      ],
      "logsBloom": "0x00000000000000000000000000000040000000000000000000000000000000000000000000000000000000000000000000000000000000000000000000000000000000000000000000000000000000000000000000000000002000000000000000000000000000000000000000000000000000000000000000000000000001000000000000000000000000000000000000000000000000000000000000000000000000000000000000000002000000000000000000000000000004000000000000000000000000000000000000000000000000000000000000000000000000000000000000000000000000000000000000000000000000000000000000000010",
      "type": "0x0",
      "transactionHash": "0x4f53f71508a24ff75dca118372f92120784a5898f1a4c0a0bca5e1a71e8e7be5",
      "transactionIndex": "0xce",
      "blockHash": "0x163e6de2113caaada754335eb81c7929f92a688f5ec256fee07f83c726d55c1e",
      "blockNumber": "0x2f9f9be",
      "gasUsed": "0x21f8f",
      "effectiveGasPrice": "0x5f5e100",
      "from": "0x4c51ce7b2546e18449fbe16738a8d55bc195a4dd",
      "to": "0x1a44076050125825900e736c501f859c50fe728c",
      "contractAddress": null
    },
    {
      "status": "0x1",
      "cumulativeGasUsed": "0x2698048",
      "logs": [
        {
          "address": "0xb217266c3a98c8b2709ee26836c98cf12f6ccec1",
          "topics": [
            "0x82118522aa536ac0e96cc5c689407ae42b89d592aa133890a01f1509842f5081"
          ],
          "data": "0x000000000000000000000000c099ab708e20e8b25c63ca156d7cc94404c5541600000000000000000000000000000000000000000000000000000000000075e80000000000000000000000000000000000000000000000000000000000000060000000000000000000000000000000000000000000000000000000000000002000000000000000000000000000000000000000000000000000000000000000020000000000000000000000000000000000000000000000000000000000000000000000000000000000000000000000000000000000000000000000000000000000000000000000000000000000000000000000000000000000000000000000c00000000000000000000000000000000000000000000000000000000000000120000000000000000000000000000000000000000000000000000000000000000200000000000000000000000031f748a368a893bdb5abb67ec95f232507601a73000000000000000000000000fd6865c841c2d64565562fcc7e05e619a30615f00000000000000000000000000000000000000000000000000000000000000000",
          "blockHash": "0x163e6de2113caaada754335eb81c7929f92a688f5ec256fee07f83c726d55c1e",
          "blockNumber": "0x2f9f9be",
          "transactionHash": "0x33ad3bebb523106d24f6e292a1af8b2ad92d8626c3fde2d673c6f74485297aa4",
          "transactionIndex": "0xcf",
          "logIndex": "0x64e",
          "removed": false
        }
      ],
      "logsBloom": "0x00002000000000000000000000000000000000000000000000000000000000000000000000000000000000000000000000000000000000000000000000000000400000000000000000000000000000000000000000000000002000000000000000000000000000000000000000000000000000000000000000000000000000000000000000000000000000000000000000000000000000000000000000000000000000000000000000000002000000000000000000000000000000000000000000000000000000000000000000000000000000000000000000000800000000000000000000000000000000000000000000000000000000000000000000000010",
      "type": "0x0",
      "transactionHash": "0x33ad3bebb523106d24f6e292a1af8b2ad92d8626c3fde2d673c6f74485297aa4",
      "transactionIndex": "0xcf",
      "blockHash": "0x163e6de2113caaada754335eb81c7929f92a688f5ec256fee07f83c726d55c1e",
      "blockNumber": "0x2f9f9be",
      "gasUsed": "0x21e93",
      "effectiveGasPrice": "0x5f5e100",
      "from": "0x4c51ce7b2546e18449fbe16738a8d55bc195a4dd",
      "to": "0x1a44076050125825900e736c501f859c50fe728c",
      "contractAddress": null
    },
    {
      "status": "0x1",
      "cumulativeGasUsed": "0x26b9fd7",
      "logs": [
        {
          "address": "0x9f8c645f2d0b2159767bd6e0839de4be49e823de",
          "topics": [
            "0x82118522aa536ac0e96cc5c689407ae42b89d592aa133890a01f1509842f5081"
          ],
          "data": "0x000000000000000000000000c099ab708e20e8b25c63ca156d7cc94404c55416000000000000000000000000000000000000000000000000000000000000759f0000000000000000000000000000000000000000000000000000000000000060000000000000000000000000000000000000000000000000000000000000002000000000000000000000000000000000000000000000000000000000000000020000000000000000000000000000000000000000000000000000000000000000000000000000000000000000000000000000000000000000000000000000000000000000000000000000000000000000000000000000000000000000000000c00000000000000000000000000000000000000000000000000000000000000120000000000000000000000000000000000000000000000000000000000000000200000000000000000000000031f748a368a893bdb5abb67ec95f232507601a73000000000000000000000000fd6865c841c2d64565562fcc7e05e619a30615f00000000000000000000000000000000000000000000000000000000000000000",
          "blockHash": "0x163e6de2113caaada754335eb81c7929f92a688f5ec256fee07f83c726d55c1e",
          "blockNumber": "0x2f9f9be",
          "transactionHash": "0x7f80c9433d6d56fb6e0cc9cc64527c04f46fec233227d7beb42eecd3b1fa9e54",
          "transactionIndex": "0xd0",
          "logIndex": "0x64f",
          "removed": false
        }
      ],
      "logsBloom": "0x00000000000000000000000000000040000000000000000000000000000000000000000000000000000000000000000000000000000000000000000000000000000000000000000000000000000000000000000000000000002000000000000000000000000000000000000000000000000000000000000000000000000001000000000000000000000000000000000000000000000000000000000000000000000000000000000000000002000000000000000000000000000004000000000000000000000000000000000000000000000000000000000000000000000000000000000000000000000000000000000000000000000000000000000000000010",
      "type": "0x0",
      "transactionHash": "0x7f80c9433d6d56fb6e0cc9cc64527c04f46fec233227d7beb42eecd3b1fa9e54",
      "transactionIndex": "0xd0",
      "blockHash": "0x163e6de2113caaada754335eb81c7929f92a688f5ec256fee07f83c726d55c1e",
      "blockNumber": "0x2f9f9be",
      "gasUsed": "0x21f8f",
      "effectiveGasPrice": "0x5f5e100",
      "from": "0x4c51ce7b2546e18449fbe16738a8d55bc195a4dd",
      "to": "0x1a44076050125825900e736c501f859c50fe728c",
      "contractAddress": null
    },
    {
      "status": "0x1",
      "cumulativeGasUsed": "0x26dbe6a",
      "logs": [
        {
          "address": "0xb217266c3a98c8b2709ee26836c98cf12f6ccec1",
          "topics": [
            "0x82118522aa536ac0e96cc5c689407ae42b89d592aa133890a01f1509842f5081"
          ],
          "data": "0x000000000000000000000000c099ab708e20e8b25c63ca156d7cc94404c55416000000000000000000000000000000000000000000000000000000000000759f0000000000000000000000000000000000000000000000000000000000000060000000000000000000000000000000000000000000000000000000000000002000000000000000000000000000000000000000000000000000000000000000020000000000000000000000000000000000000000000000000000000000000000000000000000000000000000000000000000000000000000000000000000000000000000000000000000000000000000000000000000000000000000000000c00000000000000000000000000000000000000000000000000000000000000120000000000000000000000000000000000000000000000000000000000000000200000000000000000000000031f748a368a893bdb5abb67ec95f232507601a73000000000000000000000000fd6865c841c2d64565562fcc7e05e619a30615f00000000000000000000000000000000000000000000000000000000000000000",
          "blockHash": "0x163e6de2113caaada754335eb81c7929f92a688f5ec256fee07f83c726d55c1e",
          "blockNumber": "0x2f9f9be",
          "transactionHash": "0xcb2e5362cca3885f14d882d9eda61d70bd2bd459f6e5111fda450d928ddb9e4a",
          "transactionIndex": "0xd1",
          "logIndex": "0x650",
          "removed": false
        }
      ],
      "logsBloom": "0x00002000000000000000000000000000000000000000000000000000000000000000000000000000000000000000000000000000000000000000000000000000400000000000000000000000000000000000000000000000002000000000000000000000000000000000000000000000000000000000000000000000000000000000000000000000000000000000000000000000000000000000000000000000000000000000000000000002000000000000000000000000000000000000000000000000000000000000000000000000000000000000000000000800000000000000000000000000000000000000000000000000000000000000000000000010",
      "type": "0x0",
      "transactionHash": "0xcb2e5362cca3885f14d882d9eda61d70bd2bd459f6e5111fda450d928ddb9e4a",
      "transactionIndex": "0xd1",
      "blockHash": "0x163e6de2113caaada754335eb81c7929f92a688f5ec256fee07f83c726d55c1e",
      "blockNumber": "0x2f9f9be",
      "gasUsed": "0x21e93",
      "effectiveGasPrice": "0x5f5e100",
      "from": "0x4c51ce7b2546e18449fbe16738a8d55bc195a4dd",
      "to": "0x1a44076050125825900e736c501f859c50fe728c",
      "contractAddress": null
    },
    {
      "status": "0x1",
      "cumulativeGasUsed": "0x26fddf9",
      "logs": [
        {
          "address": "0x9f8c645f2d0b2159767bd6e0839de4be49e823de",
          "topics": [
            "0x82118522aa536ac0e96cc5c689407ae42b89d592aa133890a01f1509842f5081"
          ],
          "data": "0x000000000000000000000000c099ab708e20e8b25c63ca156d7cc94404c55416000000000000000000000000000000000000000000000000000000000000759e0000000000000000000000000000000000000000000000000000000000000060000000000000000000000000000000000000000000000000000000000000002000000000000000000000000000000000000000000000000000000000000000020000000000000000000000000000000000000000000000000000000000000000000000000000000000000000000000000000000000000000000000000000000000000000000000000000000000000000000000000000000000000000000000c00000000000000000000000000000000000000000000000000000000000000120000000000000000000000000000000000000000000000000000000000000000200000000000000000000000031f748a368a893bdb5abb67ec95f232507601a73000000000000000000000000fd6865c841c2d64565562fcc7e05e619a30615f00000000000000000000000000000000000000000000000000000000000000000",
          "blockHash": "0x163e6de2113caaada754335eb81c7929f92a688f5ec256fee07f83c726d55c1e",
          "blockNumber": "0x2f9f9be",
          "transactionHash": "0x0d0fb588b71b086c3a8c5f326dad9997ae774e22794e7909f1ac2bfc8b066be7",
          "transactionIndex": "0xd2",
          "logIndex": "0x651",
          "removed": false
        }
      ],
      "logsBloom": "0x00000000000000000000000000000040000000000000000000000000000000000000000000000000000000000000000000000000000000000000000000000000000000000000000000000000000000000000000000000000002000000000000000000000000000000000000000000000000000000000000000000000000001000000000000000000000000000000000000000000000000000000000000000000000000000000000000000002000000000000000000000000000004000000000000000000000000000000000000000000000000000000000000000000000000000000000000000000000000000000000000000000000000000000000000000010",
      "type": "0x0",
      "transactionHash": "0x0d0fb588b71b086c3a8c5f326dad9997ae774e22794e7909f1ac2bfc8b066be7",
      "transactionIndex": "0xd2",
      "blockHash": "0x163e6de2113caaada754335eb81c7929f92a688f5ec256fee07f83c726d55c1e",
      "blockNumber": "0x2f9f9be",
      "gasUsed": "0x21f8f",
      "effectiveGasPrice": "0x5f5e100",
      "from": "0x4c51ce7b2546e18449fbe16738a8d55bc195a4dd",
      "to": "0x1a44076050125825900e736c501f859c50fe728c",
      "contractAddress": null
    },
    {
      "status": "0x1",
      "cumulativeGasUsed": "0x271fc8c",
      "logs": [
        {
          "address": "0xb217266c3a98c8b2709ee26836c98cf12f6ccec1",
          "topics": [
            "0x82118522aa536ac0e96cc5c689407ae42b89d592aa133890a01f1509842f5081"
          ],
          "data": "0x000000000000000000000000c099ab708e20e8b25c63ca156d7cc94404c55416000000000000000000000000000000000000000000000000000000000000759e0000000000000000000000000000000000000000000000000000000000000060000000000000000000000000000000000000000000000000000000000000002000000000000000000000000000000000000000000000000000000000000000020000000000000000000000000000000000000000000000000000000000000000000000000000000000000000000000000000000000000000000000000000000000000000000000000000000000000000000000000000000000000000000000c00000000000000000000000000000000000000000000000000000000000000120000000000000000000000000000000000000000000000000000000000000000200000000000000000000000031f748a368a893bdb5abb67ec95f232507601a73000000000000000000000000fd6865c841c2d64565562fcc7e05e619a30615f00000000000000000000000000000000000000000000000000000000000000000",
          "blockHash": "0x163e6de2113caaada754335eb81c7929f92a688f5ec256fee07f83c726d55c1e",
          "blockNumber": "0x2f9f9be",
          "transactionHash": "0xb7a633ca7ca71381810e02ee87ee999583c04076647c75a45cc80ab6f9029b13",
          "transactionIndex": "0xd3",
          "logIndex": "0x652",
          "removed": false
        }
      ],
      "logsBloom": "0x00002000000000000000000000000000000000000000000000000000000000000000000000000000000000000000000000000000000000000000000000000000400000000000000000000000000000000000000000000000002000000000000000000000000000000000000000000000000000000000000000000000000000000000000000000000000000000000000000000000000000000000000000000000000000000000000000000002000000000000000000000000000000000000000000000000000000000000000000000000000000000000000000000800000000000000000000000000000000000000000000000000000000000000000000000010",
      "type": "0x0",
      "transactionHash": "0xb7a633ca7ca71381810e02ee87ee999583c04076647c75a45cc80ab6f9029b13",
      "transactionIndex": "0xd3",
      "blockHash": "0x163e6de2113caaada754335eb81c7929f92a688f5ec256fee07f83c726d55c1e",
      "blockNumber": "0x2f9f9be",
      "gasUsed": "0x21e93",
      "effectiveGasPrice": "0x5f5e100",
      "from": "0x4c51ce7b2546e18449fbe16738a8d55bc195a4dd",
      "to": "0x1a44076050125825900e736c501f859c50fe728c",
      "contractAddress": null
    },
    {
      "status": "0x1",
      "cumulativeGasUsed": "0x2741c1b",
      "logs": [
        {
          "address": "0x9f8c645f2d0b2159767bd6e0839de4be49e823de",
          "topics": [
            "0x82118522aa536ac0e96cc5c689407ae42b89d592aa133890a01f1509842f5081"
          ],
          "data": "0x000000000000000000000000c099ab708e20e8b25c63ca156d7cc94404c5541600000000000000000000000000000000000000000000000000000000000075950000000000000000000000000000000000000000000000000000000000000060000000000000000000000000000000000000000000000000000000000000002000000000000000000000000000000000000000000000000000000000000000020000000000000000000000000000000000000000000000000000000000000000000000000000000000000000000000000000000000000000000000000000000000000000000000000000000000000000000000000000000000000000000000c00000000000000000000000000000000000000000000000000000000000000120000000000000000000000000000000000000000000000000000000000000000200000000000000000000000031f748a368a893bdb5abb67ec95f232507601a73000000000000000000000000fd6865c841c2d64565562fcc7e05e619a30615f00000000000000000000000000000000000000000000000000000000000000000",
          "blockHash": "0x163e6de2113caaada754335eb81c7929f92a688f5ec256fee07f83c726d55c1e",
          "blockNumber": "0x2f9f9be",
          "transactionHash": "0x4be9bc5ddc454fb5eb83ef2f8437c2ebb03ca51ba9ea965722efc67dd5b870d0",
          "transactionIndex": "0xd4",
          "logIndex": "0x653",
          "removed": false
        }
      ],
      "logsBloom": "0x00000000000000000000000000000040000000000000000000000000000000000000000000000000000000000000000000000000000000000000000000000000000000000000000000000000000000000000000000000000002000000000000000000000000000000000000000000000000000000000000000000000000001000000000000000000000000000000000000000000000000000000000000000000000000000000000000000002000000000000000000000000000004000000000000000000000000000000000000000000000000000000000000000000000000000000000000000000000000000000000000000000000000000000000000000010",
      "type": "0x0",
      "transactionHash": "0x4be9bc5ddc454fb5eb83ef2f8437c2ebb03ca51ba9ea965722efc67dd5b870d0",
      "transactionIndex": "0xd4",
      "blockHash": "0x163e6de2113caaada754335eb81c7929f92a688f5ec256fee07f83c726d55c1e",
      "blockNumber": "0x2f9f9be",
      "gasUsed": "0x21f8f",
      "effectiveGasPrice": "0x5f5e100",
      "from": "0x4c51ce7b2546e18449fbe16738a8d55bc195a4dd",
      "to": "0x1a44076050125825900e736c501f859c50fe728c",
      "contractAddress": null
    },
    {
      "status": "0x1",
      "cumulativeGasUsed": "0x2763aae",
      "logs": [
        {
          "address": "0xb217266c3a98c8b2709ee26836c98cf12f6ccec1",
          "topics": [
            "0x82118522aa536ac0e96cc5c689407ae42b89d592aa133890a01f1509842f5081"
          ],
          "data": "0x000000000000000000000000c099ab708e20e8b25c63ca156d7cc94404c5541600000000000000000000000000000000000000000000000000000000000075950000000000000000000000000000000000000000000000000000000000000060000000000000000000000000000000000000000000000000000000000000002000000000000000000000000000000000000000000000000000000000000000020000000000000000000000000000000000000000000000000000000000000000000000000000000000000000000000000000000000000000000000000000000000000000000000000000000000000000000000000000000000000000000000c00000000000000000000000000000000000000000000000000000000000000120000000000000000000000000000000000000000000000000000000000000000200000000000000000000000031f748a368a893bdb5abb67ec95f232507601a73000000000000000000000000fd6865c841c2d64565562fcc7e05e619a30615f00000000000000000000000000000000000000000000000000000000000000000",
          "blockHash": "0x163e6de2113caaada754335eb81c7929f92a688f5ec256fee07f83c726d55c1e",
          "blockNumber": "0x2f9f9be",
          "transactionHash": "0xd4613cdef19f85614000207eca744d9eb1624e01ad6bf8fbce3793ed3b0f9e7c",
          "transactionIndex": "0xd5",
          "logIndex": "0x654",
          "removed": false
        }
      ],
      "logsBloom": "0x00002000000000000000000000000000000000000000000000000000000000000000000000000000000000000000000000000000000000000000000000000000400000000000000000000000000000000000000000000000002000000000000000000000000000000000000000000000000000000000000000000000000000000000000000000000000000000000000000000000000000000000000000000000000000000000000000000002000000000000000000000000000000000000000000000000000000000000000000000000000000000000000000000800000000000000000000000000000000000000000000000000000000000000000000000010",
      "type": "0x0",
      "transactionHash": "0xd4613cdef19f85614000207eca744d9eb1624e01ad6bf8fbce3793ed3b0f9e7c",
      "transactionIndex": "0xd5",
      "blockHash": "0x163e6de2113caaada754335eb81c7929f92a688f5ec256fee07f83c726d55c1e",
      "blockNumber": "0x2f9f9be",
      "gasUsed": "0x21e93",
      "effectiveGasPrice": "0x5f5e100",
      "from": "0x4c51ce7b2546e18449fbe16738a8d55bc195a4dd",
      "to": "0x1a44076050125825900e736c501f859c50fe728c",
      "contractAddress": null
    },
    {
      "status": "0x1",
      "cumulativeGasUsed": "0x2785a3d",
      "logs": [
        {
          "address": "0x9f8c645f2d0b2159767bd6e0839de4be49e823de",
          "topics": [
            "0x82118522aa536ac0e96cc5c689407ae42b89d592aa133890a01f1509842f5081"
          ],
          "data": "0x000000000000000000000000c099ab708e20e8b25c63ca156d7cc94404c5541600000000000000000000000000000000000000000000000000000000000076830000000000000000000000000000000000000000000000000000000000000060000000000000000000000000000000000000000000000000000000000000002000000000000000000000000000000000000000000000000000000000000000020000000000000000000000000000000000000000000000000000000000000000000000000000000000000000000000000000000000000000000000000000000000000000000000000000000000000000000000000000000000000000000000c00000000000000000000000000000000000000000000000000000000000000120000000000000000000000000000000000000000000000000000000000000000200000000000000000000000031f748a368a893bdb5abb67ec95f232507601a73000000000000000000000000fd6865c841c2d64565562fcc7e05e619a30615f00000000000000000000000000000000000000000000000000000000000000000",
          "blockHash": "0x163e6de2113caaada754335eb81c7929f92a688f5ec256fee07f83c726d55c1e",
          "blockNumber": "0x2f9f9be",
          "transactionHash": "0x21952517d364e24e5c7776aae1aae4d43bc06338c320ec856bbf19ef5e28fa5e",
          "transactionIndex": "0xd6",
          "logIndex": "0x655",
          "removed": false
        }
      ],
      "logsBloom": "0x00000000000000000000000000000040000000000000000000000000000000000000000000000000000000000000000000000000000000000000000000000000000000000000000000000000000000000000000000000000002000000000000000000000000000000000000000000000000000000000000000000000000001000000000000000000000000000000000000000000000000000000000000000000000000000000000000000002000000000000000000000000000004000000000000000000000000000000000000000000000000000000000000000000000000000000000000000000000000000000000000000000000000000000000000000010",
      "type": "0x0",
      "transactionHash": "0x21952517d364e24e5c7776aae1aae4d43bc06338c320ec856bbf19ef5e28fa5e",
      "transactionIndex": "0xd6",
      "blockHash": "0x163e6de2113caaada754335eb81c7929f92a688f5ec256fee07f83c726d55c1e",
      "blockNumber": "0x2f9f9be",
      "gasUsed": "0x21f8f",
      "effectiveGasPrice": "0x5f5e100",
      "from": "0x4c51ce7b2546e18449fbe16738a8d55bc195a4dd",
      "to": "0x1a44076050125825900e736c501f859c50fe728c",
      "contractAddress": null
    },
    {
      "status": "0x1",
      "cumulativeGasUsed": "0x27a78d0",
      "logs": [
        {
          "address": "0xb217266c3a98c8b2709ee26836c98cf12f6ccec1",
          "topics": [
            "0x82118522aa536ac0e96cc5c689407ae42b89d592aa133890a01f1509842f5081"
          ],
          "data": "0x000000000000000000000000c099ab708e20e8b25c63ca156d7cc94404c5541600000000000000000000000000000000000000000000000000000000000076830000000000000000000000000000000000000000000000000000000000000060000000000000000000000000000000000000000000000000000000000000002000000000000000000000000000000000000000000000000000000000000000020000000000000000000000000000000000000000000000000000000000000000000000000000000000000000000000000000000000000000000000000000000000000000000000000000000000000000000000000000000000000000000000c00000000000000000000000000000000000000000000000000000000000000120000000000000000000000000000000000000000000000000000000000000000200000000000000000000000031f748a368a893bdb5abb67ec95f232507601a73000000000000000000000000fd6865c841c2d64565562fcc7e05e619a30615f00000000000000000000000000000000000000000000000000000000000000000",
          "blockHash": "0x163e6de2113caaada754335eb81c7929f92a688f5ec256fee07f83c726d55c1e",
          "blockNumber": "0x2f9f9be",
          "transactionHash": "0x3eb54924f63472ef4c1651567e90410a0354a797c6e10443d45eca851222ec87",
          "transactionIndex": "0xd7",
          "logIndex": "0x656",
          "removed": false
        }
      ],
      "logsBloom": "0x00002000000000000000000000000000000000000000000000000000000000000000000000000000000000000000000000000000000000000000000000000000400000000000000000000000000000000000000000000000002000000000000000000000000000000000000000000000000000000000000000000000000000000000000000000000000000000000000000000000000000000000000000000000000000000000000000000002000000000000000000000000000000000000000000000000000000000000000000000000000000000000000000000800000000000000000000000000000000000000000000000000000000000000000000000010",
      "type": "0x0",
      "transactionHash": "0x3eb54924f63472ef4c1651567e90410a0354a797c6e10443d45eca851222ec87",
      "transactionIndex": "0xd7",
      "blockHash": "0x163e6de2113caaada754335eb81c7929f92a688f5ec256fee07f83c726d55c1e",
      "blockNumber": "0x2f9f9be",
      "gasUsed": "0x21e93",
      "effectiveGasPrice": "0x5f5e100",
      "from": "0x4c51ce7b2546e18449fbe16738a8d55bc195a4dd",
      "to": "0x1a44076050125825900e736c501f859c50fe728c",
      "contractAddress": null
    },
    {
      "status": "0x1",
      "cumulativeGasUsed": "0x27d77e6",
      "logs": [
        {
          "address": "0x1a44076050125825900e736c501f859c50fe728c",
          "topics": [
            "0x6ee10e9ed4d6ce9742703a498707862f4b00f1396a87195eb93267b3d7983981"
          ],
          "data": "0x000000000000000000000000c099ab708e20e8b25c63ca156d7cc94404c55416000000000000000000000000721688652dea9cabec70bd99411eaeab9485d436",
          "blockHash": "0x163e6de2113caaada754335eb81c7929f92a688f5ec256fee07f83c726d55c1e",
          "blockNumber": "0x2f9f9be",
          "transactionHash": "0xa688478c2664f2f43e38b4cc325c9f3a2ae38c28231ac2d41d2ae927ff225566",
          "transactionIndex": "0xd9",
          "logIndex": "0x65b",
          "removed": false
        }
      ],
      "logsBloom": "0x00000000000000000000000000000000000000000000000000800000001000000000000000000000000000000000000000000002000000000000000000000000000000000000000000000000000000000000000000000000000000000000000000000000000000000000000000000000000000000010000000000000000000000000000000000000000000000000000000000000000000000000000000000000000000000000000000000000000000000000000000000000000000000000000400000000000000000000000000000000000000000000000000000000000000000000000000000000000000000000000000000000010000000000000000000000",
      "type": "0x0",
      "transactionHash": "0xa688478c2664f2f43e38b4cc325c9f3a2ae38c28231ac2d41d2ae927ff225566",
      "transactionIndex": "0xd9",
      "blockHash": "0x163e6de2113caaada754335eb81c7929f92a688f5ec256fee07f83c726d55c1e",
      "blockNumber": "0x2f9f9be",
      "gasUsed": "0x976d",
      "effectiveGasPrice": "0x5f5e100",
      "from": "0x4c51ce7b2546e18449fbe16738a8d55bc195a4dd",
      "to": "0xc099ab708e20e8b25c63ca156d7cc94404c55416",
      "contractAddress": null
    }
  ],
  "libraries": [],
  "pending": [],
  "returns": {},
  "timestamp": 1747648622,
  "chain": 56,
  "commit": "26a0814"
}