{
  "transactions": [
    {
      "hash": "0x9a34cc4be293fa2765bc8ed73d7371f67881d5c4b2f700d149840a0894224689",
      "transactionType": "CALL",
      "contractName": null,
      "contractAddress": "0xc099ab708e20e8b25c63ca156d7cc94404c55416",
      "function": "setRateLimits((uint32,uint256,uint256)[])",
      "arguments": [
        "[(30101, 100000000000000000000000000, 3600), (30362, 100000000000000000000000000, 3600), (30184, 100000000000000000000000000, 3600), (30111, 100000000000000000000000000, 3600), (30110, 100000000000000000000000000, 3600), (30102, 100000000000000000000000000, 3600), (30339, 100000000000000000000000000, 3600)]"
      ],
      "transaction": {
        "from": "0x4c51ce7b2546e18449fbe16738a8d55bc195a4dd",
        "to": "0xc099ab708e20e8b25c63ca156d7cc94404c55416",
        "gas": "0xbd161",
        "value": "0x0",
        "input": "0x46f943e900000000000000000000000000000000000000000000000000000000000000200000000000000000000000000000000000000000000000000000000000000007000000000000000000000000000000000000000000000000000000000000759500000000000000000000000000000000000000000052b7d2dcc80cd2e40000000000000000000000000000000000000000000000000000000000000000000e10000000000000000000000000000000000000000000000000000000000000769a00000000000000000000000000000000000000000052b7d2dcc80cd2e40000000000000000000000000000000000000000000000000000000000000000000e1000000000000000000000000000000000000000000000000000000000000075e800000000000000000000000000000000000000000052b7d2dcc80cd2e40000000000000000000000000000000000000000000000000000000000000000000e10000000000000000000000000000000000000000000000000000000000000759f00000000000000000000000000000000000000000052b7d2dcc80cd2e40000000000000000000000000000000000000000000000000000000000000000000e10000000000000000000000000000000000000000000000000000000000000759e00000000000000000000000000000000000000000052b7d2dcc80cd2e40000000000000000000000000000000000000000000000000000000000000000000e10000000000000000000000000000000000000000000000000000000000000759600000000000000000000000000000000000000000052b7d2dcc80cd2e40000000000000000000000000000000000000000000000000000000000000000000e10000000000000000000000000000000000000000000000000000000000000768300000000000000000000000000000000000000000052b7d2dcc80cd2e40000000000000000000000000000000000000000000000000000000000000000000e10",
        "nonce": "0xc8",
        "chainId": "0x138de"
      },
      "additionalContracts": [],
      "isFixedGasLimit": false
    },
    {
      "hash": "0x91b06ba98013540aa605e8846ba12cd79493fe4d167ecf8bfca9e38515d1f828",
      "transactionType": "CALL",
      "contractName": null,
      "contractAddress": "0xc099ab708e20e8b25c63ca156d7cc94404c55416",
      "function": "setPeer(uint32,bytes32)",
      "arguments": [
        "30101",
        "0x000000000000000000000000c099ab708e20e8b25c63ca156d7cc94404c55416"
      ],
      "transaction": {
        "from": "0x4c51ce7b2546e18449fbe16738a8d55bc195a4dd",
        "to": "0xc099ab708e20e8b25c63ca156d7cc94404c55416",
        "gas": "0x11c84",
        "value": "0x0",
        "input": "0x3400288b0000000000000000000000000000000000000000000000000000000000007595000000000000000000000000c099ab708e20e8b25c63ca156d7cc94404c55416",
        "nonce": "0xc9",
        "chainId": "0x138de"
      },
      "additionalContracts": [],
      "isFixedGasLimit": false
    },
    {
      "hash": "0x7d769a3a619a658bbcaf67d1258a98b389035062c72b9629ef0ba71cae3e49ce",
      "transactionType": "CALL",
      "contractName": null,
      "contractAddress": "0xc099ab708e20e8b25c63ca156d7cc94404c55416",
      "function": "setPeer(uint32,bytes32)",
      "arguments": [
        "30184",
        "0x000000000000000000000000c099ab708e20e8b25c63ca156d7cc94404c55416"
      ],
      "transaction": {
        "from": "0x4c51ce7b2546e18449fbe16738a8d55bc195a4dd",
        "to": "0xc099ab708e20e8b25c63ca156d7cc94404c55416",
        "gas": "0x11c84",
        "value": "0x0",
        "input": "0x3400288b00000000000000000000000000000000000000000000000000000000000075e8000000000000000000000000c099ab708e20e8b25c63ca156d7cc94404c55416",
        "nonce": "0xca",
        "chainId": "0x138de"
      },
      "additionalContracts": [],
      "isFixedGasLimit": false
    },
    {
      "hash": "0xd6aa7870bbab69782e44904c60f0a5a5ef8c532922af856fd11d502662ce1045",
      "transactionType": "CALL",
      "contractName": null,
      "contractAddress": "0xc099ab708e20e8b25c63ca156d7cc94404c55416",
      "function": "setPeer(uint32,bytes32)",
      "arguments": [
        "30111",
        "0x000000000000000000000000c099ab708e20e8b25c63ca156d7cc94404c55416"
      ],
      "transaction": {
        "from": "0x4c51ce7b2546e18449fbe16738a8d55bc195a4dd",
        "to": "0xc099ab708e20e8b25c63ca156d7cc94404c55416",
        "gas": "0x11c84",
        "value": "0x0",
        "input": "0x3400288b000000000000000000000000000000000000000000000000000000000000759f000000000000000000000000c099ab708e20e8b25c63ca156d7cc94404c55416",
        "nonce": "0xcb",
        "chainId": "0x138de"
      },
      "additionalContracts": [],
      "isFixedGasLimit": false
    },
    {
      "hash": "0x05045a599c4efdecdf212ced322c5228f79025936ff09df07ee9f529168f9418",
      "transactionType": "CALL",
      "contractName": null,
      "contractAddress": "0xc099ab708e20e8b25c63ca156d7cc94404c55416",
      "function": "setPeer(uint32,bytes32)",
      "arguments": [
        "30110",
        "0x000000000000000000000000c099ab708e20e8b25c63ca156d7cc94404c55416"
      ],
      "transaction": {
        "from": "0x4c51ce7b2546e18449fbe16738a8d55bc195a4dd",
        "to": "0xc099ab708e20e8b25c63ca156d7cc94404c55416",
        "gas": "0x11c84",
        "value": "0x0",
        "input": "0x3400288b000000000000000000000000000000000000000000000000000000000000759e000000000000000000000000c099ab708e20e8b25c63ca156d7cc94404c55416",
        "nonce": "0xcc",
        "chainId": "0x138de"
      },
      "additionalContracts": [],
      "isFixedGasLimit": false
    },
    {
      "hash": "0xc3594f588e82862c676b633dab6e2eddd96f0c80251f678c4f8318b6e5848742",
      "transactionType": "CALL",
      "contractName": null,
      "contractAddress": "0xc099ab708e20e8b25c63ca156d7cc94404c55416",
      "function": "setPeer(uint32,bytes32)",
      "arguments": [
        "30102",
        "0x000000000000000000000000c099ab708e20e8b25c63ca156d7cc94404c55416"
      ],
      "transaction": {
        "from": "0x4c51ce7b2546e18449fbe16738a8d55bc195a4dd",
        "to": "0xc099ab708e20e8b25c63ca156d7cc94404c55416",
        "gas": "0x11c84",
        "value": "0x0",
        "input": "0x3400288b0000000000000000000000000000000000000000000000000000000000007596000000000000000000000000c099ab708e20e8b25c63ca156d7cc94404c55416",
        "nonce": "0xcd",
        "chainId": "0x138de"
      },
      "additionalContracts": [],
      "isFixedGasLimit": false
    },
    {
      "hash": "0xaa836880dcb2683cc419a7201e87da27b1ae73f5871080203cf2e7a47f7aa5e3",
      "transactionType": "CALL",
      "contractName": null,
      "contractAddress": "0xc099ab708e20e8b25c63ca156d7cc94404c55416",
      "function": "setPeer(uint32,bytes32)",
      "arguments": [
        "30339",
        "0x000000000000000000000000c099ab708e20e8b25c63ca156d7cc94404c55416"
      ],
      "transaction": {
        "from": "0x4c51ce7b2546e18449fbe16738a8d55bc195a4dd",
        "to": "0xc099ab708e20e8b25c63ca156d7cc94404c55416",
        "gas": "0x11c84",
        "value": "0x0",
        "input": "0x3400288b0000000000000000000000000000000000000000000000000000000000007683000000000000000000000000c099ab708e20e8b25c63ca156d7cc94404c55416",
        "nonce": "0xce",
        "chainId": "0x138de"
      },
      "additionalContracts": [],
      "isFixedGasLimit": false
    },
    {
      "hash": "0x864c2f34d9b12ff75601a4b77deb1843e64b26557f971589c6ed5aba42f9792a",
      "transactionType": "CALL",
      "contractName": null,
      "contractAddress": "0x6f475642a6e85809b1c36fa62763669b1b48dd5b",
      "function": "setReceiveLibrary(address,uint32,address,uint256)",
      "arguments": [
        "0xc099Ab708e20E8b25C63cA156D7cc94404c55416",
        "30101",
        "0xe1844c5D63a9543023008D332Bd3d2e6f1FE1043",
        "0"
      ],
      "transaction": {
        "from": "0x4c51ce7b2546e18449fbe16738a8d55bc195a4dd",
        "to": "0x6f475642a6e85809b1c36fa62763669b1b48dd5b",
        "gas": "0x15b7f",
        "value": "0x0",
        "input": "0x6a14d715000000000000000000000000c099ab708e20e8b25c63ca156d7cc94404c554160000000000000000000000000000000000000000000000000000000000007595000000000000000000000000e1844c5d63a9543023008d332bd3d2e6f1fe10430000000000000000000000000000000000000000000000000000000000000000",
        "nonce": "0xcf",
        "chainId": "0x138de"
      },
      "additionalContracts": [],
      "isFixedGasLimit": false
    },
    {
      "hash": "0x6442f87f4ad0ae903401cd9641b090ca41d1c20df13e7898af397e574e60012b",
      "transactionType": "CALL",
      "contractName": null,
      "contractAddress": "0x6f475642a6e85809b1c36fa62763669b1b48dd5b",
      "function": "setReceiveLibrary(address,uint32,address,uint256)",
      "arguments": [
        "0xc099Ab708e20E8b25C63cA156D7cc94404c55416",
        "30184",
        "0xe1844c5D63a9543023008D332Bd3d2e6f1FE1043",
        "0"
      ],
      "transaction": {
        "from": "0x4c51ce7b2546e18449fbe16738a8d55bc195a4dd",
        "to": "0x6f475642a6e85809b1c36fa62763669b1b48dd5b",
        "gas": "0x15b7f",
        "value": "0x0",
        "input": "0x6a14d715000000000000000000000000c099ab708e20e8b25c63ca156d7cc94404c5541600000000000000000000000000000000000000000000000000000000000075e8000000000000000000000000e1844c5d63a9543023008d332bd3d2e6f1fe10430000000000000000000000000000000000000000000000000000000000000000",
        "nonce": "0xd0",
        "chainId": "0x138de"
      },
      "additionalContracts": [],
      "isFixedGasLimit": false
    },
    {
      "hash": "0x80065fd2c33408e6e90a1567ae0fe041a3cb0366d17d764e00a23de08bb8372f",
      "transactionType": "CALL",
      "contractName": null,
      "contractAddress": "0x6f475642a6e85809b1c36fa62763669b1b48dd5b",
      "function": "setReceiveLibrary(address,uint32,address,uint256)",
      "arguments": [
        "0xc099Ab708e20E8b25C63cA156D7cc94404c55416",
        "30111",
        "0xe1844c5D63a9543023008D332Bd3d2e6f1FE1043",
        "0"
      ],
      "transaction": {
        "from": "0x4c51ce7b2546e18449fbe16738a8d55bc195a4dd",
        "to": "0x6f475642a6e85809b1c36fa62763669b1b48dd5b",
        "gas": "0x15b7f",
        "value": "0x0",
        "input": "0x6a14d715000000000000000000000000c099ab708e20e8b25c63ca156d7cc94404c55416000000000000000000000000000000000000000000000000000000000000759f000000000000000000000000e1844c5d63a9543023008d332bd3d2e6f1fe10430000000000000000000000000000000000000000000000000000000000000000",
        "nonce": "0xd1",
        "chainId": "0x138de"
      },
      "additionalContracts": [],
      "isFixedGasLimit": false
    },
    {
      "hash": "0x3ba63a01a42617eb14ae27807491c7713856349482db75303735daeb2c3a3d1b",
      "transactionType": "CALL",
      "contractName": null,
      "contractAddress": "0x6f475642a6e85809b1c36fa62763669b1b48dd5b",
      "function": "setReceiveLibrary(address,uint32,address,uint256)",
      "arguments": [
        "0xc099Ab708e20E8b25C63cA156D7cc94404c55416",
        "30110",
        "0xe1844c5D63a9543023008D332Bd3d2e6f1FE1043",
        "0"
      ],
      "transaction": {
        "from": "0x4c51ce7b2546e18449fbe16738a8d55bc195a4dd",
        "to": "0x6f475642a6e85809b1c36fa62763669b1b48dd5b",
        "gas": "0x15b7f",
        "value": "0x0",
        "input": "0x6a14d715000000000000000000000000c099ab708e20e8b25c63ca156d7cc94404c55416000000000000000000000000000000000000000000000000000000000000759e000000000000000000000000e1844c5d63a9543023008d332bd3d2e6f1fe10430000000000000000000000000000000000000000000000000000000000000000",
        "nonce": "0xd2",
        "chainId": "0x138de"
      },
      "additionalContracts": [],
      "isFixedGasLimit": false
    },
    {
      "hash": "0x840b2545bf190f98e9efcc8ebd4c272f0eedfbce30fe092682a79bfa598b4ae9",
      "transactionType": "CALL",
      "contractName": null,
      "contractAddress": "0x6f475642a6e85809b1c36fa62763669b1b48dd5b",
      "function": "setReceiveLibrary(address,uint32,address,uint256)",
      "arguments": [
        "0xc099Ab708e20E8b25C63cA156D7cc94404c55416",
        "30102",
        "0xe1844c5D63a9543023008D332Bd3d2e6f1FE1043",
        "0"
      ],
      "transaction": {
        "from": "0x4c51ce7b2546e18449fbe16738a8d55bc195a4dd",
        "to": "0x6f475642a6e85809b1c36fa62763669b1b48dd5b",
        "gas": "0x15b7f",
        "value": "0x0",
        "input": "0x6a14d715000000000000000000000000c099ab708e20e8b25c63ca156d7cc94404c554160000000000000000000000000000000000000000000000000000000000007596000000000000000000000000e1844c5d63a9543023008d332bd3d2e6f1fe10430000000000000000000000000000000000000000000000000000000000000000",
        "nonce": "0xd3",
        "chainId": "0x138de"
      },
      "additionalContracts": [],
      "isFixedGasLimit": false
    },
    {
      "hash": "0xcc779017448b1d6d92bcc182ccfff99779d4f6e7296afd958ac3011f071980a0",
      "transactionType": "CALL",
      "contractName": null,
      "contractAddress": "0x6f475642a6e85809b1c36fa62763669b1b48dd5b",
      "function": "setReceiveLibrary(address,uint32,address,uint256)",
      "arguments": [
        "0xc099Ab708e20E8b25C63cA156D7cc94404c55416",
        "30339",
        "0xe1844c5D63a9543023008D332Bd3d2e6f1FE1043",
        "0"
      ],
      "transaction": {
        "from": "0x4c51ce7b2546e18449fbe16738a8d55bc195a4dd",
        "to": "0x6f475642a6e85809b1c36fa62763669b1b48dd5b",
        "gas": "0x15b7f",
        "value": "0x0",
        "input": "0x6a14d715000000000000000000000000c099ab708e20e8b25c63ca156d7cc94404c554160000000000000000000000000000000000000000000000000000000000007683000000000000000000000000e1844c5d63a9543023008d332bd3d2e6f1fe10430000000000000000000000000000000000000000000000000000000000000000",
        "nonce": "0xd4",
        "chainId": "0x138de"
      },
      "additionalContracts": [],
      "isFixedGasLimit": false
    },
    {
      "hash": "0x89f663d71ff859899d5dcfcb5ea49b8c6b44131ab6195180f85d89bb748ebbf9",
      "transactionType": "CALL",
      "contractName": null,
      "contractAddress": "0xc099ab708e20e8b25c63ca156d7cc94404c55416",
      "function": "setEnforcedOptions((uint32,uint16,bytes)[])",
      "arguments": [
        "[(30101, 1, 0x00030100110100000000000000000000000000029810), (30101, 2, 0x0003010011010000000000000000000000000002981001001303000000000000000000000000000000029810)]"
      ],
      "transaction": {
        "from": "0x4c51ce7b2546e18449fbe16738a8d55bc195a4dd",
        "to": "0xc099ab708e20e8b25c63ca156d7cc94404c55416",
        "gas": "0x2e8cb",
        "value": "0x0",
        "input": "0xb98bd07000000000000000000000000000000000000000000000000000000000000000200000000000000000000000000000000000000000000000000000000000000002000000000000000000000000000000000000000000000000000000000000004000000000000000000000000000000000000000000000000000000000000000e000000000000000000000000000000000000000000000000000000000000075950000000000000000000000000000000000000000000000000000000000000001000000000000000000000000000000000000000000000000000000000000006000000000000000000000000000000000000000000000000000000000000000160003010011010000000000000000000000000002981000000000000000000000000000000000000000000000000000000000000000000000000000000000759500000000000000000000000000000000000000000000000000000000000000020000000000000000000000000000000000000000000000000000000000000060000000000000000000000000000000000000000000000000000000000000002c00030100110100000000000000000000000000029810010013030000000000000000000000000000000298100000000000000000000000000000000000000000",
        "nonce": "0xd5",
        "chainId": "0x138de"
      },
      "additionalContracts": [],
      "isFixedGasLimit": false
    },
    {
      "hash": "0xec77af78a450802e398ab06eb41f1c576574d6271806f39e24dd7516f30b2c36",
      "transactionType": "CALL",
      "contractName": null,
      "contractAddress": "0xc099ab708e20e8b25c63ca156d7cc94404c55416",
      "function": "setEnforcedOptions((uint32,uint16,bytes)[])",
      "arguments": [
        "[(30184, 1, 0x00030100110100000000000000000000000000029810), (30184, 2, 0x0003010011010000000000000000000000000002981001001303000000000000000000000000000000029810)]"
      ],
      "transaction": {
        "from": "0x4c51ce7b2546e18449fbe16738a8d55bc195a4dd",
        "to": "0xc099ab708e20e8b25c63ca156d7cc94404c55416",
        "gas": "0x2e8cb",
        "value": "0x0",
        "input": "0xb98bd07000000000000000000000000000000000000000000000000000000000000000200000000000000000000000000000000000000000000000000000000000000002000000000000000000000000000000000000000000000000000000000000004000000000000000000000000000000000000000000000000000000000000000e000000000000000000000000000000000000000000000000000000000000075e8000000000000000000000000000000000000000000000000000000000000000100000000000000000000000000000000000000000000000000000000000000600000000000000000000000000000000000000000000000000000000000000016000301001101000000000000000000000000000298100000000000000000000000000000000000000000000000000000000000000000000000000000000075e800000000000000000000000000000000000000000000000000000000000000020000000000000000000000000000000000000000000000000000000000000060000000000000000000000000000000000000000000000000000000000000002c00030100110100000000000000000000000000029810010013030000000000000000000000000000000298100000000000000000000000000000000000000000",
        "nonce": "0xd6",
        "chainId": "0x138de"
      },
      "additionalContracts": [],
      "isFixedGasLimit": false
    },
    {
      "hash": "0xa706fee631ec8f7dbc6ed8c5d3b37cbe5492d086b6b17d8b08b0528dea2109ea",
      "transactionType": "CALL",
      "contractName": null,
      "contractAddress": "0xc099ab708e20e8b25c63ca156d7cc94404c55416",
      "function": "setEnforcedOptions((uint32,uint16,bytes)[])",
      "arguments": [
        "[(30111, 1, 0x00030100110100000000000000000000000000029810), (30111, 2, 0x0003010011010000000000000000000000000002981001001303000000000000000000000000000000029810)]"
      ],
      "transaction": {
        "from": "0x4c51ce7b2546e18449fbe16738a8d55bc195a4dd",
        "to": "0xc099ab708e20e8b25c63ca156d7cc94404c55416",
        "gas": "0x2e8cb",
        "value": "0x0",
        "input": "0xb98bd07000000000000000000000000000000000000000000000000000000000000000200000000000000000000000000000000000000000000000000000000000000002000000000000000000000000000000000000000000000000000000000000004000000000000000000000000000000000000000000000000000000000000000e0000000000000000000000000000000000000000000000000000000000000759f0000000000000000000000000000000000000000000000000000000000000001000000000000000000000000000000000000000000000000000000000000006000000000000000000000000000000000000000000000000000000000000000160003010011010000000000000000000000000002981000000000000000000000000000000000000000000000000000000000000000000000000000000000759f00000000000000000000000000000000000000000000000000000000000000020000000000000000000000000000000000000000000000000000000000000060000000000000000000000000000000000000000000000000000000000000002c00030100110100000000000000000000000000029810010013030000000000000000000000000000000298100000000000000000000000000000000000000000",
        "nonce": "0xd7",
        "chainId": "0x138de"
      },
      "additionalContracts": [],
      "isFixedGasLimit": false
    },
    {
      "hash": "0x2951961ca21adb146220a7196acfc252302f94ee299b70c35dde2e0610b4deb7",
      "transactionType": "CALL",
      "contractName": null,
      "contractAddress": "0xc099ab708e20e8b25c63ca156d7cc94404c55416",
      "function": "setEnforcedOptions((uint32,uint16,bytes)[])",
      "arguments": [
        "[(30110, 1, 0x00030100110100000000000000000000000000029810), (30110, 2, 0x0003010011010000000000000000000000000002981001001303000000000000000000000000000000029810)]"
      ],
      "transaction": {
        "from": "0x4c51ce7b2546e18449fbe16738a8d55bc195a4dd",
        "to": "0xc099ab708e20e8b25c63ca156d7cc94404c55416",
        "gas": "0x2e8cb",
        "value": "0x0",
        "input": "0xb98bd07000000000000000000000000000000000000000000000000000000000000000200000000000000000000000000000000000000000000000000000000000000002000000000000000000000000000000000000000000000000000000000000004000000000000000000000000000000000000000000000000000000000000000e0000000000000000000000000000000000000000000000000000000000000759e0000000000000000000000000000000000000000000000000000000000000001000000000000000000000000000000000000000000000000000000000000006000000000000000000000000000000000000000000000000000000000000000160003010011010000000000000000000000000002981000000000000000000000000000000000000000000000000000000000000000000000000000000000759e00000000000000000000000000000000000000000000000000000000000000020000000000000000000000000000000000000000000000000000000000000060000000000000000000000000000000000000000000000000000000000000002c00030100110100000000000000000000000000029810010013030000000000000000000000000000000298100000000000000000000000000000000000000000",
        "nonce": "0xd8",
        "chainId": "0x138de"
      },
      "additionalContracts": [],
      "isFixedGasLimit": false
    },
    {
      "hash": "0x7f9d344fb2e40c1679eda973f2468901357a3d8e9fda7d14c8c68d559b7a96f2",
      "transactionType": "CALL",
      "contractName": null,
      "contractAddress": "0xc099ab708e20e8b25c63ca156d7cc94404c55416",
      "function": "setEnforcedOptions((uint32,uint16,bytes)[])",
      "arguments": [
        "[(30102, 1, 0x00030100110100000000000000000000000000029810), (30102, 2, 0x0003010011010000000000000000000000000002981001001303000000000000000000000000000000029810)]"
      ],
      "transaction": {
        "from": "0x4c51ce7b2546e18449fbe16738a8d55bc195a4dd",
        "to": "0xc099ab708e20e8b25c63ca156d7cc94404c55416",
        "gas": "0x2e8cb",
        "value": "0x0",
        "input": "0xb98bd07000000000000000000000000000000000000000000000000000000000000000200000000000000000000000000000000000000000000000000000000000000002000000000000000000000000000000000000000000000000000000000000004000000000000000000000000000000000000000000000000000000000000000e000000000000000000000000000000000000000000000000000000000000075960000000000000000000000000000000000000000000000000000000000000001000000000000000000000000000000000000000000000000000000000000006000000000000000000000000000000000000000000000000000000000000000160003010011010000000000000000000000000002981000000000000000000000000000000000000000000000000000000000000000000000000000000000759600000000000000000000000000000000000000000000000000000000000000020000000000000000000000000000000000000000000000000000000000000060000000000000000000000000000000000000000000000000000000000000002c00030100110100000000000000000000000000029810010013030000000000000000000000000000000298100000000000000000000000000000000000000000",
        "nonce": "0xd9",
        "chainId": "0x138de"
      },
      "additionalContracts": [],
      "isFixedGasLimit": false
    },
    {
      "hash": "0xdea076afb6c9a540a80103efee2a1bcb29376d69ceca3bcf75ff1608ed9fd20a",
      "transactionType": "CALL",
      "contractName": null,
      "contractAddress": "0xc099ab708e20e8b25c63ca156d7cc94404c55416",
      "function": "setEnforcedOptions((uint32,uint16,bytes)[])",
      "arguments": [
        "[(30339, 1, 0x00030100110100000000000000000000000000029810), (30339, 2, 0x0003010011010000000000000000000000000002981001001303000000000000000000000000000000029810)]"
      ],
      "transaction": {
        "from": "0x4c51ce7b2546e18449fbe16738a8d55bc195a4dd",
        "to": "0xc099ab708e20e8b25c63ca156d7cc94404c55416",
        "gas": "0x2e8cb",
        "value": "0x0",
        "input": "0xb98bd07000000000000000000000000000000000000000000000000000000000000000200000000000000000000000000000000000000000000000000000000000000002000000000000000000000000000000000000000000000000000000000000004000000000000000000000000000000000000000000000000000000000000000e000000000000000000000000000000000000000000000000000000000000076830000000000000000000000000000000000000000000000000000000000000001000000000000000000000000000000000000000000000000000000000000006000000000000000000000000000000000000000000000000000000000000000160003010011010000000000000000000000000002981000000000000000000000000000000000000000000000000000000000000000000000000000000000768300000000000000000000000000000000000000000000000000000000000000020000000000000000000000000000000000000000000000000000000000000060000000000000000000000000000000000000000000000000000000000000002c00030100110100000000000000000000000000029810010013030000000000000000000000000000000298100000000000000000000000000000000000000000",
        "nonce": "0xda",
        "chainId": "0x138de"
      },
      "additionalContracts": [],
      "isFixedGasLimit": false
    },
    {
      "hash": "0x4510f4b4a5eb3dcb935a2883028761dc43389cc4c218618380eeecf280280c2e",
      "transactionType": "CALL",
      "contractName": null,
      "contractAddress": "0x6f475642a6e85809b1c36fa62763669b1b48dd5b",
      "function": "setConfig(address,address,(uint32,uint32,bytes)[])",
      "arguments": [
        "0xc099Ab708e20E8b25C63cA156D7cc94404c55416",
        "0xC39161c743D0307EB9BCc9FEF03eeb9Dc4802de7",
        "[(30101, 2, 0x0000000000000000000000000000000000000000000000000000000000000020000000000000000000000000000000000000000000000000000000000000002000000000000000000000000000000000000000000000000000000000000000020000000000000000000000000000000000000000000000000000000000000000000000000000000000000000000000000000000000000000000000000000000000000000000000000000000000000000000000000000000000000000000000c000000000000000000000000000000000000000000000000000000000000001200000000000000000000000000000000000000000000000000000000000000002000000000000000000000000282b3386571f7f794450d5789911a9804fa346b4000000000000000000000000dd7b5e1db4aafd5c8ec3b764efb8ed265aa5445b0000000000000000000000000000000000000000000000000000000000000000)]"
      ],
      "transaction": {
        "from": "0x4c51ce7b2546e18449fbe16738a8d55bc195a4dd",
        "to": "0x6f475642a6e85809b1c36fa62763669b1b48dd5b",
        "gas": "0x2eec9",
        "value": "0x0",
        "input": "0x6dbd9f90000000000000000000000000c099ab708e20e8b25c63ca156d7cc94404c55416000000000000000000000000c39161c743d0307eb9bcc9fef03eeb9dc4802de700000000000000000000000000000000000000000000000000000000000000600000000000000000000000000000000000000000000000000000000000000001000000000000000000000000000000000000000000000000000000000000002000000000000000000000000000000000000000000000000000000000000075950000000000000000000000000000000000000000000000000000000000000002000000000000000000000000000000000000000000000000000000000000006000000000000000000000000000000000000000000000000000000000000001600000000000000000000000000000000000000000000000000000000000000020000000000000000000000000000000000000000000000000000000000000002000000000000000000000000000000000000000000000000000000000000000020000000000000000000000000000000000000000000000000000000000000000000000000000000000000000000000000000000000000000000000000000000000000000000000000000000000000000000000000000000000000000000000c000000000000000000000000000000000000000000000000000000000000001200000000000000000000000000000000000000000000000000000000000000002000000000000000000000000282b3386571f7f794450d5789911a9804fa346b4000000000000000000000000dd7b5e1db4aafd5c8ec3b764efb8ed265aa5445b0000000000000000000000000000000000000000000000000000000000000000",
        "nonce": "0xdb",
        "chainId": "0x138de"
      },
      "additionalContracts": [],
      "isFixedGasLimit": false
    },
    {
      "hash": "0xb4961427938baadf4b2cadb155bfdfab37c2cd01269a352dd1e7f004bd4e3072",
      "transactionType": "CALL",
      "contractName": null,
      "contractAddress": "0x6f475642a6e85809b1c36fa62763669b1b48dd5b",
      "function": "setConfig(address,address,(uint32,uint32,bytes)[])",
      "arguments": [
        "0xc099Ab708e20E8b25C63cA156D7cc94404c55416",
        "0xe1844c5D63a9543023008D332Bd3d2e6f1FE1043",
        "[(30101, 2, 0x0000000000000000000000000000000000000000000000000000000000000020000000000000000000000000000000000000000000000000000000000000002000000000000000000000000000000000000000000000000000000000000000020000000000000000000000000000000000000000000000000000000000000000000000000000000000000000000000000000000000000000000000000000000000000000000000000000000000000000000000000000000000000000000000c000000000000000000000000000000000000000000000000000000000000001200000000000000000000000000000000000000000000000000000000000000002000000000000000000000000282b3386571f7f794450d5789911a9804fa346b4000000000000000000000000dd7b5e1db4aafd5c8ec3b764efb8ed265aa5445b0000000000000000000000000000000000000000000000000000000000000000)]"
      ],
      "transaction": {
        "from": "0x4c51ce7b2546e18449fbe16738a8d55bc195a4dd",
        "to": "0x6f475642a6e85809b1c36fa62763669b1b48dd5b",
        "gas": "0x2ed5d",
        "value": "0x0",
        "input": "0x6dbd9f90000000000000000000000000c099ab708e20e8b25c63ca156d7cc94404c55416000000000000000000000000e1844c5d63a9543023008d332bd3d2e6f1fe104300000000000000000000000000000000000000000000000000000000000000600000000000000000000000000000000000000000000000000000000000000001000000000000000000000000000000000000000000000000000000000000002000000000000000000000000000000000000000000000000000000000000075950000000000000000000000000000000000000000000000000000000000000002000000000000000000000000000000000000000000000000000000000000006000000000000000000000000000000000000000000000000000000000000001600000000000000000000000000000000000000000000000000000000000000020000000000000000000000000000000000000000000000000000000000000002000000000000000000000000000000000000000000000000000000000000000020000000000000000000000000000000000000000000000000000000000000000000000000000000000000000000000000000000000000000000000000000000000000000000000000000000000000000000000000000000000000000000000c000000000000000000000000000000000000000000000000000000000000001200000000000000000000000000000000000000000000000000000000000000002000000000000000000000000282b3386571f7f794450d5789911a9804fa346b4000000000000000000000000dd7b5e1db4aafd5c8ec3b764efb8ed265aa5445b0000000000000000000000000000000000000000000000000000000000000000",
        "nonce": "0xdc",
        "chainId": "0x138de"
      },
      "additionalContracts": [],
      "isFixedGasLimit": false
    },
    {
      "hash": "0xd6a1c8d6f18d5c4f820b3519277e7eb9ba8e2dd48eb5c4c8dbbd309d016ac537",
      "transactionType": "CALL",
      "contractName": null,
      "contractAddress": "0x6f475642a6e85809b1c36fa62763669b1b48dd5b",
      "function": "setConfig(address,address,(uint32,uint32,bytes)[])",
      "arguments": [
        "0xc099Ab708e20E8b25C63cA156D7cc94404c55416",
        "0xC39161c743D0307EB9BCc9FEF03eeb9Dc4802de7",
        "[(30184, 2, 0x0000000000000000000000000000000000000000000000000000000000000020000000000000000000000000000000000000000000000000000000000000002000000000000000000000000000000000000000000000000000000000000000020000000000000000000000000000000000000000000000000000000000000000000000000000000000000000000000000000000000000000000000000000000000000000000000000000000000000000000000000000000000000000000000c000000000000000000000000000000000000000000000000000000000000001200000000000000000000000000000000000000000000000000000000000000002000000000000000000000000282b3386571f7f794450d5789911a9804fa346b4000000000000000000000000dd7b5e1db4aafd5c8ec3b764efb8ed265aa5445b0000000000000000000000000000000000000000000000000000000000000000)]"
      ],
      "transaction": {
        "from": "0x4c51ce7b2546e18449fbe16738a8d55bc195a4dd",
        "to": "0x6f475642a6e85809b1c36fa62763669b1b48dd5b",
        "gas": "0x2eec9",
        "value": "0x0",
        "input": "0x6dbd9f90000000000000000000000000c099ab708e20e8b25c63ca156d7cc94404c55416000000000000000000000000c39161c743d0307eb9bcc9fef03eeb9dc4802de700000000000000000000000000000000000000000000000000000000000000600000000000000000000000000000000000000000000000000000000000000001000000000000000000000000000000000000000000000000000000000000002000000000000000000000000000000000000000000000000000000000000075e80000000000000000000000000000000000000000000000000000000000000002000000000000000000000000000000000000000000000000000000000000006000000000000000000000000000000000000000000000000000000000000001600000000000000000000000000000000000000000000000000000000000000020000000000000000000000000000000000000000000000000000000000000002000000000000000000000000000000000000000000000000000000000000000020000000000000000000000000000000000000000000000000000000000000000000000000000000000000000000000000000000000000000000000000000000000000000000000000000000000000000000000000000000000000000000000c000000000000000000000000000000000000000000000000000000000000001200000000000000000000000000000000000000000000000000000000000000002000000000000000000000000282b3386571f7f794450d5789911a9804fa346b4000000000000000000000000dd7b5e1db4aafd5c8ec3b764efb8ed265aa5445b0000000000000000000000000000000000000000000000000000000000000000",
        "nonce": "0xdd",
        "chainId": "0x138de"
      },
      "additionalContracts": [],
      "isFixedGasLimit": false
    },
    {
      "hash": "0xff36beea8cb82ede4f8e42252f36bbe32e1f5ccf15c351a9a0728eaee25f0177",
      "transactionType": "CALL",
      "contractName": null,
      "contractAddress": "0x6f475642a6e85809b1c36fa62763669b1b48dd5b",
      "function": "setConfig(address,address,(uint32,uint32,bytes)[])",
      "arguments": [
        "0xc099Ab708e20E8b25C63cA156D7cc94404c55416",
        "0xe1844c5D63a9543023008D332Bd3d2e6f1FE1043",
        "[(30184, 2, 0x0000000000000000000000000000000000000000000000000000000000000020000000000000000000000000000000000000000000000000000000000000002000000000000000000000000000000000000000000000000000000000000000020000000000000000000000000000000000000000000000000000000000000000000000000000000000000000000000000000000000000000000000000000000000000000000000000000000000000000000000000000000000000000000000c000000000000000000000000000000000000000000000000000000000000001200000000000000000000000000000000000000000000000000000000000000002000000000000000000000000282b3386571f7f794450d5789911a9804fa346b4000000000000000000000000dd7b5e1db4aafd5c8ec3b764efb8ed265aa5445b0000000000000000000000000000000000000000000000000000000000000000)]"
      ],
      "transaction": {
        "from": "0x4c51ce7b2546e18449fbe16738a8d55bc195a4dd",
        "to": "0x6f475642a6e85809b1c36fa62763669b1b48dd5b",
        "gas": "0x2ed5d",
        "value": "0x0",
        "input": "0x6dbd9f90000000000000000000000000c099ab708e20e8b25c63ca156d7cc94404c55416000000000000000000000000e1844c5d63a9543023008d332bd3d2e6f1fe104300000000000000000000000000000000000000000000000000000000000000600000000000000000000000000000000000000000000000000000000000000001000000000000000000000000000000000000000000000000000000000000002000000000000000000000000000000000000000000000000000000000000075e80000000000000000000000000000000000000000000000000000000000000002000000000000000000000000000000000000000000000000000000000000006000000000000000000000000000000000000000000000000000000000000001600000000000000000000000000000000000000000000000000000000000000020000000000000000000000000000000000000000000000000000000000000002000000000000000000000000000000000000000000000000000000000000000020000000000000000000000000000000000000000000000000000000000000000000000000000000000000000000000000000000000000000000000000000000000000000000000000000000000000000000000000000000000000000000000c000000000000000000000000000000000000000000000000000000000000001200000000000000000000000000000000000000000000000000000000000000002000000000000000000000000282b3386571f7f794450d5789911a9804fa346b4000000000000000000000000dd7b5e1db4aafd5c8ec3b764efb8ed265aa5445b0000000000000000000000000000000000000000000000000000000000000000",
        "nonce": "0xde",
        "chainId": "0x138de"
      },
      "additionalContracts": [],
      "isFixedGasLimit": false
    },
    {
      "hash": "0x47a2d7d74cbe46f8b3dbb7064085b973d852632e84c3b7542cfc78d757b8dbe6",
      "transactionType": "CALL",
      "contractName": null,
      "contractAddress": "0x6f475642a6e85809b1c36fa62763669b1b48dd5b",
      "function": "setConfig(address,address,(uint32,uint32,bytes)[])",
      "arguments": [
        "0xc099Ab708e20E8b25C63cA156D7cc94404c55416",
        "0xC39161c743D0307EB9BCc9FEF03eeb9Dc4802de7",
        "[(30111, 2, 0x0000000000000000000000000000000000000000000000000000000000000020000000000000000000000000000000000000000000000000000000000000002000000000000000000000000000000000000000000000000000000000000000020000000000000000000000000000000000000000000000000000000000000000000000000000000000000000000000000000000000000000000000000000000000000000000000000000000000000000000000000000000000000000000000c000000000000000000000000000000000000000000000000000000000000001200000000000000000000000000000000000000000000000000000000000000002000000000000000000000000282b3386571f7f794450d5789911a9804fa346b4000000000000000000000000dd7b5e1db4aafd5c8ec3b764efb8ed265aa5445b0000000000000000000000000000000000000000000000000000000000000000)]"
      ],
      "transaction": {
        "from": "0x4c51ce7b2546e18449fbe16738a8d55bc195a4dd",
        "to": "0x6f475642a6e85809b1c36fa62763669b1b48dd5b",
        "gas": "0x2eec9",
        "value": "0x0",
        "input": "0x6dbd9f90000000000000000000000000c099ab708e20e8b25c63ca156d7cc94404c55416000000000000000000000000c39161c743d0307eb9bcc9fef03eeb9dc4802de7000000000000000000000000000000000000000000000000000000000000006000000000000000000000000000000000000000000000000000000000000000010000000000000000000000000000000000000000000000000000000000000020000000000000000000000000000000000000000000000000000000000000759f0000000000000000000000000000000000000000000000000000000000000002000000000000000000000000000000000000000000000000000000000000006000000000000000000000000000000000000000000000000000000000000001600000000000000000000000000000000000000000000000000000000000000020000000000000000000000000000000000000000000000000000000000000002000000000000000000000000000000000000000000000000000000000000000020000000000000000000000000000000000000000000000000000000000000000000000000000000000000000000000000000000000000000000000000000000000000000000000000000000000000000000000000000000000000000000000c000000000000000000000000000000000000000000000000000000000000001200000000000000000000000000000000000000000000000000000000000000002000000000000000000000000282b3386571f7f794450d5789911a9804fa346b4000000000000000000000000dd7b5e1db4aafd5c8ec3b764efb8ed265aa5445b0000000000000000000000000000000000000000000000000000000000000000",
        "nonce": "0xdf",
        "chainId": "0x138de"
      },
      "additionalContracts": [],
      "isFixedGasLimit": false
    },
    {
      "hash": "0x7041882f7334b553b62d5837d87aaa20f6e4a402ec92fc6af227d9212e08fa11",
      "transactionType": "CALL",
      "contractName": null,
      "contractAddress": "0x6f475642a6e85809b1c36fa62763669b1b48dd5b",
      "function": "setConfig(address,address,(uint32,uint32,bytes)[])",
      "arguments": [
        "0xc099Ab708e20E8b25C63cA156D7cc94404c55416",
        "0xe1844c5D63a9543023008D332Bd3d2e6f1FE1043",
        "[(30111, 2, 0x0000000000000000000000000000000000000000000000000000000000000020000000000000000000000000000000000000000000000000000000000000002000000000000000000000000000000000000000000000000000000000000000020000000000000000000000000000000000000000000000000000000000000000000000000000000000000000000000000000000000000000000000000000000000000000000000000000000000000000000000000000000000000000000000c000000000000000000000000000000000000000000000000000000000000001200000000000000000000000000000000000000000000000000000000000000002000000000000000000000000282b3386571f7f794450d5789911a9804fa346b4000000000000000000000000dd7b5e1db4aafd5c8ec3b764efb8ed265aa5445b0000000000000000000000000000000000000000000000000000000000000000)]"
      ],
      "transaction": {
        "from": "0x4c51ce7b2546e18449fbe16738a8d55bc195a4dd",
        "to": "0x6f475642a6e85809b1c36fa62763669b1b48dd5b",
        "gas": "0x2ed5d",
        "value": "0x0",
        "input": "0x6dbd9f90000000000000000000000000c099ab708e20e8b25c63ca156d7cc94404c55416000000000000000000000000e1844c5d63a9543023008d332bd3d2e6f1fe1043000000000000000000000000000000000000000000000000000000000000006000000000000000000000000000000000000000000000000000000000000000010000000000000000000000000000000000000000000000000000000000000020000000000000000000000000000000000000000000000000000000000000759f0000000000000000000000000000000000000000000000000000000000000002000000000000000000000000000000000000000000000000000000000000006000000000000000000000000000000000000000000000000000000000000001600000000000000000000000000000000000000000000000000000000000000020000000000000000000000000000000000000000000000000000000000000002000000000000000000000000000000000000000000000000000000000000000020000000000000000000000000000000000000000000000000000000000000000000000000000000000000000000000000000000000000000000000000000000000000000000000000000000000000000000000000000000000000000000000c000000000000000000000000000000000000000000000000000000000000001200000000000000000000000000000000000000000000000000000000000000002000000000000000000000000282b3386571f7f794450d5789911a9804fa346b4000000000000000000000000dd7b5e1db4aafd5c8ec3b764efb8ed265aa5445b0000000000000000000000000000000000000000000000000000000000000000",
        "nonce": "0xe0",
        "chainId": "0x138de"
      },
      "additionalContracts": [],
      "isFixedGasLimit": false
    },
    {
      "hash": "0x82f706c3292250c63ef05e3f7f1b833987289cc2bb3a083d8f5f8cc4161246ae",
      "transactionType": "CALL",
      "contractName": null,
      "contractAddress": "0x6f475642a6e85809b1c36fa62763669b1b48dd5b",
      "function": "setConfig(address,address,(uint32,uint32,bytes)[])",
      "arguments": [
        "0xc099Ab708e20E8b25C63cA156D7cc94404c55416",
        "0xC39161c743D0307EB9BCc9FEF03eeb9Dc4802de7",
        "[(30110, 2, 0x0000000000000000000000000000000000000000000000000000000000000020000000000000000000000000000000000000000000000000000000000000002000000000000000000000000000000000000000000000000000000000000000020000000000000000000000000000000000000000000000000000000000000000000000000000000000000000000000000000000000000000000000000000000000000000000000000000000000000000000000000000000000000000000000c000000000000000000000000000000000000000000000000000000000000001200000000000000000000000000000000000000000000000000000000000000002000000000000000000000000282b3386571f7f794450d5789911a9804fa346b4000000000000000000000000dd7b5e1db4aafd5c8ec3b764efb8ed265aa5445b0000000000000000000000000000000000000000000000000000000000000000)]"
      ],
      "transaction": {
        "from": "0x4c51ce7b2546e18449fbe16738a8d55bc195a4dd",
        "to": "0x6f475642a6e85809b1c36fa62763669b1b48dd5b",
        "gas": "0x2eec9",
        "value": "0x0",
        "input": "0x6dbd9f90000000000000000000000000c099ab708e20e8b25c63ca156d7cc94404c55416000000000000000000000000c39161c743d0307eb9bcc9fef03eeb9dc4802de7000000000000000000000000000000000000000000000000000000000000006000000000000000000000000000000000000000000000000000000000000000010000000000000000000000000000000000000000000000000000000000000020000000000000000000000000000000000000000000000000000000000000759e0000000000000000000000000000000000000000000000000000000000000002000000000000000000000000000000000000000000000000000000000000006000000000000000000000000000000000000000000000000000000000000001600000000000000000000000000000000000000000000000000000000000000020000000000000000000000000000000000000000000000000000000000000002000000000000000000000000000000000000000000000000000000000000000020000000000000000000000000000000000000000000000000000000000000000000000000000000000000000000000000000000000000000000000000000000000000000000000000000000000000000000000000000000000000000000000c000000000000000000000000000000000000000000000000000000000000001200000000000000000000000000000000000000000000000000000000000000002000000000000000000000000282b3386571f7f794450d5789911a9804fa346b4000000000000000000000000dd7b5e1db4aafd5c8ec3b764efb8ed265aa5445b0000000000000000000000000000000000000000000000000000000000000000",
        "nonce": "0xe1",
        "chainId": "0x138de"
      },
      "additionalContracts": [],
      "isFixedGasLimit": false
    },
    {
      "hash": "0x424084387f0b0ac779b87bd4ad14041d4e2ff44e2dfe34c9b87b40e21c8a1cfb",
      "transactionType": "CALL",
      "contractName": null,
      "contractAddress": "0x6f475642a6e85809b1c36fa62763669b1b48dd5b",
      "function": "setConfig(address,address,(uint32,uint32,bytes)[])",
      "arguments": [
        "0xc099Ab708e20E8b25C63cA156D7cc94404c55416",
        "0xe1844c5D63a9543023008D332Bd3d2e6f1FE1043",
        "[(30110, 2, 0x0000000000000000000000000000000000000000000000000000000000000020000000000000000000000000000000000000000000000000000000000000002000000000000000000000000000000000000000000000000000000000000000020000000000000000000000000000000000000000000000000000000000000000000000000000000000000000000000000000000000000000000000000000000000000000000000000000000000000000000000000000000000000000000000c000000000000000000000000000000000000000000000000000000000000001200000000000000000000000000000000000000000000000000000000000000002000000000000000000000000282b3386571f7f794450d5789911a9804fa346b4000000000000000000000000dd7b5e1db4aafd5c8ec3b764efb8ed265aa5445b0000000000000000000000000000000000000000000000000000000000000000)]"
      ],
      "transaction": {
        "from": "0x4c51ce7b2546e18449fbe16738a8d55bc195a4dd",
        "to": "0x6f475642a6e85809b1c36fa62763669b1b48dd5b",
        "gas": "0x2ed5d",
        "value": "0x0",
        "input": "0x6dbd9f90000000000000000000000000c099ab708e20e8b25c63ca156d7cc94404c55416000000000000000000000000e1844c5d63a9543023008d332bd3d2e6f1fe1043000000000000000000000000000000000000000000000000000000000000006000000000000000000000000000000000000000000000000000000000000000010000000000000000000000000000000000000000000000000000000000000020000000000000000000000000000000000000000000000000000000000000759e0000000000000000000000000000000000000000000000000000000000000002000000000000000000000000000000000000000000000000000000000000006000000000000000000000000000000000000000000000000000000000000001600000000000000000000000000000000000000000000000000000000000000020000000000000000000000000000000000000000000000000000000000000002000000000000000000000000000000000000000000000000000000000000000020000000000000000000000000000000000000000000000000000000000000000000000000000000000000000000000000000000000000000000000000000000000000000000000000000000000000000000000000000000000000000000000c000000000000000000000000000000000000000000000000000000000000001200000000000000000000000000000000000000000000000000000000000000002000000000000000000000000282b3386571f7f794450d5789911a9804fa346b4000000000000000000000000dd7b5e1db4aafd5c8ec3b764efb8ed265aa5445b0000000000000000000000000000000000000000000000000000000000000000",
        "nonce": "0xe2",
        "chainId": "0x138de"
      },
      "additionalContracts": [],
      "isFixedGasLimit": false
    },
    {
      "hash": "0xcb1f92f15840e7f88802d3b1e000350458c53e92b8e021a48e81aad13433aa6c",
      "transactionType": "CALL",
      "contractName": null,
      "contractAddress": "0x6f475642a6e85809b1c36fa62763669b1b48dd5b",
      "function": "setConfig(address,address,(uint32,uint32,bytes)[])",
      "arguments": [
        "0xc099Ab708e20E8b25C63cA156D7cc94404c55416",
        "0xC39161c743D0307EB9BCc9FEF03eeb9Dc4802de7",
        "[(30102, 2, 0x0000000000000000000000000000000000000000000000000000000000000020000000000000000000000000000000000000000000000000000000000000002000000000000000000000000000000000000000000000000000000000000000020000000000000000000000000000000000000000000000000000000000000000000000000000000000000000000000000000000000000000000000000000000000000000000000000000000000000000000000000000000000000000000000c000000000000000000000000000000000000000000000000000000000000001200000000000000000000000000000000000000000000000000000000000000002000000000000000000000000282b3386571f7f794450d5789911a9804fa346b4000000000000000000000000dd7b5e1db4aafd5c8ec3b764efb8ed265aa5445b0000000000000000000000000000000000000000000000000000000000000000)]"
      ],
      "transaction": {
        "from": "0x4c51ce7b2546e18449fbe16738a8d55bc195a4dd",
        "to": "0x6f475642a6e85809b1c36fa62763669b1b48dd5b",
        "gas": "0x2eec9",
        "value": "0x0",
        "input": "0x6dbd9f90000000000000000000000000c099ab708e20e8b25c63ca156d7cc94404c55416000000000000000000000000c39161c743d0307eb9bcc9fef03eeb9dc4802de700000000000000000000000000000000000000000000000000000000000000600000000000000000000000000000000000000000000000000000000000000001000000000000000000000000000000000000000000000000000000000000002000000000000000000000000000000000000000000000000000000000000075960000000000000000000000000000000000000000000000000000000000000002000000000000000000000000000000000000000000000000000000000000006000000000000000000000000000000000000000000000000000000000000001600000000000000000000000000000000000000000000000000000000000000020000000000000000000000000000000000000000000000000000000000000002000000000000000000000000000000000000000000000000000000000000000020000000000000000000000000000000000000000000000000000000000000000000000000000000000000000000000000000000000000000000000000000000000000000000000000000000000000000000000000000000000000000000000c000000000000000000000000000000000000000000000000000000000000001200000000000000000000000000000000000000000000000000000000000000002000000000000000000000000282b3386571f7f794450d5789911a9804fa346b4000000000000000000000000dd7b5e1db4aafd5c8ec3b764efb8ed265aa5445b0000000000000000000000000000000000000000000000000000000000000000",
        "nonce": "0xe3",
        "chainId": "0x138de"
      },
      "additionalContracts": [],
      "isFixedGasLimit": false
    },
    {
      "hash": "0x49c8cc1149fca4caaac57e7a1c5ce000c81896510bb37ce56337d6986bd2bc76",
      "transactionType": "CALL",
      "contractName": null,
      "contractAddress": "0x6f475642a6e85809b1c36fa62763669b1b48dd5b",
      "function": "setConfig(address,address,(uint32,uint32,bytes)[])",
      "arguments": [
        "0xc099Ab708e20E8b25C63cA156D7cc94404c55416",
        "0xe1844c5D63a9543023008D332Bd3d2e6f1FE1043",
        "[(30102, 2, 0x0000000000000000000000000000000000000000000000000000000000000020000000000000000000000000000000000000000000000000000000000000002000000000000000000000000000000000000000000000000000000000000000020000000000000000000000000000000000000000000000000000000000000000000000000000000000000000000000000000000000000000000000000000000000000000000000000000000000000000000000000000000000000000000000c000000000000000000000000000000000000000000000000000000000000001200000000000000000000000000000000000000000000000000000000000000002000000000000000000000000282b3386571f7f794450d5789911a9804fa346b4000000000000000000000000dd7b5e1db4aafd5c8ec3b764efb8ed265aa5445b0000000000000000000000000000000000000000000000000000000000000000)]"
      ],
      "transaction": {
        "from": "0x4c51ce7b2546e18449fbe16738a8d55bc195a4dd",
        "to": "0x6f475642a6e85809b1c36fa62763669b1b48dd5b",
        "gas": "0x2ed5d",
        "value": "0x0",
        "input": "0x6dbd9f90000000000000000000000000c099ab708e20e8b25c63ca156d7cc94404c55416000000000000000000000000e1844c5d63a9543023008d332bd3d2e6f1fe104300000000000000000000000000000000000000000000000000000000000000600000000000000000000000000000000000000000000000000000000000000001000000000000000000000000000000000000000000000000000000000000002000000000000000000000000000000000000000000000000000000000000075960000000000000000000000000000000000000000000000000000000000000002000000000000000000000000000000000000000000000000000000000000006000000000000000000000000000000000000000000000000000000000000001600000000000000000000000000000000000000000000000000000000000000020000000000000000000000000000000000000000000000000000000000000002000000000000000000000000000000000000000000000000000000000000000020000000000000000000000000000000000000000000000000000000000000000000000000000000000000000000000000000000000000000000000000000000000000000000000000000000000000000000000000000000000000000000000c000000000000000000000000000000000000000000000000000000000000001200000000000000000000000000000000000000000000000000000000000000002000000000000000000000000282b3386571f7f794450d5789911a9804fa346b4000000000000000000000000dd7b5e1db4aafd5c8ec3b764efb8ed265aa5445b0000000000000000000000000000000000000000000000000000000000000000",
        "nonce": "0xe4",
        "chainId": "0x138de"
      },
      "additionalContracts": [],
      "isFixedGasLimit": false
    },
    {
      "hash": "0xa167ab13e1c03db6fbe63f674e5d7fdb8e538de63035c709672d6c02628dee7b",
      "transactionType": "CALL",
      "contractName": null,
      "contractAddress": "0x6f475642a6e85809b1c36fa62763669b1b48dd5b",
      "function": "setConfig(address,address,(uint32,uint32,bytes)[])",
      "arguments": [
        "0xc099Ab708e20E8b25C63cA156D7cc94404c55416",
        "0xC39161c743D0307EB9BCc9FEF03eeb9Dc4802de7",
        "[(30339, 2, 0x0000000000000000000000000000000000000000000000000000000000000020000000000000000000000000000000000000000000000000000000000000002000000000000000000000000000000000000000000000000000000000000000020000000000000000000000000000000000000000000000000000000000000000000000000000000000000000000000000000000000000000000000000000000000000000000000000000000000000000000000000000000000000000000000c000000000000000000000000000000000000000000000000000000000000001200000000000000000000000000000000000000000000000000000000000000002000000000000000000000000282b3386571f7f794450d5789911a9804fa346b4000000000000000000000000dd7b5e1db4aafd5c8ec3b764efb8ed265aa5445b0000000000000000000000000000000000000000000000000000000000000000)]"
      ],
      "transaction": {
        "from": "0x4c51ce7b2546e18449fbe16738a8d55bc195a4dd",
        "to": "0x6f475642a6e85809b1c36fa62763669b1b48dd5b",
        "gas": "0x2eec9",
        "value": "0x0",
        "input": "0x6dbd9f90000000000000000000000000c099ab708e20e8b25c63ca156d7cc94404c55416000000000000000000000000c39161c743d0307eb9bcc9fef03eeb9dc4802de700000000000000000000000000000000000000000000000000000000000000600000000000000000000000000000000000000000000000000000000000000001000000000000000000000000000000000000000000000000000000000000002000000000000000000000000000000000000000000000000000000000000076830000000000000000000000000000000000000000000000000000000000000002000000000000000000000000000000000000000000000000000000000000006000000000000000000000000000000000000000000000000000000000000001600000000000000000000000000000000000000000000000000000000000000020000000000000000000000000000000000000000000000000000000000000002000000000000000000000000000000000000000000000000000000000000000020000000000000000000000000000000000000000000000000000000000000000000000000000000000000000000000000000000000000000000000000000000000000000000000000000000000000000000000000000000000000000000000c000000000000000000000000000000000000000000000000000000000000001200000000000000000000000000000000000000000000000000000000000000002000000000000000000000000282b3386571f7f794450d5789911a9804fa346b4000000000000000000000000dd7b5e1db4aafd5c8ec3b764efb8ed265aa5445b0000000000000000000000000000000000000000000000000000000000000000",
        "nonce": "0xe5",
        "chainId": "0x138de"
      },
      "additionalContracts": [],
      "isFixedGasLimit": false
    },
    {
      "hash": "0xf24b351c7425997db446cd32f4aa622b2e75782cd59647e461a52677bbaafced",
      "transactionType": "CALL",
      "contractName": null,
      "contractAddress": "0x6f475642a6e85809b1c36fa62763669b1b48dd5b",
      "function": "setConfig(address,address,(uint32,uint32,bytes)[])",
      "arguments": [
        "0xc099Ab708e20E8b25C63cA156D7cc94404c55416",
        "0xe1844c5D63a9543023008D332Bd3d2e6f1FE1043",
        "[(30339, 2, 0x0000000000000000000000000000000000000000000000000000000000000020000000000000000000000000000000000000000000000000000000000000002000000000000000000000000000000000000000000000000000000000000000020000000000000000000000000000000000000000000000000000000000000000000000000000000000000000000000000000000000000000000000000000000000000000000000000000000000000000000000000000000000000000000000c000000000000000000000000000000000000000000000000000000000000001200000000000000000000000000000000000000000000000000000000000000002000000000000000000000000282b3386571f7f794450d5789911a9804fa346b4000000000000000000000000dd7b5e1db4aafd5c8ec3b764efb8ed265aa5445b0000000000000000000000000000000000000000000000000000000000000000)]"
      ],
      "transaction": {
        "from": "0x4c51ce7b2546e18449fbe16738a8d55bc195a4dd",
        "to": "0x6f475642a6e85809b1c36fa62763669b1b48dd5b",
        "gas": "0x2ed5d",
        "value": "0x0",
        "input": "0x6dbd9f90000000000000000000000000c099ab708e20e8b25c63ca156d7cc94404c55416000000000000000000000000e1844c5d63a9543023008d332bd3d2e6f1fe104300000000000000000000000000000000000000000000000000000000000000600000000000000000000000000000000000000000000000000000000000000001000000000000000000000000000000000000000000000000000000000000002000000000000000000000000000000000000000000000000000000000000076830000000000000000000000000000000000000000000000000000000000000002000000000000000000000000000000000000000000000000000000000000006000000000000000000000000000000000000000000000000000000000000001600000000000000000000000000000000000000000000000000000000000000020000000000000000000000000000000000000000000000000000000000000002000000000000000000000000000000000000000000000000000000000000000020000000000000000000000000000000000000000000000000000000000000000000000000000000000000000000000000000000000000000000000000000000000000000000000000000000000000000000000000000000000000000000000c000000000000000000000000000000000000000000000000000000000000001200000000000000000000000000000000000000000000000000000000000000002000000000000000000000000282b3386571f7f794450d5789911a9804fa346b4000000000000000000000000dd7b5e1db4aafd5c8ec3b764efb8ed265aa5445b0000000000000000000000000000000000000000000000000000000000000000",
        "nonce": "0xe6",
        "chainId": "0x138de"
      },
      "additionalContracts": [],
      "isFixedGasLimit": false
    },
    {
      "hash": "0xb75bc53b19b6ed3ae09d424529b2d229d50e6aa969ed18f80b8441eccb191352",
      "transactionType": "CALL",
      "contractName": null,
      "contractAddress": "0xc099ab708e20e8b25c63ca156d7cc94404c55416",
      "function": "setDelegate(address)",
      "arguments": [
        "0xae495b70D00C724e5a9E23F4613d5e8139677503"
      ],
      "transaction": {
        "from": "0x4c51ce7b2546e18449fbe16738a8d55bc195a4dd",
        "to": "0xc099ab708e20e8b25c63ca156d7cc94404c55416",
        "gas": "0xd127",
        "value": "0x0",
        "input": "0xca5eb5e1000000000000000000000000ae495b70d00c724e5a9e23f4613d5e8139677503",
        "nonce": "0xe7",
        "chainId": "0x138de"
      },
      "additionalContracts": [],
      "isFixedGasLimit": false
    }
  ],
  "receipts": [
    {
      "status": "0x1",
      "cumulativeGasUsed": "0x1b1be05",
      "logs": [
        {
          "address": "0xc099ab708e20e8b25c63ca156d7cc94404c55416",
          "topics": [
            "0xe888347665897e637801f36c5129f510657276178c89022bc5fa0246dbc19de1"
          ],
          "data": "0x00000000000000000000000000000000000000000000000000000000000000200000000000000000000000000000000000000000000000000000000000000007000000000000000000000000000000000000000000000000000000000000759500000000000000000000000000000000000000000052b7d2dcc80cd2e40000000000000000000000000000000000000000000000000000000000000000000e10000000000000000000000000000000000000000000000000000000000000769a00000000000000000000000000000000000000000052b7d2dcc80cd2e40000000000000000000000000000000000000000000000000000000000000000000e1000000000000000000000000000000000000000000000000000000000000075e800000000000000000000000000000000000000000052b7d2dcc80cd2e40000000000000000000000000000000000000000000000000000000000000000000e10000000000000000000000000000000000000000000000000000000000000759f00000000000000000000000000000000000000000052b7d2dcc80cd2e40000000000000000000000000000000000000000000000000000000000000000000e10000000000000000000000000000000000000000000000000000000000000759e00000000000000000000000000000000000000000052b7d2dcc80cd2e40000000000000000000000000000000000000000000000000000000000000000000e10000000000000000000000000000000000000000000000000000000000000759600000000000000000000000000000000000000000052b7d2dcc80cd2e40000000000000000000000000000000000000000000000000000000000000000000e10000000000000000000000000000000000000000000000000000000000000768300000000000000000000000000000000000000000052b7d2dcc80cd2e40000000000000000000000000000000000000000000000000000000000000000000e10",
          "blockHash": "0x8755efe9124592a60bf14b48766d0cac49e08087c89092b6caea5c30cd1311e4",
          "blockNumber": "0x4f9767",
          "blockTimestamp": "0x682aff74",
          "transactionHash": "0x9a34cc4be293fa2765bc8ed73d7371f67881d5c4b2f700d149840a0894224689",
          "transactionIndex": "0x3b",
          "logIndex": "0xfe",
          "removed": false
        }
      ],
      "logsBloom": "0x00000000000000000000000000000000000000000000000000000000000000000000000000000000000000000000000000000000000000000000000000000000000000000000000000000000000000000000000000000000000000000000000000000000000000000000000000000000000000000000000000000000000000000000000000000000000000000000000000000000000020000000010000000004000000000000000000000800000000000000000000000000000000000000000000000000000000000000000000000000000000000000000000000000000000000000000000000000000000000000000000000000000000040000000000000000",
      "type": "0x2",
      "transactionHash": "0x9a34cc4be293fa2765bc8ed73d7371f67881d5c4b2f700d149840a0894224689",
      "transactionIndex": "0x3b",
      "blockHash": "0x8755efe9124592a60bf14b48766d0cac49e08087c89092b6caea5c30cd1311e4",
      "blockNumber": "0x4f9767",
      "gasUsed": "0x814a3",
      "effectiveGasPrice": "0x851",
      "from": "0x4c51ce7b2546e18449fbe16738a8d55bc195a4dd",
      "to": "0xc099ab708e20e8b25c63ca156d7cc94404c55416",
      "contractAddress": null
    },
    {
      "status": "0x1",
      "cumulativeGasUsed": "0x1b28c02",
      "logs": [
        {
          "address": "0xc099ab708e20e8b25c63ca156d7cc94404c55416",
          "topics": [
            "0x238399d427b947898edb290f5ff0f9109849b1c3ba196a42e35f00c50a54b98b"
          ],
          "data": "0x0000000000000000000000000000000000000000000000000000000000007595000000000000000000000000c099ab708e20e8b25c63ca156d7cc94404c55416",
          "blockHash": "0x8755efe9124592a60bf14b48766d0cac49e08087c89092b6caea5c30cd1311e4",
          "blockNumber": "0x4f9767",
          "blockTimestamp": "0x682aff74",
          "transactionHash": "0x91b06ba98013540aa605e8846ba12cd79493fe4d167ecf8bfca9e38515d1f828",
          "transactionIndex": "0x3c",
          "logIndex": "0xff",
          "removed": false
        }
      ],
      "logsBloom": "0x00000000000000000000000000000000000000000000000000000000000000000000000000000000000000000000000000000000000000000800000000000000000000000000000000000000000000000000000000000000000000000000000000000000000000000000000000000000000000000000000000000000000000000000000000000000000000000000000000000000000000000000010000000000000000000000000000000800000000000000000000000000000002000000000000000000000000000000000000000000000000000000000000040000000000000000000000000000000000000000000000000000000000040000000000000000",
      "type": "0x2",
      "transactionHash": "0x91b06ba98013540aa605e8846ba12cd79493fe4d167ecf8bfca9e38515d1f828",
      "transactionIndex": "0x3c",
      "blockHash": "0x8755efe9124592a60bf14b48766d0cac49e08087c89092b6caea5c30cd1311e4",
      "blockNumber": "0x4f9767",
      "gasUsed": "0xcdfd",
      "effectiveGasPrice": "0x851",
      "from": "0x4c51ce7b2546e18449fbe16738a8d55bc195a4dd",
      "to": "0xc099ab708e20e8b25c63ca156d7cc94404c55416",
      "contractAddress": null
    },
    {
      "status": "0x1",
      "cumulativeGasUsed": "0x1b359ff",
      "logs": [
        {
          "address": "0xc099ab708e20e8b25c63ca156d7cc94404c55416",
          "topics": [
            "0x238399d427b947898edb290f5ff0f9109849b1c3ba196a42e35f00c50a54b98b"
          ],
          "data": "0x00000000000000000000000000000000000000000000000000000000000075e8000000000000000000000000c099ab708e20e8b25c63ca156d7cc94404c55416",
          "blockHash": "0x8755efe9124592a60bf14b48766d0cac49e08087c89092b6caea5c30cd1311e4",
          "blockNumber": "0x4f9767",
          "blockTimestamp": "0x682aff74",
          "transactionHash": "0x7d769a3a619a658bbcaf67d1258a98b389035062c72b9629ef0ba71cae3e49ce",
          "transactionIndex": "0x3d",
          "logIndex": "0x100",
          "removed": false
        }
      ],
      "logsBloom": "0x00000000000000000000000000000000000000000000000000000000000000000000000000000000000000000000000000000000000000000800000000000000000000000000000000000000000000000000000000000000000000000000000000000000000000000000000000000000000000000000000000000000000000000000000000000000000000000000000000000000000000000000010000000000000000000000000000000800000000000000000000000000000002000000000000000000000000000000000000000000000000000000000000040000000000000000000000000000000000000000000000000000000000040000000000000000",
      "type": "0x2",
      "transactionHash": "0x7d769a3a619a658bbcaf67d1258a98b389035062c72b9629ef0ba71cae3e49ce",
      "transactionIndex": "0x3d",
      "blockHash": "0x8755efe9124592a60bf14b48766d0cac49e08087c89092b6caea5c30cd1311e4",
      "blockNumber": "0x4f9767",
      "gasUsed": "0xcdfd",
      "effectiveGasPrice": "0x851",
      "from": "0x4c51ce7b2546e18449fbe16738a8d55bc195a4dd",
      "to": "0xc099ab708e20e8b25c63ca156d7cc94404c55416",
      "contractAddress": null
    },
    {
      "status": "0x1",
      "cumulativeGasUsed": "0x1b427fc",
      "logs": [
        {
          "address": "0xc099ab708e20e8b25c63ca156d7cc94404c55416",
          "topics": [
            "0x238399d427b947898edb290f5ff0f9109849b1c3ba196a42e35f00c50a54b98b"
          ],
          "data": "0x000000000000000000000000000000000000000000000000000000000000759f000000000000000000000000c099ab708e20e8b25c63ca156d7cc94404c55416",
          "blockHash": "0x8755efe9124592a60bf14b48766d0cac49e08087c89092b6caea5c30cd1311e4",
          "blockNumber": "0x4f9767",
          "blockTimestamp": "0x682aff74",
          "transactionHash": "0xd6aa7870bbab69782e44904c60f0a5a5ef8c532922af856fd11d502662ce1045",
          "transactionIndex": "0x3e",
          "logIndex": "0x101",
          "removed": false
        }
      ],
      "logsBloom": "0x00000000000000000000000000000000000000000000000000000000000000000000000000000000000000000000000000000000000000000800000000000000000000000000000000000000000000000000000000000000000000000000000000000000000000000000000000000000000000000000000000000000000000000000000000000000000000000000000000000000000000000000010000000000000000000000000000000800000000000000000000000000000002000000000000000000000000000000000000000000000000000000000000040000000000000000000000000000000000000000000000000000000000040000000000000000",
      "type": "0x2",
      "transactionHash": "0xd6aa7870bbab69782e44904c60f0a5a5ef8c532922af856fd11d502662ce1045",
      "transactionIndex": "0x3e",
      "blockHash": "0x8755efe9124592a60bf14b48766d0cac49e08087c89092b6caea5c30cd1311e4",
      "blockNumber": "0x4f9767",
      "gasUsed": "0xcdfd",
      "effectiveGasPrice": "0x851",
      "from": "0x4c51ce7b2546e18449fbe16738a8d55bc195a4dd",
      "to": "0xc099ab708e20e8b25c63ca156d7cc94404c55416",
      "contractAddress": null
    },
    {
      "status": "0x1",
      "cumulativeGasUsed": "0x1b4f5f9",
      "logs": [
        {
          "address": "0xc099ab708e20e8b25c63ca156d7cc94404c55416",
          "topics": [
            "0x238399d427b947898edb290f5ff0f9109849b1c3ba196a42e35f00c50a54b98b"
          ],
          "data": "0x000000000000000000000000000000000000000000000000000000000000759e000000000000000000000000c099ab708e20e8b25c63ca156d7cc94404c55416",
          "blockHash": "0x8755efe9124592a60bf14b48766d0cac49e08087c89092b6caea5c30cd1311e4",
          "blockNumber": "0x4f9767",
          "blockTimestamp": "0x682aff74",
          "transactionHash": "0x05045a599c4efdecdf212ced322c5228f79025936ff09df07ee9f529168f9418",
          "transactionIndex": "0x3f",
          "logIndex": "0x102",
          "removed": false
        }
      ],
      "logsBloom": "0x00000000000000000000000000000000000000000000000000000000000000000000000000000000000000000000000000000000000000000800000000000000000000000000000000000000000000000000000000000000000000000000000000000000000000000000000000000000000000000000000000000000000000000000000000000000000000000000000000000000000000000000010000000000000000000000000000000800000000000000000000000000000002000000000000000000000000000000000000000000000000000000000000040000000000000000000000000000000000000000000000000000000000040000000000000000",
      "type": "0x2",
      "transactionHash": "0x05045a599c4efdecdf212ced322c5228f79025936ff09df07ee9f529168f9418",
      "transactionIndex": "0x3f",
      "blockHash": "0x8755efe9124592a60bf14b48766d0cac49e08087c89092b6caea5c30cd1311e4",
      "blockNumber": "0x4f9767",
      "gasUsed": "0xcdfd",
      "effectiveGasPrice": "0x851",
      "from": "0x4c51ce7b2546e18449fbe16738a8d55bc195a4dd",
      "to": "0xc099ab708e20e8b25c63ca156d7cc94404c55416",
      "contractAddress": null
    },
    {
      "status": "0x1",
      "cumulativeGasUsed": "0x1b5c3f6",
      "logs": [
        {
          "address": "0xc099ab708e20e8b25c63ca156d7cc94404c55416",
          "topics": [
            "0x238399d427b947898edb290f5ff0f9109849b1c3ba196a42e35f00c50a54b98b"
          ],
          "data": "0x0000000000000000000000000000000000000000000000000000000000007596000000000000000000000000c099ab708e20e8b25c63ca156d7cc94404c55416",
          "blockHash": "0x8755efe9124592a60bf14b48766d0cac49e08087c89092b6caea5c30cd1311e4",
          "blockNumber": "0x4f9767",
          "blockTimestamp": "0x682aff74",
          "transactionHash": "0xc3594f588e82862c676b633dab6e2eddd96f0c80251f678c4f8318b6e5848742",
          "transactionIndex": "0x40",
          "logIndex": "0x103",
          "removed": false
        }
      ],
      "logsBloom": "0x00000000000000000000000000000000000000000000000000000000000000000000000000000000000000000000000000000000000000000800000000000000000000000000000000000000000000000000000000000000000000000000000000000000000000000000000000000000000000000000000000000000000000000000000000000000000000000000000000000000000000000000010000000000000000000000000000000800000000000000000000000000000002000000000000000000000000000000000000000000000000000000000000040000000000000000000000000000000000000000000000000000000000040000000000000000",
      "type": "0x2",
      "transactionHash": "0xc3594f588e82862c676b633dab6e2eddd96f0c80251f678c4f8318b6e5848742",
      "transactionIndex": "0x40",
      "blockHash": "0x8755efe9124592a60bf14b48766d0cac49e08087c89092b6caea5c30cd1311e4",
      "blockNumber": "0x4f9767",
      "gasUsed": "0xcdfd",
      "effectiveGasPrice": "0x851",
      "from": "0x4c51ce7b2546e18449fbe16738a8d55bc195a4dd",
      "to": "0xc099ab708e20e8b25c63ca156d7cc94404c55416",
      "contractAddress": null
    },
    {
      "status": "0x1",
      "cumulativeGasUsed": "0x1b691f3",
      "logs": [
        {
          "address": "0xc099ab708e20e8b25c63ca156d7cc94404c55416",
          "topics": [
            "0x238399d427b947898edb290f5ff0f9109849b1c3ba196a42e35f00c50a54b98b"
          ],
          "data": "0x0000000000000000000000000000000000000000000000000000000000007683000000000000000000000000c099ab708e20e8b25c63ca156d7cc94404c55416",
          "blockHash": "0x8755efe9124592a60bf14b48766d0cac49e08087c89092b6caea5c30cd1311e4",
          "blockNumber": "0x4f9767",
          "blockTimestamp": "0x682aff74",
          "transactionHash": "0xaa836880dcb2683cc419a7201e87da27b1ae73f5871080203cf2e7a47f7aa5e3",
          "transactionIndex": "0x41",
          "logIndex": "0x104",
          "removed": false
        }
      ],
      "logsBloom": "0x00000000000000000000000000000000000000000000000000000000000000000000000000000000000000000000000000000000000000000800000000000000000000000000000000000000000000000000000000000000000000000000000000000000000000000000000000000000000000000000000000000000000000000000000000000000000000000000000000000000000000000000010000000000000000000000000000000800000000000000000000000000000002000000000000000000000000000000000000000000000000000000000000040000000000000000000000000000000000000000000000000000000000040000000000000000",
      "type": "0x2",
      "transactionHash": "0xaa836880dcb2683cc419a7201e87da27b1ae73f5871080203cf2e7a47f7aa5e3",
      "transactionIndex": "0x41",
      "blockHash": "0x8755efe9124592a60bf14b48766d0cac49e08087c89092b6caea5c30cd1311e4",
      "blockNumber": "0x4f9767",
      "gasUsed": "0xcdfd",
      "effectiveGasPrice": "0x851",
      "from": "0x4c51ce7b2546e18449fbe16738a8d55bc195a4dd",
      "to": "0xc099ab708e20e8b25c63ca156d7cc94404c55416",
      "contractAddress": null
    },
    {
      "status": "0x1",
      "cumulativeGasUsed": "0x1b78d88",
      "logs": [
        {
          "address": "0x6f475642a6e85809b1c36fa62763669b1b48dd5b",
          "topics": [
            "0xcd6f92f5ac6185a5acfa02c92090746cec64d777269cbcd0ed031e396657a1c2"
          ],
          "data": "0x000000000000000000000000c099ab708e20e8b25c63ca156d7cc94404c554160000000000000000000000000000000000000000000000000000000000007595000000000000000000000000e1844c5d63a9543023008d332bd3d2e6f1fe1043",
          "blockHash": "0x8755efe9124592a60bf14b48766d0cac49e08087c89092b6caea5c30cd1311e4",
          "blockNumber": "0x4f9767",
          "blockTimestamp": "0x682aff74",
          "transactionHash": "0x864c2f34d9b12ff75601a4b77deb1843e64b26557f971589c6ed5aba42f9792a",
          "transactionIndex": "0x42",
          "logIndex": "0x105",
          "removed": false
        },
        {
          "address": "0x6f475642a6e85809b1c36fa62763669b1b48dd5b",
          "topics": [
            "0x4e0a5bbfa0c11a64effb1ada324b5437a17272e1aed9320398715ef71bb20928"
          ],
          "data": "0x000000000000000000000000c099ab708e20e8b25c63ca156d7cc94404c55416000000000000000000000000000000000000000000000000000000000000759500000000000000000000000000000000000000000000000000000000000000000000000000000000000000000000000000000000000000000000000000000000",
          "blockHash": "0x8755efe9124592a60bf14b48766d0cac49e08087c89092b6caea5c30cd1311e4",
          "blockNumber": "0x4f9767",
          "blockTimestamp": "0x682aff74",
          "transactionHash": "0x864c2f34d9b12ff75601a4b77deb1843e64b26557f971589c6ed5aba42f9792a",
          "transactionIndex": "0x42",
          "logIndex": "0x106",
          "removed": false
        }
      ],
      "logsBloom": "0x00000000000000000000020800000000000000000000000000000000000000020400000000000000000000000000000000000000000000000000000000000000000000000000000000000000000000000140000000800000000000000000000000000000000000000000000000000000000000000000000000000000000000100000000000000000000000000000000000000000000000000000000000000000000000000000000000000000000000000000000000000000000000000000000000000000000000000000000000000000000000000000000000000000000000004000000000000000000000000000000000000000000000000000000000000000",
      "type": "0x2",
      "transactionHash": "0x864c2f34d9b12ff75601a4b77deb1843e64b26557f971589c6ed5aba42f9792a",
      "transactionIndex": "0x42",
      "blockHash": "0x8755efe9124592a60bf14b48766d0cac49e08087c89092b6caea5c30cd1311e4",
      "blockNumber": "0x4f9767",
      "gasUsed": "0xfb95",
      "effectiveGasPrice": "0x851",
      "from": "0x4c51ce7b2546e18449fbe16738a8d55bc195a4dd",
      "to": "0x6f475642a6e85809b1c36fa62763669b1b48dd5b",
      "contractAddress": null
    },
    {
      "status": "0x1",
      "cumulativeGasUsed": "0x1b8891d",
      "logs": [
        {
          "address": "0x6f475642a6e85809b1c36fa62763669b1b48dd5b",
          "topics": [
            "0xcd6f92f5ac6185a5acfa02c92090746cec64d777269cbcd0ed031e396657a1c2"
          ],
          "data": "0x000000000000000000000000c099ab708e20e8b25c63ca156d7cc94404c5541600000000000000000000000000000000000000000000000000000000000075e8000000000000000000000000e1844c5d63a9543023008d332bd3d2e6f1fe1043",
          "blockHash": "0x8755efe9124592a60bf14b48766d0cac49e08087c89092b6caea5c30cd1311e4",
          "blockNumber": "0x4f9767",
          "blockTimestamp": "0x682aff74",
          "transactionHash": "0x6442f87f4ad0ae903401cd9641b090ca41d1c20df13e7898af397e574e60012b",
          "transactionIndex": "0x43",
          "logIndex": "0x107",
          "removed": false
        },
        {
          "address": "0x6f475642a6e85809b1c36fa62763669b1b48dd5b",
          "topics": [
            "0x4e0a5bbfa0c11a64effb1ada324b5437a17272e1aed9320398715ef71bb20928"
          ],
          "data": "0x000000000000000000000000c099ab708e20e8b25c63ca156d7cc94404c5541600000000000000000000000000000000000000000000000000000000000075e800000000000000000000000000000000000000000000000000000000000000000000000000000000000000000000000000000000000000000000000000000000",
          "blockHash": "0x8755efe9124592a60bf14b48766d0cac49e08087c89092b6caea5c30cd1311e4",
          "blockNumber": "0x4f9767",
          "blockTimestamp": "0x682aff74",
          "transactionHash": "0x6442f87f4ad0ae903401cd9641b090ca41d1c20df13e7898af397e574e60012b",
          "transactionIndex": "0x43",
          "logIndex": "0x108",
          "removed": false
        }
      ],
      "logsBloom": "0x00000000000000000000020800000000000000000000000000000000000000020400000000000000000000000000000000000000000000000000000000000000000000000000000000000000000000000140000000800000000000000000000000000000000000000000000000000000000000000000000000000000000000100000000000000000000000000000000000000000000000000000000000000000000000000000000000000000000000000000000000000000000000000000000000000000000000000000000000000000000000000000000000000000000000004000000000000000000000000000000000000000000000000000000000000000",
      "type": "0x2",
      "transactionHash": "0x6442f87f4ad0ae903401cd9641b090ca41d1c20df13e7898af397e574e60012b",
      "transactionIndex": "0x43",
      "blockHash": "0x8755efe9124592a60bf14b48766d0cac49e08087c89092b6caea5c30cd1311e4",
      "blockNumber": "0x4f9767",
      "gasUsed": "0xfb95",
      "effectiveGasPrice": "0x851",
      "from": "0x4c51ce7b2546e18449fbe16738a8d55bc195a4dd",
      "to": "0x6f475642a6e85809b1c36fa62763669b1b48dd5b",
      "contractAddress": null
    },
    {
      "status": "0x1",
      "cumulativeGasUsed": "0x1b984b2",
      "logs": [
        {
          "address": "0x6f475642a6e85809b1c36fa62763669b1b48dd5b",
          "topics": [
            "0xcd6f92f5ac6185a5acfa02c92090746cec64d777269cbcd0ed031e396657a1c2"
          ],
          "data": "0x000000000000000000000000c099ab708e20e8b25c63ca156d7cc94404c55416000000000000000000000000000000000000000000000000000000000000759f000000000000000000000000e1844c5d63a9543023008d332bd3d2e6f1fe1043",
          "blockHash": "0x8755efe9124592a60bf14b48766d0cac49e08087c89092b6caea5c30cd1311e4",
          "blockNumber": "0x4f9767",
          "blockTimestamp": "0x682aff74",
          "transactionHash": "0x80065fd2c33408e6e90a1567ae0fe041a3cb0366d17d764e00a23de08bb8372f",
          "transactionIndex": "0x44",
          "logIndex": "0x109",
          "removed": false
        },
        {
          "address": "0x6f475642a6e85809b1c36fa62763669b1b48dd5b",
          "topics": [
            "0x4e0a5bbfa0c11a64effb1ada324b5437a17272e1aed9320398715ef71bb20928"
          ],
          "data": "0x000000000000000000000000c099ab708e20e8b25c63ca156d7cc94404c55416000000000000000000000000000000000000000000000000000000000000759f00000000000000000000000000000000000000000000000000000000000000000000000000000000000000000000000000000000000000000000000000000000",
          "blockHash": "0x8755efe9124592a60bf14b48766d0cac49e08087c89092b6caea5c30cd1311e4",
          "blockNumber": "0x4f9767",
          "blockTimestamp": "0x682aff74",
          "transactionHash": "0x80065fd2c33408e6e90a1567ae0fe041a3cb0366d17d764e00a23de08bb8372f",
          "transactionIndex": "0x44",
          "logIndex": "0x10a",
          "removed": false
        }
      ],
      "logsBloom": "0x00000000000000000000020800000000000000000000000000000000000000020400000000000000000000000000000000000000000000000000000000000000000000000000000000000000000000000140000000800000000000000000000000000000000000000000000000000000000000000000000000000000000000100000000000000000000000000000000000000000000000000000000000000000000000000000000000000000000000000000000000000000000000000000000000000000000000000000000000000000000000000000000000000000000000004000000000000000000000000000000000000000000000000000000000000000",
      "type": "0x2",
      "transactionHash": "0x80065fd2c33408e6e90a1567ae0fe041a3cb0366d17d764e00a23de08bb8372f",
      "transactionIndex": "0x44",
      "blockHash": "0x8755efe9124592a60bf14b48766d0cac49e08087c89092b6caea5c30cd1311e4",
      "blockNumber": "0x4f9767",
      "gasUsed": "0xfb95",
      "effectiveGasPrice": "0x851",
      "from": "0x4c51ce7b2546e18449fbe16738a8d55bc195a4dd",
      "to": "0x6f475642a6e85809b1c36fa62763669b1b48dd5b",
      "contractAddress": null
    },
    {
      "status": "0x1",
      "cumulativeGasUsed": "0x1ba8047",
      "logs": [
        {
          "address": "0x6f475642a6e85809b1c36fa62763669b1b48dd5b",
          "topics": [
            "0xcd6f92f5ac6185a5acfa02c92090746cec64d777269cbcd0ed031e396657a1c2"
          ],
          "data": "0x000000000000000000000000c099ab708e20e8b25c63ca156d7cc94404c55416000000000000000000000000000000000000000000000000000000000000759e000000000000000000000000e1844c5d63a9543023008d332bd3d2e6f1fe1043",
          "blockHash": "0x8755efe9124592a60bf14b48766d0cac49e08087c89092b6caea5c30cd1311e4",
          "blockNumber": "0x4f9767",
          "blockTimestamp": "0x682aff74",
          "transactionHash": "0x3ba63a01a42617eb14ae27807491c7713856349482db75303735daeb2c3a3d1b",
          "transactionIndex": "0x45",
          "logIndex": "0x10b",
          "removed": false
        },
        {
          "address": "0x6f475642a6e85809b1c36fa62763669b1b48dd5b",
          "topics": [
            "0x4e0a5bbfa0c11a64effb1ada324b5437a17272e1aed9320398715ef71bb20928"
          ],
          "data": "0x000000000000000000000000c099ab708e20e8b25c63ca156d7cc94404c55416000000000000000000000000000000000000000000000000000000000000759e00000000000000000000000000000000000000000000000000000000000000000000000000000000000000000000000000000000000000000000000000000000",
          "blockHash": "0x8755efe9124592a60bf14b48766d0cac49e08087c89092b6caea5c30cd1311e4",
          "blockNumber": "0x4f9767",
          "blockTimestamp": "0x682aff74",
          "transactionHash": "0x3ba63a01a42617eb14ae27807491c7713856349482db75303735daeb2c3a3d1b",
          "transactionIndex": "0x45",
          "logIndex": "0x10c",
          "removed": false
        }
      ],
      "logsBloom": "0x00000000000000000000020800000000000000000000000000000000000000020400000000000000000000000000000000000000000000000000000000000000000000000000000000000000000000000140000000800000000000000000000000000000000000000000000000000000000000000000000000000000000000100000000000000000000000000000000000000000000000000000000000000000000000000000000000000000000000000000000000000000000000000000000000000000000000000000000000000000000000000000000000000000000000004000000000000000000000000000000000000000000000000000000000000000",
      "type": "0x2",
      "transactionHash": "0x3ba63a01a42617eb14ae27807491c7713856349482db75303735daeb2c3a3d1b",
      "transactionIndex": "0x45",
      "blockHash": "0x8755efe9124592a60bf14b48766d0cac49e08087c89092b6caea5c30cd1311e4",
      "blockNumber": "0x4f9767",
      "gasUsed": "0xfb95",
      "effectiveGasPrice": "0x851",
      "from": "0x4c51ce7b2546e18449fbe16738a8d55bc195a4dd",
      "to": "0x6f475642a6e85809b1c36fa62763669b1b48dd5b",
      "contractAddress": null
    },
    {
      "status": "0x1",
      "cumulativeGasUsed": "0x1bb7bdc",
      "logs": [
        {
          "address": "0x6f475642a6e85809b1c36fa62763669b1b48dd5b",
          "topics": [
            "0xcd6f92f5ac6185a5acfa02c92090746cec64d777269cbcd0ed031e396657a1c2"
          ],
          "data": "0x000000000000000000000000c099ab708e20e8b25c63ca156d7cc94404c554160000000000000000000000000000000000000000000000000000000000007596000000000000000000000000e1844c5d63a9543023008d332bd3d2e6f1fe1043",
          "blockHash": "0x8755efe9124592a60bf14b48766d0cac49e08087c89092b6caea5c30cd1311e4",
          "blockNumber": "0x4f9767",
          "blockTimestamp": "0x682aff74",
          "transactionHash": "0x840b2545bf190f98e9efcc8ebd4c272f0eedfbce30fe092682a79bfa598b4ae9",
          "transactionIndex": "0x46",
          "logIndex": "0x10d",
          "removed": false
        },
        {
          "address": "0x6f475642a6e85809b1c36fa62763669b1b48dd5b",
          "topics": [
            "0x4e0a5bbfa0c11a64effb1ada324b5437a17272e1aed9320398715ef71bb20928"
          ],
          "data": "0x000000000000000000000000c099ab708e20e8b25c63ca156d7cc94404c55416000000000000000000000000000000000000000000000000000000000000759600000000000000000000000000000000000000000000000000000000000000000000000000000000000000000000000000000000000000000000000000000000",
          "blockHash": "0x8755efe9124592a60bf14b48766d0cac49e08087c89092b6caea5c30cd1311e4",
          "blockNumber": "0x4f9767",
          "blockTimestamp": "0x682aff74",
          "transactionHash": "0x840b2545bf190f98e9efcc8ebd4c272f0eedfbce30fe092682a79bfa598b4ae9",
          "transactionIndex": "0x46",
          "logIndex": "0x10e",
          "removed": false
        }
      ],
      "logsBloom": "0x00000000000000000000020800000000000000000000000000000000000000020400000000000000000000000000000000000000000000000000000000000000000000000000000000000000000000000140000000800000000000000000000000000000000000000000000000000000000000000000000000000000000000100000000000000000000000000000000000000000000000000000000000000000000000000000000000000000000000000000000000000000000000000000000000000000000000000000000000000000000000000000000000000000000000004000000000000000000000000000000000000000000000000000000000000000",
      "type": "0x2",
      "transactionHash": "0x840b2545bf190f98e9efcc8ebd4c272f0eedfbce30fe092682a79bfa598b4ae9",
      "transactionIndex": "0x46",
      "blockHash": "0x8755efe9124592a60bf14b48766d0cac49e08087c89092b6caea5c30cd1311e4",
      "blockNumber": "0x4f9767",
      "gasUsed": "0xfb95",
      "effectiveGasPrice": "0x851",
      "from": "0x4c51ce7b2546e18449fbe16738a8d55bc195a4dd",
      "to": "0x6f475642a6e85809b1c36fa62763669b1b48dd5b",
      "contractAddress": null
    },
    {
      "status": "0x1",
      "cumulativeGasUsed": "0x1bc7771",
      "logs": [
        {
          "address": "0x6f475642a6e85809b1c36fa62763669b1b48dd5b",
          "topics": [
            "0xcd6f92f5ac6185a5acfa02c92090746cec64d777269cbcd0ed031e396657a1c2"
          ],
          "data": "0x000000000000000000000000c099ab708e20e8b25c63ca156d7cc94404c554160000000000000000000000000000000000000000000000000000000000007683000000000000000000000000e1844c5d63a9543023008d332bd3d2e6f1fe1043",
          "blockHash": "0x8755efe9124592a60bf14b48766d0cac49e08087c89092b6caea5c30cd1311e4",
          "blockNumber": "0x4f9767",
          "blockTimestamp": "0x682aff74",
          "transactionHash": "0xcc779017448b1d6d92bcc182ccfff99779d4f6e7296afd958ac3011f071980a0",
          "transactionIndex": "0x47",
          "logIndex": "0x10f",
          "removed": false
        },
        {
          "address": "0x6f475642a6e85809b1c36fa62763669b1b48dd5b",
          "topics": [
            "0x4e0a5bbfa0c11a64effb1ada324b5437a17272e1aed9320398715ef71bb20928"
          ],
          "data": "0x000000000000000000000000c099ab708e20e8b25c63ca156d7cc94404c55416000000000000000000000000000000000000000000000000000000000000768300000000000000000000000000000000000000000000000000000000000000000000000000000000000000000000000000000000000000000000000000000000",
          "blockHash": "0x8755efe9124592a60bf14b48766d0cac49e08087c89092b6caea5c30cd1311e4",
          "blockNumber": "0x4f9767",
          "blockTimestamp": "0x682aff74",
          "transactionHash": "0xcc779017448b1d6d92bcc182ccfff99779d4f6e7296afd958ac3011f071980a0",
          "transactionIndex": "0x47",
          "logIndex": "0x110",
          "removed": false
        }
      ],
      "logsBloom": "0x00000000000000000000020800000000000000000000000000000000000000020400000000000000000000000000000000000000000000000000000000000000000000000000000000000000000000000140000000800000000000000000000000000000000000000000000000000000000000000000000000000000000000100000000000000000000000000000000000000000000000000000000000000000000000000000000000000000000000000000000000000000000000000000000000000000000000000000000000000000000000000000000000000000000000004000000000000000000000000000000000000000000000000000000000000000",
      "type": "0x2",
      "transactionHash": "0xcc779017448b1d6d92bcc182ccfff99779d4f6e7296afd958ac3011f071980a0",
      "transactionIndex": "0x47",
      "blockHash": "0x8755efe9124592a60bf14b48766d0cac49e08087c89092b6caea5c30cd1311e4",
      "blockNumber": "0x4f9767",
      "gasUsed": "0xfb95",
      "effectiveGasPrice": "0x851",
      "from": "0x4c51ce7b2546e18449fbe16738a8d55bc195a4dd",
      "to": "0x6f475642a6e85809b1c36fa62763669b1b48dd5b",
      "contractAddress": null
    },
    {
      "status": "0x1",
      "cumulativeGasUsed": "0x1be74b4",
      "logs": [
        {
          "address": "0xc099ab708e20e8b25c63ca156d7cc94404c55416",
          "topics": [
            "0xbe4864a8e820971c0247f5992e2da559595f7bf076a21cb5928d443d2a13b674"
          ],
          "data": "0x00000000000000000000000000000000000000000000000000000000000000200000000000000000000000000000000000000000000000000000000000000002000000000000000000000000000000000000000000000000000000000000004000000000000000000000000000000000000000000000000000000000000000e000000000000000000000000000000000000000000000000000000000000075950000000000000000000000000000000000000000000000000000000000000001000000000000000000000000000000000000000000000000000000000000006000000000000000000000000000000000000000000000000000000000000000160003010011010000000000000000000000000002981000000000000000000000000000000000000000000000000000000000000000000000000000000000759500000000000000000000000000000000000000000000000000000000000000020000000000000000000000000000000000000000000000000000000000000060000000000000000000000000000000000000000000000000000000000000002c00030100110100000000000000000000000000029810010013030000000000000000000000000000000298100000000000000000000000000000000000000000",
          "blockHash": "0x8755efe9124592a60bf14b48766d0cac49e08087c89092b6caea5c30cd1311e4",
          "blockNumber": "0x4f9767",
          "blockTimestamp": "0x682aff74",
          "transactionHash": "0x89f663d71ff859899d5dcfcb5ea49b8c6b44131ab6195180f85d89bb748ebbf9",
          "transactionIndex": "0x48",
          "logIndex": "0x111",
          "removed": false
        }
      ],
      "logsBloom": "0x00000000000000000000000000000000000000000000000000000000000000000000000000000000000000000000000000000000000000000000400000000000000000000000000000000000000000000000000000000000000000000000000000000000000000000000000000000000000000000000000000000000000000000000000000000000000000000000000000000000000000000000010000080000000000000000000000000800000000000000000000000000000000000000000000000000000000000000000002000000000000000000000000000000000000000000000000000000000000000000000000000000000000040000000000000000",
      "type": "0x2",
      "transactionHash": "0x89f663d71ff859899d5dcfcb5ea49b8c6b44131ab6195180f85d89bb748ebbf9",
      "transactionIndex": "0x48",
      "blockHash": "0x8755efe9124592a60bf14b48766d0cac49e08087c89092b6caea5c30cd1311e4",
      "blockNumber": "0x4f9767",
      "gasUsed": "0x1fd43",
      "effectiveGasPrice": "0x851",
      "from": "0x4c51ce7b2546e18449fbe16738a8d55bc195a4dd",
      "to": "0xc099ab708e20e8b25c63ca156d7cc94404c55416",
      "contractAddress": null
    },
    {
      "status": "0x1",
      "cumulativeGasUsed": "0x1c071f7",
      "logs": [
        {
          "address": "0xc099ab708e20e8b25c63ca156d7cc94404c55416",
          "topics": [
            "0xbe4864a8e820971c0247f5992e2da559595f7bf076a21cb5928d443d2a13b674"
          ],
          "data": "0x00000000000000000000000000000000000000000000000000000000000000200000000000000000000000000000000000000000000000000000000000000002000000000000000000000000000000000000000000000000000000000000004000000000000000000000000000000000000000000000000000000000000000e000000000000000000000000000000000000000000000000000000000000075e8000000000000000000000000000000000000000000000000000000000000000100000000000000000000000000000000000000000000000000000000000000600000000000000000000000000000000000000000000000000000000000000016000301001101000000000000000000000000000298100000000000000000000000000000000000000000000000000000000000000000000000000000000075e800000000000000000000000000000000000000000000000000000000000000020000000000000000000000000000000000000000000000000000000000000060000000000000000000000000000000000000000000000000000000000000002c00030100110100000000000000000000000000029810010013030000000000000000000000000000000298100000000000000000000000000000000000000000",
          "blockHash": "0x8755efe9124592a60bf14b48766d0cac49e08087c89092b6caea5c30cd1311e4",
          "blockNumber": "0x4f9767",
          "blockTimestamp": "0x682aff74",
          "transactionHash": "0xec77af78a450802e398ab06eb41f1c576574d6271806f39e24dd7516f30b2c36",
          "transactionIndex": "0x49",
          "logIndex": "0x112",
          "removed": false
        }
      ],
      "logsBloom": "0x00000000000000000000000000000000000000000000000000000000000000000000000000000000000000000000000000000000000000000000400000000000000000000000000000000000000000000000000000000000000000000000000000000000000000000000000000000000000000000000000000000000000000000000000000000000000000000000000000000000000000000000010000080000000000000000000000000800000000000000000000000000000000000000000000000000000000000000000002000000000000000000000000000000000000000000000000000000000000000000000000000000000000040000000000000000",
      "type": "0x2",
      "transactionHash": "0xec77af78a450802e398ab06eb41f1c576574d6271806f39e24dd7516f30b2c36",
      "transactionIndex": "0x49",
      "blockHash": "0x8755efe9124592a60bf14b48766d0cac49e08087c89092b6caea5c30cd1311e4",
      "blockNumber": "0x4f9767",
      "gasUsed": "0x1fd43",
      "effectiveGasPrice": "0x851",
      "from": "0x4c51ce7b2546e18449fbe16738a8d55bc195a4dd",
      "to": "0xc099ab708e20e8b25c63ca156d7cc94404c55416",
      "contractAddress": null
    },
    {
      "status": "0x1",
      "cumulativeGasUsed": "0x1c26f3a",
      "logs": [
        {
          "address": "0xc099ab708e20e8b25c63ca156d7cc94404c55416",
          "topics": [
            "0xbe4864a8e820971c0247f5992e2da559595f7bf076a21cb5928d443d2a13b674"
          ],
          "data": "0x00000000000000000000000000000000000000000000000000000000000000200000000000000000000000000000000000000000000000000000000000000002000000000000000000000000000000000000000000000000000000000000004000000000000000000000000000000000000000000000000000000000000000e0000000000000000000000000000000000000000000000000000000000000759f0000000000000000000000000000000000000000000000000000000000000001000000000000000000000000000000000000000000000000000000000000006000000000000000000000000000000000000000000000000000000000000000160003010011010000000000000000000000000002981000000000000000000000000000000000000000000000000000000000000000000000000000000000759f00000000000000000000000000000000000000000000000000000000000000020000000000000000000000000000000000000000000000000000000000000060000000000000000000000000000000000000000000000000000000000000002c00030100110100000000000000000000000000029810010013030000000000000000000000000000000298100000000000000000000000000000000000000000",
          "blockHash": "0x8755efe9124592a60bf14b48766d0cac49e08087c89092b6caea5c30cd1311e4",
          "blockNumber": "0x4f9767",
          "blockTimestamp": "0x682aff74",
          "transactionHash": "0xa706fee631ec8f7dbc6ed8c5d3b37cbe5492d086b6b17d8b08b0528dea2109ea",
          "transactionIndex": "0x4a",
          "logIndex": "0x113",
          "removed": false
        }
      ],
      "logsBloom": "0x00000000000000000000000000000000000000000000000000000000000000000000000000000000000000000000000000000000000000000000400000000000000000000000000000000000000000000000000000000000000000000000000000000000000000000000000000000000000000000000000000000000000000000000000000000000000000000000000000000000000000000000010000080000000000000000000000000800000000000000000000000000000000000000000000000000000000000000000002000000000000000000000000000000000000000000000000000000000000000000000000000000000000040000000000000000",
      "type": "0x2",
      "transactionHash": "0xa706fee631ec8f7dbc6ed8c5d3b37cbe5492d086b6b17d8b08b0528dea2109ea",
      "transactionIndex": "0x4a",
      "blockHash": "0x8755efe9124592a60bf14b48766d0cac49e08087c89092b6caea5c30cd1311e4",
      "blockNumber": "0x4f9767",
      "gasUsed": "0x1fd43",
      "effectiveGasPrice": "0x851",
      "from": "0x4c51ce7b2546e18449fbe16738a8d55bc195a4dd",
      "to": "0xc099ab708e20e8b25c63ca156d7cc94404c55416",
      "contractAddress": null
    },
    {
      "status": "0x1",
      "cumulativeGasUsed": "0xb8cf73",
      "logs": [
        {
          "address": "0xc099ab708e20e8b25c63ca156d7cc94404c55416",
          "topics": [
            "0xbe4864a8e820971c0247f5992e2da559595f7bf076a21cb5928d443d2a13b674"
          ],
          "data": "0x00000000000000000000000000000000000000000000000000000000000000200000000000000000000000000000000000000000000000000000000000000002000000000000000000000000000000000000000000000000000000000000004000000000000000000000000000000000000000000000000000000000000000e0000000000000000000000000000000000000000000000000000000000000759e0000000000000000000000000000000000000000000000000000000000000001000000000000000000000000000000000000000000000000000000000000006000000000000000000000000000000000000000000000000000000000000000160003010011010000000000000000000000000002981000000000000000000000000000000000000000000000000000000000000000000000000000000000759e00000000000000000000000000000000000000000000000000000000000000020000000000000000000000000000000000000000000000000000000000000060000000000000000000000000000000000000000000000000000000000000002c00030100110100000000000000000000000000029810010013030000000000000000000000000000000298100000000000000000000000000000000000000000",
          "blockHash": "0x160d5913f828055fce7147693207c7bd26ca6e8fec85ec6fbdbc0b9040a45fa9",
          "blockNumber": "0x4f9769",
          "blockTimestamp": "0x682aff79",
          "transactionHash": "0x2951961ca21adb146220a7196acfc252302f94ee299b70c35dde2e0610b4deb7",
          "transactionIndex": "0xa",
          "logIndex": "0x89",
          "removed": false
        }
      ],
      "logsBloom": "0x00000000000000000000000000000000000000000000000000000000000000000000000000000000000000000000000000000000000000000000400000000000000000000000000000000000000000000000000000000000000000000000000000000000000000000000000000000000000000000000000000000000000000000000000000000000000000000000000000000000000000000000010000080000000000000000000000000800000000000000000000000000000000000000000000000000000000000000000002000000000000000000000000000000000000000000000000000000000000000000000000000000000000040000000000000000",
      "type": "0x2",
      "transactionHash": "0x2951961ca21adb146220a7196acfc252302f94ee299b70c35dde2e0610b4deb7",
      "transactionIndex": "0xa",
      "blockHash": "0x160d5913f828055fce7147693207c7bd26ca6e8fec85ec6fbdbc0b9040a45fa9",
      "blockNumber": "0x4f9769",
      "gasUsed": "0x1fd43",
      "effectiveGasPrice": "0x862",
      "from": "0x4c51ce7b2546e18449fbe16738a8d55bc195a4dd",
      "to": "0xc099ab708e20e8b25c63ca156d7cc94404c55416",
      "contractAddress": null
    },
    {
      "status": "0x1",
      "cumulativeGasUsed": "0xbaccb6",
      "logs": [
        {
          "address": "0xc099ab708e20e8b25c63ca156d7cc94404c55416",
          "topics": [
            "0xbe4864a8e820971c0247f5992e2da559595f7bf076a21cb5928d443d2a13b674"
          ],
          "data": "0x00000000000000000000000000000000000000000000000000000000000000200000000000000000000000000000000000000000000000000000000000000002000000000000000000000000000000000000000000000000000000000000004000000000000000000000000000000000000000000000000000000000000000e000000000000000000000000000000000000000000000000000000000000075960000000000000000000000000000000000000000000000000000000000000001000000000000000000000000000000000000000000000000000000000000006000000000000000000000000000000000000000000000000000000000000000160003010011010000000000000000000000000002981000000000000000000000000000000000000000000000000000000000000000000000000000000000759600000000000000000000000000000000000000000000000000000000000000020000000000000000000000000000000000000000000000000000000000000060000000000000000000000000000000000000000000000000000000000000002c00030100110100000000000000000000000000029810010013030000000000000000000000000000000298100000000000000000000000000000000000000000",
          "blockHash": "0x160d5913f828055fce7147693207c7bd26ca6e8fec85ec6fbdbc0b9040a45fa9",
          "blockNumber": "0x4f9769",
          "blockTimestamp": "0x682aff79",
          "transactionHash": "0x7f9d344fb2e40c1679eda973f2468901357a3d8e9fda7d14c8c68d559b7a96f2",
          "transactionIndex": "0xb",
          "logIndex": "0x8a",
          "removed": false
        }
      ],
      "logsBloom": "0x00000000000000000000000000000000000000000000000000000000000000000000000000000000000000000000000000000000000000000000400000000000000000000000000000000000000000000000000000000000000000000000000000000000000000000000000000000000000000000000000000000000000000000000000000000000000000000000000000000000000000000000010000080000000000000000000000000800000000000000000000000000000000000000000000000000000000000000000002000000000000000000000000000000000000000000000000000000000000000000000000000000000000040000000000000000",
      "type": "0x2",
      "transactionHash": "0x7f9d344fb2e40c1679eda973f2468901357a3d8e9fda7d14c8c68d559b7a96f2",
      "transactionIndex": "0xb",
      "blockHash": "0x160d5913f828055fce7147693207c7bd26ca6e8fec85ec6fbdbc0b9040a45fa9",
      "blockNumber": "0x4f9769",
      "gasUsed": "0x1fd43",
      "effectiveGasPrice": "0x862",
      "from": "0x4c51ce7b2546e18449fbe16738a8d55bc195a4dd",
      "to": "0xc099ab708e20e8b25c63ca156d7cc94404c55416",
      "contractAddress": null
    },
    {
      "status": "0x1",
      "cumulativeGasUsed": "0xbcc9f9",
      "logs": [
        {
          "address": "0xc099ab708e20e8b25c63ca156d7cc94404c55416",
          "topics": [
            "0xbe4864a8e820971c0247f5992e2da559595f7bf076a21cb5928d443d2a13b674"
          ],
          "data": "0x00000000000000000000000000000000000000000000000000000000000000200000000000000000000000000000000000000000000000000000000000000002000000000000000000000000000000000000000000000000000000000000004000000000000000000000000000000000000000000000000000000000000000e000000000000000000000000000000000000000000000000000000000000076830000000000000000000000000000000000000000000000000000000000000001000000000000000000000000000000000000000000000000000000000000006000000000000000000000000000000000000000000000000000000000000000160003010011010000000000000000000000000002981000000000000000000000000000000000000000000000000000000000000000000000000000000000768300000000000000000000000000000000000000000000000000000000000000020000000000000000000000000000000000000000000000000000000000000060000000000000000000000000000000000000000000000000000000000000002c00030100110100000000000000000000000000029810010013030000000000000000000000000000000298100000000000000000000000000000000000000000",
          "blockHash": "0x160d5913f828055fce7147693207c7bd26ca6e8fec85ec6fbdbc0b9040a45fa9",
          "blockNumber": "0x4f9769",
          "blockTimestamp": "0x682aff79",
          "transactionHash": "0xdea076afb6c9a540a80103efee2a1bcb29376d69ceca3bcf75ff1608ed9fd20a",
          "transactionIndex": "0xc",
          "logIndex": "0x8b",
          "removed": false
        }
      ],
      "logsBloom": "0x00000000000000000000000000000000000000000000000000000000000000000000000000000000000000000000000000000000000000000000400000000000000000000000000000000000000000000000000000000000000000000000000000000000000000000000000000000000000000000000000000000000000000000000000000000000000000000000000000000000000000000000010000080000000000000000000000000800000000000000000000000000000000000000000000000000000000000000000002000000000000000000000000000000000000000000000000000000000000000000000000000000000000040000000000000000",
      "type": "0x2",
      "transactionHash": "0xdea076afb6c9a540a80103efee2a1bcb29376d69ceca3bcf75ff1608ed9fd20a",
      "transactionIndex": "0xc",
      "blockHash": "0x160d5913f828055fce7147693207c7bd26ca6e8fec85ec6fbdbc0b9040a45fa9",
      "blockNumber": "0x4f9769",
      "gasUsed": "0x1fd43",
      "effectiveGasPrice": "0x862",
      "from": "0x4c51ce7b2546e18449fbe16738a8d55bc195a4dd",
      "to": "0xc099ab708e20e8b25c63ca156d7cc94404c55416",
      "contractAddress": null
    },
    {
      "status": "0x1",
      "cumulativeGasUsed": "0xbee988",
      "logs": [
        {
          "address": "0xc39161c743d0307eb9bcc9fef03eeb9dc4802de7",
          "topics": [
            "0x82118522aa536ac0e96cc5c689407ae42b89d592aa133890a01f1509842f5081"
          ],
          "data": "0x000000000000000000000000c099ab708e20e8b25c63ca156d7cc94404c5541600000000000000000000000000000000000000000000000000000000000075950000000000000000000000000000000000000000000000000000000000000060000000000000000000000000000000000000000000000000000000000000002000000000000000000000000000000000000000000000000000000000000000020000000000000000000000000000000000000000000000000000000000000000000000000000000000000000000000000000000000000000000000000000000000000000000000000000000000000000000000000000000000000000000000c000000000000000000000000000000000000000000000000000000000000001200000000000000000000000000000000000000000000000000000000000000002000000000000000000000000282b3386571f7f794450d5789911a9804fa346b4000000000000000000000000dd7b5e1db4aafd5c8ec3b764efb8ed265aa5445b0000000000000000000000000000000000000000000000000000000000000000",
          "blockHash": "0x160d5913f828055fce7147693207c7bd26ca6e8fec85ec6fbdbc0b9040a45fa9",
          "blockNumber": "0x4f9769",
          "blockTimestamp": "0x682aff79",
          "transactionHash": "0x4510f4b4a5eb3dcb935a2883028761dc43389cc4c218618380eeecf280280c2e",
          "transactionIndex": "0xd",
          "logIndex": "0x8c",
          "removed": false
        }
      ],
      "logsBloom": "0x00100000000000000000000000000000000000000000000000000000000000000000000000000000000000000000000000000000000000000000000000000000000000000000000000000000000000000000000000000000002000000000000000000000000000000020000000000000000000000000000000000000000000000000000000800000000000000000000000000000000000000000000000000000000000000000000000000002000000000000000000000000000000000000000000000000000000000000000000000000000000000000000000000000000000000000000000000000000000000000000000000000000000000000000000000010",
      "type": "0x2",
      "transactionHash": "0x4510f4b4a5eb3dcb935a2883028761dc43389cc4c218618380eeecf280280c2e",
      "transactionIndex": "0xd",
      "blockHash": "0x160d5913f828055fce7147693207c7bd26ca6e8fec85ec6fbdbc0b9040a45fa9",
      "blockNumber": "0x4f9769",
      "gasUsed": "0x21f8f",
      "effectiveGasPrice": "0x862",
      "from": "0x4c51ce7b2546e18449fbe16738a8d55bc195a4dd",
      "to": "0x6f475642a6e85809b1c36fa62763669b1b48dd5b",
      "contractAddress": null
    },
    {
      "status": "0x1",
      "cumulativeGasUsed": "0xc1080f",
      "logs": [
        {
          "address": "0xe1844c5d63a9543023008d332bd3d2e6f1fe1043",
          "topics": [
            "0x82118522aa536ac0e96cc5c689407ae42b89d592aa133890a01f1509842f5081"
          ],
          "data": "0x000000000000000000000000c099ab708e20e8b25c63ca156d7cc94404c5541600000000000000000000000000000000000000000000000000000000000075950000000000000000000000000000000000000000000000000000000000000060000000000000000000000000000000000000000000000000000000000000002000000000000000000000000000000000000000000000000000000000000000020000000000000000000000000000000000000000000000000000000000000000000000000000000000000000000000000000000000000000000000000000000000000000000000000000000000000000000000000000000000000000000000c000000000000000000000000000000000000000000000000000000000000001200000000000000000000000000000000000000000000000000000000000000002000000000000000000000000282b3386571f7f794450d5789911a9804fa346b4000000000000000000000000dd7b5e1db4aafd5c8ec3b764efb8ed265aa5445b0000000000000000000000000000000000000000000000000000000000000000",
          "blockHash": "0x160d5913f828055fce7147693207c7bd26ca6e8fec85ec6fbdbc0b9040a45fa9",
          "blockNumber": "0x4f9769",
          "blockTimestamp": "0x682aff79",
          "transactionHash": "0xb4961427938baadf4b2cadb155bfdfab37c2cd01269a352dd1e7f004bd4e3072",
          "transactionIndex": "0xe",
          "logIndex": "0x8d",
          "removed": false
        }
      ],
      "logsBloom": "0x00000000000000000000000000000000020000000000000000000000000000000000000000000000000000000000000000000000000000000000000000000000000000000000000000000000000000000000000000000000002000000000000000000000000000000000000000000000000000000000000000000000000000000000000000000000000000000000000000000000000000000000000000000000000000000000000000000002000000000000000000000000000000000000000000000000000000000000000000000000000000008000000000000000000000000000000000000002000000000000000000000000000000000000000000000010",
      "type": "0x2",
      "transactionHash": "0xb4961427938baadf4b2cadb155bfdfab37c2cd01269a352dd1e7f004bd4e3072",
      "transactionIndex": "0xe",
      "blockHash": "0x160d5913f828055fce7147693207c7bd26ca6e8fec85ec6fbdbc0b9040a45fa9",
      "blockNumber": "0x4f9769",
      "gasUsed": "0x21e87",
      "effectiveGasPrice": "0x862",
      "from": "0x4c51ce7b2546e18449fbe16738a8d55bc195a4dd",
      "to": "0x6f475642a6e85809b1c36fa62763669b1b48dd5b",
      "contractAddress": null
    },
    {
      "status": "0x1",
      "cumulativeGasUsed": "0xc3279e",
      "logs": [
        {
          "address": "0xc39161c743d0307eb9bcc9fef03eeb9dc4802de7",
          "topics": [
            "0x82118522aa536ac0e96cc5c689407ae42b89d592aa133890a01f1509842f5081"
          ],
          "data": "0x000000000000000000000000c099ab708e20e8b25c63ca156d7cc94404c5541600000000000000000000000000000000000000000000000000000000000075e80000000000000000000000000000000000000000000000000000000000000060000000000000000000000000000000000000000000000000000000000000002000000000000000000000000000000000000000000000000000000000000000020000000000000000000000000000000000000000000000000000000000000000000000000000000000000000000000000000000000000000000000000000000000000000000000000000000000000000000000000000000000000000000000c000000000000000000000000000000000000000000000000000000000000001200000000000000000000000000000000000000000000000000000000000000002000000000000000000000000282b3386571f7f794450d5789911a9804fa346b4000000000000000000000000dd7b5e1db4aafd5c8ec3b764efb8ed265aa5445b0000000000000000000000000000000000000000000000000000000000000000",
          "blockHash": "0x160d5913f828055fce7147693207c7bd26ca6e8fec85ec6fbdbc0b9040a45fa9",
          "blockNumber": "0x4f9769",
          "blockTimestamp": "0x682aff79",
          "transactionHash": "0xd6a1c8d6f18d5c4f820b3519277e7eb9ba8e2dd48eb5c4c8dbbd309d016ac537",
          "transactionIndex": "0xf",
          "logIndex": "0x8e",
          "removed": false
        }
      ],
      "logsBloom": "0x00100000000000000000000000000000000000000000000000000000000000000000000000000000000000000000000000000000000000000000000000000000000000000000000000000000000000000000000000000000002000000000000000000000000000000020000000000000000000000000000000000000000000000000000000800000000000000000000000000000000000000000000000000000000000000000000000000002000000000000000000000000000000000000000000000000000000000000000000000000000000000000000000000000000000000000000000000000000000000000000000000000000000000000000000000010",
      "type": "0x2",
      "transactionHash": "0xd6a1c8d6f18d5c4f820b3519277e7eb9ba8e2dd48eb5c4c8dbbd309d016ac537",
      "transactionIndex": "0xf",
      "blockHash": "0x160d5913f828055fce7147693207c7bd26ca6e8fec85ec6fbdbc0b9040a45fa9",
      "blockNumber": "0x4f9769",
      "gasUsed": "0x21f8f",
      "effectiveGasPrice": "0x862",
      "from": "0x4c51ce7b2546e18449fbe16738a8d55bc195a4dd",
      "to": "0x6f475642a6e85809b1c36fa62763669b1b48dd5b",
      "contractAddress": null
    },
    {
      "status": "0x1",
      "cumulativeGasUsed": "0xc54625",
      "logs": [
        {
          "address": "0xe1844c5d63a9543023008d332bd3d2e6f1fe1043",
          "topics": [
            "0x82118522aa536ac0e96cc5c689407ae42b89d592aa133890a01f1509842f5081"
          ],
          "data": "0x000000000000000000000000c099ab708e20e8b25c63ca156d7cc94404c5541600000000000000000000000000000000000000000000000000000000000075e80000000000000000000000000000000000000000000000000000000000000060000000000000000000000000000000000000000000000000000000000000002000000000000000000000000000000000000000000000000000000000000000020000000000000000000000000000000000000000000000000000000000000000000000000000000000000000000000000000000000000000000000000000000000000000000000000000000000000000000000000000000000000000000000c000000000000000000000000000000000000000000000000000000000000001200000000000000000000000000000000000000000000000000000000000000002000000000000000000000000282b3386571f7f794450d5789911a9804fa346b4000000000000000000000000dd7b5e1db4aafd5c8ec3b764efb8ed265aa5445b0000000000000000000000000000000000000000000000000000000000000000",
          "blockHash": "0x160d5913f828055fce7147693207c7bd26ca6e8fec85ec6fbdbc0b9040a45fa9",
          "blockNumber": "0x4f9769",
          "blockTimestamp": "0x682aff79",
          "transactionHash": "0xff36beea8cb82ede4f8e42252f36bbe32e1f5ccf15c351a9a0728eaee25f0177",
          "transactionIndex": "0x10",
          "logIndex": "0x8f",
          "removed": false
        }
      ],
      "logsBloom": "0x00000000000000000000000000000000020000000000000000000000000000000000000000000000000000000000000000000000000000000000000000000000000000000000000000000000000000000000000000000000002000000000000000000000000000000000000000000000000000000000000000000000000000000000000000000000000000000000000000000000000000000000000000000000000000000000000000000002000000000000000000000000000000000000000000000000000000000000000000000000000000008000000000000000000000000000000000000002000000000000000000000000000000000000000000000010",
      "type": "0x2",
      "transactionHash": "0xff36beea8cb82ede4f8e42252f36bbe32e1f5ccf15c351a9a0728eaee25f0177",
      "transactionIndex": "0x10",
      "blockHash": "0x160d5913f828055fce7147693207c7bd26ca6e8fec85ec6fbdbc0b9040a45fa9",
      "blockNumber": "0x4f9769",
      "gasUsed": "0x21e87",
      "effectiveGasPrice": "0x862",
      "from": "0x4c51ce7b2546e18449fbe16738a8d55bc195a4dd",
      "to": "0x6f475642a6e85809b1c36fa62763669b1b48dd5b",
      "contractAddress": null
    },
    {
      "status": "0x1",
      "cumulativeGasUsed": "0xc765b4",
      "logs": [
        {
          "address": "0xc39161c743d0307eb9bcc9fef03eeb9dc4802de7",
          "topics": [
            "0x82118522aa536ac0e96cc5c689407ae42b89d592aa133890a01f1509842f5081"
          ],
          "data": "0x000000000000000000000000c099ab708e20e8b25c63ca156d7cc94404c55416000000000000000000000000000000000000000000000000000000000000759f0000000000000000000000000000000000000000000000000000000000000060000000000000000000000000000000000000000000000000000000000000002000000000000000000000000000000000000000000000000000000000000000020000000000000000000000000000000000000000000000000000000000000000000000000000000000000000000000000000000000000000000000000000000000000000000000000000000000000000000000000000000000000000000000c000000000000000000000000000000000000000000000000000000000000001200000000000000000000000000000000000000000000000000000000000000002000000000000000000000000282b3386571f7f794450d5789911a9804fa346b4000000000000000000000000dd7b5e1db4aafd5c8ec3b764efb8ed265aa5445b0000000000000000000000000000000000000000000000000000000000000000",
          "blockHash": "0x160d5913f828055fce7147693207c7bd26ca6e8fec85ec6fbdbc0b9040a45fa9",
          "blockNumber": "0x4f9769",
          "blockTimestamp": "0x682aff79",
          "transactionHash": "0x47a2d7d74cbe46f8b3dbb7064085b973d852632e84c3b7542cfc78d757b8dbe6",
          "transactionIndex": "0x11",
          "logIndex": "0x90",
          "removed": false
        }
      ],
      "logsBloom": "0x00100000000000000000000000000000000000000000000000000000000000000000000000000000000000000000000000000000000000000000000000000000000000000000000000000000000000000000000000000000002000000000000000000000000000000020000000000000000000000000000000000000000000000000000000800000000000000000000000000000000000000000000000000000000000000000000000000002000000000000000000000000000000000000000000000000000000000000000000000000000000000000000000000000000000000000000000000000000000000000000000000000000000000000000000000010",
      "type": "0x2",
      "transactionHash": "0x47a2d7d74cbe46f8b3dbb7064085b973d852632e84c3b7542cfc78d757b8dbe6",
      "transactionIndex": "0x11",
      "blockHash": "0x160d5913f828055fce7147693207c7bd26ca6e8fec85ec6fbdbc0b9040a45fa9",
      "blockNumber": "0x4f9769",
      "gasUsed": "0x21f8f",
      "effectiveGasPrice": "0x862",
      "from": "0x4c51ce7b2546e18449fbe16738a8d55bc195a4dd",
      "to": "0x6f475642a6e85809b1c36fa62763669b1b48dd5b",
      "contractAddress": null
    },
    {
      "status": "0x1",
      "cumulativeGasUsed": "0xc9843b",
      "logs": [
        {
          "address": "0xe1844c5d63a9543023008d332bd3d2e6f1fe1043",
          "topics": [
            "0x82118522aa536ac0e96cc5c689407ae42b89d592aa133890a01f1509842f5081"
          ],
          "data": "0x000000000000000000000000c099ab708e20e8b25c63ca156d7cc94404c55416000000000000000000000000000000000000000000000000000000000000759f0000000000000000000000000000000000000000000000000000000000000060000000000000000000000000000000000000000000000000000000000000002000000000000000000000000000000000000000000000000000000000000000020000000000000000000000000000000000000000000000000000000000000000000000000000000000000000000000000000000000000000000000000000000000000000000000000000000000000000000000000000000000000000000000c000000000000000000000000000000000000000000000000000000000000001200000000000000000000000000000000000000000000000000000000000000002000000000000000000000000282b3386571f7f794450d5789911a9804fa346b4000000000000000000000000dd7b5e1db4aafd5c8ec3b764efb8ed265aa5445b0000000000000000000000000000000000000000000000000000000000000000",
          "blockHash": "0x160d5913f828055fce7147693207c7bd26ca6e8fec85ec6fbdbc0b9040a45fa9",
          "blockNumber": "0x4f9769",
          "blockTimestamp": "0x682aff79",
          "transactionHash": "0x7041882f7334b553b62d5837d87aaa20f6e4a402ec92fc6af227d9212e08fa11",
          "transactionIndex": "0x12",
          "logIndex": "0x91",
          "removed": false
        }
      ],
      "logsBloom": "0x00000000000000000000000000000000020000000000000000000000000000000000000000000000000000000000000000000000000000000000000000000000000000000000000000000000000000000000000000000000002000000000000000000000000000000000000000000000000000000000000000000000000000000000000000000000000000000000000000000000000000000000000000000000000000000000000000000002000000000000000000000000000000000000000000000000000000000000000000000000000000008000000000000000000000000000000000000002000000000000000000000000000000000000000000000010",
      "type": "0x2",
      "transactionHash": "0x7041882f7334b553b62d5837d87aaa20f6e4a402ec92fc6af227d9212e08fa11",
      "transactionIndex": "0x12",
      "blockHash": "0x160d5913f828055fce7147693207c7bd26ca6e8fec85ec6fbdbc0b9040a45fa9",
      "blockNumber": "0x4f9769",
      "gasUsed": "0x21e87",
      "effectiveGasPrice": "0x862",
      "from": "0x4c51ce7b2546e18449fbe16738a8d55bc195a4dd",
      "to": "0x6f475642a6e85809b1c36fa62763669b1b48dd5b",
      "contractAddress": null
    },
    {
      "status": "0x1",
      "cumulativeGasUsed": "0xcba3ca",
      "logs": [
        {
          "address": "0xc39161c743d0307eb9bcc9fef03eeb9dc4802de7",
          "topics": [
            "0x82118522aa536ac0e96cc5c689407ae42b89d592aa133890a01f1509842f5081"
          ],
          "data": "0x000000000000000000000000c099ab708e20e8b25c63ca156d7cc94404c55416000000000000000000000000000000000000000000000000000000000000759e0000000000000000000000000000000000000000000000000000000000000060000000000000000000000000000000000000000000000000000000000000002000000000000000000000000000000000000000000000000000000000000000020000000000000000000000000000000000000000000000000000000000000000000000000000000000000000000000000000000000000000000000000000000000000000000000000000000000000000000000000000000000000000000000c000000000000000000000000000000000000000000000000000000000000001200000000000000000000000000000000000000000000000000000000000000002000000000000000000000000282b3386571f7f794450d5789911a9804fa346b4000000000000000000000000dd7b5e1db4aafd5c8ec3b764efb8ed265aa5445b0000000000000000000000000000000000000000000000000000000000000000",
          "blockHash": "0x160d5913f828055fce7147693207c7bd26ca6e8fec85ec6fbdbc0b9040a45fa9",
          "blockNumber": "0x4f9769",
          "blockTimestamp": "0x682aff79",
          "transactionHash": "0x82f706c3292250c63ef05e3f7f1b833987289cc2bb3a083d8f5f8cc4161246ae",
          "transactionIndex": "0x13",
          "logIndex": "0x92",
          "removed": false
        }
      ],
      "logsBloom": "0x00100000000000000000000000000000000000000000000000000000000000000000000000000000000000000000000000000000000000000000000000000000000000000000000000000000000000000000000000000000002000000000000000000000000000000020000000000000000000000000000000000000000000000000000000800000000000000000000000000000000000000000000000000000000000000000000000000002000000000000000000000000000000000000000000000000000000000000000000000000000000000000000000000000000000000000000000000000000000000000000000000000000000000000000000000010",
      "type": "0x2",
      "transactionHash": "0x82f706c3292250c63ef05e3f7f1b833987289cc2bb3a083d8f5f8cc4161246ae",
      "transactionIndex": "0x13",
      "blockHash": "0x160d5913f828055fce7147693207c7bd26ca6e8fec85ec6fbdbc0b9040a45fa9",
      "blockNumber": "0x4f9769",
      "gasUsed": "0x21f8f",
      "effectiveGasPrice": "0x862",
      "from": "0x4c51ce7b2546e18449fbe16738a8d55bc195a4dd",
      "to": "0x6f475642a6e85809b1c36fa62763669b1b48dd5b",
      "contractAddress": null
    },
    {
      "status": "0x1",
      "cumulativeGasUsed": "0xcdc251",
      "logs": [
        {
          "address": "0xe1844c5d63a9543023008d332bd3d2e6f1fe1043",
          "topics": [
            "0x82118522aa536ac0e96cc5c689407ae42b89d592aa133890a01f1509842f5081"
          ],
          "data": "0x000000000000000000000000c099ab708e20e8b25c63ca156d7cc94404c55416000000000000000000000000000000000000000000000000000000000000759e0000000000000000000000000000000000000000000000000000000000000060000000000000000000000000000000000000000000000000000000000000002000000000000000000000000000000000000000000000000000000000000000020000000000000000000000000000000000000000000000000000000000000000000000000000000000000000000000000000000000000000000000000000000000000000000000000000000000000000000000000000000000000000000000c000000000000000000000000000000000000000000000000000000000000001200000000000000000000000000000000000000000000000000000000000000002000000000000000000000000282b3386571f7f794450d5789911a9804fa346b4000000000000000000000000dd7b5e1db4aafd5c8ec3b764efb8ed265aa5445b0000000000000000000000000000000000000000000000000000000000000000",
          "blockHash": "0x160d5913f828055fce7147693207c7bd26ca6e8fec85ec6fbdbc0b9040a45fa9",
          "blockNumber": "0x4f9769",
          "blockTimestamp": "0x682aff79",
          "transactionHash": "0x424084387f0b0ac779b87bd4ad14041d4e2ff44e2dfe34c9b87b40e21c8a1cfb",
          "transactionIndex": "0x14",
          "logIndex": "0x93",
          "removed": false
        }
      ],
      "logsBloom": "0x00000000000000000000000000000000020000000000000000000000000000000000000000000000000000000000000000000000000000000000000000000000000000000000000000000000000000000000000000000000002000000000000000000000000000000000000000000000000000000000000000000000000000000000000000000000000000000000000000000000000000000000000000000000000000000000000000000002000000000000000000000000000000000000000000000000000000000000000000000000000000008000000000000000000000000000000000000002000000000000000000000000000000000000000000000010",
      "type": "0x2",
      "transactionHash": "0x424084387f0b0ac779b87bd4ad14041d4e2ff44e2dfe34c9b87b40e21c8a1cfb",
      "transactionIndex": "0x14",
      "blockHash": "0x160d5913f828055fce7147693207c7bd26ca6e8fec85ec6fbdbc0b9040a45fa9",
      "blockNumber": "0x4f9769",
      "gasUsed": "0x21e87",
      "effectiveGasPrice": "0x862",
      "from": "0x4c51ce7b2546e18449fbe16738a8d55bc195a4dd",
      "to": "0x6f475642a6e85809b1c36fa62763669b1b48dd5b",
      "contractAddress": null
    },
    {
      "status": "0x1",
      "cumulativeGasUsed": "0xcfe1e0",
      "logs": [
        {
          "address": "0xc39161c743d0307eb9bcc9fef03eeb9dc4802de7",
          "topics": [
            "0x82118522aa536ac0e96cc5c689407ae42b89d592aa133890a01f1509842f5081"
          ],
          "data": "0x000000000000000000000000c099ab708e20e8b25c63ca156d7cc94404c5541600000000000000000000000000000000000000000000000000000000000075960000000000000000000000000000000000000000000000000000000000000060000000000000000000000000000000000000000000000000000000000000002000000000000000000000000000000000000000000000000000000000000000020000000000000000000000000000000000000000000000000000000000000000000000000000000000000000000000000000000000000000000000000000000000000000000000000000000000000000000000000000000000000000000000c000000000000000000000000000000000000000000000000000000000000001200000000000000000000000000000000000000000000000000000000000000002000000000000000000000000282b3386571f7f794450d5789911a9804fa346b4000000000000000000000000dd7b5e1db4aafd5c8ec3b764efb8ed265aa5445b0000000000000000000000000000000000000000000000000000000000000000",
          "blockHash": "0x160d5913f828055fce7147693207c7bd26ca6e8fec85ec6fbdbc0b9040a45fa9",
          "blockNumber": "0x4f9769",
          "blockTimestamp": "0x682aff79",
          "transactionHash": "0xcb1f92f15840e7f88802d3b1e000350458c53e92b8e021a48e81aad13433aa6c",
          "transactionIndex": "0x15",
          "logIndex": "0x94",
          "removed": false
        }
      ],
      "logsBloom": "0x00100000000000000000000000000000000000000000000000000000000000000000000000000000000000000000000000000000000000000000000000000000000000000000000000000000000000000000000000000000002000000000000000000000000000000020000000000000000000000000000000000000000000000000000000800000000000000000000000000000000000000000000000000000000000000000000000000002000000000000000000000000000000000000000000000000000000000000000000000000000000000000000000000000000000000000000000000000000000000000000000000000000000000000000000000010",
      "type": "0x2",
      "transactionHash": "0xcb1f92f15840e7f88802d3b1e000350458c53e92b8e021a48e81aad13433aa6c",
      "transactionIndex": "0x15",
      "blockHash": "0x160d5913f828055fce7147693207c7bd26ca6e8fec85ec6fbdbc0b9040a45fa9",
      "blockNumber": "0x4f9769",
      "gasUsed": "0x21f8f",
      "effectiveGasPrice": "0x862",
      "from": "0x4c51ce7b2546e18449fbe16738a8d55bc195a4dd",
      "to": "0x6f475642a6e85809b1c36fa62763669b1b48dd5b",
      "contractAddress": null
    },
    {
      "status": "0x1",
      "cumulativeGasUsed": "0xd20067",
      "logs": [
        {
          "address": "0xe1844c5d63a9543023008d332bd3d2e6f1fe1043",
          "topics": [
            "0x82118522aa536ac0e96cc5c689407ae42b89d592aa133890a01f1509842f5081"
          ],
          "data": "0x000000000000000000000000c099ab708e20e8b25c63ca156d7cc94404c5541600000000000000000000000000000000000000000000000000000000000075960000000000000000000000000000000000000000000000000000000000000060000000000000000000000000000000000000000000000000000000000000002000000000000000000000000000000000000000000000000000000000000000020000000000000000000000000000000000000000000000000000000000000000000000000000000000000000000000000000000000000000000000000000000000000000000000000000000000000000000000000000000000000000000000c000000000000000000000000000000000000000000000000000000000000001200000000000000000000000000000000000000000000000000000000000000002000000000000000000000000282b3386571f7f794450d5789911a9804fa346b4000000000000000000000000dd7b5e1db4aafd5c8ec3b764efb8ed265aa5445b0000000000000000000000000000000000000000000000000000000000000000",
          "blockHash": "0x160d5913f828055fce7147693207c7bd26ca6e8fec85ec6fbdbc0b9040a45fa9",
          "blockNumber": "0x4f9769",
          "blockTimestamp": "0x682aff79",
          "transactionHash": "0x49c8cc1149fca4caaac57e7a1c5ce000c81896510bb37ce56337d6986bd2bc76",
          "transactionIndex": "0x16",
          "logIndex": "0x95",
          "removed": false
        }
      ],
      "logsBloom": "0x00000000000000000000000000000000020000000000000000000000000000000000000000000000000000000000000000000000000000000000000000000000000000000000000000000000000000000000000000000000002000000000000000000000000000000000000000000000000000000000000000000000000000000000000000000000000000000000000000000000000000000000000000000000000000000000000000000002000000000000000000000000000000000000000000000000000000000000000000000000000000008000000000000000000000000000000000000002000000000000000000000000000000000000000000000010",
      "type": "0x2",
      "transactionHash": "0x49c8cc1149fca4caaac57e7a1c5ce000c81896510bb37ce56337d6986bd2bc76",
      "transactionIndex": "0x16",
      "blockHash": "0x160d5913f828055fce7147693207c7bd26ca6e8fec85ec6fbdbc0b9040a45fa9",
      "blockNumber": "0x4f9769",
      "gasUsed": "0x21e87",
      "effectiveGasPrice": "0x862",
      "from": "0x4c51ce7b2546e18449fbe16738a8d55bc195a4dd",
      "to": "0x6f475642a6e85809b1c36fa62763669b1b48dd5b",
      "contractAddress": null
    },
    {
      "status": "0x1",
      "cumulativeGasUsed": "0xd41ff6",
      "logs": [
        {
          "address": "0xc39161c743d0307eb9bcc9fef03eeb9dc4802de7",
          "topics": [
            "0x82118522aa536ac0e96cc5c689407ae42b89d592aa133890a01f1509842f5081"
          ],
          "data": "0x000000000000000000000000c099ab708e20e8b25c63ca156d7cc94404c5541600000000000000000000000000000000000000000000000000000000000076830000000000000000000000000000000000000000000000000000000000000060000000000000000000000000000000000000000000000000000000000000002000000000000000000000000000000000000000000000000000000000000000020000000000000000000000000000000000000000000000000000000000000000000000000000000000000000000000000000000000000000000000000000000000000000000000000000000000000000000000000000000000000000000000c000000000000000000000000000000000000000000000000000000000000001200000000000000000000000000000000000000000000000000000000000000002000000000000000000000000282b3386571f7f794450d5789911a9804fa346b4000000000000000000000000dd7b5e1db4aafd5c8ec3b764efb8ed265aa5445b0000000000000000000000000000000000000000000000000000000000000000",
          "blockHash": "0x160d5913f828055fce7147693207c7bd26ca6e8fec85ec6fbdbc0b9040a45fa9",
          "blockNumber": "0x4f9769",
          "blockTimestamp": "0x682aff79",
          "transactionHash": "0xa167ab13e1c03db6fbe63f674e5d7fdb8e538de63035c709672d6c02628dee7b",
          "transactionIndex": "0x17",
          "logIndex": "0x96",
          "removed": false
        }
      ],
      "logsBloom": "0x00100000000000000000000000000000000000000000000000000000000000000000000000000000000000000000000000000000000000000000000000000000000000000000000000000000000000000000000000000000002000000000000000000000000000000020000000000000000000000000000000000000000000000000000000800000000000000000000000000000000000000000000000000000000000000000000000000002000000000000000000000000000000000000000000000000000000000000000000000000000000000000000000000000000000000000000000000000000000000000000000000000000000000000000000000010",
      "type": "0x2",
      "transactionHash": "0xa167ab13e1c03db6fbe63f674e5d7fdb8e538de63035c709672d6c02628dee7b",
      "transactionIndex": "0x17",
      "blockHash": "0x160d5913f828055fce7147693207c7bd26ca6e8fec85ec6fbdbc0b9040a45fa9",
      "blockNumber": "0x4f9769",
      "gasUsed": "0x21f8f",
      "effectiveGasPrice": "0x862",
      "from": "0x4c51ce7b2546e18449fbe16738a8d55bc195a4dd",
      "to": "0x6f475642a6e85809b1c36fa62763669b1b48dd5b",
      "contractAddress": null
    },
    {
      "status": "0x1",
      "cumulativeGasUsed": "0xd63e7d",
      "logs": [
        {
          "address": "0xe1844c5d63a9543023008d332bd3d2e6f1fe1043",
          "topics": [
            "0x82118522aa536ac0e96cc5c689407ae42b89d592aa133890a01f1509842f5081"
          ],
          "data": "0x000000000000000000000000c099ab708e20e8b25c63ca156d7cc94404c5541600000000000000000000000000000000000000000000000000000000000076830000000000000000000000000000000000000000000000000000000000000060000000000000000000000000000000000000000000000000000000000000002000000000000000000000000000000000000000000000000000000000000000020000000000000000000000000000000000000000000000000000000000000000000000000000000000000000000000000000000000000000000000000000000000000000000000000000000000000000000000000000000000000000000000c000000000000000000000000000000000000000000000000000000000000001200000000000000000000000000000000000000000000000000000000000000002000000000000000000000000282b3386571f7f794450d5789911a9804fa346b4000000000000000000000000dd7b5e1db4aafd5c8ec3b764efb8ed265aa5445b0000000000000000000000000000000000000000000000000000000000000000",
          "blockHash": "0x160d5913f828055fce7147693207c7bd26ca6e8fec85ec6fbdbc0b9040a45fa9",
          "blockNumber": "0x4f9769",
          "blockTimestamp": "0x682aff79",
          "transactionHash": "0xf24b351c7425997db446cd32f4aa622b2e75782cd59647e461a52677bbaafced",
          "transactionIndex": "0x18",
          "logIndex": "0x97",
          "removed": false
        }
      ],
      "logsBloom": "0x00000000000000000000000000000000020000000000000000000000000000000000000000000000000000000000000000000000000000000000000000000000000000000000000000000000000000000000000000000000002000000000000000000000000000000000000000000000000000000000000000000000000000000000000000000000000000000000000000000000000000000000000000000000000000000000000000000002000000000000000000000000000000000000000000000000000000000000000000000000000000008000000000000000000000000000000000000002000000000000000000000000000000000000000000000010",
      "type": "0x2",
      "transactionHash": "0xf24b351c7425997db446cd32f4aa622b2e75782cd59647e461a52677bbaafced",
      "transactionIndex": "0x18",
      "blockHash": "0x160d5913f828055fce7147693207c7bd26ca6e8fec85ec6fbdbc0b9040a45fa9",
      "blockNumber": "0x4f9769",
      "gasUsed": "0x21e87",
      "effectiveGasPrice": "0x862",
      "from": "0x4c51ce7b2546e18449fbe16738a8d55bc195a4dd",
      "to": "0x6f475642a6e85809b1c36fa62763669b1b48dd5b",
      "contractAddress": null
    },
    {
      "status": "0x1",
      "cumulativeGasUsed": "0xd6d5ea",
      "logs": [
        {
          "address": "0x6f475642a6e85809b1c36fa62763669b1b48dd5b",
          "topics": [
            "0x6ee10e9ed4d6ce9742703a498707862f4b00f1396a87195eb93267b3d7983981"
          ],
          "data": "0x000000000000000000000000c099ab708e20e8b25c63ca156d7cc94404c55416000000000000000000000000ae495b70d00c724e5a9e23f4613d5e8139677503",
          "blockHash": "0x160d5913f828055fce7147693207c7bd26ca6e8fec85ec6fbdbc0b9040a45fa9",
          "blockNumber": "0x4f9769",
          "blockTimestamp": "0x682aff79",
          "transactionHash": "0xb75bc53b19b6ed3ae09d424529b2d229d50e6aa969ed18f80b8441eccb191352",
          "transactionIndex": "0x19",
          "logIndex": "0x98",
          "removed": false
        }
      ],
      "logsBloom": "0x00000000000000000000000000000000000000000000000000800000000000000000000000000000000000000000000000000002000000000000000000000000000000000000000000000000000000000140000000000000000000000000000000000000000000000000000000000000000000000000000000000000000000000000000000000000000000000000000000000000000000000000000000000000000000000000000000000000000000000000000000000000000000000000000400000000000000000000000000000000000000000000000000000000000000004000000000000000000000000000000000000000000000000000000000000000",
      "type": "0x2",
      "transactionHash": "0xb75bc53b19b6ed3ae09d424529b2d229d50e6aa969ed18f80b8441eccb191352",
      "transactionIndex": "0x19",
      "blockHash": "0x160d5913f828055fce7147693207c7bd26ca6e8fec85ec6fbdbc0b9040a45fa9",
      "blockNumber": "0x4f9769",
      "gasUsed": "0x976d",
      "effectiveGasPrice": "0x862",
      "from": "0x4c51ce7b2546e18449fbe16738a8d55bc195a4dd",
      "to": "0xc099ab708e20e8b25c63ca156d7cc94404c55416",
      "contractAddress": null
    }
  ],
  "libraries": [],
  "pending": [],
  "returns": {},
  "timestamp": 1747648379,
  "chain": 80094,
  "commit": "26a0814"
}