{
  "transactions": [
    {
      "hash": "0xb925f76b51550d3ef1c99b4d86fc44f42865549d6ccf489b5e62cc65923bcb7b",
      "transactionType": "CALL",
      "contractName": null,
      "contractAddress": "0xc099ab708e20e8b25c63ca156d7cc94404c55416",
      "function": "setRateLimits((uint32,uint256,uint256)[])",
      "arguments": [
        "[(30101, 100000000000000000000000000, 3600), (30362, 100000000000000000000000000, 3600), (30184, 100000000000000000000000000, 3600), (30111, 100000000000000000000000000, 3600), (30110, 100000000000000000000000000, 3600), (30102, 100000000000000000000000000, 3600), (30339, 100000000000000000000000000, 3600)]"
      ],
      "transaction": {
        "from": "0x4c51ce7b2546e18449fbe16738a8d55bc195a4dd",
        "to": "0xc099ab708e20e8b25c63ca156d7cc94404c55416",
        "gas": "0xbd161",
        "value": "0x0",
        "input": "0x46f943e900000000000000000000000000000000000000000000000000000000000000200000000000000000000000000000000000000000000000000000000000000007000000000000000000000000000000000000000000000000000000000000759500000000000000000000000000000000000000000052b7d2dcc80cd2e40000000000000000000000000000000000000000000000000000000000000000000e10000000000000000000000000000000000000000000000000000000000000769a00000000000000000000000000000000000000000052b7d2dcc80cd2e40000000000000000000000000000000000000000000000000000000000000000000e1000000000000000000000000000000000000000000000000000000000000075e800000000000000000000000000000000000000000052b7d2dcc80cd2e40000000000000000000000000000000000000000000000000000000000000000000e10000000000000000000000000000000000000000000000000000000000000759f00000000000000000000000000000000000000000052b7d2dcc80cd2e40000000000000000000000000000000000000000000000000000000000000000000e10000000000000000000000000000000000000000000000000000000000000759e00000000000000000000000000000000000000000052b7d2dcc80cd2e40000000000000000000000000000000000000000000000000000000000000000000e10000000000000000000000000000000000000000000000000000000000000759600000000000000000000000000000000000000000052b7d2dcc80cd2e40000000000000000000000000000000000000000000000000000000000000000000e10000000000000000000000000000000000000000000000000000000000000768300000000000000000000000000000000000000000052b7d2dcc80cd2e40000000000000000000000000000000000000000000000000000000000000000000e10",
        "nonce": "0x7d",
        "chainId": "0xdef1"
      },
      "additionalContracts": [],
      "isFixedGasLimit": false
    },
    {
      "hash": "0xc01009f151fa2ad2cd36a3563ac7d1c64b8e1e7288182ff8780b2162784af1f7",
      "transactionType": "CALL",
      "contractName": null,
      "contractAddress": "0xc099ab708e20e8b25c63ca156d7cc94404c55416",
      "function": "setPeer(uint32,bytes32)",
      "arguments": [
        "30362",
        "0x000000000000000000000000c099ab708e20e8b25c63ca156d7cc94404c55416"
      ],
      "transaction": {
        "from": "0x4c51ce7b2546e18449fbe16738a8d55bc195a4dd",
        "to": "0xc099ab708e20e8b25c63ca156d7cc94404c55416",
        "gas": "0x11c84",
        "value": "0x0",
        "input": "0x3400288b000000000000000000000000000000000000000000000000000000000000769a000000000000000000000000c099ab708e20e8b25c63ca156d7cc94404c55416",
        "nonce": "0x7e",
        "chainId": "0xdef1"
      },
      "additionalContracts": [],
      "isFixedGasLimit": false
    },
    {
      "hash": "0xb6478fe0f642c3411d7c56a40037e7face55efc8dcdf941095a38366259e7e56",
      "transactionType": "CALL",
      "contractName": null,
      "contractAddress": "0xc099ab708e20e8b25c63ca156d7cc94404c55416",
      "function": "setPeer(uint32,bytes32)",
      "arguments": [
        "30184",
        "0x000000000000000000000000c099ab708e20e8b25c63ca156d7cc94404c55416"
      ],
      "transaction": {
        "from": "0x4c51ce7b2546e18449fbe16738a8d55bc195a4dd",
        "to": "0xc099ab708e20e8b25c63ca156d7cc94404c55416",
        "gas": "0x11c84",
        "value": "0x0",
        "input": "0x3400288b00000000000000000000000000000000000000000000000000000000000075e8000000000000000000000000c099ab708e20e8b25c63ca156d7cc94404c55416",
        "nonce": "0x7f",
        "chainId": "0xdef1"
      },
      "additionalContracts": [],
      "isFixedGasLimit": false
    },
    {
      "hash": "0x40eae4d8e9398fa4f229020f96bffa80fbe35d9668235e6212a159255dcceeb0",
      "transactionType": "CALL",
      "contractName": null,
      "contractAddress": "0xc099ab708e20e8b25c63ca156d7cc94404c55416",
      "function": "setPeer(uint32,bytes32)",
      "arguments": [
        "30111",
        "0x000000000000000000000000c099ab708e20e8b25c63ca156d7cc94404c55416"
      ],
      "transaction": {
        "from": "0x4c51ce7b2546e18449fbe16738a8d55bc195a4dd",
        "to": "0xc099ab708e20e8b25c63ca156d7cc94404c55416",
        "gas": "0x11c84",
        "value": "0x0",
        "input": "0x3400288b000000000000000000000000000000000000000000000000000000000000759f000000000000000000000000c099ab708e20e8b25c63ca156d7cc94404c55416",
        "nonce": "0x80",
        "chainId": "0xdef1"
      },
      "additionalContracts": [],
      "isFixedGasLimit": false
    },
    {
      "hash": "0xfed8be0db19839058c1cad49bdfc6200c142f771f37ae602429a29c21ffafd1f",
      "transactionType": "CALL",
      "contractName": null,
      "contractAddress": "0xc099ab708e20e8b25c63ca156d7cc94404c55416",
      "function": "setPeer(uint32,bytes32)",
      "arguments": [
        "30110",
        "0x000000000000000000000000c099ab708e20e8b25c63ca156d7cc94404c55416"
      ],
      "transaction": {
        "from": "0x4c51ce7b2546e18449fbe16738a8d55bc195a4dd",
        "to": "0xc099ab708e20e8b25c63ca156d7cc94404c55416",
        "gas": "0x11c84",
        "value": "0x0",
        "input": "0x3400288b000000000000000000000000000000000000000000000000000000000000759e000000000000000000000000c099ab708e20e8b25c63ca156d7cc94404c55416",
        "nonce": "0x81",
        "chainId": "0xdef1"
      },
      "additionalContracts": [],
      "isFixedGasLimit": false
    },
    {
      "hash": "0xf20b1e4c2e73a37b0c3e9f99ac579330f4aef9919785434dd978cfb175a4651e",
      "transactionType": "CALL",
      "contractName": null,
      "contractAddress": "0xc099ab708e20e8b25c63ca156d7cc94404c55416",
      "function": "setPeer(uint32,bytes32)",
      "arguments": [
        "30102",
        "0x000000000000000000000000c099ab708e20e8b25c63ca156d7cc94404c55416"
      ],
      "transaction": {
        "from": "0x4c51ce7b2546e18449fbe16738a8d55bc195a4dd",
        "to": "0xc099ab708e20e8b25c63ca156d7cc94404c55416",
        "gas": "0x11c84",
        "value": "0x0",
        "input": "0x3400288b0000000000000000000000000000000000000000000000000000000000007596000000000000000000000000c099ab708e20e8b25c63ca156d7cc94404c55416",
        "nonce": "0x82",
        "chainId": "0xdef1"
      },
      "additionalContracts": [],
      "isFixedGasLimit": false
    },
    {
      "hash": "0x52b02e1553a6312e0725ad4e9d5854d67992a0fba53a51aefc45558c6627d657",
      "transactionType": "CALL",
      "contractName": null,
      "contractAddress": "0xc099ab708e20e8b25c63ca156d7cc94404c55416",
      "function": "setPeer(uint32,bytes32)",
      "arguments": [
        "30101",
        "0x000000000000000000000000c099ab708e20e8b25c63ca156d7cc94404c55416"
      ],
      "transaction": {
        "from": "0x4c51ce7b2546e18449fbe16738a8d55bc195a4dd",
        "to": "0xc099ab708e20e8b25c63ca156d7cc94404c55416",
        "gas": "0x11c84",
        "value": "0x0",
        "input": "0x3400288b0000000000000000000000000000000000000000000000000000000000007595000000000000000000000000c099ab708e20e8b25c63ca156d7cc94404c55416",
        "nonce": "0x83",
        "chainId": "0xdef1"
      },
      "additionalContracts": [],
      "isFixedGasLimit": false
    },
    {
      "hash": "0x75cec605f00ce3e974c9e888c48332bccd30dc7c400590a06aa246fa7ac47738",
      "transactionType": "CALL",
      "contractName": null,
      "contractAddress": "0xca29f3a6f966cb2fc0de625f8f325c0c46dbe958",
      "function": "setReceiveLibrary(address,uint32,address,uint256)",
      "arguments": [
        "0xc099Ab708e20E8b25C63cA156D7cc94404c55416",
        "30362",
        "0x473132bb594caEF281c68718F4541f73FE14Dc89",
        "0"
      ],
      "transaction": {
        "from": "0x4c51ce7b2546e18449fbe16738a8d55bc195a4dd",
        "to": "0xca29f3a6f966cb2fc0de625f8f325c0c46dbe958",
        "gas": "0x17001",
        "value": "0x0",
        "input": "0x6a14d715000000000000000000000000c099ab708e20e8b25c63ca156d7cc94404c55416000000000000000000000000000000000000000000000000000000000000769a000000000000000000000000473132bb594caef281c68718f4541f73fe14dc890000000000000000000000000000000000000000000000000000000000000000",
        "nonce": "0x84",
        "chainId": "0xdef1"
      },
      "additionalContracts": [],
      "isFixedGasLimit": false
    },
    {
      "hash": "0x54a3f92934c5f8216cefb995c2903dd0afe56316d8ac06326a5629bbd2acc489",
      "transactionType": "CALL",
      "contractName": null,
      "contractAddress": "0xca29f3a6f966cb2fc0de625f8f325c0c46dbe958",
      "function": "setReceiveLibrary(address,uint32,address,uint256)",
      "arguments": [
        "0xc099Ab708e20E8b25C63cA156D7cc94404c55416",
        "30184",
        "0x473132bb594caEF281c68718F4541f73FE14Dc89",
        "0"
      ],
      "transaction": {
        "from": "0x4c51ce7b2546e18449fbe16738a8d55bc195a4dd",
        "to": "0xca29f3a6f966cb2fc0de625f8f325c0c46dbe958",
        "gas": "0x17001",
        "value": "0x0",
        "input": "0x6a14d715000000000000000000000000c099ab708e20e8b25c63ca156d7cc94404c5541600000000000000000000000000000000000000000000000000000000000075e8000000000000000000000000473132bb594caef281c68718f4541f73fe14dc890000000000000000000000000000000000000000000000000000000000000000",
        "nonce": "0x85",
        "chainId": "0xdef1"
      },
      "additionalContracts": [],
      "isFixedGasLimit": false
    },
    {
      "hash": "0xe9691d1b2a3876d22e6d3a8f2697ab21495476a3810fe5e337baf28ba2b127c4",
      "transactionType": "CALL",
      "contractName": null,
      "contractAddress": "0xca29f3a6f966cb2fc0de625f8f325c0c46dbe958",
      "function": "setReceiveLibrary(address,uint32,address,uint256)",
      "arguments": [
        "0xc099Ab708e20E8b25C63cA156D7cc94404c55416",
        "30111",
        "0x473132bb594caEF281c68718F4541f73FE14Dc89",
        "0"
      ],
      "transaction": {
        "from": "0x4c51ce7b2546e18449fbe16738a8d55bc195a4dd",
        "to": "0xca29f3a6f966cb2fc0de625f8f325c0c46dbe958",
        "gas": "0x17001",
        "value": "0x0",
        "input": "0x6a14d715000000000000000000000000c099ab708e20e8b25c63ca156d7cc94404c55416000000000000000000000000000000000000000000000000000000000000759f000000000000000000000000473132bb594caef281c68718f4541f73fe14dc890000000000000000000000000000000000000000000000000000000000000000",
        "nonce": "0x86",
        "chainId": "0xdef1"
      },
      "additionalContracts": [],
      "isFixedGasLimit": false
    },
    {
      "hash": "0xf6a7fe17c8d084408484f73e5280cd756fc222a54ff1a5089e345e15a2ad137a",
      "transactionType": "CALL",
      "contractName": null,
      "contractAddress": "0xca29f3a6f966cb2fc0de625f8f325c0c46dbe958",
      "function": "setReceiveLibrary(address,uint32,address,uint256)",
      "arguments": [
        "0xc099Ab708e20E8b25C63cA156D7cc94404c55416",
        "30110",
        "0x473132bb594caEF281c68718F4541f73FE14Dc89",
        "0"
      ],
      "transaction": {
        "from": "0x4c51ce7b2546e18449fbe16738a8d55bc195a4dd",
        "to": "0xca29f3a6f966cb2fc0de625f8f325c0c46dbe958",
        "gas": "0x17001",
        "value": "0x0",
        "input": "0x6a14d715000000000000000000000000c099ab708e20e8b25c63ca156d7cc94404c55416000000000000000000000000000000000000000000000000000000000000759e000000000000000000000000473132bb594caef281c68718f4541f73fe14dc890000000000000000000000000000000000000000000000000000000000000000",
        "nonce": "0x87",
        "chainId": "0xdef1"
      },
      "additionalContracts": [],
      "isFixedGasLimit": false
    },
    {
      "hash": "0x34b575420f49801b4dd15f0233359c2c49bd6b9e25d940f35909255b78d68ac9",
      "transactionType": "CALL",
      "contractName": null,
      "contractAddress": "0xca29f3a6f966cb2fc0de625f8f325c0c46dbe958",
      "function": "setReceiveLibrary(address,uint32,address,uint256)",
      "arguments": [
        "0xc099Ab708e20E8b25C63cA156D7cc94404c55416",
        "30102",
        "0x473132bb594caEF281c68718F4541f73FE14Dc89",
        "0"
      ],
      "transaction": {
        "from": "0x4c51ce7b2546e18449fbe16738a8d55bc195a4dd",
        "to": "0xca29f3a6f966cb2fc0de625f8f325c0c46dbe958",
        "gas": "0x17001",
        "value": "0x0",
        "input": "0x6a14d715000000000000000000000000c099ab708e20e8b25c63ca156d7cc94404c554160000000000000000000000000000000000000000000000000000000000007596000000000000000000000000473132bb594caef281c68718f4541f73fe14dc890000000000000000000000000000000000000000000000000000000000000000",
        "nonce": "0x88",
        "chainId": "0xdef1"
      },
      "additionalContracts": [],
      "isFixedGasLimit": false
    },
    {
      "hash": "0xc41966d8aff2793f12679fafaf4681641cef55b0a880fd3d79f5dd0574126564",
      "transactionType": "CALL",
      "contractName": null,
      "contractAddress": "0xca29f3a6f966cb2fc0de625f8f325c0c46dbe958",
      "function": "setReceiveLibrary(address,uint32,address,uint256)",
      "arguments": [
        "0xc099Ab708e20E8b25C63cA156D7cc94404c55416",
        "30101",
        "0x473132bb594caEF281c68718F4541f73FE14Dc89",
        "0"
      ],
      "transaction": {
        "from": "0x4c51ce7b2546e18449fbe16738a8d55bc195a4dd",
        "to": "0xca29f3a6f966cb2fc0de625f8f325c0c46dbe958",
        "gas": "0x17001",
        "value": "0x0",
        "input": "0x6a14d715000000000000000000000000c099ab708e20e8b25c63ca156d7cc94404c554160000000000000000000000000000000000000000000000000000000000007595000000000000000000000000473132bb594caef281c68718f4541f73fe14dc890000000000000000000000000000000000000000000000000000000000000000",
        "nonce": "0x89",
        "chainId": "0xdef1"
      },
      "additionalContracts": [],
      "isFixedGasLimit": false
    },
    {
      "hash": "0x97e06b0e274497e5335068b795636732a7369144374514181e8c4cc8d0e1a1a1",
      "transactionType": "CALL",
      "contractName": null,
      "contractAddress": "0xc099ab708e20e8b25c63ca156d7cc94404c55416",
      "function": "setEnforcedOptions((uint32,uint16,bytes)[])",
      "arguments": [
        "[(30362, 1, 0x00030100110100000000000000000000000000029810), (30362, 2, 0x0003010011010000000000000000000000000002981001001303000000000000000000000000000000029810)]"
      ],
      "transaction": {
        "from": "0x4c51ce7b2546e18449fbe16738a8d55bc195a4dd",
        "to": "0xc099ab708e20e8b25c63ca156d7cc94404c55416",
        "gas": "0x2e8cb",
        "value": "0x0",
        "input": "0xb98bd07000000000000000000000000000000000000000000000000000000000000000200000000000000000000000000000000000000000000000000000000000000002000000000000000000000000000000000000000000000000000000000000004000000000000000000000000000000000000000000000000000000000000000e0000000000000000000000000000000000000000000000000000000000000769a0000000000000000000000000000000000000000000000000000000000000001000000000000000000000000000000000000000000000000000000000000006000000000000000000000000000000000000000000000000000000000000000160003010011010000000000000000000000000002981000000000000000000000000000000000000000000000000000000000000000000000000000000000769a00000000000000000000000000000000000000000000000000000000000000020000000000000000000000000000000000000000000000000000000000000060000000000000000000000000000000000000000000000000000000000000002c00030100110100000000000000000000000000029810010013030000000000000000000000000000000298100000000000000000000000000000000000000000",
        "nonce": "0x8a",
        "chainId": "0xdef1"
      },
      "additionalContracts": [],
      "isFixedGasLimit": false
    },
    {
      "hash": "0x14fd66af615067e716749a7630c4fa6146b2f8d042aedb8bf6bdc0010ee11cf1",
      "transactionType": "CALL",
      "contractName": null,
      "contractAddress": "0xc099ab708e20e8b25c63ca156d7cc94404c55416",
      "function": "setEnforcedOptions((uint32,uint16,bytes)[])",
      "arguments": [
        "[(30184, 1, 0x00030100110100000000000000000000000000029810), (30184, 2, 0x0003010011010000000000000000000000000002981001001303000000000000000000000000000000029810)]"
      ],
      "transaction": {
        "from": "0x4c51ce7b2546e18449fbe16738a8d55bc195a4dd",
        "to": "0xc099ab708e20e8b25c63ca156d7cc94404c55416",
        "gas": "0x2e8cb",
        "value": "0x0",
        "input": "0xb98bd07000000000000000000000000000000000000000000000000000000000000000200000000000000000000000000000000000000000000000000000000000000002000000000000000000000000000000000000000000000000000000000000004000000000000000000000000000000000000000000000000000000000000000e000000000000000000000000000000000000000000000000000000000000075e8000000000000000000000000000000000000000000000000000000000000000100000000000000000000000000000000000000000000000000000000000000600000000000000000000000000000000000000000000000000000000000000016000301001101000000000000000000000000000298100000000000000000000000000000000000000000000000000000000000000000000000000000000075e800000000000000000000000000000000000000000000000000000000000000020000000000000000000000000000000000000000000000000000000000000060000000000000000000000000000000000000000000000000000000000000002c00030100110100000000000000000000000000029810010013030000000000000000000000000000000298100000000000000000000000000000000000000000",
        "nonce": "0x8b",
        "chainId": "0xdef1"
      },
      "additionalContracts": [],
      "isFixedGasLimit": false
    },
    {
      "hash": "0xaf3451261d418165cbd33a9ebb1513a385e8cc8257d3da445142af0d37440037",
      "transactionType": "CALL",
      "contractName": null,
      "contractAddress": "0xc099ab708e20e8b25c63ca156d7cc94404c55416",
      "function": "setEnforcedOptions((uint32,uint16,bytes)[])",
      "arguments": [
        "[(30111, 1, 0x00030100110100000000000000000000000000029810), (30111, 2, 0x0003010011010000000000000000000000000002981001001303000000000000000000000000000000029810)]"
      ],
      "transaction": {
        "from": "0x4c51ce7b2546e18449fbe16738a8d55bc195a4dd",
        "to": "0xc099ab708e20e8b25c63ca156d7cc94404c55416",
        "gas": "0x2e8cb",
        "value": "0x0",
        "input": "0xb98bd07000000000000000000000000000000000000000000000000000000000000000200000000000000000000000000000000000000000000000000000000000000002000000000000000000000000000000000000000000000000000000000000004000000000000000000000000000000000000000000000000000000000000000e0000000000000000000000000000000000000000000000000000000000000759f0000000000000000000000000000000000000000000000000000000000000001000000000000000000000000000000000000000000000000000000000000006000000000000000000000000000000000000000000000000000000000000000160003010011010000000000000000000000000002981000000000000000000000000000000000000000000000000000000000000000000000000000000000759f00000000000000000000000000000000000000000000000000000000000000020000000000000000000000000000000000000000000000000000000000000060000000000000000000000000000000000000000000000000000000000000002c00030100110100000000000000000000000000029810010013030000000000000000000000000000000298100000000000000000000000000000000000000000",
        "nonce": "0x8c",
        "chainId": "0xdef1"
      },
      "additionalContracts": [],
      "isFixedGasLimit": false
    },
    {
      "hash": "0x3003fe8caf5de7709d8b0d4bcdc161a87173fbb346e566b2ad7f1332d800330c",
      "transactionType": "CALL",
      "contractName": null,
      "contractAddress": "0xc099ab708e20e8b25c63ca156d7cc94404c55416",
      "function": "setEnforcedOptions((uint32,uint16,bytes)[])",
      "arguments": [
        "[(30110, 1, 0x00030100110100000000000000000000000000029810), (30110, 2, 0x0003010011010000000000000000000000000002981001001303000000000000000000000000000000029810)]"
      ],
      "transaction": {
        "from": "0x4c51ce7b2546e18449fbe16738a8d55bc195a4dd",
        "to": "0xc099ab708e20e8b25c63ca156d7cc94404c55416",
        "gas": "0x2e8cb",
        "value": "0x0",
        "input": "0xb98bd07000000000000000000000000000000000000000000000000000000000000000200000000000000000000000000000000000000000000000000000000000000002000000000000000000000000000000000000000000000000000000000000004000000000000000000000000000000000000000000000000000000000000000e0000000000000000000000000000000000000000000000000000000000000759e0000000000000000000000000000000000000000000000000000000000000001000000000000000000000000000000000000000000000000000000000000006000000000000000000000000000000000000000000000000000000000000000160003010011010000000000000000000000000002981000000000000000000000000000000000000000000000000000000000000000000000000000000000759e00000000000000000000000000000000000000000000000000000000000000020000000000000000000000000000000000000000000000000000000000000060000000000000000000000000000000000000000000000000000000000000002c00030100110100000000000000000000000000029810010013030000000000000000000000000000000298100000000000000000000000000000000000000000",
        "nonce": "0x8d",
        "chainId": "0xdef1"
      },
      "additionalContracts": [],
      "isFixedGasLimit": false
    },
    {
      "hash": "0xe55709cb5687e574a4dca52c072b0bc4722391228b4b3d2fbb904233573b7b95",
      "transactionType": "CALL",
      "contractName": null,
      "contractAddress": "0xc099ab708e20e8b25c63ca156d7cc94404c55416",
      "function": "setEnforcedOptions((uint32,uint16,bytes)[])",
      "arguments": [
        "[(30102, 1, 0x00030100110100000000000000000000000000029810), (30102, 2, 0x0003010011010000000000000000000000000002981001001303000000000000000000000000000000029810)]"
      ],
      "transaction": {
        "from": "0x4c51ce7b2546e18449fbe16738a8d55bc195a4dd",
        "to": "0xc099ab708e20e8b25c63ca156d7cc94404c55416",
        "gas": "0x2e8cb",
        "value": "0x0",
        "input": "0xb98bd07000000000000000000000000000000000000000000000000000000000000000200000000000000000000000000000000000000000000000000000000000000002000000000000000000000000000000000000000000000000000000000000004000000000000000000000000000000000000000000000000000000000000000e000000000000000000000000000000000000000000000000000000000000075960000000000000000000000000000000000000000000000000000000000000001000000000000000000000000000000000000000000000000000000000000006000000000000000000000000000000000000000000000000000000000000000160003010011010000000000000000000000000002981000000000000000000000000000000000000000000000000000000000000000000000000000000000759600000000000000000000000000000000000000000000000000000000000000020000000000000000000000000000000000000000000000000000000000000060000000000000000000000000000000000000000000000000000000000000002c00030100110100000000000000000000000000029810010013030000000000000000000000000000000298100000000000000000000000000000000000000000",
        "nonce": "0x8e",
        "chainId": "0xdef1"
      },
      "additionalContracts": [],
      "isFixedGasLimit": false
    },
    {
      "hash": "0x173a73495f7e3e1365439c5384add89a808be1be9a84a90252da9d75134edbf4",
      "transactionType": "CALL",
      "contractName": null,
      "contractAddress": "0xc099ab708e20e8b25c63ca156d7cc94404c55416",
      "function": "setEnforcedOptions((uint32,uint16,bytes)[])",
      "arguments": [
        "[(30101, 1, 0x00030100110100000000000000000000000000029810), (30101, 2, 0x0003010011010000000000000000000000000002981001001303000000000000000000000000000000029810)]"
      ],
      "transaction": {
        "from": "0x4c51ce7b2546e18449fbe16738a8d55bc195a4dd",
        "to": "0xc099ab708e20e8b25c63ca156d7cc94404c55416",
        "gas": "0x2e8cb",
        "value": "0x0",
        "input": "0xb98bd07000000000000000000000000000000000000000000000000000000000000000200000000000000000000000000000000000000000000000000000000000000002000000000000000000000000000000000000000000000000000000000000004000000000000000000000000000000000000000000000000000000000000000e000000000000000000000000000000000000000000000000000000000000075950000000000000000000000000000000000000000000000000000000000000001000000000000000000000000000000000000000000000000000000000000006000000000000000000000000000000000000000000000000000000000000000160003010011010000000000000000000000000002981000000000000000000000000000000000000000000000000000000000000000000000000000000000759500000000000000000000000000000000000000000000000000000000000000020000000000000000000000000000000000000000000000000000000000000060000000000000000000000000000000000000000000000000000000000000002c00030100110100000000000000000000000000029810010013030000000000000000000000000000000298100000000000000000000000000000000000000000",
        "nonce": "0x8f",
        "chainId": "0xdef1"
      },
      "additionalContracts": [],
      "isFixedGasLimit": false
    },
    {
      "hash": "0x7a2a9274c8219084bb7f8233198f3c3a52c7ecf5bb19ecb2e386839e9df0afb2",
      "transactionType": "CALL",
      "contractName": null,
      "contractAddress": "0xca29f3a6f966cb2fc0de625f8f325c0c46dbe958",
      "function": "setConfig(address,address,(uint32,uint32,bytes)[])",
      "arguments": [
        "0xc099Ab708e20E8b25C63cA156D7cc94404c55416",
        "0x76111DE813F83AAAdBD62773Bf41247634e2319a",
        "[(30362, 2, 0x0000000000000000000000000000000000000000000000000000000000000020000000000000000000000000000000000000000000000000000000000000002000000000000000000000000000000000000000000000000000000000000000020000000000000000000000000000000000000000000000000000000000000000000000000000000000000000000000000000000000000000000000000000000000000000000000000000000000000000000000000000000000000000000000c000000000000000000000000000000000000000000000000000000000000001200000000000000000000000000000000000000000000000000000000000000002000000000000000000000000174f2ba26f8adeafa82663bcf908288d5dbca649000000000000000000000000dd7b5e1db4aafd5c8ec3b764efb8ed265aa5445b0000000000000000000000000000000000000000000000000000000000000000)]"
      ],
      "transaction": {
        "from": "0x4c51ce7b2546e18449fbe16738a8d55bc195a4dd",
        "to": "0xca29f3a6f966cb2fc0de625f8f325c0c46dbe958",
        "gas": "0x2eec9",
        "value": "0x0",
        "input": "0x6dbd9f90000000000000000000000000c099ab708e20e8b25c63ca156d7cc94404c5541600000000000000000000000076111de813f83aaadbd62773bf41247634e2319a000000000000000000000000000000000000000000000000000000000000006000000000000000000000000000000000000000000000000000000000000000010000000000000000000000000000000000000000000000000000000000000020000000000000000000000000000000000000000000000000000000000000769a0000000000000000000000000000000000000000000000000000000000000002000000000000000000000000000000000000000000000000000000000000006000000000000000000000000000000000000000000000000000000000000001600000000000000000000000000000000000000000000000000000000000000020000000000000000000000000000000000000000000000000000000000000002000000000000000000000000000000000000000000000000000000000000000020000000000000000000000000000000000000000000000000000000000000000000000000000000000000000000000000000000000000000000000000000000000000000000000000000000000000000000000000000000000000000000000c000000000000000000000000000000000000000000000000000000000000001200000000000000000000000000000000000000000000000000000000000000002000000000000000000000000174f2ba26f8adeafa82663bcf908288d5dbca649000000000000000000000000dd7b5e1db4aafd5c8ec3b764efb8ed265aa5445b0000000000000000000000000000000000000000000000000000000000000000",
        "nonce": "0x90",
        "chainId": "0xdef1"
      },
      "additionalContracts": [],
      "isFixedGasLimit": false
    },
    {
      "hash": "0x1f2d6140d7a895281ed8c4bcdeda3dd061874c36dd0df8309174ecf47930e7e5",
      "transactionType": "CALL",
      "contractName": null,
      "contractAddress": "0xca29f3a6f966cb2fc0de625f8f325c0c46dbe958",
      "function": "setConfig(address,address,(uint32,uint32,bytes)[])",
      "arguments": [
        "0xc099Ab708e20E8b25C63cA156D7cc94404c55416",
        "0x473132bb594caEF281c68718F4541f73FE14Dc89",
        "[(30362, 2, 0x0000000000000000000000000000000000000000000000000000000000000020000000000000000000000000000000000000000000000000000000000000002000000000000000000000000000000000000000000000000000000000000000020000000000000000000000000000000000000000000000000000000000000000000000000000000000000000000000000000000000000000000000000000000000000000000000000000000000000000000000000000000000000000000000c000000000000000000000000000000000000000000000000000000000000001200000000000000000000000000000000000000000000000000000000000000002000000000000000000000000174f2ba26f8adeafa82663bcf908288d5dbca649000000000000000000000000dd7b5e1db4aafd5c8ec3b764efb8ed265aa5445b0000000000000000000000000000000000000000000000000000000000000000)]"
      ],
      "transaction": {
        "from": "0x4c51ce7b2546e18449fbe16738a8d55bc195a4dd",
        "to": "0xca29f3a6f966cb2fc0de625f8f325c0c46dbe958",
        "gas": "0x31983",
        "value": "0x0",
        "input": "0x6dbd9f90000000000000000000000000c099ab708e20e8b25c63ca156d7cc94404c55416000000000000000000000000473132bb594caef281c68718f4541f73fe14dc89000000000000000000000000000000000000000000000000000000000000006000000000000000000000000000000000000000000000000000000000000000010000000000000000000000000000000000000000000000000000000000000020000000000000000000000000000000000000000000000000000000000000769a0000000000000000000000000000000000000000000000000000000000000002000000000000000000000000000000000000000000000000000000000000006000000000000000000000000000000000000000000000000000000000000001600000000000000000000000000000000000000000000000000000000000000020000000000000000000000000000000000000000000000000000000000000002000000000000000000000000000000000000000000000000000000000000000020000000000000000000000000000000000000000000000000000000000000000000000000000000000000000000000000000000000000000000000000000000000000000000000000000000000000000000000000000000000000000000000c000000000000000000000000000000000000000000000000000000000000001200000000000000000000000000000000000000000000000000000000000000002000000000000000000000000174f2ba26f8adeafa82663bcf908288d5dbca649000000000000000000000000dd7b5e1db4aafd5c8ec3b764efb8ed265aa5445b0000000000000000000000000000000000000000000000000000000000000000",
        "nonce": "0x91",
        "chainId": "0xdef1"
      },
      "additionalContracts": [],
      "isFixedGasLimit": false
    },
    {
      "hash": "0x41f9eb8b93d6e2131ca6c7f2d7a196310ee1685aec76c5d446ba7dd5b2cc0fe0",
      "transactionType": "CALL",
      "contractName": null,
      "contractAddress": "0xca29f3a6f966cb2fc0de625f8f325c0c46dbe958",
      "function": "setConfig(address,address,(uint32,uint32,bytes)[])",
      "arguments": [
        "0xc099Ab708e20E8b25C63cA156D7cc94404c55416",
        "0x76111DE813F83AAAdBD62773Bf41247634e2319a",
        "[(30184, 2, 0x0000000000000000000000000000000000000000000000000000000000000020000000000000000000000000000000000000000000000000000000000000002000000000000000000000000000000000000000000000000000000000000000020000000000000000000000000000000000000000000000000000000000000000000000000000000000000000000000000000000000000000000000000000000000000000000000000000000000000000000000000000000000000000000000c000000000000000000000000000000000000000000000000000000000000001200000000000000000000000000000000000000000000000000000000000000002000000000000000000000000174f2ba26f8adeafa82663bcf908288d5dbca649000000000000000000000000dd7b5e1db4aafd5c8ec3b764efb8ed265aa5445b0000000000000000000000000000000000000000000000000000000000000000)]"
      ],
      "transaction": {
        "from": "0x4c51ce7b2546e18449fbe16738a8d55bc195a4dd",
        "to": "0xca29f3a6f966cb2fc0de625f8f325c0c46dbe958",
        "gas": "0x2eec9",
        "value": "0x0",
        "input": "0x6dbd9f90000000000000000000000000c099ab708e20e8b25c63ca156d7cc94404c5541600000000000000000000000076111de813f83aaadbd62773bf41247634e2319a00000000000000000000000000000000000000000000000000000000000000600000000000000000000000000000000000000000000000000000000000000001000000000000000000000000000000000000000000000000000000000000002000000000000000000000000000000000000000000000000000000000000075e80000000000000000000000000000000000000000000000000000000000000002000000000000000000000000000000000000000000000000000000000000006000000000000000000000000000000000000000000000000000000000000001600000000000000000000000000000000000000000000000000000000000000020000000000000000000000000000000000000000000000000000000000000002000000000000000000000000000000000000000000000000000000000000000020000000000000000000000000000000000000000000000000000000000000000000000000000000000000000000000000000000000000000000000000000000000000000000000000000000000000000000000000000000000000000000000c000000000000000000000000000000000000000000000000000000000000001200000000000000000000000000000000000000000000000000000000000000002000000000000000000000000174f2ba26f8adeafa82663bcf908288d5dbca649000000000000000000000000dd7b5e1db4aafd5c8ec3b764efb8ed265aa5445b0000000000000000000000000000000000000000000000000000000000000000",
        "nonce": "0x92",
        "chainId": "0xdef1"
      },
      "additionalContracts": [],
      "isFixedGasLimit": false
    },
    {
      "hash": "0x2a2d9446fb30aadadc6751dce340f46ac40ea7dbd56e9f5ad925641b611cc09c",
      "transactionType": "CALL",
      "contractName": null,
      "contractAddress": "0xca29f3a6f966cb2fc0de625f8f325c0c46dbe958",
      "function": "setConfig(address,address,(uint32,uint32,bytes)[])",
      "arguments": [
        "0xc099Ab708e20E8b25C63cA156D7cc94404c55416",
        "0x473132bb594caEF281c68718F4541f73FE14Dc89",
        "[(30184, 2, 0x0000000000000000000000000000000000000000000000000000000000000020000000000000000000000000000000000000000000000000000000000000002000000000000000000000000000000000000000000000000000000000000000020000000000000000000000000000000000000000000000000000000000000000000000000000000000000000000000000000000000000000000000000000000000000000000000000000000000000000000000000000000000000000000000c000000000000000000000000000000000000000000000000000000000000001200000000000000000000000000000000000000000000000000000000000000002000000000000000000000000174f2ba26f8adeafa82663bcf908288d5dbca649000000000000000000000000dd7b5e1db4aafd5c8ec3b764efb8ed265aa5445b0000000000000000000000000000000000000000000000000000000000000000)]"
      ],
      "transaction": {
        "from": "0x4c51ce7b2546e18449fbe16738a8d55bc195a4dd",
        "to": "0xca29f3a6f966cb2fc0de625f8f325c0c46dbe958",
        "gas": "0x31983",
        "value": "0x0",
        "input": "0x6dbd9f90000000000000000000000000c099ab708e20e8b25c63ca156d7cc94404c55416000000000000000000000000473132bb594caef281c68718f4541f73fe14dc8900000000000000000000000000000000000000000000000000000000000000600000000000000000000000000000000000000000000000000000000000000001000000000000000000000000000000000000000000000000000000000000002000000000000000000000000000000000000000000000000000000000000075e80000000000000000000000000000000000000000000000000000000000000002000000000000000000000000000000000000000000000000000000000000006000000000000000000000000000000000000000000000000000000000000001600000000000000000000000000000000000000000000000000000000000000020000000000000000000000000000000000000000000000000000000000000002000000000000000000000000000000000000000000000000000000000000000020000000000000000000000000000000000000000000000000000000000000000000000000000000000000000000000000000000000000000000000000000000000000000000000000000000000000000000000000000000000000000000000c000000000000000000000000000000000000000000000000000000000000001200000000000000000000000000000000000000000000000000000000000000002000000000000000000000000174f2ba26f8adeafa82663bcf908288d5dbca649000000000000000000000000dd7b5e1db4aafd5c8ec3b764efb8ed265aa5445b0000000000000000000000000000000000000000000000000000000000000000",
        "nonce": "0x93",
        "chainId": "0xdef1"
      },
      "additionalContracts": [],
      "isFixedGasLimit": false
    },
    {
      "hash": "0x3d9af00b6280e6c48c33528c8bc93875dd61d55724cb0becb24ae45385ba4735",
      "transactionType": "CALL",
      "contractName": null,
      "contractAddress": "0xca29f3a6f966cb2fc0de625f8f325c0c46dbe958",
      "function": "setConfig(address,address,(uint32,uint32,bytes)[])",
      "arguments": [
        "0xc099Ab708e20E8b25C63cA156D7cc94404c55416",
        "0x76111DE813F83AAAdBD62773Bf41247634e2319a",
        "[(30111, 2, 0x0000000000000000000000000000000000000000000000000000000000000020000000000000000000000000000000000000000000000000000000000000002000000000000000000000000000000000000000000000000000000000000000020000000000000000000000000000000000000000000000000000000000000000000000000000000000000000000000000000000000000000000000000000000000000000000000000000000000000000000000000000000000000000000000c000000000000000000000000000000000000000000000000000000000000001200000000000000000000000000000000000000000000000000000000000000002000000000000000000000000174f2ba26f8adeafa82663bcf908288d5dbca649000000000000000000000000dd7b5e1db4aafd5c8ec3b764efb8ed265aa5445b0000000000000000000000000000000000000000000000000000000000000000)]"
      ],
      "transaction": {
        "from": "0x4c51ce7b2546e18449fbe16738a8d55bc195a4dd",
        "to": "0xca29f3a6f966cb2fc0de625f8f325c0c46dbe958",
        "gas": "0x2eec9",
        "value": "0x0",
        "input": "0x6dbd9f90000000000000000000000000c099ab708e20e8b25c63ca156d7cc94404c5541600000000000000000000000076111de813f83aaadbd62773bf41247634e2319a000000000000000000000000000000000000000000000000000000000000006000000000000000000000000000000000000000000000000000000000000000010000000000000000000000000000000000000000000000000000000000000020000000000000000000000000000000000000000000000000000000000000759f0000000000000000000000000000000000000000000000000000000000000002000000000000000000000000000000000000000000000000000000000000006000000000000000000000000000000000000000000000000000000000000001600000000000000000000000000000000000000000000000000000000000000020000000000000000000000000000000000000000000000000000000000000002000000000000000000000000000000000000000000000000000000000000000020000000000000000000000000000000000000000000000000000000000000000000000000000000000000000000000000000000000000000000000000000000000000000000000000000000000000000000000000000000000000000000000c000000000000000000000000000000000000000000000000000000000000001200000000000000000000000000000000000000000000000000000000000000002000000000000000000000000174f2ba26f8adeafa82663bcf908288d5dbca649000000000000000000000000dd7b5e1db4aafd5c8ec3b764efb8ed265aa5445b0000000000000000000000000000000000000000000000000000000000000000",
        "nonce": "0x94",
        "chainId": "0xdef1"
      },
      "additionalContracts": [],
      "isFixedGasLimit": false
    },
    {
      "hash": "0x5bd46692f9b355a38143a1386cb7af2e6ef3d031e18e0619f2149991e5e0c3cf",
      "transactionType": "CALL",
      "contractName": null,
      "contractAddress": "0xca29f3a6f966cb2fc0de625f8f325c0c46dbe958",
      "function": "setConfig(address,address,(uint32,uint32,bytes)[])",
      "arguments": [
        "0xc099Ab708e20E8b25C63cA156D7cc94404c55416",
        "0x473132bb594caEF281c68718F4541f73FE14Dc89",
        "[(30111, 2, 0x0000000000000000000000000000000000000000000000000000000000000020000000000000000000000000000000000000000000000000000000000000002000000000000000000000000000000000000000000000000000000000000000020000000000000000000000000000000000000000000000000000000000000000000000000000000000000000000000000000000000000000000000000000000000000000000000000000000000000000000000000000000000000000000000c000000000000000000000000000000000000000000000000000000000000001200000000000000000000000000000000000000000000000000000000000000002000000000000000000000000174f2ba26f8adeafa82663bcf908288d5dbca649000000000000000000000000dd7b5e1db4aafd5c8ec3b764efb8ed265aa5445b0000000000000000000000000000000000000000000000000000000000000000)]"
      ],
      "transaction": {
        "from": "0x4c51ce7b2546e18449fbe16738a8d55bc195a4dd",
        "to": "0xca29f3a6f966cb2fc0de625f8f325c0c46dbe958",
        "gas": "0x31983",
        "value": "0x0",
        "input": "0x6dbd9f90000000000000000000000000c099ab708e20e8b25c63ca156d7cc94404c55416000000000000000000000000473132bb594caef281c68718f4541f73fe14dc89000000000000000000000000000000000000000000000000000000000000006000000000000000000000000000000000000000000000000000000000000000010000000000000000000000000000000000000000000000000000000000000020000000000000000000000000000000000000000000000000000000000000759f0000000000000000000000000000000000000000000000000000000000000002000000000000000000000000000000000000000000000000000000000000006000000000000000000000000000000000000000000000000000000000000001600000000000000000000000000000000000000000000000000000000000000020000000000000000000000000000000000000000000000000000000000000002000000000000000000000000000000000000000000000000000000000000000020000000000000000000000000000000000000000000000000000000000000000000000000000000000000000000000000000000000000000000000000000000000000000000000000000000000000000000000000000000000000000000000c000000000000000000000000000000000000000000000000000000000000001200000000000000000000000000000000000000000000000000000000000000002000000000000000000000000174f2ba26f8adeafa82663bcf908288d5dbca649000000000000000000000000dd7b5e1db4aafd5c8ec3b764efb8ed265aa5445b0000000000000000000000000000000000000000000000000000000000000000",
        "nonce": "0x95",
        "chainId": "0xdef1"
      },
      "additionalContracts": [],
      "isFixedGasLimit": false
    },
    {
      "hash": "0xf11cf3a498ed59e6a90e43576ad81e2ae5b180955d4bc0179019fa0b41878266",
      "transactionType": "CALL",
      "contractName": null,
      "contractAddress": "0xca29f3a6f966cb2fc0de625f8f325c0c46dbe958",
      "function": "setConfig(address,address,(uint32,uint32,bytes)[])",
      "arguments": [
        "0xc099Ab708e20E8b25C63cA156D7cc94404c55416",
        "0x76111DE813F83AAAdBD62773Bf41247634e2319a",
        "[(30110, 2, 0x0000000000000000000000000000000000000000000000000000000000000020000000000000000000000000000000000000000000000000000000000000002000000000000000000000000000000000000000000000000000000000000000020000000000000000000000000000000000000000000000000000000000000000000000000000000000000000000000000000000000000000000000000000000000000000000000000000000000000000000000000000000000000000000000c000000000000000000000000000000000000000000000000000000000000001200000000000000000000000000000000000000000000000000000000000000002000000000000000000000000174f2ba26f8adeafa82663bcf908288d5dbca649000000000000000000000000dd7b5e1db4aafd5c8ec3b764efb8ed265aa5445b0000000000000000000000000000000000000000000000000000000000000000)]"
      ],
      "transaction": {
        "from": "0x4c51ce7b2546e18449fbe16738a8d55bc195a4dd",
        "to": "0xca29f3a6f966cb2fc0de625f8f325c0c46dbe958",
        "gas": "0x2eec9",
        "value": "0x0",
        "input": "0x6dbd9f90000000000000000000000000c099ab708e20e8b25c63ca156d7cc94404c5541600000000000000000000000076111de813f83aaadbd62773bf41247634e2319a000000000000000000000000000000000000000000000000000000000000006000000000000000000000000000000000000000000000000000000000000000010000000000000000000000000000000000000000000000000000000000000020000000000000000000000000000000000000000000000000000000000000759e0000000000000000000000000000000000000000000000000000000000000002000000000000000000000000000000000000000000000000000000000000006000000000000000000000000000000000000000000000000000000000000001600000000000000000000000000000000000000000000000000000000000000020000000000000000000000000000000000000000000000000000000000000002000000000000000000000000000000000000000000000000000000000000000020000000000000000000000000000000000000000000000000000000000000000000000000000000000000000000000000000000000000000000000000000000000000000000000000000000000000000000000000000000000000000000000c000000000000000000000000000000000000000000000000000000000000001200000000000000000000000000000000000000000000000000000000000000002000000000000000000000000174f2ba26f8adeafa82663bcf908288d5dbca649000000000000000000000000dd7b5e1db4aafd5c8ec3b764efb8ed265aa5445b0000000000000000000000000000000000000000000000000000000000000000",
        "nonce": "0x96",
        "chainId": "0xdef1"
      },
      "additionalContracts": [],
      "isFixedGasLimit": false
    },
    {
      "hash": "0x9cd23def6a39dcafae4b4d9133bc8d02e8eeb0b79cda3a0ff2b034c1ed81ff19",
      "transactionType": "CALL",
      "contractName": null,
      "contractAddress": "0xca29f3a6f966cb2fc0de625f8f325c0c46dbe958",
      "function": "setConfig(address,address,(uint32,uint32,bytes)[])",
      "arguments": [
        "0xc099Ab708e20E8b25C63cA156D7cc94404c55416",
        "0x473132bb594caEF281c68718F4541f73FE14Dc89",
        "[(30110, 2, 0x0000000000000000000000000000000000000000000000000000000000000020000000000000000000000000000000000000000000000000000000000000002000000000000000000000000000000000000000000000000000000000000000020000000000000000000000000000000000000000000000000000000000000000000000000000000000000000000000000000000000000000000000000000000000000000000000000000000000000000000000000000000000000000000000c000000000000000000000000000000000000000000000000000000000000001200000000000000000000000000000000000000000000000000000000000000002000000000000000000000000174f2ba26f8adeafa82663bcf908288d5dbca649000000000000000000000000dd7b5e1db4aafd5c8ec3b764efb8ed265aa5445b0000000000000000000000000000000000000000000000000000000000000000)]"
      ],
      "transaction": {
        "from": "0x4c51ce7b2546e18449fbe16738a8d55bc195a4dd",
        "to": "0xca29f3a6f966cb2fc0de625f8f325c0c46dbe958",
        "gas": "0x31983",
        "value": "0x0",
        "input": "0x6dbd9f90000000000000000000000000c099ab708e20e8b25c63ca156d7cc94404c55416000000000000000000000000473132bb594caef281c68718f4541f73fe14dc89000000000000000000000000000000000000000000000000000000000000006000000000000000000000000000000000000000000000000000000000000000010000000000000000000000000000000000000000000000000000000000000020000000000000000000000000000000000000000000000000000000000000759e0000000000000000000000000000000000000000000000000000000000000002000000000000000000000000000000000000000000000000000000000000006000000000000000000000000000000000000000000000000000000000000001600000000000000000000000000000000000000000000000000000000000000020000000000000000000000000000000000000000000000000000000000000002000000000000000000000000000000000000000000000000000000000000000020000000000000000000000000000000000000000000000000000000000000000000000000000000000000000000000000000000000000000000000000000000000000000000000000000000000000000000000000000000000000000000000c000000000000000000000000000000000000000000000000000000000000001200000000000000000000000000000000000000000000000000000000000000002000000000000000000000000174f2ba26f8adeafa82663bcf908288d5dbca649000000000000000000000000dd7b5e1db4aafd5c8ec3b764efb8ed265aa5445b0000000000000000000000000000000000000000000000000000000000000000",
        "nonce": "0x97",
        "chainId": "0xdef1"
      },
      "additionalContracts": [],
      "isFixedGasLimit": false
    },
    {
      "hash": "0x246ee114c7a88ff9bdff9708f05221d93072df452cef822fbcf5018a1880fa01",
      "transactionType": "CALL",
      "contractName": null,
      "contractAddress": "0xca29f3a6f966cb2fc0de625f8f325c0c46dbe958",
      "function": "setConfig(address,address,(uint32,uint32,bytes)[])",
      "arguments": [
        "0xc099Ab708e20E8b25C63cA156D7cc94404c55416",
        "0x76111DE813F83AAAdBD62773Bf41247634e2319a",
        "[(30102, 2, 0x0000000000000000000000000000000000000000000000000000000000000020000000000000000000000000000000000000000000000000000000000000002000000000000000000000000000000000000000000000000000000000000000020000000000000000000000000000000000000000000000000000000000000000000000000000000000000000000000000000000000000000000000000000000000000000000000000000000000000000000000000000000000000000000000c000000000000000000000000000000000000000000000000000000000000001200000000000000000000000000000000000000000000000000000000000000002000000000000000000000000174f2ba26f8adeafa82663bcf908288d5dbca649000000000000000000000000dd7b5e1db4aafd5c8ec3b764efb8ed265aa5445b0000000000000000000000000000000000000000000000000000000000000000)]"
      ],
      "transaction": {
        "from": "0x4c51ce7b2546e18449fbe16738a8d55bc195a4dd",
        "to": "0xca29f3a6f966cb2fc0de625f8f325c0c46dbe958",
        "gas": "0x2eec9",
        "value": "0x0",
        "input": "0x6dbd9f90000000000000000000000000c099ab708e20e8b25c63ca156d7cc94404c5541600000000000000000000000076111de813f83aaadbd62773bf41247634e2319a00000000000000000000000000000000000000000000000000000000000000600000000000000000000000000000000000000000000000000000000000000001000000000000000000000000000000000000000000000000000000000000002000000000000000000000000000000000000000000000000000000000000075960000000000000000000000000000000000000000000000000000000000000002000000000000000000000000000000000000000000000000000000000000006000000000000000000000000000000000000000000000000000000000000001600000000000000000000000000000000000000000000000000000000000000020000000000000000000000000000000000000000000000000000000000000002000000000000000000000000000000000000000000000000000000000000000020000000000000000000000000000000000000000000000000000000000000000000000000000000000000000000000000000000000000000000000000000000000000000000000000000000000000000000000000000000000000000000000c000000000000000000000000000000000000000000000000000000000000001200000000000000000000000000000000000000000000000000000000000000002000000000000000000000000174f2ba26f8adeafa82663bcf908288d5dbca649000000000000000000000000dd7b5e1db4aafd5c8ec3b764efb8ed265aa5445b0000000000000000000000000000000000000000000000000000000000000000",
        "nonce": "0x98",
        "chainId": "0xdef1"
      },
      "additionalContracts": [],
      "isFixedGasLimit": false
    },
    {
      "hash": "0x041523c3a5146cc7aac6958322415efcde34c00602a2e24e52c8c7fdcd2f46d9",
      "transactionType": "CALL",
      "contractName": null,
      "contractAddress": "0xca29f3a6f966cb2fc0de625f8f325c0c46dbe958",
      "function": "setConfig(address,address,(uint32,uint32,bytes)[])",
      "arguments": [
        "0xc099Ab708e20E8b25C63cA156D7cc94404c55416",
        "0x473132bb594caEF281c68718F4541f73FE14Dc89",
        "[(30102, 2, 0x0000000000000000000000000000000000000000000000000000000000000020000000000000000000000000000000000000000000000000000000000000002000000000000000000000000000000000000000000000000000000000000000020000000000000000000000000000000000000000000000000000000000000000000000000000000000000000000000000000000000000000000000000000000000000000000000000000000000000000000000000000000000000000000000c000000000000000000000000000000000000000000000000000000000000001200000000000000000000000000000000000000000000000000000000000000002000000000000000000000000174f2ba26f8adeafa82663bcf908288d5dbca649000000000000000000000000dd7b5e1db4aafd5c8ec3b764efb8ed265aa5445b0000000000000000000000000000000000000000000000000000000000000000)]"
      ],
      "transaction": {
        "from": "0x4c51ce7b2546e18449fbe16738a8d55bc195a4dd",
        "to": "0xca29f3a6f966cb2fc0de625f8f325c0c46dbe958",
        "gas": "0x31983",
        "value": "0x0",
        "input": "0x6dbd9f90000000000000000000000000c099ab708e20e8b25c63ca156d7cc94404c55416000000000000000000000000473132bb594caef281c68718f4541f73fe14dc8900000000000000000000000000000000000000000000000000000000000000600000000000000000000000000000000000000000000000000000000000000001000000000000000000000000000000000000000000000000000000000000002000000000000000000000000000000000000000000000000000000000000075960000000000000000000000000000000000000000000000000000000000000002000000000000000000000000000000000000000000000000000000000000006000000000000000000000000000000000000000000000000000000000000001600000000000000000000000000000000000000000000000000000000000000020000000000000000000000000000000000000000000000000000000000000002000000000000000000000000000000000000000000000000000000000000000020000000000000000000000000000000000000000000000000000000000000000000000000000000000000000000000000000000000000000000000000000000000000000000000000000000000000000000000000000000000000000000000c000000000000000000000000000000000000000000000000000000000000001200000000000000000000000000000000000000000000000000000000000000002000000000000000000000000174f2ba26f8adeafa82663bcf908288d5dbca649000000000000000000000000dd7b5e1db4aafd5c8ec3b764efb8ed265aa5445b0000000000000000000000000000000000000000000000000000000000000000",
        "nonce": "0x99",
        "chainId": "0xdef1"
      },
      "additionalContracts": [],
      "isFixedGasLimit": false
    },
    {
      "hash": "0x603dab50f77f17dfdea599f397cbf32ee4412ea65f21255ba62bc6c1e1e05aff",
      "transactionType": "CALL",
      "contractName": null,
      "contractAddress": "0xca29f3a6f966cb2fc0de625f8f325c0c46dbe958",
      "function": "setConfig(address,address,(uint32,uint32,bytes)[])",
      "arguments": [
        "0xc099Ab708e20E8b25C63cA156D7cc94404c55416",
        "0x76111DE813F83AAAdBD62773Bf41247634e2319a",
        "[(30101, 2, 0x0000000000000000000000000000000000000000000000000000000000000020000000000000000000000000000000000000000000000000000000000000002000000000000000000000000000000000000000000000000000000000000000020000000000000000000000000000000000000000000000000000000000000000000000000000000000000000000000000000000000000000000000000000000000000000000000000000000000000000000000000000000000000000000000c000000000000000000000000000000000000000000000000000000000000001200000000000000000000000000000000000000000000000000000000000000002000000000000000000000000174f2ba26f8adeafa82663bcf908288d5dbca649000000000000000000000000dd7b5e1db4aafd5c8ec3b764efb8ed265aa5445b0000000000000000000000000000000000000000000000000000000000000000)]"
      ],
      "transaction": {
        "from": "0x4c51ce7b2546e18449fbe16738a8d55bc195a4dd",
        "to": "0xca29f3a6f966cb2fc0de625f8f325c0c46dbe958",
        "gas": "0x2eec9",
        "value": "0x0",
        "input": "0x6dbd9f90000000000000000000000000c099ab708e20e8b25c63ca156d7cc94404c5541600000000000000000000000076111de813f83aaadbd62773bf41247634e2319a00000000000000000000000000000000000000000000000000000000000000600000000000000000000000000000000000000000000000000000000000000001000000000000000000000000000000000000000000000000000000000000002000000000000000000000000000000000000000000000000000000000000075950000000000000000000000000000000000000000000000000000000000000002000000000000000000000000000000000000000000000000000000000000006000000000000000000000000000000000000000000000000000000000000001600000000000000000000000000000000000000000000000000000000000000020000000000000000000000000000000000000000000000000000000000000002000000000000000000000000000000000000000000000000000000000000000020000000000000000000000000000000000000000000000000000000000000000000000000000000000000000000000000000000000000000000000000000000000000000000000000000000000000000000000000000000000000000000000c000000000000000000000000000000000000000000000000000000000000001200000000000000000000000000000000000000000000000000000000000000002000000000000000000000000174f2ba26f8adeafa82663bcf908288d5dbca649000000000000000000000000dd7b5e1db4aafd5c8ec3b764efb8ed265aa5445b0000000000000000000000000000000000000000000000000000000000000000",
        "nonce": "0x9a",
        "chainId": "0xdef1"
      },
      "additionalContracts": [],
      "isFixedGasLimit": false
    },
    {
      "hash": "0xbe17bc53bf1a48c2872f9efd7400ff6c82a029468e6881d3368e529b8ee0d7f7",
      "transactionType": "CALL",
      "contractName": null,
      "contractAddress": "0xca29f3a6f966cb2fc0de625f8f325c0c46dbe958",
      "function": "setConfig(address,address,(uint32,uint32,bytes)[])",
      "arguments": [
        "0xc099Ab708e20E8b25C63cA156D7cc94404c55416",
        "0x473132bb594caEF281c68718F4541f73FE14Dc89",
        "[(30101, 2, 0x0000000000000000000000000000000000000000000000000000000000000020000000000000000000000000000000000000000000000000000000000000002000000000000000000000000000000000000000000000000000000000000000020000000000000000000000000000000000000000000000000000000000000000000000000000000000000000000000000000000000000000000000000000000000000000000000000000000000000000000000000000000000000000000000c000000000000000000000000000000000000000000000000000000000000001200000000000000000000000000000000000000000000000000000000000000002000000000000000000000000174f2ba26f8adeafa82663bcf908288d5dbca649000000000000000000000000dd7b5e1db4aafd5c8ec3b764efb8ed265aa5445b0000000000000000000000000000000000000000000000000000000000000000)]"
      ],
      "transaction": {
        "from": "0x4c51ce7b2546e18449fbe16738a8d55bc195a4dd",
        "to": "0xca29f3a6f966cb2fc0de625f8f325c0c46dbe958",
        "gas": "0x31983",
        "value": "0x0",
        "input": "0x6dbd9f90000000000000000000000000c099ab708e20e8b25c63ca156d7cc94404c55416000000000000000000000000473132bb594caef281c68718f4541f73fe14dc8900000000000000000000000000000000000000000000000000000000000000600000000000000000000000000000000000000000000000000000000000000001000000000000000000000000000000000000000000000000000000000000002000000000000000000000000000000000000000000000000000000000000075950000000000000000000000000000000000000000000000000000000000000002000000000000000000000000000000000000000000000000000000000000006000000000000000000000000000000000000000000000000000000000000001600000000000000000000000000000000000000000000000000000000000000020000000000000000000000000000000000000000000000000000000000000002000000000000000000000000000000000000000000000000000000000000000020000000000000000000000000000000000000000000000000000000000000000000000000000000000000000000000000000000000000000000000000000000000000000000000000000000000000000000000000000000000000000000000c000000000000000000000000000000000000000000000000000000000000001200000000000000000000000000000000000000000000000000000000000000002000000000000000000000000174f2ba26f8adeafa82663bcf908288d5dbca649000000000000000000000000dd7b5e1db4aafd5c8ec3b764efb8ed265aa5445b0000000000000000000000000000000000000000000000000000000000000000",
        "nonce": "0x9b",
        "chainId": "0xdef1"
      },
      "additionalContracts": [],
      "isFixedGasLimit": false
    },
    {
      "hash": "0x8089e63741ce845fbe04e8238fc594620f4a0f8a258d1aaa1d90535850901f1e",
      "transactionType": "CALL",
      "contractName": null,
      "contractAddress": "0xc099ab708e20e8b25c63ca156d7cc94404c55416",
      "function": "setDelegate(address)",
      "arguments": [
        "0x5848af047b56F7FCc9DFEAC2F535d4800069E9E1"
      ],
      "transaction": {
        "from": "0x4c51ce7b2546e18449fbe16738a8d55bc195a4dd",
        "to": "0xc099ab708e20e8b25c63ca156d7cc94404c55416",
        "gas": "0xdd64",
        "value": "0x0",
        "input": "0xca5eb5e10000000000000000000000005848af047b56f7fcc9dfeac2f535d4800069e9e1",
        "nonce": "0x9c",
        "chainId": "0xdef1"
      },
      "additionalContracts": [],
      "isFixedGasLimit": false
    }
  ],
  "receipts": [
    {
      "status": "0x1",
      "cumulativeGasUsed": "0x1a27d4",
      "logs": [
        {
          "address": "0xc099ab708e20e8b25c63ca156d7cc94404c55416",
          "topics": [
            "0xe888347665897e637801f36c5129f510657276178c89022bc5fa0246dbc19de1"
          ],
          "data": "0x00000000000000000000000000000000000000000000000000000000000000200000000000000000000000000000000000000000000000000000000000000007000000000000000000000000000000000000000000000000000000000000759500000000000000000000000000000000000000000052b7d2dcc80cd2e40000000000000000000000000000000000000000000000000000000000000000000e10000000000000000000000000000000000000000000000000000000000000769a00000000000000000000000000000000000000000052b7d2dcc80cd2e40000000000000000000000000000000000000000000000000000000000000000000e1000000000000000000000000000000000000000000000000000000000000075e800000000000000000000000000000000000000000052b7d2dcc80cd2e40000000000000000000000000000000000000000000000000000000000000000000e10000000000000000000000000000000000000000000000000000000000000759f00000000000000000000000000000000000000000052b7d2dcc80cd2e40000000000000000000000000000000000000000000000000000000000000000000e10000000000000000000000000000000000000000000000000000000000000759e00000000000000000000000000000000000000000052b7d2dcc80cd2e40000000000000000000000000000000000000000000000000000000000000000000e10000000000000000000000000000000000000000000000000000000000000759600000000000000000000000000000000000000000052b7d2dcc80cd2e40000000000000000000000000000000000000000000000000000000000000000000e10000000000000000000000000000000000000000000000000000000000000768300000000000000000000000000000000000000000052b7d2dcc80cd2e40000000000000000000000000000000000000000000000000000000000000000000e10",
          "blockHash": "0x89f152b618fc9f5e9538fc7eb73548327be04eec6ef219544e39ea8f576e1890",
          "blockNumber": "0xd7eb52",
          "transactionHash": "0xb925f76b51550d3ef1c99b4d86fc44f42865549d6ccf489b5e62cc65923bcb7b",
          "transactionIndex": "0x4",
          "logIndex": "0xf",
          "removed": false
        }
      ],
      "logsBloom": "0x00000000000000000000000000000000000000000000000000000000000000000000000000000000000000000000000000000000000000000000000000000000000000000000000000000000000000000000000000000000000000000000000000000000000000000000000000000000000000000000000000000000000000000000000000000000000000000000000000000000000020000000010000000004000000000000000000000800000000000000000000000000000000000000000000000000000000000000000000000000000000000000000000000000000000000000000000000000000000000000000000000000000000040000000000000000",
      "type": "0x2",
      "transactionHash": "0xb925f76b51550d3ef1c99b4d86fc44f42865549d6ccf489b5e62cc65923bcb7b",
      "transactionIndex": "0x4",
      "blockHash": "0x89f152b618fc9f5e9538fc7eb73548327be04eec6ef219544e39ea8f576e1890",
      "blockNumber": "0xd7eb52",
      "gasUsed": "0x814a3",
      "effectiveGasPrice": "0xbe8",
      "from": "0x4c51ce7b2546e18449fbe16738a8d55bc195a4dd",
      "to": "0xc099ab708e20e8b25c63ca156d7cc94404c55416",
      "contractAddress": null,
      "l1BaseFeeScalar": "0x558",
      "l1BlobBaseFee": "0x1",
      "l1BlobBaseFeeScalar": "0xc5fc5",
      "l1Fee": "0x65e63f3b",
      "l1GasPrice": "0x1f6d53bc",
      "l1GasUsed": "0x942"
    },
    {
      "status": "0x1",
      "cumulativeGasUsed": "0x1af5d1",
      "logs": [
        {
          "address": "0xc099ab708e20e8b25c63ca156d7cc94404c55416",
          "topics": [
            "0x238399d427b947898edb290f5ff0f9109849b1c3ba196a42e35f00c50a54b98b"
          ],
          "data": "0x000000000000000000000000000000000000000000000000000000000000769a000000000000000000000000c099ab708e20e8b25c63ca156d7cc94404c55416",
          "blockHash": "0x89f152b618fc9f5e9538fc7eb73548327be04eec6ef219544e39ea8f576e1890",
          "blockNumber": "0xd7eb52",
          "transactionHash": "0xc01009f151fa2ad2cd36a3563ac7d1c64b8e1e7288182ff8780b2162784af1f7",
          "transactionIndex": "0x5",
          "logIndex": "0x10",
          "removed": false
        }
      ],
      "logsBloom": "0x00000000000000000000000000000000000000000000000000000000000000000000000000000000000000000000000000000000000000000800000000000000000000000000000000000000000000000000000000000000000000000000000000000000000000000000000000000000000000000000000000000000000000000000000000000000000000000000000000000000000000000000010000000000000000000000000000000800000000000000000000000000000002000000000000000000000000000000000000000000000000000000000000040000000000000000000000000000000000000000000000000000000000040000000000000000",
      "type": "0x2",
      "transactionHash": "0xc01009f151fa2ad2cd36a3563ac7d1c64b8e1e7288182ff8780b2162784af1f7",
      "transactionIndex": "0x5",
      "blockHash": "0x89f152b618fc9f5e9538fc7eb73548327be04eec6ef219544e39ea8f576e1890",
      "blockNumber": "0xd7eb52",
      "gasUsed": "0xcdfd",
      "effectiveGasPrice": "0xbe8",
      "from": "0x4c51ce7b2546e18449fbe16738a8d55bc195a4dd",
      "to": "0xc099ab708e20e8b25c63ca156d7cc94404c55416",
      "contractAddress": null,
      "l1BaseFeeScalar": "0x558",
      "l1BlobBaseFee": "0x1",
      "l1BlobBaseFeeScalar": "0xc5fc5",
      "l1Fee": "0x44c99cf8",
      "l1GasPrice": "0x1f6d53bc",
      "l1GasUsed": "0x640"
    },
    {
      "status": "0x1",
      "cumulativeGasUsed": "0x1bc3ce",
      "logs": [
        {
          "address": "0xc099ab708e20e8b25c63ca156d7cc94404c55416",
          "topics": [
            "0x238399d427b947898edb290f5ff0f9109849b1c3ba196a42e35f00c50a54b98b"
          ],
          "data": "0x00000000000000000000000000000000000000000000000000000000000075e8000000000000000000000000c099ab708e20e8b25c63ca156d7cc94404c55416",
          "blockHash": "0x89f152b618fc9f5e9538fc7eb73548327be04eec6ef219544e39ea8f576e1890",
          "blockNumber": "0xd7eb52",
          "transactionHash": "0xb6478fe0f642c3411d7c56a40037e7face55efc8dcdf941095a38366259e7e56",
          "transactionIndex": "0x6",
          "logIndex": "0x11",
          "removed": false
        }
      ],
      "logsBloom": "0x00000000000000000000000000000000000000000000000000000000000000000000000000000000000000000000000000000000000000000800000000000000000000000000000000000000000000000000000000000000000000000000000000000000000000000000000000000000000000000000000000000000000000000000000000000000000000000000000000000000000000000000010000000000000000000000000000000800000000000000000000000000000002000000000000000000000000000000000000000000000000000000000000040000000000000000000000000000000000000000000000000000000000040000000000000000",
      "type": "0x2",
      "transactionHash": "0xb6478fe0f642c3411d7c56a40037e7face55efc8dcdf941095a38366259e7e56",
      "transactionIndex": "0x6",
      "blockHash": "0x89f152b618fc9f5e9538fc7eb73548327be04eec6ef219544e39ea8f576e1890",
      "blockNumber": "0xd7eb52",
      "gasUsed": "0xcdfd",
      "effectiveGasPrice": "0xbe8",
      "from": "0x4c51ce7b2546e18449fbe16738a8d55bc195a4dd",
      "to": "0xc099ab708e20e8b25c63ca156d7cc94404c55416",
      "contractAddress": null,
      "l1BaseFeeScalar": "0x558",
      "l1BlobBaseFee": "0x1",
      "l1BlobBaseFeeScalar": "0xc5fc5",
      "l1Fee": "0x44c99cf8",
      "l1GasPrice": "0x1f6d53bc",
      "l1GasUsed": "0x640"
    },
    {
      "status": "0x1",
      "cumulativeGasUsed": "0x1c91cb",
      "logs": [
        {
          "address": "0xc099ab708e20e8b25c63ca156d7cc94404c55416",
          "topics": [
            "0x238399d427b947898edb290f5ff0f9109849b1c3ba196a42e35f00c50a54b98b"
          ],
          "data": "0x000000000000000000000000000000000000000000000000000000000000759f000000000000000000000000c099ab708e20e8b25c63ca156d7cc94404c55416",
          "blockHash": "0x89f152b618fc9f5e9538fc7eb73548327be04eec6ef219544e39ea8f576e1890",
          "blockNumber": "0xd7eb52",
          "transactionHash": "0x40eae4d8e9398fa4f229020f96bffa80fbe35d9668235e6212a159255dcceeb0",
          "transactionIndex": "0x7",
          "logIndex": "0x12",
          "removed": false
        }
      ],
      "logsBloom": "0x00000000000000000000000000000000000000000000000000000000000000000000000000000000000000000000000000000000000000000800000000000000000000000000000000000000000000000000000000000000000000000000000000000000000000000000000000000000000000000000000000000000000000000000000000000000000000000000000000000000000000000000010000000000000000000000000000000800000000000000000000000000000002000000000000000000000000000000000000000000000000000000000000040000000000000000000000000000000000000000000000000000000000040000000000000000",
      "type": "0x2",
      "transactionHash": "0x40eae4d8e9398fa4f229020f96bffa80fbe35d9668235e6212a159255dcceeb0",
      "transactionIndex": "0x7",
      "blockHash": "0x89f152b618fc9f5e9538fc7eb73548327be04eec6ef219544e39ea8f576e1890",
      "blockNumber": "0xd7eb52",
      "gasUsed": "0xcdfd",
      "effectiveGasPrice": "0xbe8",
      "from": "0x4c51ce7b2546e18449fbe16738a8d55bc195a4dd",
      "to": "0xc099ab708e20e8b25c63ca156d7cc94404c55416",
      "contractAddress": null,
      "l1BaseFeeScalar": "0x558",
      "l1BlobBaseFee": "0x1",
      "l1BlobBaseFeeScalar": "0xc5fc5",
      "l1Fee": "0x44c99cf8",
      "l1GasPrice": "0x1f6d53bc",
      "l1GasUsed": "0x640"
    },
    {
      "status": "0x1",
      "cumulativeGasUsed": "0x1d5fc8",
      "logs": [
        {
          "address": "0xc099ab708e20e8b25c63ca156d7cc94404c55416",
          "topics": [
            "0x238399d427b947898edb290f5ff0f9109849b1c3ba196a42e35f00c50a54b98b"
          ],
          "data": "0x000000000000000000000000000000000000000000000000000000000000759e000000000000000000000000c099ab708e20e8b25c63ca156d7cc94404c55416",
          "blockHash": "0x89f152b618fc9f5e9538fc7eb73548327be04eec6ef219544e39ea8f576e1890",
          "blockNumber": "0xd7eb52",
          "transactionHash": "0xfed8be0db19839058c1cad49bdfc6200c142f771f37ae602429a29c21ffafd1f",
          "transactionIndex": "0x8",
          "logIndex": "0x13",
          "removed": false
        }
      ],
      "logsBloom": "0x00000000000000000000000000000000000000000000000000000000000000000000000000000000000000000000000000000000000000000800000000000000000000000000000000000000000000000000000000000000000000000000000000000000000000000000000000000000000000000000000000000000000000000000000000000000000000000000000000000000000000000000010000000000000000000000000000000800000000000000000000000000000002000000000000000000000000000000000000000000000000000000000000040000000000000000000000000000000000000000000000000000000000040000000000000000",
      "type": "0x2",
      "transactionHash": "0xfed8be0db19839058c1cad49bdfc6200c142f771f37ae602429a29c21ffafd1f",
      "transactionIndex": "0x8",
      "blockHash": "0x89f152b618fc9f5e9538fc7eb73548327be04eec6ef219544e39ea8f576e1890",
      "blockNumber": "0xd7eb52",
      "gasUsed": "0xcdfd",
      "effectiveGasPrice": "0xbe8",
      "from": "0x4c51ce7b2546e18449fbe16738a8d55bc195a4dd",
      "to": "0xc099ab708e20e8b25c63ca156d7cc94404c55416",
      "contractAddress": null,
      "l1BaseFeeScalar": "0x558",
      "l1BlobBaseFee": "0x1",
      "l1BlobBaseFeeScalar": "0xc5fc5",
      "l1Fee": "0x44c99cf8",
      "l1GasPrice": "0x1f6d53bc",
      "l1GasUsed": "0x640"
    },
    {
      "status": "0x1",
      "cumulativeGasUsed": "0x1e2dc5",
      "logs": [
        {
          "address": "0xc099ab708e20e8b25c63ca156d7cc94404c55416",
          "topics": [
            "0x238399d427b947898edb290f5ff0f9109849b1c3ba196a42e35f00c50a54b98b"
          ],
          "data": "0x0000000000000000000000000000000000000000000000000000000000007596000000000000000000000000c099ab708e20e8b25c63ca156d7cc94404c55416",
          "blockHash": "0x89f152b618fc9f5e9538fc7eb73548327be04eec6ef219544e39ea8f576e1890",
          "blockNumber": "0xd7eb52",
          "transactionHash": "0xf20b1e4c2e73a37b0c3e9f99ac579330f4aef9919785434dd978cfb175a4651e",
          "transactionIndex": "0x9",
          "logIndex": "0x14",
          "removed": false
        }
      ],
      "logsBloom": "0x00000000000000000000000000000000000000000000000000000000000000000000000000000000000000000000000000000000000000000800000000000000000000000000000000000000000000000000000000000000000000000000000000000000000000000000000000000000000000000000000000000000000000000000000000000000000000000000000000000000000000000000010000000000000000000000000000000800000000000000000000000000000002000000000000000000000000000000000000000000000000000000000000040000000000000000000000000000000000000000000000000000000000040000000000000000",
      "type": "0x2",
      "transactionHash": "0xf20b1e4c2e73a37b0c3e9f99ac579330f4aef9919785434dd978cfb175a4651e",
      "transactionIndex": "0x9",
      "blockHash": "0x89f152b618fc9f5e9538fc7eb73548327be04eec6ef219544e39ea8f576e1890",
      "blockNumber": "0xd7eb52",
      "gasUsed": "0xcdfd",
      "effectiveGasPrice": "0xbe8",
      "from": "0x4c51ce7b2546e18449fbe16738a8d55bc195a4dd",
      "to": "0xc099ab708e20e8b25c63ca156d7cc94404c55416",
      "contractAddress": null,
      "l1BaseFeeScalar": "0x558",
      "l1BlobBaseFee": "0x1",
      "l1BlobBaseFeeScalar": "0xc5fc5",
      "l1Fee": "0x44c99cf8",
      "l1GasPrice": "0x1f6d53bc",
      "l1GasUsed": "0x640"
    },
    {
      "status": "0x1",
      "cumulativeGasUsed": "0x1efbc2",
      "logs": [
        {
          "address": "0xc099ab708e20e8b25c63ca156d7cc94404c55416",
          "topics": [
            "0x238399d427b947898edb290f5ff0f9109849b1c3ba196a42e35f00c50a54b98b"
          ],
          "data": "0x0000000000000000000000000000000000000000000000000000000000007595000000000000000000000000c099ab708e20e8b25c63ca156d7cc94404c55416",
          "blockHash": "0x89f152b618fc9f5e9538fc7eb73548327be04eec6ef219544e39ea8f576e1890",
          "blockNumber": "0xd7eb52",
          "transactionHash": "0x52b02e1553a6312e0725ad4e9d5854d67992a0fba53a51aefc45558c6627d657",
          "transactionIndex": "0xa",
          "logIndex": "0x15",
          "removed": false
        }
      ],
      "logsBloom": "0x00000000000000000000000000000000000000000000000000000000000000000000000000000000000000000000000000000000000000000800000000000000000000000000000000000000000000000000000000000000000000000000000000000000000000000000000000000000000000000000000000000000000000000000000000000000000000000000000000000000000000000000010000000000000000000000000000000800000000000000000000000000000002000000000000000000000000000000000000000000000000000000000000040000000000000000000000000000000000000000000000000000000000040000000000000000",
      "type": "0x2",
      "transactionHash": "0x52b02e1553a6312e0725ad4e9d5854d67992a0fba53a51aefc45558c6627d657",
      "transactionIndex": "0xa",
      "blockHash": "0x89f152b618fc9f5e9538fc7eb73548327be04eec6ef219544e39ea8f576e1890",
      "blockNumber": "0xd7eb52",
      "gasUsed": "0xcdfd",
      "effectiveGasPrice": "0xbe8",
      "from": "0x4c51ce7b2546e18449fbe16738a8d55bc195a4dd",
      "to": "0xc099ab708e20e8b25c63ca156d7cc94404c55416",
      "contractAddress": null,
      "l1BaseFeeScalar": "0x558",
      "l1BlobBaseFee": "0x1",
      "l1BlobBaseFeeScalar": "0xc5fc5",
      "l1Fee": "0x44c99cf8",
      "l1GasPrice": "0x1f6d53bc",
      "l1GasUsed": "0x640"
    },
    {
      "status": "0x1",
      "cumulativeGasUsed": "0x1ff763",
      "logs": [
        {
          "address": "0xca29f3a6f966cb2fc0de625f8f325c0c46dbe958",
          "topics": [
            "0xcd6f92f5ac6185a5acfa02c92090746cec64d777269cbcd0ed031e396657a1c2"
          ],
          "data": "0x000000000000000000000000c099ab708e20e8b25c63ca156d7cc94404c55416000000000000000000000000000000000000000000000000000000000000769a000000000000000000000000473132bb594caef281c68718f4541f73fe14dc89",
          "blockHash": "0x89f152b618fc9f5e9538fc7eb73548327be04eec6ef219544e39ea8f576e1890",
          "blockNumber": "0xd7eb52",
          "transactionHash": "0x75cec605f00ce3e974c9e888c48332bccd30dc7c400590a06aa246fa7ac47738",
          "transactionIndex": "0xb",
          "logIndex": "0x16",
          "removed": false
        },
        {
          "address": "0xca29f3a6f966cb2fc0de625f8f325c0c46dbe958",
          "topics": [
            "0x4e0a5bbfa0c11a64effb1ada324b5437a17272e1aed9320398715ef71bb20928"
          ],
          "data": "0x000000000000000000000000c099ab708e20e8b25c63ca156d7cc94404c55416000000000000000000000000000000000000000000000000000000000000769a00000000000000000000000000000000000000000000000000000000000000000000000000000000000000000000000000000000000000000000000000000000",
          "blockHash": "0x89f152b618fc9f5e9538fc7eb73548327be04eec6ef219544e39ea8f576e1890",
          "blockNumber": "0xd7eb52",
          "transactionHash": "0x75cec605f00ce3e974c9e888c48332bccd30dc7c400590a06aa246fa7ac47738",
          "transactionIndex": "0xb",
          "logIndex": "0x17",
          "removed": false
        }
      ],
      "logsBloom": "0x00000000000000000000020800000000000000000000000000000000000000220400000000000000000000000000000000000000000000000000000000000000000000000000000000000000000000000000000000800000040000000000000000000000000000000000000000000000000000000000000000010000000000100000000000000000000000000000000000000000000000000000000000000000000000000000000000000000000000000000000000000000000000000000000000000000000000000000000000000000000000000000000000000000000000000000000000000000000000000000000000000000000000000000000000000000",
      "type": "0x2",
      "transactionHash": "0x75cec605f00ce3e974c9e888c48332bccd30dc7c400590a06aa246fa7ac47738",
      "transactionIndex": "0xb",
      "blockHash": "0x89f152b618fc9f5e9538fc7eb73548327be04eec6ef219544e39ea8f576e1890",
      "blockNumber": "0xd7eb52",
      "gasUsed": "0xfba1",
      "effectiveGasPrice": "0xbe8",
      "from": "0x4c51ce7b2546e18449fbe16738a8d55bc195a4dd",
      "to": "0xca29f3a6f966cb2fc0de625f8f325c0c46dbe958",
      "contractAddress": null,
      "l1BaseFeeScalar": "0x558",
      "l1BlobBaseFee": "0x1",
      "l1BlobBaseFeeScalar": "0xc5fc5",
      "l1Fee": "0x4adaf085",
      "l1GasPrice": "0x1f6d53bc",
      "l1GasUsed": "0x6cd"
    },
    {
      "status": "0x1",
      "cumulativeGasUsed": "0x20f304",
      "logs": [
        {
          "address": "0xca29f3a6f966cb2fc0de625f8f325c0c46dbe958",
          "topics": [
            "0xcd6f92f5ac6185a5acfa02c92090746cec64d777269cbcd0ed031e396657a1c2"
          ],
          "data": "0x000000000000000000000000c099ab708e20e8b25c63ca156d7cc94404c5541600000000000000000000000000000000000000000000000000000000000075e8000000000000000000000000473132bb594caef281c68718f4541f73fe14dc89",
          "blockHash": "0x89f152b618fc9f5e9538fc7eb73548327be04eec6ef219544e39ea8f576e1890",
          "blockNumber": "0xd7eb52",
          "transactionHash": "0x54a3f92934c5f8216cefb995c2903dd0afe56316d8ac06326a5629bbd2acc489",
          "transactionIndex": "0xc",
          "logIndex": "0x18",
          "removed": false
        },
        {
          "address": "0xca29f3a6f966cb2fc0de625f8f325c0c46dbe958",
          "topics": [
            "0x4e0a5bbfa0c11a64effb1ada324b5437a17272e1aed9320398715ef71bb20928"
          ],
          "data": "0x000000000000000000000000c099ab708e20e8b25c63ca156d7cc94404c5541600000000000000000000000000000000000000000000000000000000000075e800000000000000000000000000000000000000000000000000000000000000000000000000000000000000000000000000000000000000000000000000000000",
          "blockHash": "0x89f152b618fc9f5e9538fc7eb73548327be04eec6ef219544e39ea8f576e1890",
          "blockNumber": "0xd7eb52",
          "transactionHash": "0x54a3f92934c5f8216cefb995c2903dd0afe56316d8ac06326a5629bbd2acc489",
          "transactionIndex": "0xc",
          "logIndex": "0x19",
          "removed": false
        }
      ],
      "logsBloom": "0x00000000000000000000020800000000000000000000000000000000000000220400000000000000000000000000000000000000000000000000000000000000000000000000000000000000000000000000000000800000040000000000000000000000000000000000000000000000000000000000000000010000000000100000000000000000000000000000000000000000000000000000000000000000000000000000000000000000000000000000000000000000000000000000000000000000000000000000000000000000000000000000000000000000000000000000000000000000000000000000000000000000000000000000000000000000",
      "type": "0x2",
      "transactionHash": "0x54a3f92934c5f8216cefb995c2903dd0afe56316d8ac06326a5629bbd2acc489",
      "transactionIndex": "0xc",
      "blockHash": "0x89f152b618fc9f5e9538fc7eb73548327be04eec6ef219544e39ea8f576e1890",
      "blockNumber": "0xd7eb52",
      "gasUsed": "0xfba1",
      "effectiveGasPrice": "0xbe8",
      "from": "0x4c51ce7b2546e18449fbe16738a8d55bc195a4dd",
      "to": "0xca29f3a6f966cb2fc0de625f8f325c0c46dbe958",
      "contractAddress": null,
      "l1BaseFeeScalar": "0x558",
      "l1BlobBaseFee": "0x1",
      "l1BlobBaseFeeScalar": "0xc5fc5",
      "l1Fee": "0x4adaf085",
      "l1GasPrice": "0x1f6d53bc",
      "l1GasUsed": "0x6cd"
    },
    {
      "status": "0x1",
      "cumulativeGasUsed": "0x21eea5",
      "logs": [
        {
          "address": "0xca29f3a6f966cb2fc0de625f8f325c0c46dbe958",
          "topics": [
            "0xcd6f92f5ac6185a5acfa02c92090746cec64d777269cbcd0ed031e396657a1c2"
          ],
          "data": "0x000000000000000000000000c099ab708e20e8b25c63ca156d7cc94404c55416000000000000000000000000000000000000000000000000000000000000759f000000000000000000000000473132bb594caef281c68718f4541f73fe14dc89",
          "blockHash": "0x89f152b618fc9f5e9538fc7eb73548327be04eec6ef219544e39ea8f576e1890",
          "blockNumber": "0xd7eb52",
          "transactionHash": "0xe9691d1b2a3876d22e6d3a8f2697ab21495476a3810fe5e337baf28ba2b127c4",
          "transactionIndex": "0xd",
          "logIndex": "0x1a",
          "removed": false
        },
        {
          "address": "0xca29f3a6f966cb2fc0de625f8f325c0c46dbe958",
          "topics": [
            "0x4e0a5bbfa0c11a64effb1ada324b5437a17272e1aed9320398715ef71bb20928"
          ],
          "data": "0x000000000000000000000000c099ab708e20e8b25c63ca156d7cc94404c55416000000000000000000000000000000000000000000000000000000000000759f00000000000000000000000000000000000000000000000000000000000000000000000000000000000000000000000000000000000000000000000000000000",
          "blockHash": "0x89f152b618fc9f5e9538fc7eb73548327be04eec6ef219544e39ea8f576e1890",
          "blockNumber": "0xd7eb52",
          "transactionHash": "0xe9691d1b2a3876d22e6d3a8f2697ab21495476a3810fe5e337baf28ba2b127c4",
          "transactionIndex": "0xd",
          "logIndex": "0x1b",
          "removed": false
        }
      ],
      "logsBloom": "0x00000000000000000000020800000000000000000000000000000000000000220400000000000000000000000000000000000000000000000000000000000000000000000000000000000000000000000000000000800000040000000000000000000000000000000000000000000000000000000000000000010000000000100000000000000000000000000000000000000000000000000000000000000000000000000000000000000000000000000000000000000000000000000000000000000000000000000000000000000000000000000000000000000000000000000000000000000000000000000000000000000000000000000000000000000000",
      "type": "0x2",
      "transactionHash": "0xe9691d1b2a3876d22e6d3a8f2697ab21495476a3810fe5e337baf28ba2b127c4",
      "transactionIndex": "0xd",
      "blockHash": "0x89f152b618fc9f5e9538fc7eb73548327be04eec6ef219544e39ea8f576e1890",
      "blockNumber": "0xd7eb52",
      "gasUsed": "0xfba1",
      "effectiveGasPrice": "0xbe8",
      "from": "0x4c51ce7b2546e18449fbe16738a8d55bc195a4dd",
      "to": "0xca29f3a6f966cb2fc0de625f8f325c0c46dbe958",
      "contractAddress": null,
      "l1BaseFeeScalar": "0x558",
      "l1BlobBaseFee": "0x1",
      "l1BlobBaseFeeScalar": "0xc5fc5",
      "l1Fee": "0x4adaf085",
      "l1GasPrice": "0x1f6d53bc",
      "l1GasUsed": "0x6cd"
    },
    {
      "status": "0x1",
      "cumulativeGasUsed": "0x22ea46",
      "logs": [
        {
          "address": "0xca29f3a6f966cb2fc0de625f8f325c0c46dbe958",
          "topics": [
            "0xcd6f92f5ac6185a5acfa02c92090746cec64d777269cbcd0ed031e396657a1c2"
          ],
          "data": "0x000000000000000000000000c099ab708e20e8b25c63ca156d7cc94404c55416000000000000000000000000000000000000000000000000000000000000759e000000000000000000000000473132bb594caef281c68718f4541f73fe14dc89",
          "blockHash": "0x89f152b618fc9f5e9538fc7eb73548327be04eec6ef219544e39ea8f576e1890",
          "blockNumber": "0xd7eb52",
          "transactionHash": "0xf6a7fe17c8d084408484f73e5280cd756fc222a54ff1a5089e345e15a2ad137a",
          "transactionIndex": "0xe",
          "logIndex": "0x1c",
          "removed": false
        },
        {
          "address": "0xca29f3a6f966cb2fc0de625f8f325c0c46dbe958",
          "topics": [
            "0x4e0a5bbfa0c11a64effb1ada324b5437a17272e1aed9320398715ef71bb20928"
          ],
          "data": "0x000000000000000000000000c099ab708e20e8b25c63ca156d7cc94404c55416000000000000000000000000000000000000000000000000000000000000759e00000000000000000000000000000000000000000000000000000000000000000000000000000000000000000000000000000000000000000000000000000000",
          "blockHash": "0x89f152b618fc9f5e9538fc7eb73548327be04eec6ef219544e39ea8f576e1890",
          "blockNumber": "0xd7eb52",
          "transactionHash": "0xf6a7fe17c8d084408484f73e5280cd756fc222a54ff1a5089e345e15a2ad137a",
          "transactionIndex": "0xe",
          "logIndex": "0x1d",
          "removed": false
        }
      ],
      "logsBloom": "0x00000000000000000000020800000000000000000000000000000000000000220400000000000000000000000000000000000000000000000000000000000000000000000000000000000000000000000000000000800000040000000000000000000000000000000000000000000000000000000000000000010000000000100000000000000000000000000000000000000000000000000000000000000000000000000000000000000000000000000000000000000000000000000000000000000000000000000000000000000000000000000000000000000000000000000000000000000000000000000000000000000000000000000000000000000000",
      "type": "0x2",
      "transactionHash": "0xf6a7fe17c8d084408484f73e5280cd756fc222a54ff1a5089e345e15a2ad137a",
      "transactionIndex": "0xe",
      "blockHash": "0x89f152b618fc9f5e9538fc7eb73548327be04eec6ef219544e39ea8f576e1890",
      "blockNumber": "0xd7eb52",
      "gasUsed": "0xfba1",
      "effectiveGasPrice": "0xbe8",
      "from": "0x4c51ce7b2546e18449fbe16738a8d55bc195a4dd",
      "to": "0xca29f3a6f966cb2fc0de625f8f325c0c46dbe958",
      "contractAddress": null,
      "l1BaseFeeScalar": "0x558",
      "l1BlobBaseFee": "0x1",
      "l1BlobBaseFeeScalar": "0xc5fc5",
      "l1Fee": "0x4adaf085",
      "l1GasPrice": "0x1f6d53bc",
      "l1GasUsed": "0x6cd"
    },
    {
      "status": "0x1",
      "cumulativeGasUsed": "0x23e5e7",
      "logs": [
        {
          "address": "0xca29f3a6f966cb2fc0de625f8f325c0c46dbe958",
          "topics": [
            "0xcd6f92f5ac6185a5acfa02c92090746cec64d777269cbcd0ed031e396657a1c2"
          ],
          "data": "0x000000000000000000000000c099ab708e20e8b25c63ca156d7cc94404c554160000000000000000000000000000000000000000000000000000000000007596000000000000000000000000473132bb594caef281c68718f4541f73fe14dc89",
          "blockHash": "0x89f152b618fc9f5e9538fc7eb73548327be04eec6ef219544e39ea8f576e1890",
          "blockNumber": "0xd7eb52",
          "transactionHash": "0x34b575420f49801b4dd15f0233359c2c49bd6b9e25d940f35909255b78d68ac9",
          "transactionIndex": "0xf",
          "logIndex": "0x1e",
          "removed": false
        },
        {
          "address": "0xca29f3a6f966cb2fc0de625f8f325c0c46dbe958",
          "topics": [
            "0x4e0a5bbfa0c11a64effb1ada324b5437a17272e1aed9320398715ef71bb20928"
          ],
          "data": "0x000000000000000000000000c099ab708e20e8b25c63ca156d7cc94404c55416000000000000000000000000000000000000000000000000000000000000759600000000000000000000000000000000000000000000000000000000000000000000000000000000000000000000000000000000000000000000000000000000",
          "blockHash": "0x89f152b618fc9f5e9538fc7eb73548327be04eec6ef219544e39ea8f576e1890",
          "blockNumber": "0xd7eb52",
          "transactionHash": "0x34b575420f49801b4dd15f0233359c2c49bd6b9e25d940f35909255b78d68ac9",
          "transactionIndex": "0xf",
          "logIndex": "0x1f",
          "removed": false
        }
      ],
      "logsBloom": "0x00000000000000000000020800000000000000000000000000000000000000220400000000000000000000000000000000000000000000000000000000000000000000000000000000000000000000000000000000800000040000000000000000000000000000000000000000000000000000000000000000010000000000100000000000000000000000000000000000000000000000000000000000000000000000000000000000000000000000000000000000000000000000000000000000000000000000000000000000000000000000000000000000000000000000000000000000000000000000000000000000000000000000000000000000000000",
      "type": "0x2",
      "transactionHash": "0x34b575420f49801b4dd15f0233359c2c49bd6b9e25d940f35909255b78d68ac9",
      "transactionIndex": "0xf",
      "blockHash": "0x89f152b618fc9f5e9538fc7eb73548327be04eec6ef219544e39ea8f576e1890",
      "blockNumber": "0xd7eb52",
      "gasUsed": "0xfba1",
      "effectiveGasPrice": "0xbe8",
      "from": "0x4c51ce7b2546e18449fbe16738a8d55bc195a4dd",
      "to": "0xca29f3a6f966cb2fc0de625f8f325c0c46dbe958",
      "contractAddress": null,
      "l1BaseFeeScalar": "0x558",
      "l1BlobBaseFee": "0x1",
      "l1BlobBaseFeeScalar": "0xc5fc5",
      "l1Fee": "0x4adaf085",
      "l1GasPrice": "0x1f6d53bc",
      "l1GasUsed": "0x6cd"
    },
    {
      "status": "0x1",
      "cumulativeGasUsed": "0x24e188",
      "logs": [
        {
          "address": "0xca29f3a6f966cb2fc0de625f8f325c0c46dbe958",
          "topics": [
            "0xcd6f92f5ac6185a5acfa02c92090746cec64d777269cbcd0ed031e396657a1c2"
          ],
          "data": "0x000000000000000000000000c099ab708e20e8b25c63ca156d7cc94404c554160000000000000000000000000000000000000000000000000000000000007595000000000000000000000000473132bb594caef281c68718f4541f73fe14dc89",
          "blockHash": "0x89f152b618fc9f5e9538fc7eb73548327be04eec6ef219544e39ea8f576e1890",
          "blockNumber": "0xd7eb52",
          "transactionHash": "0xc41966d8aff2793f12679fafaf4681641cef55b0a880fd3d79f5dd0574126564",
          "transactionIndex": "0x10",
          "logIndex": "0x20",
          "removed": false
        },
        {
          "address": "0xca29f3a6f966cb2fc0de625f8f325c0c46dbe958",
          "topics": [
            "0x4e0a5bbfa0c11a64effb1ada324b5437a17272e1aed9320398715ef71bb20928"
          ],
          "data": "0x000000000000000000000000c099ab708e20e8b25c63ca156d7cc94404c55416000000000000000000000000000000000000000000000000000000000000759500000000000000000000000000000000000000000000000000000000000000000000000000000000000000000000000000000000000000000000000000000000",
          "blockHash": "0x89f152b618fc9f5e9538fc7eb73548327be04eec6ef219544e39ea8f576e1890",
          "blockNumber": "0xd7eb52",
          "transactionHash": "0xc41966d8aff2793f12679fafaf4681641cef55b0a880fd3d79f5dd0574126564",
          "transactionIndex": "0x10",
          "logIndex": "0x21",
          "removed": false
        }
      ],
      "logsBloom": "0x00000000000000000000020800000000000000000000000000000000000000220400000000000000000000000000000000000000000000000000000000000000000000000000000000000000000000000000000000800000040000000000000000000000000000000000000000000000000000000000000000010000000000100000000000000000000000000000000000000000000000000000000000000000000000000000000000000000000000000000000000000000000000000000000000000000000000000000000000000000000000000000000000000000000000000000000000000000000000000000000000000000000000000000000000000000",
      "type": "0x2",
      "transactionHash": "0xc41966d8aff2793f12679fafaf4681641cef55b0a880fd3d79f5dd0574126564",
      "transactionIndex": "0x10",
      "blockHash": "0x89f152b618fc9f5e9538fc7eb73548327be04eec6ef219544e39ea8f576e1890",
      "blockNumber": "0xd7eb52",
      "gasUsed": "0xfba1",
      "effectiveGasPrice": "0xbe8",
      "from": "0x4c51ce7b2546e18449fbe16738a8d55bc195a4dd",
      "to": "0xca29f3a6f966cb2fc0de625f8f325c0c46dbe958",
      "contractAddress": null,
      "l1BaseFeeScalar": "0x558",
      "l1BlobBaseFee": "0x1",
      "l1BlobBaseFeeScalar": "0xc5fc5",
      "l1Fee": "0x4adaf085",
      "l1GasPrice": "0x1f6d53bc",
      "l1GasUsed": "0x6cd"
    },
    {
      "status": "0x1",
      "cumulativeGasUsed": "0x26decb",
      "logs": [
        {
          "address": "0xc099ab708e20e8b25c63ca156d7cc94404c55416",
          "topics": [
            "0xbe4864a8e820971c0247f5992e2da559595f7bf076a21cb5928d443d2a13b674"
          ],
          "data": "0x00000000000000000000000000000000000000000000000000000000000000200000000000000000000000000000000000000000000000000000000000000002000000000000000000000000000000000000000000000000000000000000004000000000000000000000000000000000000000000000000000000000000000e0000000000000000000000000000000000000000000000000000000000000769a0000000000000000000000000000000000000000000000000000000000000001000000000000000000000000000000000000000000000000000000000000006000000000000000000000000000000000000000000000000000000000000000160003010011010000000000000000000000000002981000000000000000000000000000000000000000000000000000000000000000000000000000000000769a00000000000000000000000000000000000000000000000000000000000000020000000000000000000000000000000000000000000000000000000000000060000000000000000000000000000000000000000000000000000000000000002c00030100110100000000000000000000000000029810010013030000000000000000000000000000000298100000000000000000000000000000000000000000",
          "blockHash": "0x89f152b618fc9f5e9538fc7eb73548327be04eec6ef219544e39ea8f576e1890",
          "blockNumber": "0xd7eb52",
          "transactionHash": "0x97e06b0e274497e5335068b795636732a7369144374514181e8c4cc8d0e1a1a1",
          "transactionIndex": "0x11",
          "logIndex": "0x22",
          "removed": false
        }
      ],
      "logsBloom": "0x00000000000000000000000000000000000000000000000000000000000000000000000000000000000000000000000000000000000000000000400000000000000000000000000000000000000000000000000000000000000000000000000000000000000000000000000000000000000000000000000000000000000000000000000000000000000000000000000000000000000000000000010000080000000000000000000000000800000000000000000000000000000000000000000000000000000000000000000002000000000000000000000000000000000000000000000000000000000000000000000000000000000000040000000000000000",
      "type": "0x2",
      "transactionHash": "0x97e06b0e274497e5335068b795636732a7369144374514181e8c4cc8d0e1a1a1",
      "transactionIndex": "0x11",
      "blockHash": "0x89f152b618fc9f5e9538fc7eb73548327be04eec6ef219544e39ea8f576e1890",
      "blockNumber": "0xd7eb52",
      "gasUsed": "0x1fd43",
      "effectiveGasPrice": "0xbe8",
      "from": "0x4c51ce7b2546e18449fbe16738a8d55bc195a4dd",
      "to": "0xc099ab708e20e8b25c63ca156d7cc94404c55416",
      "contractAddress": null,
      "l1BaseFeeScalar": "0x558",
      "l1BlobBaseFee": "0x1",
      "l1BlobBaseFeeScalar": "0xc5fc5",
      "l1Fee": "0x5efe9812",
      "l1GasPrice": "0x1f6d53bc",
      "l1GasUsed": "0x8a1"
    },
    {
      "status": "0x1",
      "cumulativeGasUsed": "0x28dc0e",
      "logs": [
        {
          "address": "0xc099ab708e20e8b25c63ca156d7cc94404c55416",
          "topics": [
            "0xbe4864a8e820971c0247f5992e2da559595f7bf076a21cb5928d443d2a13b674"
          ],
          "data": "0x00000000000000000000000000000000000000000000000000000000000000200000000000000000000000000000000000000000000000000000000000000002000000000000000000000000000000000000000000000000000000000000004000000000000000000000000000000000000000000000000000000000000000e000000000000000000000000000000000000000000000000000000000000075e8000000000000000000000000000000000000000000000000000000000000000100000000000000000000000000000000000000000000000000000000000000600000000000000000000000000000000000000000000000000000000000000016000301001101000000000000000000000000000298100000000000000000000000000000000000000000000000000000000000000000000000000000000075e800000000000000000000000000000000000000000000000000000000000000020000000000000000000000000000000000000000000000000000000000000060000000000000000000000000000000000000000000000000000000000000002c00030100110100000000000000000000000000029810010013030000000000000000000000000000000298100000000000000000000000000000000000000000",
          "blockHash": "0x89f152b618fc9f5e9538fc7eb73548327be04eec6ef219544e39ea8f576e1890",
          "blockNumber": "0xd7eb52",
          "transactionHash": "0x14fd66af615067e716749a7630c4fa6146b2f8d042aedb8bf6bdc0010ee11cf1",
          "transactionIndex": "0x12",
          "logIndex": "0x23",
          "removed": false
        }
      ],
      "logsBloom": "0x00000000000000000000000000000000000000000000000000000000000000000000000000000000000000000000000000000000000000000000400000000000000000000000000000000000000000000000000000000000000000000000000000000000000000000000000000000000000000000000000000000000000000000000000000000000000000000000000000000000000000000000010000080000000000000000000000000800000000000000000000000000000000000000000000000000000000000000000002000000000000000000000000000000000000000000000000000000000000000000000000000000000000040000000000000000",
      "type": "0x2",
      "transactionHash": "0x14fd66af615067e716749a7630c4fa6146b2f8d042aedb8bf6bdc0010ee11cf1",
      "transactionIndex": "0x12",
      "blockHash": "0x89f152b618fc9f5e9538fc7eb73548327be04eec6ef219544e39ea8f576e1890",
      "blockNumber": "0xd7eb52",
      "gasUsed": "0x1fd43",
      "effectiveGasPrice": "0xbe8",
      "from": "0x4c51ce7b2546e18449fbe16738a8d55bc195a4dd",
      "to": "0xc099ab708e20e8b25c63ca156d7cc94404c55416",
      "contractAddress": null,
      "l1BaseFeeScalar": "0x558",
      "l1BlobBaseFee": "0x1",
      "l1BlobBaseFeeScalar": "0xc5fc5",
      "l1Fee": "0x5efe9812",
      "l1GasPrice": "0x1f6d53bc",
      "l1GasUsed": "0x8a1"
    },
    {
      "status": "0x1",
      "cumulativeGasUsed": "0x2ad951",
      "logs": [
        {
          "address": "0xc099ab708e20e8b25c63ca156d7cc94404c55416",
          "topics": [
            "0xbe4864a8e820971c0247f5992e2da559595f7bf076a21cb5928d443d2a13b674"
          ],
          "data": "0x00000000000000000000000000000000000000000000000000000000000000200000000000000000000000000000000000000000000000000000000000000002000000000000000000000000000000000000000000000000000000000000004000000000000000000000000000000000000000000000000000000000000000e0000000000000000000000000000000000000000000000000000000000000759f0000000000000000000000000000000000000000000000000000000000000001000000000000000000000000000000000000000000000000000000000000006000000000000000000000000000000000000000000000000000000000000000160003010011010000000000000000000000000002981000000000000000000000000000000000000000000000000000000000000000000000000000000000759f00000000000000000000000000000000000000000000000000000000000000020000000000000000000000000000000000000000000000000000000000000060000000000000000000000000000000000000000000000000000000000000002c00030100110100000000000000000000000000029810010013030000000000000000000000000000000298100000000000000000000000000000000000000000",
          "blockHash": "0x89f152b618fc9f5e9538fc7eb73548327be04eec6ef219544e39ea8f576e1890",
          "blockNumber": "0xd7eb52",
          "transactionHash": "0xaf3451261d418165cbd33a9ebb1513a385e8cc8257d3da445142af0d37440037",
          "transactionIndex": "0x13",
          "logIndex": "0x24",
          "removed": false
        }
      ],
      "logsBloom": "0x00000000000000000000000000000000000000000000000000000000000000000000000000000000000000000000000000000000000000000000400000000000000000000000000000000000000000000000000000000000000000000000000000000000000000000000000000000000000000000000000000000000000000000000000000000000000000000000000000000000000000000000010000080000000000000000000000000800000000000000000000000000000000000000000000000000000000000000000002000000000000000000000000000000000000000000000000000000000000000000000000000000000000040000000000000000",
      "type": "0x2",
      "transactionHash": "0xaf3451261d418165cbd33a9ebb1513a385e8cc8257d3da445142af0d37440037",
      "transactionIndex": "0x13",
      "blockHash": "0x89f152b618fc9f5e9538fc7eb73548327be04eec6ef219544e39ea8f576e1890",
      "blockNumber": "0xd7eb52",
      "gasUsed": "0x1fd43",
      "effectiveGasPrice": "0xbe8",
      "from": "0x4c51ce7b2546e18449fbe16738a8d55bc195a4dd",
      "to": "0xc099ab708e20e8b25c63ca156d7cc94404c55416",
      "contractAddress": null,
      "l1BaseFeeScalar": "0x558",
      "l1BlobBaseFee": "0x1",
      "l1BlobBaseFeeScalar": "0xc5fc5",
      "l1Fee": "0x5efe9812",
      "l1GasPrice": "0x1f6d53bc",
      "l1GasUsed": "0x8a1"
    }
  ],
  "libraries": [],
  "pending": [],
  "returns": {},
  "timestamp": 1747649137,
  "chain": 57073,
  "commit": "26a0814"
}