{
  "transactions": [
    {
      "hash": "0x0c71b7def8c81bad4ae44ed8b6864a3e890b5ea5d8f5c77007d968e659bfa12f",
      "transactionType": "CALL",
      "contractName": null,
      "contractAddress": "0xc099ab708e20e8b25c63ca156d7cc94404c55416",
      "function": "setRateLimits((uint32,uint256,uint256)[])",
      "arguments": [
        "[(30101, 100000000000000000000000000, 3600), (30362, 100000000000000000000000000, 3600), (30184, 100000000000000000000000000, 3600), (30111, 100000000000000000000000000, 3600), (30110, 100000000000000000000000000, 3600), (30102, 100000000000000000000000000, 3600), (30339, 100000000000000000000000000, 3600)]"
      ],
      "transaction": {
        "from": "0x4c51ce7b2546e18449fbe16738a8d55bc195a4dd",
        "to": "0xc099ab708e20e8b25c63ca156d7cc94404c55416",
        "gas": "0x2c445",
        "value": "0x0",
        "input": "0x46f943e900000000000000000000000000000000000000000000000000000000000000200000000000000000000000000000000000000000000000000000000000000007000000000000000000000000000000000000000000000000000000000000759500000000000000000000000000000000000000000052b7d2dcc80cd2e40000000000000000000000000000000000000000000000000000000000000000000e10000000000000000000000000000000000000000000000000000000000000769a00000000000000000000000000000000000000000052b7d2dcc80cd2e40000000000000000000000000000000000000000000000000000000000000000000e1000000000000000000000000000000000000000000000000000000000000075e800000000000000000000000000000000000000000052b7d2dcc80cd2e40000000000000000000000000000000000000000000000000000000000000000000e10000000000000000000000000000000000000000000000000000000000000759f00000000000000000000000000000000000000000052b7d2dcc80cd2e40000000000000000000000000000000000000000000000000000000000000000000e10000000000000000000000000000000000000000000000000000000000000759e00000000000000000000000000000000000000000052b7d2dcc80cd2e40000000000000000000000000000000000000000000000000000000000000000000e10000000000000000000000000000000000000000000000000000000000000759600000000000000000000000000000000000000000052b7d2dcc80cd2e40000000000000000000000000000000000000000000000000000000000000000000e10000000000000000000000000000000000000000000000000000000000000768300000000000000000000000000000000000000000052b7d2dcc80cd2e40000000000000000000000000000000000000000000000000000000000000000000e10",
        "nonce": "0x9d",
        "chainId": "0xdef1"
      },
      "additionalContracts": [],
      "isFixedGasLimit": false
    },
    {
      "hash": "0x987f092626e9c1afc351c52b847b4e92624e48b6d5e55e98321606490a09199e",
      "transactionType": "CALL",
      "contractName": null,
      "contractAddress": "0xc099ab708e20e8b25c63ca156d7cc94404c55416",
      "function": "setEnforcedOptions((uint32,uint16,bytes)[])",
      "arguments": [
        "[(30110, 1, 0x00030100110100000000000000000000000000029810), (30110, 2, 0x0003010011010000000000000000000000000002981001001303000000000000000000000000000000029810)]"
      ],
      "transaction": {
        "from": "0x4c51ce7b2546e18449fbe16738a8d55bc195a4dd",
        "to": "0xc099ab708e20e8b25c63ca156d7cc94404c55416",
        "gas": "0x2e8cb",
        "value": "0x0",
        "input": "0xb98bd07000000000000000000000000000000000000000000000000000000000000000200000000000000000000000000000000000000000000000000000000000000002000000000000000000000000000000000000000000000000000000000000004000000000000000000000000000000000000000000000000000000000000000e0000000000000000000000000000000000000000000000000000000000000759e0000000000000000000000000000000000000000000000000000000000000001000000000000000000000000000000000000000000000000000000000000006000000000000000000000000000000000000000000000000000000000000000160003010011010000000000000000000000000002981000000000000000000000000000000000000000000000000000000000000000000000000000000000759e00000000000000000000000000000000000000000000000000000000000000020000000000000000000000000000000000000000000000000000000000000060000000000000000000000000000000000000000000000000000000000000002c00030100110100000000000000000000000000029810010013030000000000000000000000000000000298100000000000000000000000000000000000000000",
        "nonce": "0x9e",
        "chainId": "0xdef1"
      },
      "additionalContracts": [],
      "isFixedGasLimit": false
    }
  ],
  "receipts": [
    {
      "status": "0x1",
      "cumulativeGasUsed": "0xa799a0",
      "logs": [
        {
          "address": "0xc099ab708e20e8b25c63ca156d7cc94404c55416",
          "topics": [
            "0xe888347665897e637801f36c5129f510657276178c89022bc5fa0246dbc19de1"
          ],
          "data": "0x00000000000000000000000000000000000000000000000000000000000000200000000000000000000000000000000000000000000000000000000000000007000000000000000000000000000000000000000000000000000000000000759500000000000000000000000000000000000000000052b7d2dcc80cd2e40000000000000000000000000000000000000000000000000000000000000000000e10000000000000000000000000000000000000000000000000000000000000769a00000000000000000000000000000000000000000052b7d2dcc80cd2e40000000000000000000000000000000000000000000000000000000000000000000e1000000000000000000000000000000000000000000000000000000000000075e800000000000000000000000000000000000000000052b7d2dcc80cd2e40000000000000000000000000000000000000000000000000000000000000000000e10000000000000000000000000000000000000000000000000000000000000759f00000000000000000000000000000000000000000052b7d2dcc80cd2e40000000000000000000000000000000000000000000000000000000000000000000e10000000000000000000000000000000000000000000000000000000000000759e00000000000000000000000000000000000000000052b7d2dcc80cd2e40000000000000000000000000000000000000000000000000000000000000000000e10000000000000000000000000000000000000000000000000000000000000759600000000000000000000000000000000000000000052b7d2dcc80cd2e40000000000000000000000000000000000000000000000000000000000000000000e10000000000000000000000000000000000000000000000000000000000000768300000000000000000000000000000000000000000052b7d2dcc80cd2e40000000000000000000000000000000000000000000000000000000000000000000e10",
          "blockHash": "0x6301cfb2dc525b42847329bce8bac2b205b2dba1d554360fbf581e8efa5952cd",
          "blockNumber": "0xd81522",
          "transactionHash": "0x0c71b7def8c81bad4ae44ed8b6864a3e890b5ea5d8f5c77007d968e659bfa12f",
          "transactionIndex": "0x6",
          "logIndex": "0x1",
          "removed": false
        }
      ],
      "logsBloom": "0x00000000000000000000000000000000000000000000000000000000000000000000000000000000000000000000000000000000000000000000000000000000000000000000000000000000000000000000000000000000000000000000000000000000000000000000000000000000000000000000000000000000000000000000000000000000000000000000000000000000000020000000010000000004000000000000000000000800000000000000000000000000000000000000000000000000000000000000000000000000000000000000000000000000000000000000000000000000000000000000000000000000000000040000000000000000",
      "type": "0x2",
      "transactionHash": "0x0c71b7def8c81bad4ae44ed8b6864a3e890b5ea5d8f5c77007d968e659bfa12f",
      "transactionIndex": "0x6",
      "blockHash": "0x6301cfb2dc525b42847329bce8bac2b205b2dba1d554360fbf581e8efa5952cd",
      "blockNumber": "0xd81522",
      "gasUsed": "0x200c7",
      "effectiveGasPrice": "0xb89",
      "from": "0x4c51ce7b2546e18449fbe16738a8d55bc195a4dd",
      "to": "0xc099ab708e20e8b25c63ca156d7cc94404c55416",
      "contractAddress": null,
      "l1BaseFeeScalar": "0x558",
      "l1BlobBaseFee": "0x1",
      "l1BlobBaseFeeScalar": "0xc5fc5",
      "l1Fee": "0x10c105c15",
      "l1GasPrice": "0x5235c6a1",
      "l1GasUsed": "0x94f"
    },
    {
      "status": "0x1",
      "cumulativeGasUsed": "0xa996e3",
      "logs": [
        {
          "address": "0xc099ab708e20e8b25c63ca156d7cc94404c55416",
          "topics": [
            "0xbe4864a8e820971c0247f5992e2da559595f7bf076a21cb5928d443d2a13b674"
          ],
          "data": "0x00000000000000000000000000000000000000000000000000000000000000200000000000000000000000000000000000000000000000000000000000000002000000000000000000000000000000000000000000000000000000000000004000000000000000000000000000000000000000000000000000000000000000e0000000000000000000000000000000000000000000000000000000000000759e0000000000000000000000000000000000000000000000000000000000000001000000000000000000000000000000000000000000000000000000000000006000000000000000000000000000000000000000000000000000000000000000160003010011010000000000000000000000000002981000000000000000000000000000000000000000000000000000000000000000000000000000000000759e00000000000000000000000000000000000000000000000000000000000000020000000000000000000000000000000000000000000000000000000000000060000000000000000000000000000000000000000000000000000000000000002c00030100110100000000000000000000000000029810010013030000000000000000000000000000000298100000000000000000000000000000000000000000",
          "blockHash": "0x6301cfb2dc525b42847329bce8bac2b205b2dba1d554360fbf581e8efa5952cd",
          "blockNumber": "0xd81522",
          "transactionHash": "0x987f092626e9c1afc351c52b847b4e92624e48b6d5e55e98321606490a09199e",
          "transactionIndex": "0x7",
          "logIndex": "0x2",
          "removed": false
        }
      ],
      "logsBloom": "0x00000000000000000000000000000000000000000000000000000000000000000000000000000000000000000000000000000000000000000000400000000000000000000000000000000000000000000000000000000000000000000000000000000000000000000000000000000000000000000000000000000000000000000000000000000000000000000000000000000000000000000000010000080000000000000000000000000800000000000000000000000000000000000000000000000000000000000000000002000000000000000000000000000000000000000000000000000000000000000000000000000000000000040000000000000000",
      "type": "0x2",
      "transactionHash": "0x987f092626e9c1afc351c52b847b4e92624e48b6d5e55e98321606490a09199e",
      "transactionIndex": "0x7",
      "blockHash": "0x6301cfb2dc525b42847329bce8bac2b205b2dba1d554360fbf581e8efa5952cd",
      "blockNumber": "0xd81522",
      "gasUsed": "0x1fd43",
      "effectiveGasPrice": "0xb89",
      "from": "0x4c51ce7b2546e18449fbe16738a8d55bc195a4dd",
      "to": "0xc099ab708e20e8b25c63ca156d7cc94404c55416",
      "contractAddress": null,
      "l1BaseFeeScalar": "0x558",
      "l1BlobBaseFee": "0x1",
      "l1BlobBaseFeeScalar": "0xc5fc5",
      "l1Fee": "0xf87f0592",
      "l1GasPrice": "0x5235c6a1",
      "l1GasUsed": "0x8a1"
    }
  ],
  "libraries": [],
  "pending": [],
  "returns": {},
  "timestamp": 1747659598,
  "chain": 57073,
  "commit": "26a0814"
}